:020000040800F2
:10000000F025012029020008370200083902000803
:100010003B0200083D0200083F020008000000000B
:100020000000000000000000000000004102000885
:1000300043020008000000004502000847020008D3
:100040004902000849020008490200084902000864
:100050004902000849020008490200084902000854
:1000600049020008ED04000849020008490200089E
:100070004902000849020008490200084902000834
:100080004902000849020008490200084902000824
:100090004902000849020008490200084505000815
:1000A0004902000849020008490200084902000804
:1000B00049020008451700084902000849020008E3
:1000C00049020008490200084902000849020008E4
:1000D00049020008FD17000849020008490200080B
:1000E00049020008490200084902000849020008C4
:1000F00049020008490200084902000849020008B4
:1001000049020008490200084902000849020008A3
:100110004902000849020008490200084902000893
:100120004902000849020008490200084902000883
:100130004902000849020008490200084902000873
:100140004902000849020008490200084902000863
:100150004902000849020008490200084902000853
:100160004902000849020008490200084902000843
:100170004902000849020008490200084902000833
:10018000490200084902000800F002F800F03CF8BB
:100190000AA090E8000C82448344AAF10107DA45E2
:1001A00001D100F031F8AFF2090EBAE80F0013F0F8
:1001B000010F18BFFB1A43F0010318471430000069
:1001C00034300000103A24BF78C878C1FAD85207FA
:1001D00024BF30C830C144BF04680C6070470000C1
:1001E0000023002400250026103A28BF78C1FBD840
:1001F000520728BF30C148BF0B6070471FB502F0DF
:100200002FFE1FBD10B510BD00F0A2F81146FFF77C
:10021000F5FF02F0F9F800F0C0F803B4FFF7F2FFC1
:1002200003BC01F0F1FF00000B48016841F47001CC
:1002300001600A480047FEE7FEE7FEE7FEE7FEE74B
:10024000FEE7FEE7FEE7FEE7FEE70000044805499B
:10025000034A054B7047000088ED00E08901000863
:10026000F0210120F0250120F0210120704710B578
:10027000203AC0F00B80B1E81850203AA0E818509E
:10028000B1E81850A0E81850BFF4F5AF5FEA027C5F
:1002900024BFB1E81850A0E8185044BF18C918C0CE
:1002A000BDE810405FEA827C24BF51F8043B40F86F
:1002B000043B08BF7047D20728BF31F8023B48BF54
:1002C00011F8012B28BF20F8023B48BF00F8012B92
:1002D00070474FF0000200B5134694469646203909
:1002E00022BFA0E80C50A0E80C50B1F12001BFF4EF
:1002F000F7AF090728BFA0E80C5048BF0CC05DF855
:1003000004EB890028BF40F8042B08BF704748BFA2
:1003100020F8022B11F0804F18BF00F8012B704716
:10032000704770477047704710B500F009F80068D3
:1003300010BD10B5044600F003F8046010BD0000C5
:10034000004870478C210120004870478C21012013
:100350007546FFF7F9FFAE4605006946534620F0A3
:100360000700854618B020B5FFF770FFBDE82040B4
:100370004FF000064FF000074FF000084FF0000B61
:1003800021F00701AC46ACE8C009ACE8C009ACE814
:10039000C009ACE8C0098D4670470446AFF3008041
:1003A0002046FFF73AFF00002DE9F05F0746884638
:1003B0000026B24672B60020444908604449C1F89C
:1003C00084020120434908600020086001203F4961
:1003D00008603F49C1F88402002565E000245EE022
:1003E00000203C4908603C48006800F0FF090120FB
:1003F0003749C1F884020020364908600120344999
:10040000C1F88402EA1705EB92729210A5EB820202
:10041000AABBE21704EB92729210A4EB820272BBA9
:100420004FEAE47C04EB9C7C4FEAAC0CBC4534DB2B
:100430004FEAE57C05EB9C7C4FEAAC0CC4452CDB19
:100440004FEAE47C04EB9C7C4FEAAC0B07F1500CC8
:10045000E34522DA4FEAE57C05EB9C7C4FEAAC0BE6
:1004600008F13C0CE34518DA502E09DA0AEB8A0051
:100470001A4901EB001000F80690701C86B20CE0DF
:1004800000260AF101001FFA80FA0AEB8A001349DC
:1004900001EB001000F80690761C601C84B2B4F5E5
:1004A000A07F9DDB681C85B2F02D97DB4FF4965240
:1004B0000A490B48FFF7DBFE4FF40070094908605A
:1004C00000200949087062B6BDE8F09F94024242DC
:1004D000000041428402414210140240A425002041
:1004E00024000020143C01402200002010B56420AC
:1004F00001F026FF0F480068012806D100200D49B1
:100500007C3108600C49087010E00C48008840F00D
:1005100001000A490880142001F012FF074810303A
:10052000008820F0010005491031088008200449A6
:10053000086010BD0C8241421C00002000040040F5
:10054000143C014010B50F48006800F40070A0B1E1
:1005500000200D490860012001F00EFF01200B4929
:10056000C1F88C020A49C1F88C020A480078401C84
:1005700008490870C82001F0FFFE4FF400700149DF
:10058000086010BD143C01408C024242000042420F
:10059000000041422200002010B50222092105205E
:1005A00000F014F8022317220021084600F048FD4D
:1005B00010BD10B502220321084600F007F80223FF
:1005C00009220021012000F03BFD10BDF0B50346DB
:1005D0000846CD1701EB9575AD10A1EB8505AD066D
:1005E0002C0E2448006840F48040224D2860CD172E
:1005F00001EB9575AE10204D55F826500F26A640FC
:10060000B5430846CE1701EB9676B7101A4E46F85A
:100610002750CD1701EB9575AE10174D55F82650A4
:1006200003FA04F63543CE1701EB9676B710124E57
:1006300046F827501148006801258D4028430F4D8A
:10064000286002F0010040B10C480C300068012520
:100650008D402843094D0C35286002F0020040B15E
:1006600006480830006801258D402843034D0835B1
:100670002860F0BD4438024008380140003C014089
:1006800030B5CC1000F1200353F824304C07E50EB0
:100690000F24AC40A343CD1000F1200444F82530D2
:1006A000CC1000F1200353F824304C07E40E02FA7A
:1006B00004F42343CD1000F1200444F8253030BD6C
:1006C0002DE9F0470C46DDE90867002100258C463E
:1006D00000BF60E04FF0010808FA01F504EA050CDC
:1006E000AC4557D1D0F800804FEA410A4FF00309DA
:1006F00009FA0AF928EA0908C0F80080D0F8008051
:100700004FEA410902FA09F948EA0908C0F80080ED
:10071000012A01D0022A27D1D0F808804FEA410AE5
:100720004FF0030909FA0AF928EA0908C0F8088015
:10073000D0F808804FEA410906FA09F948EA0908A1
:10074000C0F80880D0F804904FF0010808FA01F8CA
:1007500029EA0809C0F80490D0F8048003FA01F9E6
:1007600048EA0908C0F80480D0F80C804FEA410A32
:100770004FF0030909FA0AF928EA0908C0F80C80C1
:10078000D0F80C804FEA410907FA09F948EA09084C
:10079000C0F80C80491C10299CD3BDE8F0870000EC
:1007A0001CB50E48006840F008000C4908600120A4
:1007B000032100230246CDE9001004210848FFF779
:1007C0007FFF002000900346024608210190044864
:1007D000FFF776FF0020034908601CBD3038024057
:1007E000000C0240888241422DE9F0474FF0000A98
:1007F000D046C146002700F0C9F900242AE00025B0
:1008000025E00A2620E004EBC400C0EB841029494F
:1008100001EB001005EB450101EBC5010844805DCB
:10082000504510DB04EBC400C0EB8410214901EB00
:10083000001005EB450101EBC501084410F806A0C6
:10084000A046A9463746761E002EDCDA6D1C502DD8
:10085000D7DB641C3C2CD2DB08EBC800C0EB881053
:10086000144901EB001009EB490101EBC9010844EF
:10087000C05D0D280DDB1048C0F800900F48C0F88F
:10088000008007F10F000E49086001200D49087033
:1008900008E0002008490860084908600849086025
:1008A000084908704CF640610248FFF712FDBDE8A8
:1008B000F0870000284B00200000002004000020EA
:1008C000080000201C0000202DE9F04F2DED0C8BBE
:1008D00083B04FF00009CA46CB469FEDA10BB0EEA6
:1008E000408AF0EE608A002001900024CBE00025D1
:1008F000C5E09D4A1268A21A52439C4B1B68EB1A32
:10090000DFF868C2DCF800C0A5EB0C0C03FB0C237D
:10091000974A1268521C524393427DDC924A1268F5
:10092000A01A002801DB024600E04242904B196801
:1009300001EBD1735B109A426EDA04EB84008D49AF
:1009400001EB0010405DFF2866D1002693E00020F7
:1009500002908AE0029802F064F841EC1A0B9FEDD5
:10096000860B53EC102B02F087F841EC190B9FED2E
:10097000840B53EC102B01F0CDFE41EC180BB0EEC4
:10098000480AF0EE680A00F063FFB0EE40CAF0EEED
:1009900060CA774909680939881902F042F841ECC0
:1009A0001D0B53EC1C2B02F067F841EC1A0B204690
:1009B00002F037F841EC1B0B53EC1A2B02F066F9EE
:1009C00041EC190B01F0FEFF8046B0EE480AF0EE54
:1009D000680A00F0A1FFB0EE40CAF0EE60CA6449B8
:1009E00009680939881902F01CF841EC1D0B53EC19
:1009F0001C2B02F041F841EC1A0B284602F011F8CA
:100A000041EC1B0B53EC1A2B02F040F941EC190B93
:100A100001F0D8FF074600E030E0B8F1000F21DD1B
:100A2000B8F13C0F1EDA002F1CDD502F1ADA08EB4C
:100A3000C800C0EB8810544901EB001007EB4701D8
:100A400001EBC7010844805D401C08EBC801C1EB05
:100A500088114D4A02EB011107EB470202EBC70276
:100A60001144885502980A3002900298B0F5B47F7C
:100A70007FF770AF761C0A2EFFF669AF6D1C502D04
:100A8000FFF637AF641C3C2CFFF631AF00244FE07B
:100A900000254AE0344A1268A21A5243334B1B68BD
:100AA000EB1ADFF8C8C0DCF800C0A5EB0C0C03FBA8
:100AB0000C232F4A1268521C5243934234DC2A4AB8
:100AC0001268A01A002801DB024600E04242284BCF
:100AD000196801EBD1735B109A4225DA092621E0EF
:100AE00004EBC400C0EB8410274901EB001005EBB8
:100AF000450101EBC5010844815D0198814210DB8D
:100B000004EBC400C0EB84101F4901EB001005EB9F
:100B1000450101EBC5010844805D0190AA46A1464C
:100B2000B346761E002EDBDA6D1C502DB2DB641C42
:100B30003C2CADDB0D48C0F800A00B48C0F800907D
:100B40000B48006809385844094908604BF6803161
:100B50000D48FFF7BEFB03B0BDEC0C8BBDE8F08F7A
:100B60000000000000000000040000200000002041
:100B700008000020A42500204AD8124DFB2109407E
:100B80000000000000806640284B00202DE9F0475F
:100B90002DED0C8B9FED590BB0EE408AF0EE608A84
:100BA0000027A3E04FF000089BE007EB87005549C2
:100BB00001EB001010F80800FF287DD100248BE025
:100BC0004FF0000983E0484601F02BFF41EC1A0B7F
:100BD0009FED4D0B53EC102B01F04EFF41EC190B28
:100BE0009FED4B0B53EC102B01F094FD41EC180BD7
:100BF000B0EE480AF0EE680A00F02AFEB0EE40CAF5
:100C0000F0EE60CA04F10F0001F00BFF41EC1D0B88
:100C100053EC1C2B01F030FF41EC1A0B384601F06D
:100C200000FF41EC1B0B53EC1A2B02F02FF841ECA8
:100C3000190B01F0C7FE0646B0EE480AF0EE680A4E
:100C400000F06AFEB0EE40CAF0EE60CA04F10F0098
:100C500001F0E7FE41EC1D0B53EC1C2B01F00CFFE7
:100C600041EC1A0B404601F0DCFE41EC1B0B53EC4F
:100C70001A2B02F00BF841EC190B01F0A3FE05460C
:100C8000002E22DD3C2E20DA002D1EDD502D1CDA38
:100C900006EBC600C0EB86101F4901EB001005EB08
:100CA000450101EBC5010844005D401C06EBC6018F
:100CB000C1EB8611184A00E011E002EB011105EBCF
:100CC000450202EBC5021144085509F10A09B9F5BC
:100CD000B47F7FF778AF641C0B2CFFF671AF08F17F
:100CE0000108B8F1500FFFF660AF7F1C3C2FFFF6F4
:100CF00059AFBDEC0C8BBDE8F08700000000000090
:100D000000000000A42500204AD8124DFB21094014
:100D10000000000000806640284B002010B5074806
:100D2000007807490870074800784870064800783E
:100D30008870064801F07CFB10BD00000000002018
:100D4000643800200400002008000020A4250020B2
:100D50002DE9F0414FF4965264496548FFF787FA50
:100D6000012492E001258CE0611C01EB8101604AC5
:100D700002EB0112691E525C611C01EB81015C4BAC
:100D800003EB0111495D022313FB0122611C01EBFE
:100D90008101574B03EB0113691C595C0A44611E26
:100DA00001EB8101524B03EB0113691E5B5C611E79
:100DB00001EB8101DFF838C10CEB0111495D4FF007
:100DC000020C1CFB0133611E01EB8101DFF820C125
:100DD0000CEB011C691C1CF801101944501A002866
:100DE00001DB014600E04142CFB2611E01EB81010F
:100DF0003F4A02EB0112691E525C04EB84013C4B3A
:100E000003EB0113691E595C022313FB0122611CD1
:100E100001EB8101364B03EB0113691E595C0A4457
:100E2000611E01EB8101324B03EB0113691C5B5C1A
:100E300004EB8401DFF8B8C00CEB011C691C1CF842
:100E400001104FF0020C1CFB0133611C01EB81010E
:100E5000DFF89CC00CEB011C691C1CF80110194444
:100E6000501A002801DB014600E0414201F0FF0872
:100E700007EB080004EB84011C4A02EB0111485502
:100E80006D1C4F2DFFF670AF641C3B2CFFF66AAF54
:100E90009FED180A01F0EEF9064601241CE0012539
:100EA00017E004EB8400114901EB0010405DB042F3
:100EB00007DDFF2004EB84010C4A02EB01114855C9
:100EC00006E0002004EB8401084A02EB01114855BA
:100ED0006D1C4F2DE5DB641C3B2CE0DB4FF4965181
:100EE0000348FFF7F6F9BDE8F0810000A4250020D3
:100EF000E41200208FC2753D2DE9F0410C461546E5
:100F0000069E444FB84209D93946434F3F6847F4DB
:100F10008007DFF804C1CCF8007008E03F493E4F7D
:100F20003F6847F40017DFF8F0C0CCF8007000BF4E
:100F3000076807F00107002FFAD1471A103F4FF05A
:100F4000180CB7FBFCF7FAB2062A10DBCF68A2F147
:100F5000060C0CEB4C0C4FEA4C0C0CF1100C4FF047
:100F60003D0808FA0CF847EA0807CF602FE0042A8A
:100F70000EDBCF68A2F1040C0CEB4C0C4FEA4C08D2
:100F80004FF03D0C0CFA08FC47EA0C07CF601EE05E
:100F9000022A10DB8F68A2F1020C0CEB4C0C4FEA1A
:100FA0004C0C0CF1100C4FF03D0808FA0CF847EA15
:100FB00008078F600BE08F6802EB420C4FEA4C0889
:100FC0004FF03D0C0CFA08FC47EA0C078F60856077
:100FD000C360466000270760076847F04007076066
:100FE0000768076007680760076847F4806707605D
:100FF0000768076007680760076847F4803707607D
:101000000768076007680760076847EA4467076082
:10101000BDE8F081006402403038024000600240C8
:10102000026822F00102026000BF026802F00102C1
:10103000002AFAD14160026842F001020260704762
:101040002DE9F0410746884614461D46284600F023
:1010500033F8C5F1040007FA00F60F20284100EA32
:101060000800064306F00F06E21704EBD2625211A5
:10107000920002F1E022D2F800212146E31704EBAE
:10108000D3635B11A4EB431C012303FA0CF31A4353
:101090002046E31704EBD3635B119B0003F1E023CD
:1010A000C3F800210348005D40EA061001490855D5
:1010B000BDE8F08100E400E00146072323EA0102D5
:1010C0001202054B18684FF6FF031840034B1843F4
:1010D0001043014B186070470CED00E00000FA056A
:1010E0004A0A52020243014B1A60704708ED00E0C1
:1010F0007CB500254C48006840F001004A49086072
:101100000846006840F0040008600846006840F0A7
:10111000100008600846006840F0200008600220C7
:1011200000210B460A46CDE9001001023F48FFF7B7
:10113000C7FA3E481430006840F400703B4914314F
:1011400008600120032100230246CDE900100A2196
:101150003748FFF7B5FA36481430006840F00A0007
:10116000334914310860022000210B460A46CDE9BC
:101170000010FF212D48FFF7A3FA2C481430006817
:1011800040F0FF00294914310860012003210023A9
:101190000246CDE9001028212648FFF791FA25489C
:1011A000406940F0280023494861012003210023C1
:1011B0000246CDE9001041031D48FFF781FA4FF4C4
:1011C00000501B491431086000F0ACF88021122057
:1011D00000F0D6F908B101207CBD322001F0B0F852
:1011E0000B2000F01DF90446732C01D00220F3E718
:1011F0000A2000F015F90446762C01D00220EBE716
:1012000000250DE00C4A02EB450251780A4A12F81B
:10121000150000F0B5F9022001F092F8681C85B2C3
:10122000AE2DEFD30020D7E7303802400014024043
:101230000008024000100240502F00082DE9F04144
:101240000446E72500260027012C06D0022C08D0F2
:10125000032C0AD0042C10D10BE0E5255A265C277C
:101260000BE0E5255826602707E0E52584264C2776
:1012700003E0E5259626402700BF00BF294613203E
:1012800000F07EF93146012000F07AF9394602205B
:1012900000F076F9BDE8F0812DE9F04705460E46ED
:1012A0009046994605EB48001FFA80FA06EB490084
:1012B00087B2B7F5447F02DDA7F5447087B20320FB
:1012C00000F0AEF8044604F0F0040AF003012846EA
:1012D00061F39F0004432146032000F051F9C5F358
:1012E0008701192000F04CF9CAF387011A2000F099
:1012F00047F9322000F094F8044604F0C00407F0E7
:101300000701304661F3DF000443C6F3C70117202D
:1013100000F036F9C7F3C701182000F031F9BDE835
:10132000F08700001CB51048006840F010000E491E
:1013300008600120022100230246CDE9001050215F
:101340000A48FFF7BDF90948406940F050000749D5
:1013500048610846006820F440500860084600686C
:1013600040F4805008601CBD30380240001002403C
:1013700010B5782001F000F801200B4908600B49F6
:10138000C1F89002782000F0F7FF002006490839E4
:101390000860782000F0F0FF00200449C1F89802AE
:1013A000782000F0E9FF10BD98024242000042425E
:1013B00070B500241748006820F4405015490860B3
:1013C000084600680860082515E0782000F0D4FF82
:1013D0000120114908606006040E1048D0F8180278
:1013E00008B1601CC4B2782000F0C6FF00200A4992
:1013F0000860681EC5B2002DE7DC0648006820F4CE
:101400004050044908600846006840F48050086075
:10141000204670BD0010024090024242000042424D
:1014200070B50446002500F023F8422000F054F87F
:10143000DC2000F0A1FF204600F04EF8DC2000F098
:101440009BFF00F02FF8DC2000F096FF00F010F872
:10145000432000F041F8DC2000F08EFFFFF7A8FFEA
:101460000546FFF785FF00F01DF8284670BD000017
:1014700010B50120094908600949C1F89002782097
:1014800000F07AFF002005490860782000F074FF22
:1014900000200349C1F8900210BD000098024242AA
:1014A0000000424210B5002009490860782000F091
:1014B00063FF01200749C1F89002782000F05CFF2B
:1014C000012003490860782000F056FF10BD00009D
:1014D000980242420000424270B5044600261BE0DA
:1014E00004F0800018B101202249086002E00020C9
:1014F000204908606006040E782000F03DFF0120BE
:101500001C4908390860782000F036FF00201A498D
:10151000C1F89002701CC6B2082EE1DB17480068C3
:1015200020F440501549086008460068086078209B
:1015300000F022FF01200F4908390860782000F0F0
:101540001BFF0D48D0F8180208B1012500E0002566
:1015500000200849083908600848006820F4405015
:10156000064908600846006840F480500860284634
:1015700070BD00009802424200004242001002404A
:1015800070B505460C460026FFF772FF4220FFF7B4
:10159000A3FF00B10126DC2000F0EEFE2846FFF795
:1015A0009BFF00B10126DC2000F0E6FE2046FFF79D
:1015B00093FF00B10126FFF775FF304670BD0000B4
:1015C000F0B504460D4616461F461448006840F024
:1015D00001001249086000201049083108600F48D6
:1015E00000680F4908400D4908600E48091D086051
:1015F000081F006820F48020091F086000200749A8
:101600000C3108603B4632462946204600F00CF873
:1016100000210846FFF764FDF0BD000000380240DD
:10162000FFFFF6FE10300024F0B504460D46002101
:1016300000203D4E366846F480363B4F3E6001E068
:101640004E1CB1B2384E366806F400361EB941F66B
:10165000FF76B142F4DB41F6FF76B14201D10120C1
:1016600060E0314E4036366846F080562E4F4037A7
:101670003E602E4E366846F440462C4F3E602A4E61
:101680000836366846F41446274F08373E60264E23
:10169000366826F08076244F3E6045EA841601279E
:1016A000C7EB520746EA074646EA036646F4800659
:1016B0001D4F3F1D3E603E1F366846F080763F1F3F
:1016C0003E6000BF184E366806F00076002EF9D056
:1016D000174E366846F48076154F3E603E463668B3
:1016E00046F400763E603E46366846F480663E60CC
:1016F0003E46366846F005063E600B4E08363668B4
:1017000026F00306084F08373E603E46366846F02E
:1017100002063E6000BF044E0836366806F00C062E
:10172000082EF8D1F0BD00000038024000700040E3
:10173000003C024001480249086070470400FA0575
:101740000CED00E010B51648008800F0010000B371
:101750000FE01448007801280BDD00210846FEF751
:1017600023FEFFF7F5FAFFF73FF8FFF7D7FAFFF789
:10177000ABF80D48007818B90C4800680028E8D08C
:10178000FFF7CCFA064810380088002004491039C9
:1017900008800348008820F001000149088010BD3E
:1017A00010040040220000201C0000200C82414256
:1017B00070B505460C460F48006840F002000D4920
:1017C00008600D480560001F04800B482038008821
:1017D00040F00100084920390880081D008820F0E9
:1017E0000100091D088002231D2200210120FFF7AE
:1017F00027FC70BD403802402C04004010B506485C
:10180000008800F0200030B103488088C4B22A2C40
:1018100001D1FFF78FFF10BD0010014003B4019804
:101820004100009850EAC12018BF04204A0D18BF9B
:1018300040F0010040F2FF72B2EB515F08BF40F090
:101840000200012808BF052002B070470000000018
:1018500010B52F499FED2C1B2DED020B84B0059880
:1018600020F000408842D8BF9DED040B2DDD2949B2
:10187000884209D1049840B94FF00100FEF759FDA4
:1018800000F0A2FC06B010BD05DB9DED040B00F0DE
:101890008FFC06B010BD68469DED040B00F0A0F86B
:1018A00010F0030004BF9DED021B9DED000B0CD05A
:1018B00001280ED09DED021B9DED000B022817D0D4
:1018C000012000F0DDFB06B010BD00F0A5FA06B067
:1018D00010BD9DED021B9DED000B012000F0D0FB23
:1018E00051EC100B00F062FE06B041EC100B10BD85
:1018F00000F092FA51EC100B00F058FE06B041ECEB
:10190000100B10BD000000000000000000000000EF
:10191000FB21E93F0000F07F10B52F499FED2C1B04
:101920002DED020B84B0059820F000408842DCBF0A
:1019300000209DED040B32DD2849884209D104982E
:1019400040B94FF00100FEF7F4FC00F03DFC06B09A
:1019500010BD05DB9DED040B00F02AFC06B010BDA8
:1019600068469DED040B00F03BF810F0030011D029
:10197000012818D09DED021B9DED000B02281AD006
:1019800000F04AFA51EC100B00F010FE06B041ECEA
:10199000100B10BD9DED021B9DED000B012000F012
:1019A0006FFB06B010BD9DED021B9DED000B00F01E
:1019B00033FA06B010BD012000F062FB51EC100BB1
:1019C00000F0F4FD06B041EC100B10BD000000006B
:1019D0000000000000000000FB21E93F0000F07F54
:1019E0002DE9F14F04462DED020B2DED088B8AB049
:1019F0009FEDE70B80ED020B139EE74826F00045B4
:101A000085420ADC9DED120B002084ED000B0AB02C
:101A1000BDEC088B03B0BDE8F08FE0489FEDE0AB74
:101A20009FEDE1BBA84247DDE14F9FEDE39B9FEDBA
:101A3000E48B9DED120B53EC1A2B51EC100B002E86
:101A40001CDD01F023F941EC100BBD4208D053EC32
:101A50001B2B51EC100B01F019F9C4E900010BE04C
:101A600053EC192B51EC100B01F010F953EC182B1F
:101A700001F00CF9C4E900010120C8E700F0A2FD63
:101A800041EC100BBD4208D053EC1B2B51EC100B5A
:101A900000F098FDC4E900010BE053EC192B51EC68
:101AA000100B00F08FFD53EC182B00F08BFDC4E9F8
:101AB00000014FF0FF30AAE7C348A84279DB9DED53
:101AC000120B51EC100B00F093FC41EC180B9FED46
:101AD000C00B53EC102B00F0CFFF9FEDBF1B53EC5E
:101AE000112B00F06FFD00F06DFF074600F099FF2D
:101AF00041EC190B53EC1A2B00F0BEFF53EC182BE2
:101B000001F0B8F841EC180B53EC1B2B51EC190BFE
:101B100000F0B2FFDFF8C8A241EC100B4FEA1558F5
:101B20000125FA4453EC102B51EC180B01F0AEF8E0
:101B3000032DC4E900013DD0C1F30A5005EB451166
:101B4000A8EB00001139814234DA0AEB051BB0EE34
:101B500048AA9BED000BF0EE68AA53EC102B51EC59
:101B6000190B00F089FF41EC1B0B51EC1A0B53ECE5
:101B70001B2B01F08BF841EC180B51EC1A0B53ECBA
:101B8000182B01F083F853EC1B2B01F07FF89BED31
:101B9000020B41EC1A0B53EC102B51EC190B00F01B
:101BA0006BFF53EC1A2B01F071F841EC100B6D1C1C
:101BB000B8E70EE0002EA8BF3846BFF628AF94ED78
:101BC000000B51EC100B00F0F1FCC4E9000178426D
:101BD0001DE7C6F3130040F4801EC6F30A50A0F2BE
:101BE000F530471100F01F05C5F12000DDF848B0C1
:101BF00008900020069007900520EC467949002DBA
:101C000007EB0002794408BF51F8221009D051F8BF
:101C1000223001EB8201AB404A68089922FA01F1B7
:101C20001943A1FB0E26A1FB0B131A449A4234BFA1
:101C30000123002303EB06080CEB8003D3E901A684
:101C40000E448E4234BF0121002192448A4411B1D6
:101C5000924502D903E0924501D2012100E0002122
:101C6000C3E901A641444CF82010011EA0F1010077
:101C7000C4DC029800F10050850F0298DDE903678B
:101C80008000DDF8148000F0CCFE41EC1A0B3046E9
:101C900000F0DEFE9FED541B53EC112B00F0ECFE28
:101CA00041EC1B0B384600F0D3FE9FED511B53EC6B
:101CB000112B00F0E1FE41EC180B404600F0C8FE8D
:101CC0009FED4D1B53EC112B00F0D6FE41EC190B90
:101CD00051EC180B53EC192B00F074FC53EC1B2B3C
:101CE00000F070FC53EC1A2B00F06CFCCDE90801FD
:101CF000002008909DED080B53EC1A2B51EC100BB3
:101D000000F0C4FF53EC1B2B00F0C0FF53EC182B6A
:101D100000F0BCFF53EC192B00F0ACFF9FED381B1B
:101D200053EC112B00F0A8FE9FED370B41EC180B84
:101D300053EC102B9DED080B51EC100B00F09CFEAA
:101D400053EC182B00F03EFC9FED310B41EC180BCF
:101D500053EC102B9DED080B51EC100B00F08CFE9A
:101D600053EC182B00F02EFC41EC100B139810F0E4
:101D7000004F06D06D4251EC100B00F017FC41EC07
:101D8000100B284684ED000B41E600000000000027
:101D90000000000000000000FB21E93F7CD9024068
:101DA00000004054FB21F93F3163621A61B4D03D19
:101DB000FB21F93F000000000000601A61B4D03D33
:101DC0007370032E8A19A33BFB21394100000000E8
:101DD00083C8C96D305FE43F000000000000E03FB1
:101DE000BA15000008150000000000000000103EB9
:101DF000000000000000103C000000000000103A4D
:101E0000182D4454FB21F93D3326A611460B113CF5
:101E100000000054FB21F93D10B52DED040B2DED14
:101E2000088B82B0B0EE419AF0EE619A0B9820F0E8
:101E300000449FED4BABB4F1795F11DA9DED0A0BD5
:101E400051EC100B00F0BEFD002801BFB0EE4A0AB5
:101E5000F0EE6A0A02B0BDEC088B04BF04B010BDFE
:101E60009DED0A0B53EC102B51EC100B00F004FE0F
:101E700041EC180B3C480621B0EE480AF0EE680A27
:101E8000784400F081F853EC182B51EC100B00F063
:101E9000F3FD9DED0A0B41EC1B0B53EC192B51ECA0
:101EA000100B00F0E9FD41EC190B53EC1B2B51EC2E
:101EB000180B00F0E1FD53EC192B00F0E7FE9FED4D
:101EC0002C0B41EC190B53EC102B51EC180B00F0C0
:101ED000D3FD41EC100B2848844210DA53EC192B47
:101EE00051EC100B00F0D2FE53EC1A2B00F0C2FEA6
:101EF00041EC100B02B0BDEC088B04B010BD1F48C4
:101F0000A042BCBF9FED1E1B8DED001B06DBA4F5A0
:101F100000100190002000909DED001B51EC100B73
:101F200053EC112B00F0B2FE9DED000B41EC180BB1
:101F300053EC102B51EC1A0B00F0A8FE41EC1A0BDD
:101F400053EC192B51EC180B00F0A0FE53EC1A2B9C
:101F500000F090FE41EC100BCCE700000000000008
:101F6000000000000000F03F2C1200000000000004
:101F7000000000000000E03F3333D33F0000E93FA2
:101F8000000000000000D23F70B504462DED028B2A
:101F90004D1E00EBC500B0EE408AF0EE608A90ED79
:101FA000000B35F0060017D053EC182B51EC100B3A
:101FB00000F062FD41EC100B6D1E04EBC50090EDCE
:101FC000001B51EC100B53EC112B00F0FBFA41EC11
:101FD000100B35F00600E7D1022D36D0042D1CD0B1
:101FE000062D1CBFBDEC028B70BD53EC182B51ECC1
:101FF000100B00F041FD94ED0A1B53EC112B00F087
:10200000E1FA53EC182B00F037FD94ED081B53EC6C
:10201000112B00F0D7FA41EC100B53EC182B51ECBC
:10202000100B00F029FD94ED061B53EC112B00F072
:10203000C9FA53EC182B00F01FFD94ED040B53EC80
:10204000102B00F0BFFA41EC100B53EC182B51ECA5
:10205000100B00F011FD94ED021B53EC112B00F05E
:10206000B1FA53EC182B00F007FD94ED001B53EC74
:10207000112B00F0A7FABDEC028B41EC100B70BDE8
:1020800031B504462DED040B2DED0A8BB0EE41BAAF
:10209000F0EE61BA0B989DED0A0B20F00040B0F114
:1020A000795F0DDA51EC100BFFF7B8FB042808BF7D
:1020B00000F09AF89DED0A0BBDEC0A8B05B030BD1F
:1020C00053EC102B51EC100B00F0D6FC41EC180B2C
:1020D0009DED0A0B53EC182B51EC100B00F0CCFCCF
:1020E00041EC190B2C48B0EE480AF0EE680A0521C5
:1020F0007844FFF749FF9FED2ACBB0EE40AAF0EEFF
:1021000060AA9CB353EC1C2B51EC190B00F0B4FCEF
:1021100041EC1C0B53EC1A2B51EC190B00F0ACFCEE
:102120009FED210B41EC190B53EC102B51EC1B0BC9
:1021300000F0A2FC53EC192B00F0A8FD53EC182B77
:1021400000F09AFC53EC1B2B00F0A0FD53EC1C2B71
:1021500000F09CFD9DED0A1B53EC112B00F08AFD55
:10216000BDEC0A8B05B041EC100B30BDFFE753EC22
:102170001A2B51EC180B00F07FFC53EC1C2B00F0D9
:1021800021FA53EC192B00F077FC9DED0A1B53EC60
:10219000112B00F017FAE3E7B41000000000000074
:1021A000495555555555C5BF000000000000E03F9A
:1021B00010B553EC102B51EC100B00F003FA41EC6E
:1021C000100B10BD000000009FED050B10B553EC87
:1021D000102B51EC100B00F09DFA41EC100B10BDD0
:1021E00000000000000000009FED050B10B553EC4F
:1021F000102B51EC100B00F03FFC41EC100B10BD0C
:102200000000000000000010014600BF7047000001
:1022100010B50723022208214FF4A870FFF7D0F968
:10222000A82000F06DF84FF4E131542000F03EF9A1
:10223000FEF75EFF4FF47A7000F082F80020FEF7A0
:10224000FDFF4FF4A073F022AE210A20FFF724F81F
:10225000002007490860FEF79FF9FEF7A1FAFEF794
:10226000A8F940F6B7314CF24F30FFF7A1FA10BD94
:10227000B4024142F0B5ADF5007DDFED1F0A60EE1E
:10228000200AFCEEE00A10EE900A85B2002103E07D
:1022900000202DF81100491CFF29F9DD012117E06C
:1022A000012212E001EB8100144E06EB0010805C6D
:1022B0003DF81000401C80B201EB81060F4F07EB88
:1022C0000616B65C2DF81600521C4F2AEADB491C94
:1022D0003B29E5DB00230024FF2105E03DF8110048
:1022E000184483B2641C491EAB42F7DBC4F1FF0003
:1022F0000DF5007DF0BD000000A89145A42500204B
:102300004FF0E021096921F004014FF0E022116152
:10231000C21700EB5272C2F3C702074B1A7019467C
:10232000097801EB4102C2EBC1114FF6FF7202EADC
:10233000C101024A118070471E00002020000020C9
:1023400070B504464FF4077094FBF0F0C6B24FF43A
:10235000077094FBF0F100FB114085B205E04FF4EB
:10236000077000F027F8701EC6B2002EF7D115B125
:10237000284600F01FF870BD01460D4A12784A4306
:102380004FF0E0235A6100229A6101221A6100BFD6
:102390004FF0E022106900F001021AB100F480321F
:1023A000002AF5D000224FF0E0231A619A617047AD
:1023B0001E00002001460D4A12884A434FF0E023D8
:1023C0005A6100229A6101221A6100BF4FF0E02297
:1023D000106900F001021AB100F48032002AF5D031
:1023E00000224FF0E0231A619A617047200000201C
:1023F00082B0CDE9000121F0004001909DED000B7D
:1024000002B051EC100B7047FFF702FF0AE000BF6B
:10241000054800780028FBD000BF04480078012858
:10242000FBDD00BFF3E700001C00002022000020BD
:10243000F8B50646002410E000250BE004EB84000C
:1024400006EB0010415D502000FB0450001D144AB3
:1024500011546D1C502DF1DB641C3C2CECDB41F263
:10246000C4200F4B0F4A042100900F48FEF744FD93
:1024700080200C49091F888241F2C4210A48FEF7D6
:10248000CFFD0948B438006800F0006038B1064854
:10249000AC38006840F000600349AC390860F8BD12
:1024A0006438002004100140B8640240F0B52DEDFE
:1024B000028B83B005460E46384905FB01F000EE5D
:1024C000100AF8EE400A300100EE100AB8EE400A99
:1024D00080EE801AB0EE418ABCEEC80A10EE100AF7
:1024E00084B200EE104AB8EE400A38EE400AF3EE2D
:1024F000000A20EE200ABCEEC00A10EE107A4FF659
:10250000FF7000EA0414E01984B22548006840F026
:1025100001002349086022481430006840F0100090
:102520001F49143108600120022100230A46CDE929
:1025300000104FF4C0611B48FEF7C2F807220921C2
:102540001848FEF79DF807220A211648FEF798F86A
:1025500015480481808920F4004013498881084689
:10256000808940F0080088810846808940F0040096
:1025700088810846808940F0200088810223252236
:1025800003210846FEF75CFD0748808940F40050AF
:102590000549888103B0BDEC028BF0BD40420F00BD
:1025A00030380240000002400010014081F000413C
:1025B000704780F00040704721F00041704720F0E4
:1025C0000040704710B591EA030F48BF83F0004305
:1025D00000F16483841A71EB030C05D2121943EBEA
:1025E0000C03001B61EB0C01DFF824E14FEA1154EE
:1025F000A4EB135C1EEA430F18BF9EEA445F73D03E
:1026000023EA0E03DCF1200E21EA045143F4801387
:1026100032D322FA0CFE10EB0E0023FA0CFE41EB33
:102620000E01CCF1200E03FA0EFE10EB0E0051F15C
:102630000001B1F5801FCCF1200E32D201EB045124
:1026400012FA0EF2BDE8104058BF7047401C38BF68
:102650005FEA420218BF7047002814BF20F0010053
:1026600041F100014FEA410313F5001F38BF7047E5
:10267000A1F1C04100F0F8BA012A43EB0302ACF12A
:10268000200CDCF11F0E32BF4FF0000E23FA0CF3CA
:1026900010EB030041EB0451B4EB115FD0D0A1EB80
:1026A000045101F5801149085FEA300001EB045143
:1026B0000ED350F1000038BF12FA0EFE08D1BDE86B
:1026C0001040C9E7401C38BF5FEA4202CAD1C3E7E5
:1026D000BDE810404FEA410313F5001F38BF7047B3
:1026E000A1F1C04100F0C0BA9EEA445F08D011EAEF
:1026F0005E0FBDE8104004BF01F0004100207047AC
:10270000BDE8104070B500F061FA00BF64FBBE3E4A
:102710000000E0FF2DE9C04130B4DFF8A0C23CEA80
:10272000111418BF3CEA131400F0EC8081EA030591
:102730001CEA111444EAD57418BF1CEA131500F002
:10274000C780A4EB05044FF0004545EAC12145EAE6
:10275000C32341EA505143EA525304F17F74994232
:1027600004F500344FEAC0204FEAC22208BF90426D
:1027700000F09C804FEA13650FF24016765D4FEA39
:10278000134506FB05F7C7F1807706FB07F74FEA0D
:10279000D737A7FB03687642C8F58038A7FB06CE7B
:1027A00038BFA8F1010807FB08E64FF0000EA6FBB2
:1027B000028CE6FB03CEDCF1000CCEF1004E38BFFC
:1027C000AEF1010EA6FB0C584FF000074FF00005CC
:1027D000E6FB0E87A1FB08C6A0FB07CE16EB0E0694
:1027E00045F10005E1FB076515F1E04E7EBFA4F55C
:1027F00080345FEA46066D4116F1800745F1000519
:102800004FEA17274FEA066647EA0567A6F1DE4654
:10281000B6F1805F4FEA15251FD9384624F0010C28
:1028200005EBC471BCF1FE6F01EB0C1102D8F0BCDA
:10283000BDE8008124425CBF01F5801E9EEAC47F92
:1028400002D4F0BCBDE80081244238D4F0BCA1F130
:10285000C041BDE8004100F007BA4FEAD22242EA87
:1028600043524FEAD323A7FB02864FEAD02040EA27
:10287000415007FB03661EEA0E0F4FEAD12105FB0C
:10288000026658BFA6EB0056B6EB00564FEA520E52
:102890004EEAC37E18EB0E0E56EB530EBDD518EB69
:1028A00002085E417F1C55F10005B6E74FF4801524
:1028B0004FF000074FF000064FF00008ADE7F0BC06
:1028C0004FF0000001F1C04101F00041BDE800817E
:1028D00011EA0C1F0CEA131500D00CE013EA0C1FD0
:1028E00000F025804FF00000F0BC81EA030101F008
:1028F0000041BDE80081F0BCBDE8004181EA030170
:1029000000F0B2B9F0BCBDE8004170B500F05EF96E
:10291000097EFC3E00F007B881EA03014FF0000099
:1029200001F00041704781EA030100F09DB9F0BC5D
:10293000BDE800414FF0000021497047FFFDFBF961
:10294000F7F5F4F2F0EEEDEBE9E8E6E4E3E1E0DEE2
:10295000DDDBDAD8D7D5D4D3D1D0CFCDCCCBCAC854
:10296000C7C6C5C4C2C1C0BFBEBDBCBBBAB9B8B77B
:10297000B6B5B4B3B2B1B0AFAEADACABAAA9A8A86E
:10298000A7A6A5A4A3A3A2A1A09F9F9E9D9C9C9B3C
:102990009A999998979796959594939392919190E7
:1029A0008F8F8E8E8D8C8C8B8B8A89898888878778
:1029B0008685858484838382828181800000FF07ED
:1029C0000000F87F4FEA41034FEA5353A3F58063B9
:1029D000D3F11E03C8BFD3F1210C0CDD4FF0004230
:1029E00042EAC12242EA505232FA03FC8CEAE17C0C
:1029F000ACEBE1707047102BC4BF0020704703F5AB
:102A0000787CBCF1FF3F04D06FF0004282EA2100E5
:102A1000704770B500F0DAF84992248000207047C2
:102A2000F2E710F0004248BF4042B0FA80F310FADB
:102A300003F10AD0C3F11D0303F580634FEA41504F
:102A400002EB035202EBD12170474FF000007047B8
:102A5000B0FA80F310FA03F10AD0C3F11D0303F5B5
:102A600080634FEA41504FEA035202EBD121704795
:102A70004FF0000070470000DFF848C170B51CEA55
:102A8000111E1EBF1CEA13159EEA0C0F95EA0C0FCF
:102A900000F06F8081EA030423EA4C134EEAD47EEF
:102AA00021EA4C1141F4801143F48013AE44A1FBA0
:102AB000024CA0FB0365AEF17F7E361955EB0C0589
:102AC000A1FB034C4CF10003A0FB021C16EB0C060F
:102AD000654153F10003094218BF46F0010613F4A3
:102AE000007F0BD14FEA03314FEA0530340341EA4E
:102AF000155140EA16506FF003020AE04FEAC32175
:102B00004FEAC520F40241EA555140EA56506FF0B1
:102B1000020202EB2E4201EB025585EACE710AD089
:102B20005FEA440C18BF24F0004450F1000041F16A
:102B3000000120EAD47040F2FE7C624500D270BDF4
:102B4000A84214BF4FF080444FF04044002E08BF0D
:102B50000024BEF1806FA8BFA1F1C041BDE8704064
:102B600080F282804FF0000001F1C04101F000418D
:102B700070479EEA0C0F0CEA131518BF95EA0C0F6C
:102B800006D04FF0000081EA030E0EF0004170BD48
:102B900000F01CF88900013E00F007B800F009B809
:102BA0004FEA430C5FEA5C5C08D081EA030100F065
:102BB0005BB84FEA410C5FEA5C5CF6D14FF0000075
:102BC000014970470000FF070000F87F0EF1020E78
:102BD0002EF0030E5EF8046B364205D4012A43EB57
:102BE000030515F5001F12D8012841EB010C1CF557
:102BF000001F0CD80ED14FEAD17C15F5001F0CEB4D
:102C00004C0C0CF1020C08BF4CEBD37C04E04FF0F1
:102C1000080C01E04FEAD37C0CEB4C0526FA05F6D4
:102C200006F00706B6F1040C06D20EEB860CBDE8E2
:102C300070404CF0010C6047DFE80CF0090B020219
:102C40004FF000414FF00000A1F5002170BD194682
:102C50001046012851EB010418BFD4F5001484BFBD
:102C6000002001F0004170BD0808A0F500114FEAF6
:102C70003101704791EA030F10B581F000413FF533
:102C8000A9AC83F0004300F009B8000010B591EA48
:102C9000030F48BF83F000433FF59CAC841A71EBEF
:102CA000030C07D212198CF0004C43EB0C03001BF1
:102CB00061EB0C01DFF8A4E14FEA1154A4EB135CC3
:102CC0001EEA430F18BF9EEA445F00F0B08023EA7B
:102CD0006E03524221EA0451C3EB6E0338BF5B1E00
:102CE000DCF1200E25D322FA0CFE10EB0E0043FA85
:102CF0000CFE41EB0E01CCF1200E03FA0EFE10EBA0
:102D00000E0051F10001CCF1200E29D412FA0EF27E
:102D100001EB0451BDE8104058BF7047401C1CBF78
:102D2000B2F1004F704700280CBF491C20F0010091
:102D3000704712EB020E43EB030218BF4FF0010E77
:102D40004EEA4202ACF1200CDCF11E0E54D943FADB
:102D50000CFE10EB0E0051F1FF31CCF11E0ED5D55B
:102D60000EF1010E12FA0EFE404141EB010101EBA2
:102D7000445C5FEA5C5C10D910EBDE7001EB04513F
:102D800038BFBEF1004FBDE8104018BF70470028A3
:102D90000CBF491C20F00100704730D24FEAD42C00
:102DA00011F5001124F400641BD0B1FA81F20B3A42
:102DB000A41AA41ED2F12003914030FA03F3194360
:102DC000904001EBCC71002C01EB0451BDE81040A8
:102DD000A8BF704701F1C0414FF0000001F0004171
:102DE0007047B0FA80F310FA03F100D110BDE41A75
:102DF000173C4805C90AE4E701EB045110BD49102E
:102E000001EB0451BDE810404FEA300002E04FF002
:102E1000000170474A0008BF0042F8D0B2F5001F19
:102E200028BF704701F000414FF0000070479EEA54
:102E3000445F07D011EA5E0FBDE8104004BF0021D7
:102E400000207047BDE8104070B5FFF7BFFE00BF1F
:102E500040DFF63E83F00041104670470000E0FF7F
:102E60004FF04070E1EE100A70473A04401012141F
:102E700032801716180419021A7A030A0C0C15006E
:102E80003E007000710172117309A20211007A20D4
:102E90007B1C7C287D3C7E557F6880768180828883
:102EA000838F849685A386AF87C488D789E813E08B
:102EB000000010000D001420A505AB072475256344
:102EC00026A59F78A068A103A6DFA7DFA8F0A99098
:102ED000AA9413E50E610F4B16021E2721022291C0
:102EE0002907330B350B371D3871392A3C784D4093
:102EF0004E20695D6B8074198D4F8E008F0090009D
:102F00009100920096009A80B084B10CB20EB38208
:102F1000B80A431444F0453446584728483A59887B
:102F20005A885B445C675D495E0E640465206605F3
:102F3000940495086C0A6D554F80508051005222C0
:102F4000535E548009036E116F9F550056405780A1
:102F500012103A143D80671168FF40C03280171686
:102F6000180419021A7A030A0C0C15003E007000AE
:102F7000710172117309A20211007A207B1C7C2856
:102F80007D3C7E557F68807681808288838F8496A1
:102F900085A386AF87C488D789E813E000001000B6
:102FA0000D001420A505AB072475256326A59F7881
:102FB000A068A103A6DFA7DFA8F0A990AA9413E553
:102FC0000E610F4B16021E27210222912907330B97
:102FD000350B371D3871392A3C784D404E20695DDC
:102FE0006B4074198D4F8E008F00900091009200FD
:102FF00096009A80B084B10CB20EB382B80A431422
:1030000044F0453446584728483A59885A885B4422
:103010005C675D495E0E640465206605940495084E
:103020006C0A6D554F80508051005222535E54807F
:1030300009036E116F9F5500564057800000000035
:103040000000000000000000000000000000000080
:103050000000000000000000000000000000000070
:103060000000000000000000000000000000000060
:103070000000000000000000000000000000000050
:103080000000000000000000000000000000000040
:103090000000000000000000000000000000000030
:1030A0000000000000000000000000000000000020
:1030B0004C5555555555A53F7751C1166CC156BF56
:1030C0009015CB19A001FA3EAD529C804F7E92BE66
:1030D000C4B1B4BD9EEE213ED43888BEE9FAA8BD85
:1030E00000004054FB21F93F3163621A61B4D03DC6
:1030F0000000601A61B4D03D7370032E8A19A33B9F
:103100000000002E8A19A33BC14920259A837B39F0
:1031100000000000000000006E83F9A22915444E53
:10312000D15727FCC0DD34F5999562DB4190433CD3
:10313000AB6351FE61C5BBDE3A6E24B7E0D24D42AF
:10314000EA2E49061C92D1091CEB1DFE3EA729B1AF
:10315000F53582E88444BB2E26709CE9417E5FB43D
:1031600039D69139F43953838B5F849C3B28F9BD60
:10317000FF97F81F0F9805DE8B112FEF1F6D0A5A6E
:10318000CF7E366DB709CB27663F464F2DEA5F9E4F
:10319000C7BA27757BF1E5EBF739073DEA92528A0A
:1031A000B15FFB6B085D8D1FA6F810111111813FF7
:1031B000D561C119A0012ABF7DFEB157E31DC73EED
:1031C000EB9C2B8AE6E55ABE7CD5CF5A3AD9E53D31
:1031D000F03100080000002024000000C4010008B5
:1031E0001432000824000020CC250100E001000872
:1031F000000000000000000000000000FFFFFFFFD3
:10320000FFFFFFFFFFFFFFFFFFFFFFFF00000000CA
:0432100000000000BA
:040000050800018965
:00000001FF
