:020000040800F2
:1000000000250120290200083702000839020008F3
:100010003B0200083D0200083F020008000000000B
:100020000000000000000000000000004102000885
:1000300043020008000000004502000847020008D3
:100040004902000849020008490200084902000864
:100050004902000849020008490200084902000854
:1000600049020008712F00084902000849020008EF
:100070004902000849020008490200084902000834
:100080004902000849020008490200084902000824
:10009000490200084902000849020008312F0008FF
:1000A0004902000849020008490200084902000804
:1000B000C72E00084B2E000849020008490200081C
:1000C00049020008490200084902000849020008E4
:1000D00049020008AD26000849020008490200084C
:1000E00049020008490200084902000849020008C4
:1000F00049020008490200084902000849020008B4
:1001000049020008490200084902000849020008A3
:100110004902000849020008490200084902000893
:100120004902000849020008490200084902000883
:100130004902000849020008490200084902000873
:100140004902000849020008490200084902000863
:100150004902000849020008490200084902000853
:100160004902000849020008490200084902000843
:100170004902000849020008490200084902000833
:10018000490200084902000800F002F800F03CF8BB
:100190000AA090E8000C82448344AAF10107DA45E2
:1001A00001D100F031F8AFF2090EBAE80F0013F0F8
:1001B000010F18BFFB1A43F001031847CC49000098
:1001C000EC490000103A24BF78C878C1FAD8520729
:1001D00024BF30C830C144BF04680C6070470000C1
:1001E0000023002400250026103A28BF78C1FBD840
:1001F000520728BF30C148BF0B6070471FB504F0DD
:100200000AFB1FBD10B510BD03F060F81146FFF7E3
:10021000F5FF00F05CF803F07EF803B4FFF7F2FF9F
:1002200003BC02F035FA00000B48016841F470018C
:1002300001600A480047FEE7FEE7FEE7FEE7FEE74B
:10024000FEE7FEE7FEE7FEE7FEE70000044805499B
:10025000034A054B7047000088ED00E08901000863
:1002600000210120002501200021012010B50021DE
:10027000084600F0C1F800F054F900F009FC01F064
:10028000EBF901F06DF84FF08040406A2E49098883
:1002900008442D49088000204FF0804148622B48D7
:1002A0000068052805DC2848008847F2305188425C
:1002B0000CDD0020264908600620264908604FF022
:1002C0008040008800204FF08041088010BD00F081
:1002D00047F837E000BF204800780028FBD01C48D2
:1002E0007C38006870BB0021084600F085F800F0FB
:1002F00018F900F0CDFB00F026FD01F014F901F033
:100300003CF80AE00120124908608007008840F0AC
:100310000100C9060880FFF7A9FF0E480068002801
:1003200010DB0C48006806280CDA09487C380068A5
:1003300040B90A48007828B90348008847F230518C
:100340008842DFDDC6E70000020000201400002024
:100350008882414210000020200000200000002080
:1003600010B50723022208214FF4A87002F048F9C3
:10037000A82001F0E7FE4FF4E131542002F0A4F987
:1003800002F026FA4FF47A7001F030FF002002F0FC
:10039000BBFA4FF4A073F022AE210A2002F086FBD4
:1003A0000020F849086002F016FE02F0E9FE02F0B3
:1003B0001FFE42F2CF0144F61F6002F0FFFC44F240
:1003C0009F114CF24F3002F023FD10BD0821EE4A80
:1003D000116040B1EC491439096821F00801EA4A7A
:1003E000143A116007E0E8491439096841F008013E
:1003F000E54A143A116070472DE9F05F07468846D8
:100400000026B24672B60020E0490860E049C1F813
:1004100084020120DB493039086000200860012097
:10042000DA490860DA49C1F88402002567E000244F
:1004300060E00020D34930390860D648006800F0F9
:10044000FF090120D249C1F884020020CD4930398A
:1004500008600120CE49C1F88402EA1705EB9272C8
:100460009210A5EB8202AABBE21704EB92729210E3
:10047000A4EB820272BB4FEAE47C04EB9C7C4FEA63
:10048000AC0CBC4534DB4FEAE57C05EB9C7C4FEAC9
:10049000AC0CC4452CDB4FEAE47C04EB9C7C4FEABB
:1004A000AC0B07F1500CE34522DA4FEAE57C05EB93
:1004B0009C7C4FEAAC0B08F13C0CE34518DA502E5B
:1004C00009DA0AEB8A00B44901EB001000F8069043
:1004D000701C86B20CE000260AF101001FFA80FAB7
:1004E0000AEB8A00AC4901EB001000F80690761C7C
:1004F000601C84B2B4F5A07F9BDB681C85B2F02D34
:1005000095DB4FF49652A449A44802F06EFE4FF4D6
:1005100000709D4908600020A149087062B6BDE8DE
:10052000F09F2DE9F05F2DED068B4FF0000A0027BC
:100530000EE000209B4921F817009B49C8559FED0C
:100540009B0A9B4800EB870080ED000A781C87B26D
:10055000FF2FEEDD00244DE0002547E0954A1268AC
:10056000A21A944B1B68E31A5A43934B1B68EB1A6D
:10057000DFF844C2DCF800C0A5EB0C0C03FB0C2335
:100580008E4A1168CA1701EB5272DFF830C2DCF8EC
:1005900000C0ACEBE202DFF824C2DCF800004FEA56
:1005A000E07C00EB5C7CDFF814B2DBF800B0ABEB76
:1005B000EC0C02FB0CF2934216DA04EB8400774950
:1005C00001EB0010405D774931F81000401C04EB4E
:1005D0008401724A02EB0111495D724A22F811004E
:1005E0000AF101001FFA80FA681C85B2502DB5DBB4
:1005F000601C84B23C2CAFDB4FF0000815E069486A
:1006000030F8180000EE100AF8EE400A00EE10AACA
:10061000B8EE400A80EE801A654800EB880080ED55
:10062000001A08F101001FFA80F8B8F1FF0FE6DDAB
:10063000012613E0701E5E4901EB800090ED000A78
:10064000084600EB8600D0ED000A30EE200A08468E
:1006500000EB860080ED000A701C86B2B6F5807F44
:10066000E8DD4FF0000926E0514A09F1010002EBF4
:10067000800090ED000A10EE101A084604F05AF8B7
:1006800041EC1A0B9FED4E0B53EC102B03F028FEA0
:1006900041EC190B9FED4C0B53EC102B03F050FB6E
:1006A00041EC180B03F088FD3F4901F8090009F1FE
:1006B00001001FFA80F9B9F1FF0FD5DD002444E0F5
:1006C00000253EE03B4A1268A21A3A4B1B68E31A27
:1006D0005A43394B1B68EB1ADFF8DCC0DCF800C06A
:1006E000A5EB0C0C03FB0C23344A1168CA1701EB71
:1006F0005272DFF8C8C0DCF800C0ACEBE202DFF8F1
:10070000BCC0DCF800004FEAE07C00EB5C7CDFF86A
:10071000ACB0DBF800B0ABEBEC0C02FB0CF293429C
:100720000DDA04EB84001D4901EB0010405D1E4909
:10073000085C04EB8401194A02EB01114855681C5E
:1007400085B2502DBEDB601C84B23C2CB8DBBDEC06
:10075000068BBDE8F09FF0B5ADF5007DDFED1C0A1E
:1007600060EE200AFCEEE00A10EE900A85B200214D
:1007700003E000202DF81100491CFF29F9DD0121BB
:1007800040E00000B4024142143C01409402424265
:100790000000414210140240B42500203400002023
:1007A000300000207C1E01207C1D01200000000084
:1007B0007819012008000020040000200C0000200F
:1007C0000000000000E06F40000000000000E03F7B
:1007D00000A89145012212E001EB8100FE4E06EBDC
:1007E0000010805C3DF81000401C80B201EB8106D7
:1007F000F94F07EB0616B65C2DF81600521C4F2A6F
:10080000EADB491C3B29E5DB00230024FF2105E04E
:100810003DF81100184483B2641C491EAB42F7DB5B
:10082000C4F1FF000DF5007DF0BD2DE9F0474FF458
:100830009652E949E94802F0D8FC9FEDE90AFFF732
:100840008AFF814601249CE0012596E0611C01EBB2
:100850008101E24A02EB0112691E525C611C01EB4C
:100860008101DE4B03EB0111495D022313FB0122E1
:10087000611C01EB8101D94B03EB0113691C595C2D
:100880000A44611E01EB8101D44B03EB0113691E85
:100890005B5C611E01EB8101DFF840C30CEB0111D1
:1008A000495D4FF0020C1CFB0133611E01EB81011D
:1008B000DFF828C30CEB011C691C1CF8011019445B
:1008C000501A002801DB014600E04142CEB2611E11
:1008D00001EB8101C14A02EB0112691E525C04EB7B
:1008E0008401BE4B03EB0113691E595C022313FB09
:1008F0000122611C01EB8101B84B03EB0113691E5E
:10090000595C0A44611E01EB8101B44B03EB0113F6
:10091000691C5B5C04EB8401DFF8C0C20CEB011CBA
:10092000691C1CF801104FF0020C1CFB0133611C08
:1009300001EB8101DFF8A4C20CEB011C691C1CF85F
:1009400001101944501A002801DB014600E0414221
:10095000CFB206EB0708C84507DDFF2004EB840192
:100960009D4A02EB0111485506E0002004EB84018A
:10097000994A02EB011148556D1C4F2DFFF666AFE9
:10098000641C3B2CFFF660AF4FF49651934802F085
:100990005EFCBDE8F0872DE9F041ADF5007D034632
:1009A000002003E000262DF81060401CFF28F9DD30
:1009B000012048E0012143E08A4E3668032796FB78
:1009C000F7F6884F3F68BE1B864F3F684FF0030C19
:1009D00097FBFCF7DFF80CC2DCF800C0ACEB0707B4
:1009E0007E43814F3F68C71BDFF8FCC1DCF800C0C5
:1009F000A0EB0C0C07FB0CF7DFF8F0C1DCF800C033
:100A0000A1EB0C0CDFF8E481D8F80080A1EB08081A
:100A10000CFB0877BE4212DD00EB8006744F07EB3B
:100A20000616765C3DF81660761CB6B200EB8007C1
:100A3000DFF8BCC10CEB07177F5C2DF81760491C71
:100A40004F29B9DB401C3B28B4DB002004E03DF813
:100A500010602E44B5B2401C0028F8DB5E1B00EE8F
:100A6000906AF8EEE00A60EE800AFCEEE00A10EE12
:100A7000906AB4B20022FF2004E03DF810601644F2
:100A8000B2B2401EA242F8DB0DF5007DBDE8F08158
:100A90002DE9F0474FF000094FF4965254494F4862
:100AA00002F0A3FB01242BE0012526E04D4800685D
:100AB000062190FBF1F04B490968081A4949096879
:100AC000062291FBF2F1474A1268511A48434649FF
:100AD0000968611A444A1268A21A5143434A1268CB
:100AE000AA1A424B1B68EB1A02FB0311884203DD72
:100AF00009F101001FFA80F96D1C4F2DD6DB641C33
:100B00003B2CD1DB48469FED360AFFF744FF00F04F
:100B1000FF0A0124D2E00125CCE03248006806211A
:100B200090FBF1F02F490968081A2E49096806223E
:100B300091FBF2F12B4A1268511A48432A4909687D
:100B4000611A294A1268A21A5143284A1268AA1A3D
:100B5000264B1B68EB1A02FB031188427EDD611CE9
:100B600001EB81011D4A02EB0112691E525C611CFE
:100B700001EB8101194B03EB0111495D022313FBCA
:100B80000122611C01EB8101144B03EB0113691C71
:100B9000595C1144621E02EB8202104B03EB0213FC
:100BA0006A1E9B5C621E02EB8202DFF830C00CEB17
:100BB0000212525D4FF0020C1CFB0233621E02EB6C
:100BC0008202DFF818C00CEB021C6A1C1CF8022021
:100BD0001A44881A00280DE0B4250020F4120020E1
:100BE000CDCCCC3D0C0000200800002004000020EB
:100BF0003400002001DB014600E04142CFB2611E1B
:100C000001EB8101F84A02EB0112691E525C04EB10
:100C10008401F54B03EB0113691E595C022313FB9E
:100C20000122611C01EB8101EF4B03EB0113691EF3
:100C3000595C1144621E02EB8202EB4B03EB021380
:100C40006A1C9B5C04EB8402DFF89CC30CEB021C67
:100C50006A1C1CF802204FF0020C00E029E01CFB8B
:100C60000233621C02EB8202DFF87CC30CEB021C35
:100C70006A1C1CF802201A44881A002801DB01466D
:100C800000E0414201F0FF0808EB0706564509DD88
:100C9000C82E07DDFF2004EB8401D44A02EB0111CA
:100CA000485506E0002004EB8401D04A02EB011114
:100CB00048556D1C4F2DFFF630AF641C3B2CFFF6E2
:100CC0002AAF4FF49651C84802F0C1FABDE8F08748
:100CD000F0B50346002401212FE001222AE0C44898
:100CE0000068062590FBF5F0C14D2D68281AC04D0F
:100CF0002D68062695FBF6F5BD4E3668751B6843D4
:100D0000BC4D2D684D1BBB4E36688E1B7543BA4ECD
:100D10003668961BB84F3F68D71B06FB0755A8429D
:100D200007DD01EB8100B14D05EB0010805C204434
:100D300084B2521C4F2AD2DB491C3B29CDDB94FBE9
:100D4000F3F0C0B2F0BD30B5012144E001203FE036
:100D5000A74A1268062392FBF3F2A54B1B689A1A66
:100D6000A34B1B68062493FBF4F3A14C2468E31AFD
:100D70005A43A04B1B68CB1A9E4C24680C1B634340
:100D80009D4C2468041B9C4D2D68451B04FB0533BA
:100D90009A421CDD01EB8102944B03EB0212125CC0
:100DA000FF2A14D14A1E02EB820203EB0212125CEC
:100DB0006AB94A1C02EB820203EB0212125C32B9DE
:100DC000002201EB8103894C04EB03131A54401CED
:100DD0004F28BDDB491C3B29B8DB30BD2DE9F0476E
:100DE0002DED0C8B9FED850BB0EE408AF0EE608A06
:100DF0000027A3E04FF000089BE007EB8700814944
:100E000001EB001010F80800FF287DD100248BE0D2
:100E10004FF0000983E0484603F0FBF941EC1A0B60
:100E20009FED790B53EC102B03F05AFA41EC190BA0
:100E30009FED770B53EC102B03F036F841EC180BB9
:100E4000B0EE480AF0EE680A02F086FAB0EE40CA48
:100E5000F0EE60CA04F1140003F0DBF941EC1D0B65
:100E600053EC1C2B03F03CFA41EC1A0B384603F010
:100E7000D0F941EC1B0B53EC1A2B03F071FB41EC46
:100E8000190B03F069F90646B0EE480AF0EE680A5D
:100E900002F0C6FAB0EE40CAF0EE60CA04F11400E7
:100EA00003F0B7F941EC1D0B53EC1C2B03F018FABF
:100EB00041EC1A0B404603F0ACF941EC1B0B53EC30
:100EC0001A2B03F04DFB41EC190B03F045F90546D5
:100ED000002E22DD3C2E20DA002D1EDD502D1CDAE6
:100EE00006EBC600C0EB86104B4901EB001005EB8A
:100EF000450101EBC5010844005D401C06EBC6013D
:100F0000C1EB8611444A00E011E002EB011105EB50
:100F1000450202EBC5021144085509F10A09B9F569
:100F2000B47F7FF778AF641C0B2CFFF671AF08F12C
:100F30000108B8F1500FFFF660AF7F1C3C2FFFF6A1
:100F400059AFBDEC0C8BBDE8F0872DE9F0474FF0B1
:100F5000000AD046C146002772B6FFF73FFF0A26B7
:100F60002AE0002425E0002520E004EBC400C0EBCB
:100F70008410294901EB001005EB450101EBC50187
:100F80000844805D504510DD04EBC400C0EB8410C4
:100F9000214901EB001005EB450101EBC5010844B7
:100FA00010F806A0A046A94637466D1C502DDCDB84
:100FB000641C3C2CD7DB761E002ED2DA0E48C0F81B
:100FC00000900C48C0F8008007F114000849086040
:100FD0000120124908704CF640610F4802F037F9C1
:100FE00062B6BDE8F0870000F41200203400002053
:100FF0000C00002008000020040000200000000079
:1010000000000000B42500204AD8124DFB21094001
:101010000000000000806640384B002020000020C7
:101020002DE9F0472DED0C8B1FED0C0BB0EE408A37
:10103000F0EE608A0024D0E00025CAE0FE4A126883
:10104000A21AFD4B1B68E31A5A43FC4B1B68EB1AB0
:10105000DFF8E8C3DCF800C0A5EB0C0C03FB0C2C9C
:10106000F74A1268D21CF64B1B68DB1C5A439445A6
:101070007EDCF14A1268A01A002801DB024600E07B
:101080004242EF4B1B68D91C01EBD1735B109A42B3
:101090006EDA04EB8400EB4901EB0010405DFF28A1
:1010A00066D1002691E04FF0000989E0484603F040
:1010B000B0F841EC1A0B1FED2C0B53EC102B03F086
:1010C0000FF941EC190B1FED2E0B53EC102B02F016
:1010D000EBFE41EC180BB0EE480AF0EE680A02F0A5
:1010E0003BF9B0EE40CAF0EE60CAD549096809394B
:1010F000881903F08EF841EC1D0B53EC1C2B03F008
:10110000EFF841EC1A0B204603F083F841EC1B0B7F
:1011100053EC1A2B03F024FA41EC190B03F01CF8E2
:101120008046B0EE480AF0EE680A02F079F9B0EEB7
:1011300040CAF0EE60CAC24909680939881903F04B
:1011400068F841EC1D0B53EC1C2B03F0C9F841EC83
:101150001A0B284603F05DF841EC1B0B53EC1A2BDD
:1011600003F0FEF941EC190B02F0F6FF074600E030
:101170002EE0B8F1000F21DDB8F13C0F1EDA002F90
:101180001CDD502F1ADA08EBC800C0EB8810AE49FE
:1011900001EB001007EB470101EBC7010844805D3C
:1011A000401C08EBC801C1EB8811A74A02EB0111F2
:1011B00007EB470202EBC7021144885509F10A09FF
:1011C000B9F5B47F7FF772AF761C0A2EFFF66BAFCE
:1011D0006D1C502DFFF632AF641C3C2CFFF62CAF7B
:1011E000BDEC0C8BBDE8F0872DE9F05F0027B84619
:1011F000B9469348D0F800B0BA4672B6FFF710FF70
:10120000092652E000244DE0002548E08A4B1B6887
:10121000E21A002A01DB134600E05342DFF820C245
:10122000DCF800104FEAE17C01EB9C7C4FEAAC0C4F
:10123000634533DA824B1B684FF0030C93FBFCF3DE
:10124000DFF8F8C1DCF800C0A5EB0C00002801DBDA
:10125000844601E0C0F1000C63451FDD04EBC400CF
:10126000C0EB8410784901EB001005EB450101EB60
:10127000C5010844805D504510DD04EBC400C0EB9F
:101280008410714901EB001005EB450101EBC5012C
:10129000084410F806A0A8462746B1466D1C502DFC
:1012A000B4DB641C3C2CAFDB761E002EAADA63484C
:1012B000C0F8008060480760ABF10900484460490D
:1012C00008604CF64061604801F0C1FF62B6BDE8BD
:1012D000F09FF8B50646002410E000250BE004EB73
:1012E000840006EB0010415D502000FB0450001DFF
:1012F000564A11546D1C502DF1DB641C3C2CECDB68
:1013000041F2C420514B524A04210090514801F04F
:1013100093FE80204E49091F888241F2C4214D4826
:1013200001F018FF4B48B438006800F0006038B195
:101330004848AC38006840F000604649AC39086065
:10134000F8BD10B53D480068404908703A4800684B
:1013500048703B48006888703A48FFF7BAFF10BDF4
:1013600010B5002039490870487088703A480078F4
:10137000C8703A48FFF7ADFF10BD10B52F480068A0
:10138000324908702C48006848702D480068887001
:1013900033480078C8703148FFF79BFF10BD2DE936
:1013A000F043002300250026002168E0002063E0D0
:1013B000234F3F684FF0030C97FBFCF7DFF880C02A
:1013C000DCF800C0ACEB0707DFF874C0DCF800C045
:1013D0004FF003089CFBF8FCDFF86480D8F800802D
:1013E000A8EB0C0C07FB0CF7DFF84CC0DCF800C0D6
:1013F000A0EB0C0CDFF84080D8F80080A0EB0808C8
:101400000CFB08FCDFF83480D8F80080A1EB08085A
:10141000DFF82890D9F80090A1EB090908FB09CC66
:10142000674528DD064F3F687F004FF0030C97FBB0
:10143000FCFC014F3F6815E008000020040000207C
:101440000C000020B4250020384B00207438002008
:1014500004100140B8640240140000203400002051
:1014600010000020C41B002C01DB274600E067426F
:10147000BC4500DD5B1C401C3C2899DB491C502905
:1014800094DB092493FBF4F30822002147E00020B9
:1014900042E0FD4C2468032794FBF7F4FA4F3F68C1
:1014A0003C1BF94F3F684FF0030C97FBFCF7DFF84C
:1014B000D8C3DCF800C0ACEB07077C43F34F3F68B0
:1014C000C71BDFF8C8C3DCF800C0A0EB0C0C07FB9F
:1014D0000CF7DFF8BCC3DCF800C0A1EB0C0CDFF8A4
:1014E000B083D8F80080A1EB08080CFB0877BC4259
:1014F00011DD6D1C00EB8004E64F07EB0414645C07
:10150000FF2C00D1761C9D4205DD0125E24C44F8FC
:101510002260521E0126401C3C28BADB491C50297F
:10152000B5DBBDE8F083F0B52DED068B8FB000265E
:10153000242106A801F08BFE002003900490059062
:10154000009001900290FFF72AFF002428E0CE4986
:101550000968CD4A126801FB02F002F05AFE41EC24
:101560001A0B9FEDCE0B53EC102B02F0B9FE41ECA1
:10157000180BC94951F8240002F04BFE41EC190B3D
:1015800053EC182B02F070FE03D20020C24941F840
:101590002400C14850F8240006A941F82400641C26
:1015A000092CD4DB002418E006A850F82470651E2E
:1015B00007E006A850F8251006AA681C42F820107B
:1015C0006D1E002D04DB06A850F82500B842F0DBA4
:1015D00006A9681C41F82070641C092CE4DB002477
:1015E00015E006A850F8240003A941F824000825B6
:1015F0000AE003A850F82400A74951F825108842B2
:1016000001D14DF824506D1E002DF2DA641C032C1C
:10161000E7DB002406E05DF82400B04201DD5DF860
:101620002460641C032CF6DB9E4800689E49086019
:101630009C4806600068B04206D108460068B04287
:1016400002D19A48066003E04FF0FF3097490860E6
:101650000FB0BDEC068BF0BD70B52DED068B0025EF
:10166000FFF79DFE00241FE087490968864A12683B
:1016700001FB02F002F0CDFD41EC1A0B9FED8C0B4B
:1016800053EC102B02F02CFE41EC180B824951F860
:10169000240002F0BEFD41EC190B53EC182B02F0B4
:1016A0001DFF00D22546641C092CDDDB8248056045
:1016B000BDEC068B70BD30B5012291E20022012005
:1016C0008BE2012185E200EB80037C4C04EB0313E9
:1016D0005B5CFF2B53D1431E03EB830304EB03142A
:1016E0004B1EE35CEBBB431E03EB8303734C04EB29
:1016F00003135B5CABBB431E03EB830304EB0314DC
:101700004B1CE35C6BBB00EB80036C4C04EB0314E1
:101710004B1EE35CFF2B33D100EB8003674C04EBE3
:1017200003144B1CE35CFF2B2AD1431C03EB830304
:10173000624C04EB03135B5CFF2B21D1431E03EBD4
:10174000830304EB03135B5C8BB9431C03EB830340
:1017500004EB03135B5CFF2B09D1831C03EB8303B6
:1017600000E00DE004EB03135B5C002B07D00023CB
:1017700000EB8004514D05EB04146354012227E271
:10178000431E03EB83034D4C04EB03144B1EE35C3D
:10179000F3BB00EB8003494C04EB03144B1EE35CEA
:1017A000B3BB431C03EB8303444C04EB03144B1EF9
:1017B000E35C6BBB431E03EB8303404C04EB03135E
:1017C0005B5CFF2B34D1431C03EB830304EB03135B
:1017D0005B5CFF2B2CD100EB800304EB03144B1C50
:1017E000E35CFF2B24D100EB8003344C04EB0314A7
:1017F0004B1EE35C9BB900EB8003304C04EB0314FD
:101800004B1CE35CFF2B0AD100EB80032B4C00E068
:101810000EE004EB03148B1CE35C002BAFD0002321
:1018200000EB8004254D05EB041463540122CFE145
:10183000431C03EB8303214C04EB03144B1EE35CBA
:10184000F3BB431C03EB83031C4C04EB03135B5CF3
:10185000B3BB431C03EB830304EB03144B1CE35C9B
:1018600073BB00EB8003154C04EB03144B1EE35CCD
:10187000FF2B38D100EB8003104C04EB03144B1CFE
:10188000E35CFF2B2FD11CE00C000020080000209F
:1018900004000020340000207C200120B81E85EBCD
:1018A00051B89E3F180000201C00002010000020AE
:1018B0009A9999999999A93F14000020B42500207C
:1018C00011E0431E03EB8303FE4C04EB03135B5C4C
:1018D000FF2B08D1002300EB8004FA4D05EB041424
:1018E0006354012274E1431E03EB8303F54C04EBC4
:1018F00003144B1CE35C93BB00EB8003F14C04EB43
:1019000003144B1CE35C53BB431C03EB8303ED4C00
:1019100004EB03144B1CE35C0BBB431E03EB830380
:10192000E84C04EB03135B5CFF2B19D1431C03EB66
:10193000830304EB03135B5CFF2B11D100EB8003EB
:1019400004EB03144B1EE35CFF2B09D1002300EBD7
:101950008004DC4D05EB04146354012238E1FFE7F9
:10196000431E03EB8303D74C04EB03135B5CEBBB1D
:10197000431E03EB830304EB03144B1CE35CABBB80
:1019800000EB8003CF4C04EB03144B1CE35C6BBBFC
:10199000431C03EB8303CB4C04EB03135B5CFF2B77
:1019A0002AD100EB800304EB03144B1EE35CFF2BF6
:1019B00022D1431E03EB8303C24C04EB03135B5C95
:1019C0007BB9431C03EB830304EB03135B5CFF2B2A
:1019D00007D1831C03EB830304EB03135B5C002B35
:1019E000BCD0002300EB8004B64D00E004E005EB22
:1019F000041463540122EBE0431E03EB8303B14C58
:101A000004EB03144B1EE35CF3BB431E03EB8303A5
:101A1000AC4C04EB03135B5CB3BB00EB800304EB47
:101A200003144B1EE35C7BBB00EB8003A54C04EB73
:101A300003144B1CE35CFF2B4CD1431C03EB8303CF
:101A4000A04C04EB03135B5CFF2B43D1431E03EB61
:101A5000830304EB03135B5C73B9431C03EB830345
:101A600004EB03135B5CFF2B06D1831C03EB8303A6
:101A700004EB03135B5C53B1002300EB8004914D36
:101A800005EB0414635400E024E00122A0E000EB25
:101A900080038C4C04EB03144B1EE35C8BB900EB0E
:101AA0008003884C04EB03144B1CE35CFF2B08D130
:101AB00000EB8003834C04EB03148B1CE35C002BD2
:101AC00007D0002300EB80047E4D05EB0414635423
:101AD00001227DE000EB80037A4C04EB03144B1EE3
:101AE000E35CEBBB431C03EB8303764C04EB031476
:101AF0004B1EE35CA3BB431C03EB8303714C04EB61
:101B000003135B5C63BB431E03EB830304EB031310
:101B10005B5CFF2B2BD100EB800304EB03144B1C0D
:101B2000E35C012B23D100EB8003664C04EB031430
:101B30004B1EE35C83B900EB8003624C04EB03149F
:101B40004B1CE35CFF2B07D100EB80035D4C04EBE7
:101B500003148B1CE35CDBB3002300EB800400E088
:101B600005E0584D05EB04146354012230E000EB0E
:101B70008003544C04EB03144B1CE35C43BB431C39
:101B800003EB83034F4C04EB03135B5C03BB431C6D
:101B900003EB830304EB03144B1CE35CC3B9431E48
:101BA00003EB8303474C04EB03135B5CFF2B0FD168
:101BB00000EB800304EB03144B1EE35CFF2B07D107
:101BC000002300EB80043F4D05EB04146354012215
:101BD000491C4E29FFF677AD401C3A28FFF671AD3F
:101BE000002A7FF46BAD30BD70B50122A4E2002263
:101BF00001209EE2012198E2334B1B68032493FBF2
:101C0000F4F3314C2468E31A2F4C2468032594FB29
:101C1000F5F42D4D2D682C1B63432C4C2468041BBC
:101C20002A4D2D68451B6C43294D2D684D1B284EB0
:101C300036688E1B05FB0644A34265DD00EB80037E
:101C4000244C04EB03135B5CFF2B5DD1431E03EBC1
:101C5000830304EB03144B1EE35CEBBB431E03EB5B
:101C600083031C4C04EB03135B5CABBB431E03EB15
:101C7000830304EB03144B1CE35C6BBB00EB80039E
:101C8000144C04EB03144B1EE35CFF2B3DD100EB23
:101C90008003104C04EB03144B1CE35CFF2B34D18A
:101CA000431C03EB83030B4C04EB03135B5CFF2B24
:101CB0002BD1431E03EB830304EB03135B5CDBB903
:101CC000431C0AE0B42500200C000020080000207E
:101CD000040000203400002017E003EB830304EB32
:101CE00003135B5CFF2B07D1831C03EB830304EB23
:101CF00003135B5C002B07D0002300EB8004FE4D38
:101D000005EB0414635401220EE2431E03EB83032C
:101D1000F94C04EB03144B1EE35CEBBB00EB8003BC
:101D2000F54C04EB03144B1EE35CABBB431C03EB11
:101D30008303F14C04EB03144B1EE35C63BB431EB3
:101D400003EB8303EC4C04EB03135B5CFF2B34D1FC
:101D5000431C03EB830304EB03135B5CFF2B2CD1CD
:101D600000EB800304EB03144B1CE35CFF2B24D13A
:101D700000EB8003E04C04EB03144B1EE35C9BB9C7
:101D800000EB8003DC4C04EB03144B1CE35CFF2BE7
:101D90000AD100EB800300E00FE0D74C04EB031402
:101DA0008B1CE35C002BAFD0002300EB8004D24DF2
:101DB00005EB041463540122B6E1431C03EB8303D7
:101DC000CD4C04EB03144B1EE35C9BBB431C03EBA9
:101DD0008303C94C04EB03135B5C5BBB431C03EB49
:101DE000830304EB03144B1CE35C1BBB00EB80037D
:101DF000C14C04EB03144B1EE35CFF2B1BD100EB27
:101E00008003BD4C04EB03144B1CE35CFF2B12D18D
:101E1000431E03EB8303B84C04EB03135B5CFF2B03
:101E200009D1002300EB8004B34D05EB0414635487
:101E3000012279E1FFE7431E03EB8303AE4C04EB81
:101E400003144B1CE35C93BB00EB8003AA4C04EB34
:101E500003144B1CE35C53BB431C03EB8303A64CF2
:101E600004EB03144B1CE35C0BBB431E03EB83032B
:101E7000A14C04EB03135B5CFF2B19D1431C03EB58
:101E8000830304EB03135B5CFF2B11D100EB800396
:101E900004EB03144B1EE35CFF2B09D1002300EB82
:101EA0008004954D05EB0414635401223CE1FFE7E7
:101EB000431E03EB8303904C04EB03135B5CEBBB0F
:101EC000431E03EB830304EB03144B1CE35CABBB2B
:101ED00000EB8003884C04EB03144B1CE35C6BBBEE
:101EE000431C03EB8303844C04EB03135B5CFF2B69
:101EF0002AD100EB800304EB03144B1EE35CFF2BA1
:101F000022D1431E03EB83037B4C04EB03135B5C86
:101F10007BB9431C03EB830304EB03135B5CFF2BD4
:101F200007D1831C03EB830304EB03135B5C002BDF
:101F3000BCD0002300EB80046F4D00E004E005EB13
:101F4000041463540122EFE0431E03EB83036A4C45
:101F500004EB03144B1EE35CF3BB431E03EB830350
:101F6000654C04EB03135B5CB3BB00EB800304EB39
:101F700003144B1EE35C7BBB00EB80035E4C04EB65
:101F800003144B1CE35CFF2B4CD1431C03EB83037A
:101F9000594C04EB03135B5CFF2B43D1431E03EB53
:101FA000830304EB03135B5C73B9431C03EB8303F0
:101FB00004EB03135B5CFF2B06D1831C03EB830351
:101FC00004EB03135B5C53B1002300EB80044A4D28
:101FD00005EB0414635400E024E00122A4E000EBCC
:101FE0008003454C04EB03144B1EE35C8BB900EB00
:101FF0008003414C04EB03144B1CE35CFF2B08D122
:1020000000EB80033C4C04EB03148B1CE35C002BC3
:1020100007D0002300EB8004374D05EB0414635414
:10202000012281E000EB8003334C04EB03144B1ED0
:10203000E35CEBBB431C03EB83032F4C04EB031467
:102040004B1EE35CA3BB431C03EB83032A4C04EB52
:1020500003135B5C63BB431E03EB830304EB0313BB
:102060005B5CFF2B2BD100EB800304EB03144B1CB8
:10207000E35C012B23D100EB80031F4C04EB031422
:102080004B1EE35C83B900EB80031B4C04EB031491
:102090004B1CE35CFF2B07D100EB8003164C04EBD9
:1020A00003148B1CE35C4BB3002300EB800400E0C3
:1020B00005E0114D05EB04146354012234E000EBFC
:1020C00080030D4C04EB03144B1CE35CB3B9431CBD
:1020D00003EB8303084C04EB03135B5C73B9431CF1
:1020E00003EB830304EB03144B1CE35C33B9431E83
:1020F00003EB8303004C02E03400002014E004EB07
:1021000003135B5CFF2B0FD100EB800304EB031484
:102110004B1EE35CFF2B07D1002300EB8004084D2E
:1021200005EB041463540122491C4E29FFF664ADEB
:10213000401C3A28FFF65EAD002A7FF458AD70BD12
:10214000340000204FF0E021096921F004014FF034
:10215000E0221161C21700EB5272C2F3C702314B89
:102160001A701946097801EB4102C2EBC1114FF612
:10217000FF7202EAC1012C4A118070470146294AC8
:1021800012784A434FF0E0235A6100229A610122FB
:102190001A6100BF4FF0E022106900F001021AB18D
:1021A00000F48032002AF5D000224FF0E0231A61BB
:1021B0009A61704701461C4A12884A434FF0E02357
:1021C0005A6100229A6101221A6100BF4FF0E02299
:1021D000106900F001021AB100F48032002AF5D033
:1021E00000224FF0E0231A619A61704770B50446EF
:1021F0004FF4077094FBF0F0C6B24FF4077094FBF5
:10220000F0F100FB114085B205E04FF40770FFF7D5
:10221000D1FF701EC6B2002EF7D115B12846FFF7C8
:10222000C9FF70BD22000020240000204A0A52028B
:102230000243FE4B1A6070470146072323EA01025E
:102240001202FA4B1B1D18684FF6FF031840F84B9B
:1022500018431043F54B1B1D186070472DE9F041E2
:102260000746884614461D462846FFF7E5FFC5F198
:10227000040007FA00F60F20284100EA0800064390
:1022800006F00F06E21704EBD2625211920002F13F
:10229000E022D2F800212146E31704EBD3635B115F
:1022A000A4EB431C012303FA0CF31A432046E31763
:1022B00004EBD3635B119B0003F1E023C3F800211F
:1022C000DC48005D40EA0610DA490855BDE8F081B7
:1022D000F0B503460846CD1701EB9575AD10A1EB9F
:1022E0008505AD062C0ED448006840F48040D24DE0
:1022F0002860CD1701EB9575AE10D04D55F82650DE
:102300000F26A640B5430846CE1701EB9676B710C8
:10231000CA4E46F82750CD1701EB9575AE10C74D44
:1023200055F8265003FA04F63543CE1701EB96769E
:10233000B710C24E46F82750C148006801258D40AD
:102340002843BF4D286002F0010040B1BC480C306A
:10235000006801258D402843B94D0C35286002F0F6
:10236000020040B1B6480830006801258D4028437E
:10237000B34D08352860F0BD30B5CC1000F1200316
:1023800053F824304C07E50E0F24AC40A343CD1086
:1023900000F1200444F82530CC1000F1200353F85C
:1023A00024304C07E40E02FA04F42343CD1000F16C
:1023B000200444F8253030BD2DE9F0470C46DDE916
:1023C0000867002100258C4600BF60E04FF001083F
:1023D00008FA01F504EA050CAC4557D1D0F80080A5
:1023E0004FEA410A4FF0030909FA0AF928EA0908F5
:1023F000C0F80080D0F800804FEA410902FA09F9DC
:1024000048EA0908C0F80080012A01D0022A27D131
:10241000D0F808804FEA410A4FF0030909FA0AF997
:1024200028EA0908C0F80880D0F808804FEA410976
:1024300006FA09F948EA0908C0F80880D0F80490BB
:102440004FF0010808FA01F829EA0809C0F80490D9
:10245000D0F8048003FA01F948EA0908C0F80480BA
:10246000D0F80C804FEA410A4FF0030909FA0AF943
:1024700028EA0908C0F80C80D0F80C804FEA41091E
:1024800007FA09F948EA0908C0F80C80491C102924
:102490009CD3BDE8F08730BF704772B6704762B614
:1024A000704700B561480830006840F004005F499B
:1024B000083108606048001F006840F080505E49A5
:1024C000091F08605F48406840F480705D494860BB
:1024D0000846006840F0040008600846006840F0C4
:1024E00002000860FFF7D7FF00BD5148001D4F49AB
:1024F000091D08607047F0B504460D460021002014
:102500004D4E443E366846F480364B4F443F3E6065
:1025100001E04E1CB1B2484E443E366806F4003627
:102520001EB941F6FF76B142F3DB41F6FF76B142C8
:1025300001D1012063E0404E361F366846F08056D8
:102540003D4F3F1F3E603F4E366846F440463D4F8C
:102550003E60394E3C3E366846F41446364F3C3FAA
:102560003E60354E443E366826F08076324F443F1A
:102570003E6045EA84160127C7EB520746EA074644
:1025800046EA036646F480062B4F403F3E603E1FFE
:10259000366846F080763F1F3E6000BF264E443EC0
:1025A000366806F00076002EF8D0274E366846F4DE
:1025B0008076254F3E603E46366846F400763E60A3
:1025C0003E46366846F480663E603E46366846F0D3
:1025D00005063E60184E3C3E366826F00306164F50
:1025E0003C3F3E603E46366846F002063E6000BF15
:1025F000114E3C3E366806F00C06082EF8D1F0BDB0
:10260000F0B504460D4616461F460B484438006890
:1026100040F00100084944390860002006493C396F
:102620000860054844380068084911E008ED00E0FA
:102630000000FA0500E400E0443802400838014098
:10264000003C014000700040003C0240FFFFF6FEED
:1026500008400D4908600D48091D0860081F006802
:1026600020F48020091F0860002007490C31086011
:102670003B46324629462046FFF73DFF00210846EB
:10268000FFF7D4FDF0BD00000038024010300024F8
:10269000014600BF704700BF494A128802F040025D
:1026A000002AF9D0C2B2464B9A80704710B5444810
:1026B000008800F0200030B141488088C4B22A2C44
:1026C00001D1FFF712FF10BDF0B52DED028B83B0E5
:1026D00005460E463B4905FB01F000EE100AF8EEF8
:1026E000400A300100EE100AB8EE400A80EE801A6F
:1026F000B0EE418ABCEEC80A10EE100A84B200EEB9
:10270000104AB8EE400A38EE400AF3EE000A20EE16
:10271000200ABCEEC00A10EE107A4FF6FF7000EAF5
:102720000414E01984B22848006840F001002649EA
:10273000086025481430006840F010002249143128
:1027400008600120022100230A46CDE900104FF461
:10275000C0611E48FFF730FE072209211B48FFF722
:102760000BFE07220A211948FFF706FE14480481D0
:10277000808920F40040124988810846808940F011
:10278000080088810846808940F004008881084656
:10279000808940F0200088810223252203210846F9
:1027A000FFF75CFD0648808940F4005004498881A9
:1027B00003B0BDEC028BF0BDC1F30802828070470C
:1027C0000010014040420F0030380240000002403B
:1027D0007CB50025D848006840F00100D649086063
:1027E0000846006840F0040008600846006840F0B1
:1027F000100008600846006840F0200008600220D1
:1028000000210B460A46CDE900100102CB48FFF734
:10281000D3FDCA481430006840F40070C749143131
:1028200008600120032100230246CDE900100A219F
:10283000C348FFF7C1FDC2481430006840F00A00E9
:10284000BF4914310860022000210B460A46CDE939
:102850000010FF21B948FFF7AFFDB84814300068F9
:1028600040F0FF00B5491431086001200321002326
:102870000246CDE900102821B248FFF79DFDB1487E
:10288000406940F02800AF4948610120032100233E
:102890000246CDE900104103A948FFF78DFD4FF432
:1028A0000050A7491431086000F050F9802112202F
:1028B00000F035FA08B101207CBD3220FFF796FC0C
:1028C0000B2000F04BFA0446732C01D00220F3E7F2
:1028D0000A2000F043FA0446762C01D00220EBE7F0
:1028E00000250DE0984A02EB45025178964A12F80D
:1028F000150000F014FA0220FFF778FC681C85B27E
:10290000AE2DEFD30020D7E72DE9F0410446E725AF
:1029100000260027012C06D0022C08D0032C0AD058
:10292000042C10D10BE0E5255A265C270BE0E525A9
:102930005826602707E0E52584264C2703E0E52597
:102940009626402700BF00BF2946132000F0E7F974
:102950003146012000F0E3F93946022000F0DFF9AA
:10296000BDE8F0812DE9F0410446802522265E274E
:1029700034B1012C08D0032C0AD0042C10D10BE068
:10298000402511262F270BE066251B264B2707E045
:1029900099252826712703E0C02533268D2700BFFF
:1029A00000BF29464F2000F0BAF92946502000F018
:1029B000B6F90021512000F0B2F93146522000F062
:1029C000AEF93946532000F0AAF92946542000F008
:1029D000A6F99E21582000F0A2F9BDE8F08170B55B
:1029E0000446002534B1012C06D0032C06D0042C5B
:1029F00008D105E0B02505E0982503E0182501E0A1
:102A0000302500BF00BF2946552000F088F970BD71
:102A100070B50446402534B1012C06D0032C06D0F5
:102A2000042C08D105E0302505E0382503E05025C9
:102A300001E0602500BF00BF2946562000F06FF975
:102A400070BD2DE9F04104460425C0268027072CDF
:102A50001DD2DFE804F01C04080C10141800242513
:102A60008026802713E01425802680270FE0142578
:102A7000C02680270BE014254026402707E01425B8
:102A80008026C02703E01425A026402700BF00BFF2
:102A900029463A2000F043F93146682000F03FF91A
:102AA0003946672000F03BF9BDE8F0812DE9F04799
:102AB00005460E469046994605EB48001FFA80FAF7
:102AC00006EB490087B2B7F5447F02DDA7F54470F5
:102AD00087B2032000F042F9044604F0F0040AF043
:102AE0000301284661F39F0004432146032000F0C0
:102AF00016F9C5F38701192000F011F9CAF387010F
:102B00001A2000F00CF9322000F028F9044604F0F5
:102B1000C00407F00701304661F3DF000443C6F349
:102B2000C701172000F0FBF8C7F3C701182000F019
:102B3000F6F8BDE8F087000030380240001402408B
:102B40000008024000100240064900081CB59748E2
:102B5000006840F010009549086001200221002320
:102B60000246CDE9001050219148FFF725FC90481E
:102B7000406940F050008E4948610846006820F4E2
:102B8000405008600846006840F4805008601CBD52
:102B900010B50120874908608749C1F89002782064
:102BA000FFF7ECFA0020834908607820FFF7E6FA87
:102BB00000208149C1F8900210BD10B500207D4968
:102BC00008607820FFF7DAFA01207B49C1F890020B
:102BD0007820FFF7D3FA0120764908607820FFF7C4
:102BE000CDFA10BD10B57820FFF7C8FA0120714961
:102BF00008607149C1F890027820FFF7BFFA002001
:102C00006C49083908607820FFF7B8FA00206A4953
:102C1000C1F898027820FFF7B1FA10BD70B50446EC
:102C200000261BE004F0800018B101206149086013
:102C300002E000205F4908606006040E7820FFF77C
:102C40009DFA01205B49083908607820FFF796FA61
:102C500000205949C1F89002701CC6B2082EE1DB71
:102C60005348006820F44050514908600846006805
:102C700008607820FFF782FA01204E490839086081
:102C80007820FFF77BFA4C48D0F8180208B10125EC
:102C900000E00025002047490839086044480068E2
:102CA00020F44050424908600846006840F48050D3
:102CB0000860284670BD70B500243D48006820F4C7
:102CC00040503B490860084600680860082517E046
:102CD0007820FFF753FA012036490839086060066A
:102CE000040E3548D0F8180208B1601CC4B2782030
:102CF000FFF744FA00202F4908390860681EC5B262
:102D0000002DE5DC2A48006820F44050284908607E
:102D10000846006840F480500860204670BD70B5D9
:102D200005460C460026FFF733FF4220FFF776FFEB
:102D300000B10126DC20FFF721FA2846FFF76EFFDD
:102D400000B10126DC20FFF719FA2046FFF766FFE5
:102D500000B10126FFF731FF304670BD70B5044663
:102D60000025FFF715FF4220FFF758FFDC20FFF793
:102D700005FA2046FFF752FFDC20FFF7FFF9FFF7C7
:102D80001CFFDC20FFF7FAF9FFF702FF4320FFF7F3
:102D900045FFDC20FFF7F2F9FFF78DFF0546FFF74F
:102DA00021FFFFF70AFF284670BD000030380240BF
:102DB00000100240980242420000424270B50546AF
:102DC0000C465548006840F00200534908605348DB
:102DD0000560001F048051482038008840F0010041
:102DE0004E4920390880081D008820F00100091D87
:102DF000088002231D2200210120FFF72FFA4748F7
:102E00002C38008840F0010044492C39088070BDFE
:102E100070B505460C464048006840F001003E4948
:102E200008600806C5620485808940F00100090633
:102E300088810846008A20F00100088202231C22B3
:102E400000210120FFF70AFA70BD10B533482C3875
:102E50000088002031492C39088031480068401C26
:102E60002F49086008460068022823DD00202B490E
:102E70000839086029481C38008800F00100C8B1F2
:102E800028480068B0B9C820FFF7B0F9002108460B
:102E9000FDF7B2FA0020234988310860FDF7C5FC30
:102EA000FEF709FCFEF751F8FEF74BFAFEF79CF926
:102EB000FEF747FA19481C38008820F0010017492E
:102EC0001C39088010BD4FF08040008800204FF072
:102ED0008041088014480068401C13490860084677
:102EE000006802280FDD00204FF08041486208464C
:102EF000008A00F0010030B101200C490870002068
:102F000008497C3108604FF08040008A20F00100C1
:102F10004FF0804108827047403802402C04004046
:102F2000280000200C8241422C00002000000020DC
:102F300010B53648006800F40070A0B10020344994
:102F400008600120FFF71AF901203249C1F88C020C
:102F50003149C1F88C0231480078401C2F49087073
:102F6000C820FFF70BF94FF400702849086010BD26
:102F700010B56420FFF73AF929480068012809D103
:102F800000202749883108602649C1F8880226496F
:102F900008701CE000204FF080414862234908700F
:102FA0002349088001201E49883108602148008893
:102FB00040F001001F4908806420FFF717F91D4801
:102FC0001030008820F001001A49103108800820D4
:102FD0000E49086010BD10B5022209210520FFF737
:102FE00077F90223172200210846FFF737F910BDB1
:102FF00010B5032211461046FFF76AF90223092291
:1030000000210320FFF72AF910BD0000143C014005
:103010008C02424200004242000041423000002047
:103020000C8241420080414220000020000000202C
:1030300002000020000400402DE9F0410C46154636
:10304000069E4C4FB84209D939464B4F3F6847F46A
:103050008007DFF824C1CCF8007008E04749464FEC
:103060003F6847F40017DFF810C1CCF8007000BFCC
:10307000076807F00107002FFAD1471A103F4FF0F9
:10308000180CB7FBFCF7FAB2062A10DBCF68A2F1E6
:10309000060C0CEB4C0C4FEA4C0C0CF1100C4FF0E6
:1030A0003D0808FA0CF847EA0807CF602FE0042A29
:1030B0000EDBCF68A2F1040C0CEB4C0C4FEA4C0871
:1030C0004FF03D0C0CFA08FC47EA0C07CF601EE0FD
:1030D000022A10DB8F68A2F1020C0CEB4C0C4FEAB9
:1030E0004C0C0CF1100C4FF03D0808FA0CF847EAB4
:1030F00008078F600BE08F6802EB420C4FEA4C0828
:103100004FF03D0C0CFA08FC47EA0C078F60856015
:10311000C360466000270760076847F04007076004
:103120000768076007680760076847F480670760FB
:103130000768076007680760076847F4803707601B
:103140000768076007680760076847EA4467076021
:10315000BDE8F081026822F00102026000BF02684F
:1031600002F00102002AFAD14160026842F0010235
:103170000260704700640240303802400060024044
:103180001CB51548006840F008001349086001208C
:10319000032100230246CDE9001004210F48FFF768
:1031A0000BF90120032100230246CDE90010202164
:1031B0000A48FFF701F90020009003460246082163
:1031C00001900648FFF7F8F8002005490860012043
:1031D0000449C1F894021CBD30380240000C024082
:1031E0008882414200804142704710B5203AC0F0C9
:1031F0000B80B1E81850203AA0E81850B1E81850F8
:10320000A0E81850BFF4F5AF5FEA027C24BFB1E834
:103210001850A0E8185044BF18C918C0BDE81040A5
:103220005FEA827C24BF51F8043B40F8043B08BFAE
:103230007047D20728BF31F8023B48BF11F8012B75
:1032400028BF20F8023B48BF00F8012B70474FF021
:10325000000200B5134694469646203922BFA0E8E6
:103260000C50A0E80C50B1F12001BFF4F7AF0907F2
:1032700028BFA0E80C5048BF0CC05DF804EB8900E3
:1032800028BF40F8042B08BF704748BF20F8022B26
:1032900011F0804F18BF00F8012B7047704770473E
:1032A0007047704710B500F009F8006810BD10B500
:1032B000044600F003F8046010BD000000487047A9
:1032C000A020012000487047A02001207546FFF78C
:1032D000F9FFAE4605006946534620F007008546D3
:1032E00018B020B5FCF7B2FFBDE820404FF0000653
:1032F0004FF000074FF000084FF0000B21F00701DE
:10330000AC46ACE8C009ACE8C009ACE8C009ACE820
:10331000C0098D4670470446AFF300802046FCF795
:103320007CFF03B401984100009850EAC12018BF07
:1033300004204A0D18BF40F0010040F2FF72B2EBCA
:10334000515F08BF40F00200012808BF052002B00D
:10335000704700000000000010B52F499FED2C1BA6
:103360002DED020B84B0059820F000408842D8BFB4
:103370009DED040B2DDD2949884209D1049840B9FF
:103380004FF00100FFF793FF00F0A2FC06B010BD64
:1033900005DB9DED040B00F08FFC06B010BD684608
:1033A0009DED040B00F0A0F810F0030004BF9DEDAC
:1033B000021B9DED000B0CD001280ED09DED021BD1
:1033C0009DED000B022817D0012000F0DDFB06B0B8
:1033D00010BD00F0A5FA06B010BD9DED021B9DEDDD
:1033E000000B012000F0D0FB51EC100B00F09CFC16
:1033F00006B041EC100B10BD00F092FA51EC100B2E
:1034000000F092FC06B041EC100B10BD0000000073
:103410000000000000000000FB21E93F0000F07FF9
:1034200010B52F499FED2C1B2DED020B84B0059894
:1034300020F000408842DCBF00209DED040B32DD0F
:103440002849884209D1049840B94FF00100FFF79C
:103450002EFF00F03DFC06B010BD05DB9DED040B1A
:1034600000F02AFC06B010BD68469DED040B00F08C
:103470003BF810F0030011D0012818D09DED021B7D
:103480009DED000B02281AD000F04AFA51EC100B07
:1034900000F04AFC06B041EC100B10BD9DED021B84
:1034A0009DED000B012000F06FFB06B010BD9DEDFF
:1034B000021B9DED000B00F033FA06B010BD012099
:1034C00000F062FB51EC100B00F02EFC06B041EC5A
:1034D000100B10BD00000000000000000000000004
:1034E000FB21E93F0000F07F2DE9F14F04462DED6F
:1034F000020B2DED088B8AB09FEDE70B80ED020BE0
:10350000139EE74826F0004585420ADC9DED120B2C
:10351000002084ED000B0AB0BDEC088B03B0BDE8C1
:10352000F08FE0489FEDE0AB9FEDE1BBA84247DDA7
:10353000E14F9FEDE39B9FEDE48B9DED120B53EC70
:103540001A2B51EC100B002E1CDD01F009F841EC98
:10355000100BBD4208D053EC1B2B51EC100B00F0AC
:10356000FFFFC4E900010BE053EC192B51EC100BE9
:1035700000F0F6FF53EC182B00F0F2FFC4E9000155
:103580000120C8E700F0DCFB41EC100BBD4208D085
:1035900053EC1B2B51EC100B00F0D2FBC4E90001E3
:1035A0000BE053EC192B51EC100B00F0C9FB53EC62
:1035B000182B00F0C5FBC4E900014FF0FF30AAE76B
:1035C000C348A84279DB9DED120B51EC100B00F0C3
:1035D0009FFB41EC180B9FEDC00B53EC102B00F040
:1035E0007FFE9FEDBF1B53EC112B00F0A9FB00F0F9
:1035F000B3FD074600F00DFE41EC190B53EC1A2BFE
:1036000000F06EFE53EC182B00F09EFF41EC180BFF
:1036100053EC1B2B51EC190B00F062FEDFF8C8A233
:1036200041EC100B4FEA15580125FA4453EC102BCE
:1036300051EC180B00F094FF032DC4E900013DD0BC
:10364000C1F30A5005EB4511A8EB00001139814286
:1036500034DA0AEB051BB0EE48AA9BED000BF0EE46
:1036600068AA53EC102B51EC190B00F039FE41EC19
:103670001B0B51EC1A0B53EC1B2B00F071FF41ECB0
:10368000180B51EC1A0B53EC182B00F069FF53EC9C
:103690001B2B00F065FF9BED020B41EC1A0B53EC6A
:1036A000102B51EC190B00F01BFE53EC1A2B00F001
:1036B00057FF41EC100B6D1CB8E70EE0002EA8BFC1
:1036C0003846BFF628AF94ED000B51EC100B00F01C
:1036D0002BFBC4E9000178421DE7C6F3130040F458
:1036E000801EC6F30A50A0F2F530471100F01F0506
:1036F000C5F12000DDF848B0089000200690079042
:103700000520EC467949002D07EB0002794408BFFB
:1037100051F8221009D051F8223001EB8201AB4060
:103720004A68089922FA01F11943A1FB0E26A1FB70
:103730000B131A449A4234BF0123002303EB0608FB
:103740000CEB8003D3E901A60E448E4234BF012165
:10375000002192448A4411B1924502D903E0924576
:1037600001D2012100E00021C3E901A641444CF847
:103770002010011EA0F10100C4DC029800F10050ED
:10378000850F0298DDE903678000DDF8148000F002
:1037900040FD41EC1A0B304600F052FD9FED541BEA
:1037A00053EC112B00F09CFD41EC1B0B384600F054
:1037B00047FD9FED511B53EC112B00F091FD41ECA7
:1037C000180B404600F03CFD9FED4D1B53EC112BB8
:1037D00000F086FD41EC190B51EC180B53EC192B42
:1037E00000F0AEFA53EC1B2B00F0AAFA53EC1A2BA4
:1037F00000F0A6FACDE90801002008909DED080B25
:1038000053EC1A2B51EC100B00F0AAFE53EC1B2BBF
:1038100000F0A6FE53EC182B00F0A2FE53EC192B7F
:1038200000F092FE9FED381B53EC112B00F058FD79
:103830009FED370B41EC180B53EC102B9DED080B53
:1038400051EC100B00F04CFD53EC182B00F078FA03
:103850009FED310B41EC180B53EC102B9DED080B39
:1038600051EC100B00F03CFD53EC182B00F068FA03
:1038700041EC100B139810F0004F06D06D4251EC44
:10388000100B00F051FA41EC100B284684ED000BB0
:1038900041E6000000000000000000000000000001
:1038A000FB21E93F7CD9024000004054FB21F93F55
:1038B0003163621A61B4D03DFB21F93F0000000082
:1038C0000000601A61B4D03D7370032E8A19A33BC7
:1038D000FB2139410000000083C8C96D305FE43F1F
:1038E000000000000000E03F6A140000B813000070
:1038F000000000000000103E000000000000103C2E
:10390000000000000000103A182D4454FB21F93D3E
:103910003326A611460B113C00000054FB21F93D53
:1039200010B52DED040B2DED088B82B0B0EE419A51
:10393000F0EE619A0B9820F000449FED4BABB4F190
:10394000795F11DA9DED0A0B51EC100B00F004FCCD
:10395000002801BFB0EE4A0AF0EE6A0A02B0BDECE0
:10396000088B04BF04B010BD9DED0A0B53EC102B67
:1039700051EC100B00F0B4FC41EC180B3C48062154
:10398000B0EE480AF0EE680A784400F081F853EC93
:10399000182B51EC100B00F0A3FC9DED0A0B41EC31
:1039A0001B0B53EC192B51EC100B00F099FC41EC64
:1039B000190B53EC1B2B51EC180B00F091FC53EC42
:1039C000192B00F0CDFD9FED2C0B41EC190B53ECA6
:1039D000102B51EC180B00F083FC41EC100B284825
:1039E000844210DA53EC192B51EC100B00F0B8FDA7
:1039F00053EC1A2B00F0A8FD41EC100B02B0BDEC0B
:103A0000088B04B010BD1F48A042BCBF9FED1E1B19
:103A10008DED001B06DBA4F5001001900020009046
:103A20009DED001B51EC100B53EC112B00F098FD99
:103A30009DED000B41EC180B53EC102B51EC1A0BC5
:103A400000F08EFD41EC1A0B53EC192B51EC180BC6
:103A500000F086FD53EC1A2B00F076FD41EC100BC4
:103A6000CCE7000000000000000000000000F03F74
:103A7000DC10000000000000000000000000E03F3B
:103A80003333D33F0000E93F000000000000D23F85
:103A900070B504462DED028B4D1E00EBC500B0EE57
:103AA000408AF0EE608A90ED000B35F0060017D0EA
:103AB00053EC182B51EC100B00F012FC41EC100BE6
:103AC0006D1E04EBC50090ED001B51EC100B53EC88
:103AD000112B00F035F941EC100B35F00600E7D161
:103AE000022D36D0042D1CD0062D1CBFBDEC028B40
:103AF00070BD53EC182B51EC100B00F0F1FB94ED62
:103B00000A1B53EC112B00F01BF953EC182B00F09F
:103B1000E7FB94ED081B53EC112B00F011F941EC7D
:103B2000100B53EC182B51EC100B00F0D9FB94ED5B
:103B3000061B53EC112B00F003F953EC182B00F08B
:103B4000CFFB94ED040B53EC102B00F0F9F841EC93
:103B5000100B53EC182B51EC100B00F0C1FB94ED43
:103B6000021B53EC112B00F0EBF853EC182B00F078
:103B7000B7FB94ED001B53EC112B00F0E1F8BDEC0A
:103B8000028B41EC100B70BD31B504462DED040BDA
:103B90002DED0A8BB0EE41BAF0EE61BA0B989DEDB7
:103BA0000A0B20F00040B0F1795F0DDA51EC100BF8
:103BB000FFF7B7FB042808BF00F09AF89DED0A0B49
:103BC000BDEC0A8B05B030BD53EC102B51EC100B43
:103BD00000F086FB41EC180B9DED0A0B53EC182B03
:103BE00051EC100B00F07CFB41EC190B2C48B0EEB3
:103BF000480AF0EE680A05217844FFF749FF9FED77
:103C00002ACBB0EE40AAF0EE60AA9CB353EC1C2B7A
:103C100051EC190B00F064FB41EC1C0B53EC1A2B1C
:103C200051EC190B00F05CFB9FED210B41EC190BE3
:103C300053EC102B51EC1B0B00F052FB53EC192BE7
:103C400000F08EFC53EC182B00F04AFB53EC1B2BBE
:103C500000F086FC53EC1C2B00F082FC9DED0A1B4F
:103C600053EC112B00F070FCBDEC0A8B05B041EC5D
:103C7000100B30BDFFE753EC1A2B51EC180B00F082
:103C80002FFB53EC1C2B00F05BF853EC192B00F0CE
:103C900027FB9DED0A1B53EC112B00F051F8E3E7D5
:103CA000640F000000000000495555555555C5BF2B
:103CB000000000000000E03F10B553EC102B51EC69
:103CC000100B00F03DF841EC100B10BD000000009F
:103CD0009FED050B10B553EC102B51EC100B00F0C1
:103CE000E3F841EC100B10BD0000000000000000E4
:103CF0009FED050B10B553EC102B51EC100B00F0A1
:103D0000EFFA41EC100B10BD0000000000000010A5
:103D100082B0CDE9000121F0004001909DED000B43
:103D200002B051EC100B704781F00041704780F0F9
:103D30000040704721F00041704720F0004070477C
:103D400010B591EA030F48BF83F0004300F11084DF
:103D5000841A71EB030C05D2121943EB0C03001B00
:103D600061EB0C01DFF824E14FEA1154A4EB135C82
:103D70001EEA430F18BF9EEA445F73D023EA0E0386
:103D8000DCF1200E21EA045143F4801332D322FAED
:103D90000CFE10EB0E0023FA0CFE41EB0E01CCF1F1
:103DA000200E03FA0EFE10EB0E0051F10001B1F5EA
:103DB000801FCCF1200E32D201EB045112FA0EF228
:103DC000BDE8104058BF7047401C38BF5FEA420250
:103DD00018BF7047002814BF20F0010041F1000116
:103DE0004FEA410313F5001F38BF7047A1F1C041EE
:103DF00000F06EBB012A43EB0302ACF1200CDCF1B6
:103E00001F0E32BF4FF0000E23FA0CF310EB03002D
:103E100041EB0451B4EB115FD0D0A1EB045101F59B
:103E2000801149085FEA300001EB04510ED350F1D4
:103E3000000038BF12FA0EFE08D1BDE81040C9E7F5
:103E4000401C38BF5FEA4202CAD1C3E7BDE8104058
:103E50004FEA410313F5001F38BF7047A1F1C0417D
:103E600000F036BB9EEA445F08D011EA5E0FBDE861
:103E7000104004BF01F0004100207047BDE8104031
:103E800070B500F0D7FA00BF64FBBE3E0000E0FF53
:103E9000491058BFC1F140415B1058BFC3F14043C6
:103EA0008B42EFF3008070472DE9C04130B4DFF85A
:103EB000A0C23CEA111418BF3CEA131400F0EC80D5
:103EC00081EA03051CEA111444EAD57418BF1CEA00
:103ED000131500F0C780A4EB05044FF0004545EA38
:103EE000C12145EAC32341EA505143EA525304F148
:103EF0007F74994204F500344FEAC0204FEAC22291
:103F000008BF904200F09C804FEA13650FF2401604
:103F1000765D4FEA134506FB05F7C7F1807706FB90
:103F200007F74FEAD737A7FB03687642C8F5803812
:103F3000A7FB06CE38BFA8F1010807FB08E64FF043
:103F4000000EA6FB028CE6FB03CEDCF1000CCEF1EA
:103F5000004E38BFAEF1010EA6FB0C584FF0000723
:103F60004FF00005E6FB0E87A1FB08C6A0FB07CEBD
:103F700016EB0E0645F10005E1FB076515F1E04E75
:103F80007EBFA4F580345FEA46066D4116F18007D6
:103F900045F100054FEA17274FEA066647EA05672D
:103FA000A6F1DE46B6F1805F4FEA15251FD93846E7
:103FB00024F0010C05EBC471BCF1FE6F01EB0C1198
:103FC00002D8F0BCBDE8008124425CBF01F5801E30
:103FD0009EEAC47F02D4F0BCBDE80081244238D4FC
:103FE000F0BCA1F1C041BDE8004100F071BA4FEA58
:103FF000D22242EA43524FEAD323A7FB02864FEA7A
:10400000D02040EA415007FB03661EEA0E0F4FEA3C
:10401000D12105FB026658BFA6EB0056B6EB005651
:104020004FEA520E4EEAC37E18EB0E0E56EB530EBD
:10403000BDD518EB02085E417F1C55F10005B6E7BF
:104040004FF480154FF000074FF000064FF00008C6
:10405000ADE7F0BC4FF0000001F1C04101F00041BC
:10406000BDE8008111EA0C1F0CEA131500D00CE02A
:1040700013EA0C1F00F025804FF00000F0BC81EA2D
:10408000030101F00041BDE80081F0BCBDE8004142
:1040900081EA030100F01CBAF0BCBDE8004170B534
:1040A00000F0C8F9097EFC3E00F007B881EA030180
:1040B0004FF0000001F00041704781EA030100F079
:1040C00007BAF0BCBDE800414FF00000214970473D
:1040D000FFFDFBF9F7F5F4F2F0EEEDEBE9E8E6E4CD
:1040E000E3E1E0DEDDDBDAD8D7D5D4D3D1D0CFCD54
:1040F000CCCBCAC8C7C6C5C4C2C1C0BFBEBDBCBB8D
:10410000BAB9B8B7B6B5B4B3B2B1B0AFAEADACAB87
:10411000AAA9A8A8A7A6A5A4A3A3A2A1A09F9F9E61
:104120009D9C9C9B9A999998979796959594939313
:10413000929191908F8F8E8E8D8C8C8B8B8A8989AA
:10414000888887878685858484838382828181802D
:104150000000FF070000F87F4FEA41034FEA535386
:10416000A3F58063D3F11E03C8BFD3F1210C0CDD8E
:104170004FF0004242EAC12242EA505232FA03FCB6
:104180008CEAE17CACEBE1707047102BC4BF0020DF
:10419000704703F5787CBCF1FF3F04D06FF000421C
:1041A00082EA2100704770B500F044F949922480FA
:1041B00000207047F2E700004FEA1153A3F5806337
:1041C000D3F11E03A8BFD3F1200C08DB4FF000424F
:1041D00042EAC12252EA505232FA03F070470942D1
:1041E0000BD4102BC4BF0020704703F5787CBCF1C2
:1041F000FF3F05D04FF0FF3070474FF00000704791
:1042000070B500F017F900BF499224800020704774
:10421000F0E710F0004248BF4042B0FA80F310FAD5
:1042200003F10AD0C3F11D0303F580634FEA415047
:1042300002EB035202EBD12170474FF000007047B0
:10424000B0FA80F310FA03F10AD0C3F11D0303F5AD
:1042500080634FEA41504FEA035202EBD12170478D
:104260004FF000007047000051EA030C17D41CF512
:10427000801F58BFBCF5801F00F10680994218BF0F
:10428000704708BF9042704707D711F5801F58BF8D
:1042900013F5801F19D499427047894270471CF565
:1042A000801F08D5BCF5801FF7D58B4218BF70471B
:1042B00008BF824270474FF4001C1CEB410F38BF0F
:1042C0001CEB430F01D28B42704770B500F0B2F87F
:1042D000922449004FF000514FF08053FFF7D8BDB2
:1042E000DFF848C170B51CEA111E1EBF1CEA131589
:1042F0009EEA0C0F95EA0C0F00F06F8081EA030430
:1043000023EA4C134EEAD47E21EA4C1141F4801189
:1043100043F48013AE44A1FB024CA0FB0365AEF155
:104320007F7E361955EB0C05A1FB034C4CF10003C5
:10433000A0FB021C16EB0C06654153F10003094279
:1043400018BF46F0010613F4007F0BD14FEA03318A
:104350004FEA0530340341EA155140EA16506FF038
:1043600003020AE04FEAC3214FEAC520F40241EA02
:10437000555140EA56506FF0020202EB2E4201EB1B
:10438000025585EACE710AD05FEA440C18BF24F0CA
:10439000004450F1000041F1000120EAD47040F2E5
:1043A000FE7C624500D270BDA84214BF4FF080442D
:1043B0004FF04044002E08BF0024BEF1806FA8BF1C
:1043C000A1F1C041BDE8704080F282804FF0000052
:1043D00001F1C04101F0004170479EEA0C0F0CEA68
:1043E000131518BF95EA0C0F06D04FF0000081EAB4
:1043F000030E0EF0004170BD00F01CF88900013E74
:1044000000F007B800F009B84FEA430C5FEA5C5CC3
:1044100008D081EA030100F05BB84FEA410C5FEA83
:104420005C5CF6D14FF00000014970470000FF07C7
:104430000000F87F0EF1020E2EF0030E5EF8046B02
:10444000364205D4012A43EB030515F5001F12D8A7
:10445000012841EB010C1CF5001F0CD80ED14FEACE
:10446000D17C15F5001F0CEB4C0C0CF1020C08BFB5
:104470004CEBD37C04E04FF0080C01E04FEAD37C16
:104480000CEB4C0526FA05F606F00706B6F1040C0F
:1044900006D20EEB860CBDE870404CF0010C604774
:1044A000DFE80CF0090B02024FF000414FF0000072
:1044B000A1F5002170BD19461046012851EB0104F9
:1044C00018BFD4F5001484BF002001F0004170BD76
:1044D0000808A0F500114FEA3101704753EA010CBA
:1044E00017D41CF5801F58BFBCF5801F00F1068053
:1044F0008B4218BF704708BF8242704707D713F539
:10450000801F58BF11F5801F19D48B4270479B4202
:1045100070471CF5801F08D5BCF5801FF7D5994260
:1045200018BF704708BF904270474FF4001C1CEB47
:10453000430F38BF1CEB410F01D2994270470FB4B3
:104540000CBC03BCFFF7C1BE91EA030F10B581F0AC
:1045500000413FF5FDAB83F0004300F009B80000D7
:1045600010B591EA030F48BF83F000433FF5F0AB6D
:10457000841A71EB030C07D212198CF0004C43EB38
:104580000C03001B61EB0C01DFF8A4E14FEA1154AE
:10459000A4EB135C1EEA430F18BF9EEA445F00F0D1
:1045A000B08023EA6E03524221EA0451C3EB6E034A
:1045B00038BF5B1EDCF1200E25D322FA0CFE10EB77
:1045C0000E0043FA0CFE41EB0E01CCF1200E03FA73
:1045D0000EFE10EB0E0051F10001CCF1200E29D49B
:1045E00012FA0EF201EB0451BDE8104058BF7047BB
:1045F000401C1CBFB2F1004F704700280CBF491C83
:1046000020F00100704712EB020E43EB030218BFCB
:104610004FF0010E4EEA4202ACF1200CDCF11E0E0E
:1046200054D943FA0CFE10EB0E0051F1FF31CCF1DE
:104630001E0ED5D50EF1010E12FA0EFE404141EBD1
:10464000010101EB445C5FEA5C5C10D910EBDE70A9
:1046500001EB045138BFBEF1004FBDE8104018BF58
:10466000704700280CBF491C20F00100704730D271
:104670004FEAD42C11F5001124F400641BD0B1FAD8
:1046800081F20B3AA41AA41ED2F12003914030FA11
:1046900003F31943904001EBCC71002C01EB045162
:1046A000BDE81040A8BF704701F1C0414FF00000C5
:1046B00001F000417047B0FA80F310FA03F100D125
:1046C00010BDE41A173C4805C90AE4E701EB0451A0
:1046D00010BD491001EB0451BDE810404FEA300015
:1046E00002E04FF0000170474A0008BF0042F8D0D6
:1046F000B2F5001F28BF704701F000414FF00000E5
:1047000070479EEA445F07D011EA5E0FBDE8104093
:1047100004BF002100207047BDE8104070B5FFF7CE
:1047200089FE00BF40DFF63E83F00041104670472F
:104730000000E0FF43004FEAD30C4FEA3C0C43403B
:104740001FBF40070CF1605113F0FE4F70471CF083
:10475000006F03D100200CF0004170470CF00043C3
:1047600043EA507010B540EACC0000F00EF800BFEC
:10477000000000924FEA0001FFF7AABE4FF000418F
:104780004FF00000A1F5002170470EF1020E2EF04F
:10479000030E5EF8044B244204D44FEA4102B2F106
:1047A0007F4F11D84FEA4003B3F17F4F0CD80ED1A1
:1047B0004FEAD07CB2F17F4F0CEB4C0C0CF1020CA9
:1047C00008BF4CEBD17C04E04FF0080C01E04FEA4D
:1047D000D17C0CEB4C0324FA03F404F00704B4F18D
:1047E000040C06D20EEB840CBDE810404CF0010C1A
:1047F0006047DFE80CF0070802024FF00040A0F528
:10480000800010BD0846420018BFD2F1807288BFF8
:1048100000F0004010BD4FF04070E1EE100A70470C
:104820003A044010121432801716180419021A7A2A
:10483000030A0C0C15003E0070007101721173091F
:10484000A20211007A207B1C7C287D3C7E557F686B
:10485000807681808288838F849685A386AF87C483
:1048600088D789E813E0000010000D001420A5058A
:10487000AB072475256326A59F78A068A103A6DF52
:10488000A7DFA8F0A990AA9413E50E610F4B1602BA
:104890001E27210222912907330B350B371D387152
:1048A000392A3C784D404E20695D6B8074198D4FDC
:1048B0008E008F0090009100920096009A80B08444
:1048C000B10CB20EB382B80A431444F045344658D2
:1048D0004728483A59885A885B445C675D495E0EB0
:1048E000640465206605940495086C0A6D554F8034
:1048F000508051005222535E548009036E116F9F05
:1049000055005640578012103A143D80671168FFD9
:1049100040C032801716180419021A7A030A0C0CC8
:1049200015003E007000710172117309A20211009E
:104930007A207B1C7C287D3C7E557F688076818038
:104940008288838F849685A386AF87C488D789E8B9
:1049500013E0000010000D001420A505AB0724751E
:10496000256326A59F78A068A103A6DFA7DFA8F08E
:10497000A990AA9413E50E610F4B16021E2721027F
:1049800022912907330B350B371D3871392A3C78B2
:104990004D404E20695D6B4074198D4F8E008F0025
:1049A00090009100920096009A80B084B10CB20EF3
:1049B000B382B80A431444F0453446584728483A6D
:1049C00059885A885B445C675D495E0E64046520C3
:1049D0006605940495086C0A6D554F80508051000F
:1049E0005222535E548009036E116F9F550056404A
:1049F00057800000000000000000000000000000E0
:104A000000000000000000000000000000000000A6
:104A10000000000000000000000000000000000096
:104A20000000000000000000000000000000000086
:104A30000000000000000000000000000000000076
:104A40000000000000000000000000000000000066
:104A50000000000000000000000000000000000056
:104A600000000000000000004C5555555555A53F6D
:104A70007751C1166CC156BF9015CB19A001FA3EF3
:104A8000AD529C804F7E92BEC4B1B4BD9EEE213E1D
:104A9000D43888BEE9FAA8BD00004054FB21F93F94
:104AA0003163621A61B4D03D0000601A61B4D03D38
:104AB0007370032E8A19A33B0000002E8A19A33BB2
:104AC000C14920259A837B390000000000000000C6
:104AD0006E83F9A22915444ED15727FCC0DD34F569
:104AE000999562DB4190433CAB6351FE61C5BBDEEF
:104AF0003A6E24B7E0D24D42EA2E49061C92D10903
:104B00001CEB1DFE3EA729B1F53582E88444BB2E7F
:104B100026709CE9417E5FB439D69139F4395383CC
:104B20008B5F849C3B28F9BDFF97F81F0F9805DE2B
:104B30008B112FEF1F6D0A5ACF7E366DB709CB2729
:104B4000663F464F2DEA5F9EC7BA27757BF1E5EBBE
:104B5000F739073DEA92528AB15FFB6B085D8D1F02
:104B6000A6F810111111813FD561C119A0012ABF0A
:104B70007DFEB157E31DC73EEB9C2B8AE6E55ABE8E
:104B80007CD5CF5A3AD9E53DA84B0008000000205B
:104B900034000000C4010008DC4B00083400002091
:104BA000CC240100E0010008000000000200000029
:104BB0000200000002000000FFFFFFFFFFFFFFFFF9
:104BC000FFFFFFFFFFFFFFFF0000000000000000ED
:0C4BD000000000000000000000000000D9
:040000050800018965
:00000001FF
