:020000040800F2
:1000000040F40120290200083702000839020008E4
:100010003B0200083D0200083F020008000000000B
:100020000000000000000000000000004102000885
:1000300043020008000000004502000847020008D3
:100040004902000849020008490200084902000864
:1000500049020008490200082D050008490200086D
:100060006105000895050008C90500084902000857
:100070004902000849020008490200084902000834
:100080004902000849020008490200084902000824
:100090004902000849020008490200081506000844
:1000A0004902000849020008490200084902000804
:1000B0004902000895190008490200084902000891
:1000C00049020008490200084902000849020008E4
:1000D00049020008B51A0008490200084902000850
:1000E00049020008490200084902000849020008C4
:1000F00049020008490200084902000849020008B4
:100100004902000849020008D11900084902000804
:100110004902000849020008490200084902000893
:100120004902000849020008490200084902000883
:100130004902000849020008490200084902000873
:100140004902000849020008490200084902000863
:100150004902000849020008490200084902000853
:100160004902000849020008490200084902000843
:100170004902000849020008490200084902000833
:10018000490200084902000800F002F800F03CF8BB
:100190000AA090E8000C82448344AAF10107DA45E2
:1001A00001D100F031F8AFF2090EBAE80F0013F0F8
:1001B000010F18BFFB1A43F001031847BC360000BB
:1001C000DC360000103A24BF78C878C1FAD852074C
:1001D00024BF30C830C144BF04680C6070470000C1
:1001E0000023002400250026103A28BF78C1FBD840
:1001F000520728BF30C148BF0B6070471FB503F0DE
:1002000084F91FBD10B510BD00F0C4F81146FFF70A
:10021000F5FF02F0E5FA00F0E2F803B4FFF7F2FFB1
:1002200003BC02F061F900000B48016841F4700161
:1002300001600A480047FEE7FEE7FEE7FEE7FEE74B
:10024000FEE7FEE7FEE7FEE7FEE70000044805499B
:10025000034A054B7047000088ED00E08901000863
:1002600040F0012040F4012040F00120704710B51B
:10027000203AC0F00B80B1E81850203AA0E818509E
:10028000B1E81850A0E81850BFF4F5AF5FEA027C5F
:1002900024BFB1E81850A0E8185044BF18C918C0CE
:1002A000BDE810405FEA827C24BF51F8043B40F86F
:1002B000043B08BF7047D20728BF31F8023B48BF54
:1002C00011F8012B28BF20F8023B48BF00F8012B92
:1002D00070474FF000020429C0F0128010F0030CA8
:1002E00000F01B80CCF1040CBCF1020F18BF00F829
:1002F000012BA8BF20F8022BA1EB0C0100F00DB8D8
:100300005FEAC17C24BF00F8012B00F8012B48BF35
:1003100000F8012B70474FF0000200B513469446D9
:100320009646203922BFA0E80C50A0E80C50B1F14D
:100330002001BFF4F7AF090728BFA0E80C5048BF61
:100340000CC05DF804EB890028BF40F8042B08BFFF
:10035000704748BF20F8022B11F0804F18BF00F8FB
:10036000012B7047704770477047704710B500F019
:1003700009F8006810BD10B5044600F003F80460E9
:1003800010BD000000487047DCEF012000487047B6
:10039000DCEF01207546FFF7F9FFAE460500694620
:1003A000534620F00700854618B020B5FFF74EFFF2
:1003B000BDE820404FF000064FF000074FF0000866
:1003C0004FF0000B21F00701AC46ACE8C009ACE8E7
:1003D000C009ACE8C009ACE8C0098D4670470446C6
:1003E000AFF300802046FFF718FF00002DE9F05F13
:1003F000074688460026B246002044490860444922
:10040000C1F88402012043490860002008600120EF
:100410003E4908603E49C1F88402002565E0002499
:100420005EE000203B4908603B48006800F0FF099F
:1004300001203749C1F884020020364908600120B4
:100440003349C1F88402EA1705EB92729210A5EBCA
:100450008202AABBE21704EB92729210A4EB820212
:1004600072BB4FEAE47C04EB9C7C4FEAAC0CBC45CD
:1004700034DB4FEAE57C05EB9C7C4FEAAC0CC445D1
:100480002CDB4FEAE47C04EB9C7C4FEAAC0B07F1DD
:10049000500CE34522DA4FEAE57C05EB9C7C4FEA01
:1004A000AC0B08F13C0CE34518DA502E09DA0AEBE4
:1004B0008A001A4901EB001000F80690701C86B201
:1004C0000CE000260AF101001FFA80FA0AEB8A000C
:1004D000124901EB001000F80690761C601C84B2F3
:1004E000B4F5A07F9DDB681C85B2F02D97DB4FF43F
:1004F00096520A490A48FFF7BAFE4FF400700949BC
:100500000860002008490870BDE8F09F940242424C
:10051000000041428402414210140240B4250020F0
:1005200034000020143C01403000002010B50A20A7
:1005300002F0F2F807480068012807D10648006871
:1005400008B9012000E000200349086001200349A8
:10055000086010BD00024042A0824242143C0140AB
:1005600010B50A2002F0D8F80748006838B90748E3
:10057000006808B9012000E0002004490860042058
:100580000349086010BD000008024242A4824242B2
:10059000143C014010B50A2002F0BEF8074800687C
:1005A00038B90748006808B9012000E00020044974
:1005B000086008200349086010BD00000C02424298
:1005C000A8824242143C014010B50A2002F0A4F86F
:1005D0000C48006888B90C48006808B9012000E0A0
:1005E0000020094908600948D0F8A80208B901208C
:1005F00000E000200449091D08601020044908603B
:1006000010BD000010024242A482424200804242D9
:10061000143C014010B51348006800F40070D8B1D4
:1006200011480078022817DA0F48007860B90020D6
:100630000E490860012002F08BF801200C49C1F836
:100640008C020C49086002E000200A490860064854
:100650000078401C044908704FF40070014908609C
:1006600010BD0000143C0140300000208C024242CA
:10067000000042428C02414210B5022209210520AD
:1006800000F008F8022317220021084600F0C6FCFB
:1006900010BD0000F0B503460846CD1701EB957577
:1006A000AD10A1EB8505AD062C0E2448006840F482
:1006B0008040224D2860CD1701EB9575AE10204D7E
:1006C00055F826500F26A640B5430846CE1701EB35
:1006D0009676B7101A4E46F82750CD1701EB957550
:1006E000AE10174D55F8265003FA04F63543CE17D1
:1006F00001EB9676B710124E46F827501148006865
:1007000001258D4028430F4D286002F0010040B1C3
:100710000C480C30006801258D402843094D0C35EC
:10072000286002F0020040B1064808300068012548
:100730008D402843034D08352860F0BD4438024001
:1007400008380140003C014030B5CC1000F12003D6
:1007500053F824304C07E50E0F24AC40A343CD10D2
:1007600000F1200444F82530CC1000F1200353F8A8
:1007700024304C07E40E02FA04F42343CD1000F1B8
:10078000200444F8253030BD2DE9F0470C46DDE962
:100790000867002100258C4600BF60E04FF001088B
:1007A00008FA01F504EA050CAC4557D1D0F80080F1
:1007B0004FEA410A4FF0030909FA0AF928EA090841
:1007C000C0F80080D0F800804FEA410902FA09F928
:1007D00048EA0908C0F80080012A01D0022A27D17E
:1007E000D0F808804FEA410A4FF0030909FA0AF9E4
:1007F00028EA0908C0F80880D0F808804FEA4109C3
:1008000006FA09F948EA0908C0F80880D0F8049007
:100810004FF0010808FA01F829EA0809C0F8049025
:10082000D0F8048003FA01F948EA0908C0F8048006
:10083000D0F80C804FEA410A4FF0030909FA0AF98F
:1008400028EA0908C0F80C80D0F80C804FEA41096A
:1008500007FA09F948EA0908C0F80C80491C102970
:100860009CD3BDE8F08700002DE9F0472DED0C8BFF
:100870009FED780BB0EE408AF0EE608A4FF0000AF0
:100880000025A5E000269FE005EB8500734901EBFC
:100890000010805DFF287CD1002491E04FF000091A
:1008A00089E0484602F0A1FB41EC1A0B9FED6C0B6E
:1008B00053EC102B02F0C4FB41EC190B9FED6A0BBB
:1008C00053EC102B02F0DCF941EC180BB0EE480AA7
:1008D000F0EE680A01F02CF9B0EE40CAF0EE60CA02
:1008E00004F10F0002F081FB41EC1D0B53EC1C2BBB
:1008F00002F0A6FB41EC1A0B284602F076FB41EC15
:100900001B0B53EC1A2B02F0A5FC41EC190B02F067
:100910000FFB8046B0EE480AF0EE680A01F06CF971
:10092000B0EE40CAF0EE60CA04F10F0002F05DFBC9
:1009300041EC1D0B53EC1C2B02F082FB41EC1A0B1B
:10094000304602F052FB41EC1B0B53EC1A2B02F029
:1009500081FC41EC190B02F0EBFA0746B8F1000FED
:1009600027DDB8F13C0F24DA002F22DD502F20DAEA
:1009700008EBC800C0EB88103D4901EB401007EBC5
:10098000470101EBC70100EB410030F81400401CA7
:1009900000E018E008EBC801C1EB8811344A02EB13
:1009A000411107EB470202EBC70201EB420121F8BC
:1009B000140009F10A09B9F5B47F7FF772AF641C1E
:1009C0000B2CFFF66BAF761C502EFFF65DAF6D1C47
:1009D0003C2DFFF657AF002532E000262DE0002425
:1009E00028E005EBC500C0EB8510214901EB401064
:1009F00006EB460101EBC60100EB410030F81400A4
:100A0000504516DB05EBC500C0EB8510184901EB1E
:100A1000401006EB460101EBC60100EB410030F847
:100A200014A0144806601448056004F10F0013492F
:100A30000860641C0B2CD4DB761C502ECFDB6D1CA5
:100A40003C2DCADB0E490A48FFF743FCBDEC0C8B7A
:100A5000BDE8F0870000000000000000B425002081
:100A60004AD8124DFB21094000000000008066407A
:100A7000384B002004000020080000200C0000205B
:100A8000809C01002DE9F0472DED068BADF5407DF2
:100A9000002714E000202DF8170080A9C8559FED0D
:100AA000880A884800EB870080ED000A9FED840AE1
:100AB000854800EB870080ED000A781C87B2FF2F85
:100AC000E8DD002545E000243FE0804A1268AA1ACC
:100AD00052437F4B1B68E31ADFF8F4C1DCF800C017
:100AE000A4EB0C0C03FB0C237A4A1168CA1701EB28
:100AF0005272DFF8E0C1DCF800C0ACEBE202DFF8D4
:100B0000D4C1DCF800004FEAE07C00EB5C7CDFF84D
:100B1000C4A1DAF800A0AAEBEC0C02FB0CF29342A1
:100B200011DA05EB85006C4901EB0010005D3DF822
:100B30001000401C80B205EB8501674A02EB0111F1
:100B4000095D2DF81100601C84B2502CBDDB681CBF
:100B500085B23C2DB7DB4FF0000812E03DF81800DD
:100B600000EE100AB8EE400ADFED5C0A80EE201AB3
:100B7000544800EB880080ED001A08F101001FFACC
:100B800080F8B8F1FF0FE9DD00261FE056B94D48A7
:100B900000EB860090ED000A4B4800EB860080EDEC
:100BA000000A11E0701E484901EB800090ED000A38
:100BB000444800EB8600D0ED000A30EE200A0846DB
:100BC00000EB860080ED000A701C86B2FF2EDDDD92
:100BD0004FF0000924E03C4800EB890090ED000A4A
:100BE00010EE101A084602F01FFC41EC1A0B9FEDA4
:100BF0003C0B53EC102B02F023FA41EC190B9FED48
:100C00003A0B53EC102B01F093FF41EC180B02F060
:100C1000BFF980A901F8090009F101001FFA80F964
:100C2000B9F1FF0FD7DD002541E000243BE0274A62
:100C30001268AA1A5243264B1B68E31ADFF890C0C9
:100C4000DCF800C0A4EB0C0C03FB0C23214A116858
:100C5000CA1701EB5272DFF87CC0DCF800C0ACEBC5
:100C6000E202DFF870C0DCF800004FEAE07C00EB45
:100C70005C7CDFF860A0DAF800A0AAEBEC0C02FBC9
:100C80000CF293420DDA05EB8500134901EB0010DD
:100C9000005D80A9085C05EB85010F4A02EB01119C
:100CA0000855601C84B2502CC1DB681C85B23C2DF9
:100CB000BBDB0DF5407DBDEC068BBDE8F087000089
:100CC00000000000B8E70120B8EB01200800002078
:100CD000040000200C000020340000200000964595
:100CE0000000000000E06F40000000000000E03F56
:100CF00010B508480078084908700848007848701E
:100D000007480078887007480078C870064801F0E6
:100D10008DFD10BD04000020743800200800002064
:100D20000C00002014000020340000202DE9F041C8
:100D30004FF4965264496548FFF799FA012492E00E
:100D400001258CE0611C01EB8101604A02EB01127C
:100D5000691E525C611C01EB81015C4B03EB0111CC
:100D6000495D022313FB0122611C01EB8101574BFA
:100D700003EB0113691C595C0A44611E01EB8101FC
:100D8000524B03EB0113691E5B5C611E01EB810199
:100D9000DFF838C10CEB0111495D4FF0020C1CFB70
:100DA0000133611E01EB8101DFF820C10CEB011C56
:100DB000691C1CF801101944501A002801DB014677
:100DC00000E04142CFB2611E01EB81013F4A02EBDC
:100DD0000112691E525C04EB84013C4B03EB0113CE
:100DE000691E595C022313FB0122611C01EB810186
:100DF000364B03EB0113691E595C0A44611E01EB7B
:100E00008101324B03EB0113691C5B5C04EB840131
:100E1000DFF8B8C00CEB011C691C1CF801104FF086
:100E2000020C1CFB0133611C01EB8101DFF89CC04B
:100E30000CEB011C691C1CF801101944501A002805
:100E400001DB014600E0414201F0FF0807EB08002A
:100E500004EB84011C4A02EB011148556D1C4F2D17
:100E6000FFF670AF641C3B2CFFF66AAF9FED180ACB
:100E700001F066FB064601241CE0012517E004EBA7
:100E80008400114901EB0010405DB04207DDFF20F6
:100E900004EB84010C4A02EB0111485506E00020E6
:100EA00004EB8401084A02EB011148556D1C4F2DDB
:100EB000E5DB641C3B2CE0DB4FF496510348FFF765
:100EC0002AFABDE8F0810000B4250020F4120020C9
:100ED0000AD7233D2DE9F0410C461546069E444FA6
:100EE000B84209D93946434F3F6847F48007DFF8D5
:100EF00004C1CCF8007008E03F493E4F3F6847F41A
:100F00000017DFF8F0C0CCF8007000BF076807F0EA
:100F10000107002FFAD1471A103F4FF0180CB7FB0A
:100F2000FCF7FAB2062A10DBCF68A2F1060C0CEB34
:100F30004C0C4FEA4C0C0CF1100C4FF03D0808FA29
:100F40000CF847EA0807CF602FE0042A0EDBCF68D1
:100F5000A2F1040C0CEB4C0C4FEA4C084FF03D0C8A
:100F60000CFA08FC47EA0C07CF601EE0022A10DBEF
:100F70008F68A2F1020C0CEB4C0C4FEA4C0C0CF1FC
:100F8000100C4FF03D0808FA0CF847EA08078F608C
:100F90000BE08F6802EB420C4FEA4C084FF03D0C1F
:100FA0000CFA08FC47EA0C078F608560C360466056
:100FB00000270760076847F0400707600768076079
:100FC00007680760076847F480670760076807607D
:100FD00007680760076847F480370760076807609D
:100FE00007680760076847EA44670760BDE8F08163
:100FF000006402403038024000600240026822F083
:101000000102026000BF026802F00102002AFAD168
:101010004160026842F00102026070472DE9F04130
:101020000746884614461D46284600F033F8C5F1A9
:10103000040007FA00F60F20284100EA08000643E2
:1010400006F00F06E21704EBD2625211920002F191
:10105000E022D2F800212146E31704EBD3635B11B1
:10106000A4EB431C012303FA0CF31A432046E317B5
:1010700004EBD3635B119B0003F1E023C3F8002171
:101080000348005D40EA061001490855BDE8F081BB
:1010900000E400E00146072323EA01021202054BA7
:1010A00018684FF6FF031840034B18431043014BD9
:1010B000186070470CED00E00000FA054A0A520281
:1010C0000243014B1A60704708ED00E07CB5002533
:1010D0004C48006840F001004A4908600846006832
:1010E00040F0040008600846006840F01000086006
:1010F0000846006840F020000860022000210B46EE
:101100000A46CDE9001001023F48FFF73DFB3E488B
:101110001430006840F400703B491431086001202D
:10112000032100230246CDE900100A213748FFF7CA
:101130002BFB36481430006840F00A003349143164
:101140000860022000210B460A46CDE90010FF216D
:101150002D48FFF719FB2C481430006840F0FF00C1
:101160002949143108600120032100230246CDE9FA
:10117000001028212648FFF707FB2548406940F06A
:101180002800234948610120032100230246CDE9BC
:10119000001041031D48FFF7F7FA4FF400501B49B8
:1011A0001431086000F0ACF88021122000F0D6F96C
:1011B00008B101207CBD322001F0AEFA0B2000F016
:1011C0001DF90446732C01D00220F3E70A2000F039
:1011D00015F90446762C01D00220EBE700250DE03E
:1011E0000C4A02EB450251780A4A12F8150000F049
:1011F000B5F9022001F090FA681C85B2AE2DEFD34C
:101200000020D7E7303802400014024000080240B6
:1012100000100240FA3500082DE9F0410446E725A8
:1012200000260027012C06D0022C08D0032C0AD05F
:10123000042C10D10BE0E5255A265C270BE0E525B0
:101240005826602707E0E52584264C2703E0E5259E
:101250009626402700BF00BF2946132000F07EF9E4
:101260003146012000F07AF93946022000F076F983
:10127000BDE8F0812DE9F04705460E4690469946B7
:1012800005EB48001FFA80FA06EB490087B2B7F574
:10129000447F02DDA7F5447087B2032000F0AEF86A
:1012A000044604F0F0040AF00301284661F39F00AD
:1012B00004432146032000F051F9C5F387011920AA
:1012C00000F04CF9CAF387011A2000F047F93220E8
:1012D00000F094F8044604F0C00407F0070130461B
:1012E00061F3DF000443C6F3C701172000F036F9AD
:1012F000C7F3C701182000F031F9BDE8F0870000FE
:101300001CB51048006840F010000E49086001202C
:10131000022100230246CDE9001050210A48FFF7C0
:1013200033FA0948406940F05000074948610846CF
:10133000006820F4405008600846006840F480507F
:1013400008601CBD303802400010024010B5782003
:1013500001F0FEF901200B4908600B49C1F8900229
:10136000782001F0F5F90020064908390860782056
:1013700001F0EEF900200449C1F89802782001F04C
:10138000E7F910BD980242420000424270B50024C5
:101390001748006820F44050154908600846006866
:1013A0000860082515E0782001F0D2F901201149E4
:1013B00008606006040E1048D0F8180208B1601CDE
:1013C000C4B2782001F0C4F900200A490860681E00
:1013D000C5B2002DE7DC0648006820F440500449FF
:1013E00008600846006840F480500860204670BDE0
:1013F00000100240900242420000424270B5044692
:10140000002500F023F8422000F054F8DC2001F021
:101410009FF9204600F04EF8DC2001F099F900F029
:101420002FF8DC2001F094F900F010F8432000F0D0
:1014300041F8DC2001F08CF9FFF7A8FF0546FFF723
:1014400085FF00F01DF8284670BD000010B5012092
:10145000094908600949C1F89002782001F078F93B
:10146000002005490860782001F072F90020034946
:10147000C1F8900210BD00009802424200004242B2
:1014800010B5002009490860782001F061F90120B9
:101490000749C1F89002782001F05AF90120034968
:1014A0000860782001F054F910BD00009802424213
:1014B0000000424270B5044600261BE004F08000A4
:1014C00018B101202249086002E00020204908608C
:1014D0006006040E782001F03BF901201C49083910
:1014E0000860782001F034F900201A49C1F8900210
:1014F000701CC6B2082EE1DB1748006820F440508B
:1015000015490860084600680860782001F020F955
:1015100001200F4908390860782001F019F90D48B9
:10152000D0F8180208B1012500E000250020084984
:10153000083908600848006820F4405006490860EF
:101540000846006840F480500860284670BD0000DE
:1015500098024242000042420010024070B5054627
:101560000C460026FFF772FF4220FFF7A3FF00B1F1
:101570000126DC2001F0ECF82846FFF79BFF00B1C4
:101580000126DC2001F0E4F82046FFF793FF00B1CC
:101590000126FFF775FF304670BD00002DE9F047CA
:1015A0004FF000094FF4965292499348FEF75FFEC0
:1015B0000125C2E00124BCE0904A1268AA1A5243F5
:1015C0008F4B1B68E31ADFF838C2DCF800C0A4EBCD
:1015D0000C0C03FB0C238B4A1168CA1701EB5272E7
:1015E000DFF820C2DCF800C0ACEBE202DFF814C286
:1015F000DCF800004FEAE07C00EB5C7CDFF804A242
:10160000DAF800A0AAEBEC0C02FB0CF293427DDAB4
:10161000691C01EB8101784A02EB0112611E525CE8
:10162000691C01EB8101744B03EB0111095D02237D
:1016300013FB0122691C01EB81016F4B03EB0113CA
:10164000611C595C0A44691E01EB81016A4B03EB82
:101650000113611E5B5C691E01EB8101DFF898C11B
:101660000CEB0111095D4FF0020C1CFB0133691EEC
:1016700001EB8101DFF880C10CEB011C611C1CF83F
:1016800001101944501A002801DB014600E04142D4
:10169000CFB2691E01EB8101574A02EB0112611EB4
:1016A000525C05EB8501544B03EB0113611E595C41
:1016B000022313FB0122691C01EB81014E4B03EB5A
:1016C0000113611E595C0A44691E01EB81014A4BFA
:1016D00003EB0113611C5B5C05EB8501DFF818C1AE
:1016E0000CEB011C611C1CF801104FF0020C1CFBE0
:1016F0000133691C01EB8101DFF8FCC00CEB011C1C
:10170000611C1CF801101944501A00E010E0002878
:1017100001DB014600E0414201F0FF0809F1010947
:1017200008EB070005EB8501324A02EB0111085571
:10173000641C4F2CFFF640AF6D1C3B2DFFF63AAFFB
:1017400048469FED310A00F041FF0646012548E07A
:10175000012443E0294A1268AA1A5243284B1B6805
:10176000E31ADFF89CC0DCF800C0A4EB0C0C03FB10
:101770000C23244A1168CA1701EB5272DFF884C0A7
:10178000DCF800C0ACEBE202DFF878C0DCF8000067
:101790004FEAE07C00EB5C7CDFF868A0DAF800A0A0
:1017A000AAEBEC0C02FB0CF2934216DA05EB850077
:1017B000164901EB0010005DB04207DDFF2005EB8C
:1017C00085010C4A02EB0111085506E0002005EBEB
:1017D0008501084A02EB01110855641C4F2CB9DB46
:1017E0006D1C3B2DB4DB4FF496510348FEF793FD7F
:1017F000BDE8F08734000020F4120020080000202B
:10180000040000200C000020CDCCCC3DB4250020ED
:10181000F0B504460D4616461F461448006840F0D1
:1018200001001249086000201049083108600F4883
:1018300000680F4908400D4908600E48091D0860FE
:10184000081F006820F48020091F08600020074955
:101850000C3108603B4632462946204600F00CF821
:1018600000210846FFF72AFCF0BD000000380240C6
:10187000FFFFF6FE10300024F0B504460D460021AF
:1018800000203D4E366846F480363B4F3E6001E016
:101890004E1CB1B2384E366806F400361EB941F619
:1018A000FF76B142F4DB41F6FF76B14201D101206F
:1018B00060E0314E4036366846F080562E4F403755
:1018C0003E602E4E366846F440462C4F3E602A4E0F
:1018D0000836366846F41446274F08373E60264ED1
:1018E000366826F08076244F3E6045EA841601274C
:1018F000C7EB520746EA074646EA036646F4800607
:101900001D4F3F1D3E603E1F366846F080763F1FEC
:101910003E6000BF184E366806F00076002EF9D003
:10192000174E366846F48076154F3E603E46366860
:1019300046F400763E603E46366846F480663E6079
:101940003E46366846F005063E600B4E0836366861
:1019500026F00306084F08373E603E46366846F0DC
:1019600002063E6000BF044E0836366806F00C06DC
:10197000082EF8D1F0BD0000003802400070004091
:10198000003C024001480249086070470400FA0523
:101990000CED00E00B48008800F0010050B10A484F
:1019A000006808B9012000E0002007490860002015
:1019B000064908700348008820F0010001490880AA
:1019C0007047000010040040A88242422800002016
:1019D000354908883549097801F0800100295ED130
:1019E00000F00101D1B13149097801F04001A9B1FC
:1019F0002E49097801F03F013F290AD12B49097886
:101A000041F08001294A11704FF0FF31284A1160DE
:101A100004E026490978491C244A117000F00201AB
:101A2000E9B32249097801F0400199B11F490978C9
:101A300041F080011D4A11701B49243109681C4A7C
:101A4000116019491031098821F00201164A10323B
:101A5000118024E00021154A1170154A11601349C4
:101A6000097841F04001114A11700F491039098875
:101A700021F001010C4A103A118000210A4A143267
:101A80001160111F098841F00201121F11800649DF
:101A90001039098841F00101034A103A11800021F0
:101AA000014A118070470000100C004029000020FE
:101AB0002C00002010B50648008800F0200030B14E
:101AC00003488088C4B22A2C01D1FFF75BFF10BD08
:101AD0000010014010B500F067FF002407E0054842
:101AE00050F82400142801DD03480460641C092C0C
:101AF000F5DB10BDB8EF01201400002003B40198FD
:101B00004100009850EAC12018BF04204A0D18BFB8
:101B100040F0010040F2FF72B2EB515F08BF40F0AD
:101B20000200012808BF052002B070470000000035
:101B300010B52F499FED2C1B2DED020B84B005989D
:101B400020F000408842D8BF9DED040B2DDD2949CF
:101B5000884209D1049840B94FF00100FEF70BFC10
:101B600000F0A2FC06B010BD05DB9DED040B00F0FB
:101B70008FFC06B010BD68469DED040B00F0A0F888
:101B800010F0030004BF9DED021B9DED000B0CD077
:101B900001280ED09DED021B9DED000B022817D0F1
:101BA000012000F0DDFB06B010BD00F0A5FA06B084
:101BB00010BD9DED021B9DED000B012000F0D0FB40
:101BC00051EC100B00F0A8FF06B041EC100B10BD5B
:101BD00000F092FA51EC100B00F09EFF06B041ECC1
:101BE000100B10BD0000000000000000000000000D
:101BF000FB21E93F0000F07F10B52F499FED2C1B22
:101C00002DED020B84B0059820F000408842DCBF27
:101C100000209DED040B32DD2849884209D104984B
:101C200040B94FF00100FEF7A6FB00F03DFC06B006
:101C300010BD05DB9DED040B00F02AFC06B010BDC5
:101C400068469DED040B00F03BF810F0030011D046
:101C5000012818D09DED021B9DED000B02281AD023
:101C600000F04AFA51EC100B00F056FF06B041ECC0
:101C7000100B10BD9DED021B9DED000B012000F02F
:101C80006FFB06B010BD9DED021B9DED000B00F03B
:101C900033FA06B010BD012000F062FB51EC100BCE
:101CA00000F03AFF06B041EC100B10BD0000000040
:101CB0000000000000000000FB21E93F0000F07F71
:101CC0002DE9F14F04462DED020B2DED088B8AB066
:101CD0009FEDE70B80ED020B139EE74826F00045D1
:101CE00085420ADC9DED120B002084ED000B0AB04A
:101CF000BDEC088B03B0BDE8F08FE0489FEDE0AB92
:101D00009FEDE1BBA84247DDE14F9FEDE39B9FEDD7
:101D1000E48B9DED120B53EC1A2B51EC100B002EA3
:101D20001CDD01F097FA41EC100BBD4208D053ECDA
:101D30001B2B51EC100B01F08DFAC4E900010BE0F4
:101D400053EC192B51EC100B01F084FA53EC182BC7
:101D500001F080FAC4E900010120C8E700F0E8FEC4
:101D600041EC100BBD4208D053EC1B2B51EC100B77
:101D700000F0DEFEC4E900010BE053EC192B51EC3E
:101D8000100B00F0D5FE53EC182B00F0D1FEC4E987
:101D900000014FF0FF30AAE7C348A84279DB9DED70
:101DA000120B51EC100B00F00FFD41EC180B9FEDE6
:101DB000C00B53EC102B01F043F99FEDBF1B53EC0C
:101DC000112B00F0B5FE01F0B3F8074601F00DF954
:101DD00041EC190B53EC1A2B01F032F953EC182B90
:101DE00001F02CFA41EC180B53EC1B2B51EC190BA6
:101DF00001F026F9DFF8C8A241EC100B4FEA1558A4
:101E00000125FA4453EC102B51EC180B01F022FA87
:101E1000032DC4E900013DD0C1F30A5005EB451183
:101E2000A8EB00001139814234DA0AEB051BB0EE51
:101E300048AA9BED000BF0EE68AA53EC102B51EC76
:101E4000190B01F0FDF841EC1B0B51EC1A0B53EC94
:101E50001B2B01F0FFF941EC180B51EC1A0B53EC62
:101E6000182B01F0F7F953EC1B2B01F0F3F99BED64
:101E7000020B41EC1A0B53EC102B51EC190B01F037
:101E8000DFF853EC1A2B01F0E5F941EC100B6D1C57
:101E9000B8E70EE0002EA8BF3846BFF628AF94ED95
:101EA000000B51EC100B00F037FEC4E90001784242
:101EB0001DE7C6F3130040F4801EC6F30A50A0F2DB
:101EC000F530471100F01F05C5F12000DDF848B0DE
:101ED00008900020069007900520EC467949002DD7
:101EE00007EB0002794408BF51F8221009D051F8DD
:101EF000223001EB8201AB404A68089922FA01F1D5
:101F00001943A1FB0E26A1FB0B131A449A4234BFBE
:101F10000123002303EB06080CEB8003D3E901A6A1
:101F20000E448E4234BF0121002192448A4411B1F3
:101F3000924502D903E0924501D2012100E000213F
:101F4000C3E901A641444CF82010011EA0F1010094
:101F5000C4DC029800F10050850F0298DDE90367A8
:101F60008000DDF8148001F040F841EC1A0B304697
:101F700001F052F89FED541B53EC112B01F060F867
:101F800041EC1B0B384601F047F89FED511B53EC19
:101F9000112B01F055F841EC180B404601F03CF8CC
:101FA0009FED4D1B53EC112B01F04AF841EC190B3E
:101FB00051EC180B53EC192B00F0BAFD53EC1B2B12
:101FC00000F0B6FD53EC1A2B00F0B2FDCDE908018C
:101FD000002008909DED080B53EC1A2B51EC100BD0
:101FE00001F038F953EC1B2B01F034F953EC182BAA
:101FF00001F030F953EC192B01F020F99FED381B5B
:1020000053EC112B01F01CF89FED370B41EC180B32
:1020100053EC102B9DED080B51EC100B01F010F858
:1020200053EC182B00F084FD9FED310B41EC180BA5
:1020300053EC102B9DED080B51EC100B01F000F848
:1020400053EC182B00F074FD41EC100B139810F0BA
:10205000004F06D06D4251EC100B00F05DFD41ECDD
:10206000100B284684ED000B41E600000000000044
:102070000000000000000000FB21E93F7CD9024085
:1020800000004054FB21F93F3163621A61B4D03D36
:10209000FB21F93F000000000000601A61B4D03D50
:1020A0007370032E8A19A33BFB2139410000000005
:1020B00083C8C96D305FE43F000000000000E03FCE
:1020C00082190000D0180000000000000000103E3F
:1020D000000000000000103C000000000000103A6A
:1020E000182D4454FB21F93D3326A611460B113C13
:1020F00000000054FB21F93D10B52DED040B2DED32
:10210000088B82B0B0EE419AF0EE619A0B9820F005
:1021100000449FED4BABB4F1795F11DA9DED0A0BF2
:1021200051EC100B00F004FF002801BFB0EE4A0A8A
:10213000F0EE6A0A02B0BDEC088B04BF04B010BD1B
:102140009DED0A0B53EC102B51EC100B00F078FFB7
:1021500041EC180B3C480621B0EE480AF0EE680A44
:10216000784400F081F853EC182B51EC100B00F080
:1021700067FF9DED0A0B41EC1B0B53EC192B51EC47
:10218000100B00F05DFF41EC190B53EC1B2B51ECD5
:10219000180B00F055FF53EC192B01F05BF89FED85
:1021A0002C0B41EC190B53EC102B51EC180B00F0DD
:1021B00047FF41EC100B2848844210DA53EC192BEE
:1021C00051EC100B01F046F853EC1A2B01F036F8E5
:1021D00041EC100B02B0BDEC088B04B010BD1F48E1
:1021E000A042BCBF9FED1E1B8DED001B06DBA4F5BE
:1021F00000100190002000909DED001B51EC100B91
:1022000053EC112B01F026F89DED000B41EC180B5F
:1022100053EC102B51EC1A0B01F01CF841EC1A0B8B
:1022200053EC192B51EC180B01F014F853EC1A2B4A
:1022300001F004F841EC100BCCE7000000000000B6
:10224000000000000000F03FF41500000000000056
:10225000000000000000E03F3333D33F0000E93FBF
:10226000000000000000D23F70B504462DED028B47
:102270004D1E00EBC500B0EE408AF0EE608A90ED96
:10228000000B35F0060017D053EC182B51EC100B57
:1022900000F0D6FE41EC100B6D1E04EBC50090ED76
:1022A000001B51EC100B53EC112B00F041FC41ECE6
:1022B000100B35F00600E7D1022D36D0042D1CD0CE
:1022C000062D1CBFBDEC028B70BD53EC182B51ECDE
:1022D000100B00F0B5FE94ED0A1B53EC112B00F02F
:1022E00027FC53EC182B00F0ABFE94ED081B53ECCD
:1022F000112B00F01DFC41EC100B53EC182B51EC92
:10230000100B00F09DFE94ED061B53EC112B00F01A
:102310000FFC53EC182B00F093FE94ED040B53ECE0
:10232000102B00F005FC41EC100B53EC182B51EC7A
:10233000100B00F085FE94ED021B53EC112B00F006
:10234000F7FB53EC182B00F07BFE94ED001B53ECD5
:10235000112B00F0EDFBBDEC028B41EC100B70BDBE
:1023600031B504462DED040B2DED0A8BB0EE41BACC
:10237000F0EE61BA0B989DED0A0B20F00040B0F131
:10238000795F0DDA51EC100BFFF7B8FB042808BF9A
:1023900000F09AF89DED0A0BBDEC0A8B05B030BD3C
:1023A00053EC102B51EC100B00F04AFE41EC180BD3
:1023B0009DED0A0B53EC182B51EC100B00F040FE76
:1023C00041EC190B2C48B0EE480AF0EE680A0521E2
:1023D0007844FFF749FF9FED2ACBB0EE40AAF0EE1C
:1023E00060AA9CB353EC1C2B51EC190B00F028FE97
:1023F00041EC1C0B53EC1A2B51EC190B00F020FE96
:102400009FED210B41EC190B53EC102B51EC1B0BE6
:1024100000F016FE53EC192B00F01CFF53EC182BA8
:1024200000F00EFE53EC1B2B00F014FF53EC1C2BA2
:1024300000F010FF9DED0A1B53EC112B00F0FEFE87
:10244000BDEC0A8B05B041EC100B30BDFFE753EC3F
:102450001A2B51EC180B00F0F3FD53EC1C2B00F081
:1024600067FB53EC192B00F0EBFD9DED0A1B53ECC1
:10247000112B00F05DFBE3E77C140000000000007E
:10248000495555555555C5BF000000000000E03FB7
:1024900010B553EC102B51EC100B00F049FB41EC44
:1024A000100B10BD000000009FED050B10B553ECA4
:1024B000102B51EC100B00F0E3FB41EC100B10BDA6
:1024C00000000000000000009FED050B10B553EC6C
:1024D000102B51EC100B00F0B3FD41EC100B10BDB4
:1024E0000000000000000010014600BF704700001F
:1024F00010B50723022208214FF4A870FFF788F9CE
:10250000A82000F0E9F84FF4E131542000F0CCF9B4
:10251000FEF7DCFD40F6AC5000F0FEF80020FEF7C0
:102520007BFEFEF7A9F84FF4A073F022AE210A203B
:10253000FEF7A0FE00200149086010BDB402414230
:10254000F0B5ADF5007DDFED1F0A60EE200AFCEE70
:10255000E00A10EE900A85B2002103E000202DF879
:102560001100491CFF29F9DD012117E0012212E0C9
:1025700001EB8100144E06EB0010805C3DF810006A
:10258000401C80B201EB81060F4F07EB0616B65CCC
:102590002DF81600521C4F2AEADB491C3B29E5DBCB
:1025A00000230024FF2105E03DF81100184483B208
:1025B000641C491EAB42F7DBC4F1FF000DF5007D42
:1025C000F0BD000000A89145B42500202DE9F0479A
:1025D000ADF5007D034600EE903AF8EEE00A60EEBD
:1025E000800AFCEEE00A10EE900A87B2002103E0B8
:1025F00000202DF81100491CFF29F9DD01214EE0D2
:10260000012249E0DFF8C0C0DCF800C0A1EB0C0CEF
:102610000CFB0CFCDFF8B480D8F80080A2EB0808B3
:10262000DFF8A890D9F80090A2EB090908FB09C8C7
:10263000DFF89CC0DCF800604FEAE67C06EB5C7CCF
:10264000DFF88C90D9F80090A9EBEC0CDFF88090C3
:10265000D9F800004FEAE07900EB5979DFF870A073
:10266000DAF800A0AAEBE9090CFB09FCE04512DA54
:1026700001EB8100174E06EB0010805C3DF8100066
:10268000401C80B201EB8106DFF848C00CEB061657
:10269000B65C2DF81600521C4F2AB3DB491C3B29AF
:1026A000AEDB00240025FF2105E03DF811002044A9
:1026B00084B26D1C491EBC42F7DBC5F1FF000DF56D
:1026C000007DBDE8F0870000080000200400002025
:1026D0000C000020340000204FF0E021096921F0B7
:1026E00004014FF0E0221161C21700EB5272C2F3F5
:1026F000C702074B1A701946097801EB4102C2EB79
:10270000C1114FF6FF7202EAC101024A11807047FF
:10271000240000202600002070B504464FF4077006
:1027200094FBF0F0C6B24FF4077094FBF0F100FB9D
:10273000114085B205E04FF4077000F027F8701ED5
:10274000C6B2002EF7D115B1284600F01FF870BDB3
:1027500001460D4A12784A434FF0E0235A610022A5
:102760009A6101221A6100BF4FF0E022106900F067
:1027700001021AB100F48032002AF5D000224FF095
:10278000E0231A619A6170472400002001460D4A37
:1027900012884A434FF0E0235A6100229A610122D5
:1027A0001A6100BF4FF0E022106900F001021AB177
:1027B00000F48032002AF5D000224FF0E0231A61A5
:1027C0009A6170472600002082B0CDE9000121F017
:1027D000004001909DED000B02B051EC100B7047D2
:1027E000FFF786FE1CE00F480078022818D1002170
:1027F0000846FDF7FBFD0C480068012808D1FEF7EC
:1028000095FAFEF731F808480068401E064908604E
:10281000FEF738F9FEF7C2FEFFF75CF9FEF768FA3B
:10282000E1E700003000002000000020F8B5064677
:10283000002410E000250BE004EB840006EB001000
:10284000415D502000FB0450001D144A11546D1CC2
:10285000502DF1DB641C3C2CECDB41F2C4200F4B0F
:102860000F4A042100900F48FEF734FB80200C49EA
:10287000091F888241F2C4210A48FEF7BFFB0948BC
:10288000B438006800F0006038B10648AC38006821
:1028900040F000600349AC390860F8BD743800208E
:1028A00004100140B8640240F0B52DED028B83B0F6
:1028B00005460E46384905FB01F000EE100AF8EE19
:1028C000400A300100EE100AB8EE400A80EE801A8D
:1028D000B0EE418ABCEEC80A10EE100A84B200EED7
:1028E000104AB8EE400A38EE400AF3EE000A20EE35
:1028F000200ABCEEC00A10EE107A4FF6FF7000EA14
:102900000414E01984B22548006840F0010023490E
:10291000086022481430006840F010001F4914314C
:1029200008600120022100230A46CDE900104FF47F
:10293000C0611B48FDF728FF072209211848FDF751
:1029400003FF07220A211648FDF7FEFE1548048101
:10295000808920F40040134988810846808940F02E
:10296000080088810846808940F004008881084674
:10297000808940F020008881022325220321084617
:10298000FEF74CFB0748808940F4005005498881D8
:1029900003B0BDEC028BF0BD40420F003038024066
:1029A00000000240001001402DE9F04700230025FF
:1029B0000026002144E000203FE0DFF848C1DCF8B9
:1029C00000C04FF007089CFBF8FCDFF83881D8F80E
:1029D0000080A8EB0C0C0CFB0CFCDFF82C81D8F869
:1029E0000080A0EB080808FB08F8DFF82091D9F870
:1029F0000090A1EB0909DFF814A1DAF800A0A1EB1F
:102A00000A0A09FB0A88C44516DDDFF8FCC0DCF8B9
:102A100000C0A0EB0C04002C01DBA44601E0C4F1D3
:102A2000000CDFF8E080D8F8007007EBD7784FEAA9
:102A30006808C44500DA5B1C401C3C28BDDB491C0F
:102A40005029B8DB092493FBF4F30822002155E058
:102A5000002050E0DFF8ACC0DCF800C04FF0070801
:102A60009CFBF8FCDFF89C80D8F80080A8EB0C0CED
:102A70000CFB0CFCDFF89080D8F80080A0EB080875
:102A800008FB08F8DFF88490D9F80090A1EB090959
:102A9000DFF878A0DAF800A0A1EB0A0A09FB0A889F
:102AA000C44527DDDFF860C0DCF800C0A0EB0C04F3
:102AB000002C01DBA44601E0C4F1000CDFF84480E7
:102AC000D8F8007007EBD7784FEA6808C44511DAE8
:102AD0006D1C00EB80040E4F07EB0414645CFF2CAC
:102AE00000D1761C9D4205DD01250A4C44F8226088
:102AF000521E0126401C3C28ACDB491C5029A7DB98
:102B0000BDE8F0870C000020080000200400002031
:102B100034000020B8EF012081F00041704780F0C0
:102B20000040704721F00041704720F0004070479E
:102B300010B591EA030F48BF83F0004300F1928380
:102B4000841A71EB030C05D2121943EB0C03001B22
:102B500061EB0C01DFF824E14FEA1154A4EB135CA4
:102B60001EEA430F18BF9EEA445F73D023EA0E03A8
:102B7000DCF1200E21EA045143F4801332D322FA0F
:102B80000CFE10EB0E0023FA0CFE41EB0E01CCF113
:102B9000200E03FA0EFE10EB0E0051F10001B1F50C
:102BA000801FCCF1200E32D201EB045112FA0EF24A
:102BB000BDE8104058BF7047401C38BF5FEA420272
:102BC00018BF7047002814BF20F0010041F1000138
:102BD0004FEA410313F5001F38BF7047A1F1C04110
:102BE00000F026BB012A43EB0302ACF1200CDCF120
:102BF0001F0E32BF4FF0000E23FA0CF310EB030050
:102C000041EB0451B4EB115FD0D0A1EB045101F5BD
:102C1000801149085FEA300001EB04510ED350F1F6
:102C2000000038BF12FA0EFE08D1BDE81040C9E717
:102C3000401C38BF5FEA4202CAD1C3E7BDE810407A
:102C40004FEA410313F5001F38BF7047A1F1C0419F
:102C500000F0EEBA9EEA445F08D011EA5E0FBDE8CC
:102C6000104004BF01F0004100207047BDE8104053
:102C700070B500F08FFA00BF64FBBE3E0000E0FFBD
:102C80002DE9C04130B4DFF8A0C23CEA111418BFEE
:102C90003CEA131400F0EC8081EA03051CEA1114ED
:102CA00044EAD57418BF1CEA131500F0C780A4EBE2
:102CB00005044FF0004545EAC12145EAC32341EA36
:102CC000505143EA525304F17F74994204F50034A1
:102CD0004FEAC0204FEAC22208BF904200F09C8019
:102CE0004FEA13650FF24016765D4FEA134506FB77
:102CF00005F7C7F1807706FB07F74FEAD737A7FB41
:102D000003687642C8F58038A7FB06CE38BFA8F125
:102D1000010807FB08E64FF0000EA6FB028CE6FB5D
:102D200003CEDCF1000CCEF1004E38BFAEF1010E47
:102D3000A6FB0C584FF000074FF00005E6FB0E878E
:102D4000A1FB08C6A0FB07CE16EB0E0645F1000559
:102D5000E1FB076515F1E04E7EBFA4F580345FEA24
:102D600046066D4116F1800745F100054FEA172729
:102D70004FEA066647EA0567A6F1DE46B6F1805FD0
:102D80004FEA15251FD9384624F0010C05EBC47114
:102D9000BCF1FE6F01EB0C1102D8F0BCBDE8008164
:102DA00024425CBF01F5801E9EEAC47F02D4F0BCC1
:102DB000BDE80081244238D4F0BCA1F1C041BDE897
:102DC000004100F035BA4FEAD22242EA43524FEABC
:102DD000D323A7FB02864FEAD02040EA415007FBED
:102DE00003661EEA0E0F4FEAD12105FB026658BFAB
:102DF000A6EB0056B6EB00564FEA520E4EEAC37EE3
:102E000018EB0E0E56EB530EBDD518EB02085E41C3
:102E10007F1C55F10005B6E74FF480154FF0000711
:102E20004FF000064FF00008ADE7F0BC4FF0000097
:102E300001F1C04101F00041BDE8008111EA0C1F21
:102E40000CEA131500D00CE013EA0C1F00F02580EB
:102E50004FF00000F0BC81EA030101F00041BDE841
:102E60000081F0BCBDE8004181EA030100F0E0B957
:102E7000F0BCBDE8004170B500F08CF9097EFC3E65
:102E800000F007B881EA03014FF0000001F00041B3
:102E9000704781EA030100F0CBB9F0BCBDE8004106
:102EA0004FF0000021497047FFFDFBF9F7F5F4F200
:102EB000F0EEEDEBE9E8E6E4E3E1E0DEDDDBDAD8D5
:102EC000D7D5D4D3D1D0CFCDCCCBCAC8C7C6C5C433
:102ED000C2C1C0BFBEBDBCBBBAB9B8B7B6B5B4B34A
:102EE000B2B1B0AFAEADACABAAA9A8A8A7A6A5A435
:102EF000A3A3A2A1A09F9F9E9D9C9C9B9A999998F9
:102F00009797969595949393929191908F8F8E8E9B
:102F10008D8C8C8B8B8A8989888887878685858428
:102F200084838382828181800000FF070000F87F14
:102F30004FEA41034FEA5353A3F58063D3F11E03D5
:102F4000C8BFD3F1210C0CDD4FF0004242EAC12290
:102F500042EA505232FA03FC8CEAE17CACEBE170BD
:102F60007047102BC4BF0020704703F5787CBCF17C
:102F7000FF3F04D06FF0004282EA2100704770B535
:102F800000F008F94992248000207047F2E7000021
:102F90004FEA1153A3F58063D3F11E03A8BFD3F109
:102FA000200C08DB4FF0004242EAC12252EA5052A4
:102FB00032FA03F0704709420BD4102BC4BF002033
:102FC000704703F5787CBCF1FF3F05D04FF0FF3030
:102FD00070474FF00000704770B500F0DBF800BF9D
:102FE0004992248000207047F0E710F0004248BF6B
:102FF0004042B0FA80F310FA03F10AD0C3F11D0386
:1030000003F580634FEA415002EB035202EBD121FA
:1030100070474FF000007047B0FA80F310FA03F1E8
:103020000AD0C3F11D0303F580634FEA41504FEA14
:10303000035202EBD12170474FF0000070470000AF
:10304000DFF848C170B51CEA111E1EBF1CEA13153B
:103050009EEA0C0F95EA0C0F00F06F8081EA0304E2
:1030600023EA4C134EEAD47E21EA4C1141F480113C
:1030700043F48013AE44A1FB024CA0FB0365AEF108
:103080007F7E361955EB0C05A1FB034C4CF1000378
:10309000A0FB021C16EB0C06654153F1000309422C
:1030A00018BF46F0010613F4007F0BD14FEA03313D
:1030B0004FEA0530340341EA155140EA16506FF0EB
:1030C00003020AE04FEAC3214FEAC520F40241EAB5
:1030D000555140EA56506FF0020202EB2E4201EBCE
:1030E000025585EACE710AD05FEA440C18BF24F07D
:1030F000004450F1000041F1000120EAD47040F298
:10310000FE7C624500D270BDA84214BF4FF08044DF
:103110004FF04044002E08BF0024BEF1806FA8BFCE
:10312000A1F1C041BDE8704080F282804FF0000004
:1031300001F1C04101F0004170479EEA0C0F0CEA1A
:10314000131518BF95EA0C0F06D04FF0000081EA66
:10315000030E0EF0004170BD00F01CF88900013E26
:1031600000F007B800F009B84FEA430C5FEA5C5C76
:1031700008D081EA030100F05BB84FEA410C5FEA36
:103180005C5CF6D14FF00000014970470000FF077A
:103190000000F87F0EF1020E2EF0030E5EF8046BB5
:1031A000364205D4012A43EB030515F5001F12D85A
:1031B000012841EB010C1CF5001F0CD80ED14FEA81
:1031C000D17C15F5001F0CEB4C0C0CF1020C08BF68
:1031D0004CEBD37C04E04FF0080C01E04FEAD37CC9
:1031E0000CEB4C0526FA05F606F00706B6F1040CC2
:1031F00006D20EEB860CBDE870404CF0010C604727
:10320000DFE80CF0090B02024FF000414FF0000024
:10321000A1F5002170BD19461046012851EB0104AB
:1032200018BFD4F5001484BF002001F0004170BD28
:103230000808A0F500114FEA3101704791EA030F29
:1032400010B581F000413FF57BAC83F0004300F006
:1032500009B8000010B591EA030F48BF83F000439E
:103260003FF56EAC841A71EB030C07D212198CF087
:10327000004C43EB0C03001B61EB0C01DFF8A4E1F5
:103280004FEA1154A4EB135C1EEA430F18BF9EEAE9
:10329000445F00F0B08023EA6E03524221EA0451F9
:1032A000C3EB6E0338BF5B1EDCF1200E25D322FA80
:1032B0000CFE10EB0E0043FA0CFE41EB0E01CCF1BC
:1032C000200E03FA0EFE10EB0E0051F10001CCF1BE
:1032D000200E29D412FA0EF201EB0451BDE8104081
:1032E00058BF7047401C1CBFB2F1004F7047002808
:1032F0000CBF491C20F00100704712EB020E43EB9B
:10330000030218BF4FF0010E4EEA4202ACF1200C4E
:10331000DCF11E0E54D943FA0CFE10EB0E0051F1F5
:10332000FF31CCF11E0ED5D50EF1010E12FA0EFEB4
:10333000404141EB010101EB445C5FEA5C5C10D968
:1033400010EBDE7001EB045138BFBEF1004FBDE859
:10335000104018BF704700280CBF491C20F0010026
:10336000704730D24FEAD42C11F5001124F40064D8
:103370001BD0B1FA81F20B3AA41AA41ED2F1200399
:10338000914030FA03F31943904001EBCC71002CCB
:1033900001EB0451BDE81040A8BF704701F1C041E6
:1033A0004FF0000001F000417047B0FA80F310FACE
:1033B00003F100D110BDE41A173C4805C90AE4E73F
:1033C00001EB045110BD491001EB0451BDE8104060
:1033D0004FEA300002E04FF0000170474A0008BF9A
:1033E0000042F8D0B2F5001F28BF704701F000413D
:1033F0004FF0000070479EEA445F07D011EA5E0F6D
:10340000BDE8104004BF002100207047BDE8104017
:1034100070B5FFF7BFFE00BF40DFF63E83F000410E
:10342000104670470000E0FF43004FEAD30C4FEA1C
:103430003C0C43401FBF40070CF1605113F0FE4F9E
:1034400070471CF0006F03D100200CF00041704762
:103450000CF0004343EA507010B540EACC0000F095
:103460000EF800BF000000924FEA0001FFF7E0BE37
:103470004FF000414FF00000A1F5002170470EF120
:10348000020E2EF0030E5EF8044B244204D44FEAE1
:103490004102B2F17F4F11D84FEA4003B3F17F4FA1
:1034A0000CD80ED14FEAD07CB2F17F4F0CEB4C0C14
:1034B0000CF1020C08BF4CEBD17C04E04FF0080C7F
:1034C00001E04FEAD17C0CEB4C0324FA03F404F046
:1034D0000704B4F1040C06D20EEB840CBDE81040D6
:1034E0004CF0010C6047DFE80CF0070802024FF0D7
:1034F0000040A0F5800010BD0846420018BFD2F180
:10350000807288BF00F0004010BD4FF04070E1EEC7
:10351000100A70473A04401012143280171618042B
:1035200019021A7A030A0C0C15003E007000710192
:1035300072117309A20211007A207B1C7C287D3C49
:103540007E557F68807681808288838F849685A36C
:1035500086AF87C488D789E813E0000010000D000B
:103560001420A505AB072475256326A59F78A068C0
:10357000A103A6DFA7DFA8F0A990AA9413E50E6126
:103580000F4B16021E27210222912907330B350B00
:10359000371D3871392A3C784D404E20695D6B806B
:1035A00074198D4F8E008F0090009100920096004C
:1035B0009A80B084B10CB20EB382B80A431444F0BE
:1035C000453446584728483A59885A885B445C67CE
:1035D0005D495E0E640465206605940495086C0AD6
:1035E0006D554F80508051005222535E5480090324
:1035F0006E116F9F55005640578012103A143D804F
:10360000671168FF40C032801716180419021A7A31
:10361000030A0C0C15003E00700071017211730951
:10362000A20211007A207B1C7C287D3C7E557F689D
:10363000807681808288838F849685A386AF87C4B5
:1036400088D789E813E0000010000D001420A505BC
:10365000AB072475256326A59F78A068A103A6DF84
:10366000A7DFA8F0A990AA9413E50E610F4B1602EC
:103670001E27210222912907330B350B371D387184
:10368000392A3C784D404E20695D6B4074198D4F4E
:103690008E008F0090009100920096009A80B08476
:1036A000B10CB20EB382B80A431444F04534465804
:1036B0004728483A59885A885B445C675D495E0EE2
:1036C000640465206605940495086C0A6D554F8066
:1036D000508051005222535E548009036E116F9F37
:1036E0005500564057800000000000000000000018
:1036F00000000000000000000000000000000000CA
:1037000000000000000000000000000000000000B9
:1037100000000000000000000000000000000000A9
:103720000000000000000000000000000000000099
:103730000000000000000000000000000000000089
:103740000000000000000000000000000000000079
:1037500000000000000000004C5555555555A53F90
:103760007751C1166CC156BF9015CB19A001FA3E16
:10377000AD529C804F7E92BEC4B1B4BD9EEE213E40
:10378000D43888BEE9FAA8BD00004054FB21F93FB7
:103790003163621A61B4D03D0000601A61B4D03D5B
:1037A0007370032E8A19A33B0000002E8A19A33BD5
:1037B000C14920259A837B390000000000000000E9
:1037C0006E83F9A22915444ED15727FCC0DD34F58C
:1037D000999562DB4190433CAB6351FE61C5BBDE12
:1037E0003A6E24B7E0D24D42EA2E49061C92D10926
:1037F0001CEB1DFE3EA729B1F53582E88444BB2EA3
:1038000026709CE9417E5FB439D69139F4395383EF
:103810008B5F849C3B28F9BDFF97F81F0F9805DE4E
:103820008B112FEF1F6D0A5ACF7E366DB709CB274C
:10383000663F464F2DEA5F9EC7BA27757BF1E5EBE1
:10384000F739073DEA92528AB15FFB6B085D8D1F25
:10385000A6F810111111813FD561C119A0012ABF2D
:103860007DFEB157E31DC73EEB9C2B8AE6E55ABEB1
:103870007CD5CF5A3AD9E53D9838000800000020A1
:1038800034000000C4010008CC38000834000020D7
:103890000CF40100E001000801000000000000003D
:1038A000000000000000000000000000FFFFFFFF1C
:1038B0000000000000000000000000000000000008
:0C38C000000000000000000000000000FC
:040000050800018965
:00000001FF
