:020000040800F2
:1000000070040020290200083702000839020008A5
:100010003B0200083D0200083F020008000000000B
:100020000000000000000000000000004102000885
:1000300043020008000000004502000847020008D3
:100040004902000849020008490200084902000864
:100050004902000849020008490200084902000854
:100060004902000849020008490200084902000844
:100070004902000849020008490200084902000834
:100080004902000849020008490200084902000824
:10009000490200084902000849020008D902000884
:1000A0004902000849020008490200084902000804
:1000B00049020008490200084902000849020008F4
:1000C00049020008490200084902000849020008E4
:1000D00049020008610D00084902000849020008B1
:1000E00049020008490200084902000849020008C4
:1000F00049020008490200084902000849020008B4
:1001000049020008490200087D0C00084902000865
:100110004902000849020008490200084902000893
:100120004902000849020008490200084902000883
:100130004902000849020008490200084902000873
:100140004902000849020008490200084902000863
:100150004902000849020008490200084902000853
:100160004902000849020008490200084902000843
:100170004902000849020008490200084902000833
:10018000490200084902000800F002F800F03CF8BB
:100190000AA090E8000C82448344AAF10107DA45E2
:1001A00001D100F031F8AFF2090EBAE80F0013F0F8
:1001B000010F18BFFB1A43F0010318476410000039
:1001C00084100000103A24BF78C878C1FAD85207CA
:1001D00024BF30C830C144BF04680C6070470000C1
:1001E0000023002400250026103A28BF78C1FBD840
:1001F000520728BF30C148BF0B6070471FB500F0E1
:10020000E9FE1FBD10B510BD00F03AF81146FFF72A
:10021000F5FF00F05BFE00F058F803B4FFF7F2FFC3
:1002200003BC00F0ADFD00000B48016841F4700113
:1002300001600A480047FEE7FEE7FEE7FEE7FEE74B
:10024000FEE7FEE7FEE7FEE7FEE70000044805499B
:10025000034A054B7047000088ED00E08901000863
:10026000700000207004002070000020704770476C
:10027000704770477047000000487047100000202A
:100280007546FFF7F9FFAE4605006946534620F074
:100290000700854618B020B5FFF7D8FFBDE820401D
:1002A0004FF000064FF000074FF000084FF0000B32
:1002B00021F00701AC46ACE8C009ACE8C009ACE8E5
:1002C000C009ACE8C0098D4670470446AFF3008012
:1002D0002046FFF7A2FF000010B51348006800F4A5
:1002E0000070D8B111480078022817DA0F4800785A
:1002F00060B900200E490860012000F0ABFD01202C
:100300000C49C1F88C020C49086002E000200A493F
:10031000086006480078401C044908704FF40070DB
:100320000149086010BD0000143C01400C00002091
:100330008C024242000042428C02414210B502222D
:100340000921052000F008F80223172200210846A1
:1003500000F012F910BD0000F0B503460846CD17B5
:1003600001EB9575AD10A1EB8505AD062C0E24486B
:10037000006840F48040224D2860CD1701EB957550
:10038000AE10204D55F826500F26A640B54308461E
:10039000CE1701EB9676B7101A4E46F82750CD17B8
:1003A00001EB9575AE10174D55F8265003FA04F67B
:1003B0003543CE1701EB9676B710124E46F827500C
:1003C0001148006801258D4028430F4D286002F038
:1003D000010040B10C480C30006801258D402843D5
:1003E000094D0C35286002F0020040B10648083083
:1003F000006801258D402843034D08352860F0BD75
:100400004438024008380140003C014030B5CC106F
:1004100000F1200353F824304C07E50E0F24AC40C4
:10042000A343CD1000F1200444F82530CC1000F196
:10043000200353F824304C07E40E02FA04F423435B
:10044000CD1000F1200444F8253030BD2DE9F047EF
:100450000C46DDE90867002100258C4600BF60E0FE
:100460004FF0010808FA01F504EA050CAC4557D134
:10047000D0F800804FEA410A4FF0030909FA0AF95F
:1004800028EA0908C0F80080D0F800804FEA410946
:1004900002FA09F948EA0908C0F80080012A01D0E7
:1004A000022A27D1D0F808804FEA410A4FF0030909
:1004B00009FA0AF928EA0908C0F80880D0F8088083
:1004C0004FEA410906FA09F948EA0908C0F8088024
:1004D000D0F804904FF0010808FA01F829EA080959
:1004E000C0F80490D0F8048003FA01F948EA09083A
:1004F000C0F80480D0F80C804FEA410A4FF003099D
:1005000009FA0AF928EA0908C0F80C80D0F80C802A
:100510004FEA410907FA09F948EA0908C0F80C80CE
:10052000491C10299CD3BDE8F08700001CB50F487A
:10053000006840F008000D490860012003210023F5
:100540000246CDE9001004210948FFF77FFF002093
:10055000032103460246CDE9001008210448FFF7B5
:1005600075FF0020034908601CBD000030380240C0
:10057000000C0240888241422DE9F041074688463E
:1005800014461D46284600F033F8C5F1040007FA6A
:1005900000F60F20284100EA0800064306F00F0687
:1005A000E21704EBD2625211920002F1E022D2F87B
:1005B00000212146E31704EBD3635B11A4EB431C3A
:1005C000012303FA0CF31A432046E31704EBD36329
:1005D0005B119B0003F1E023C3F800210348005D99
:1005E00040EA061001490855BDE8F08100E400E04A
:1005F0000146072323EA01021202054B18684FF651
:10060000FF031840034B18431043014B1860704719
:100610000CED00E00000FA054A0A52020243014BC9
:100620001A60704708ED00E07CB500254C48006872
:1006300040F001004A4908600846006840F00400A4
:1006400008600846006840F010000860084600682E
:1006500040F020000860022000210B460A46CDE948
:10066000001001023F48FFF7F1FE3E4814300068D9
:1006700040F400703B49143108600120032100233D
:100680000246CDE900100A213748FFF7DFFE364861
:100690001430006840F00A00334914310860022029
:1006A00000210B460A46CDE90010FF212D48FFF737
:1006B000CDFE2C481430006840F0FF002949143169
:1006C00008600120032100230246CDE90010282103
:1006D0002648FFF7BBFE2548406940F02800234923
:1006E00048610120032100230246CDE900104103A7
:1006F0001D48FFF7ABFE4FF400501B491431086052
:1007000000F0ACF88021122000F0D6F908B10120E9
:100710007CBD322000F082FB0B2000F01DF9044666
:10072000732C01D00220F3E70A2000F015F90446EB
:10073000762C01D00220EBE700250DE00C4A02EBFD
:10074000450251780A4A12F8150000F0B5F9022066
:1007500000F064FB681C85B2AE2DEFD30020D7E714
:1007600030380240001402400008024000100240ED
:10077000C41000082DE9F0410446E72500260027B3
:10078000012C06D0022C08D0032C0AD0042C10D146
:100790000BE0E5255A265C270BE0E5255826602767
:1007A00007E0E52584264C2703E0E525962640272B
:1007B00000BF00BF2946132000F07EF9314601201A
:1007C00000F07AF93946022000F076F9BDE8F081B0
:1007D0002DE9F04705460E469046994605EB480040
:1007E0001FFA80FA06EB490087B2B7F5447F02DDB5
:1007F000A7F5447087B2032000F0AEF8044604F079
:10080000F0040AF00301284661F39F0004432146E7
:10081000032000F051F9C5F38701192000F04CF9CD
:10082000CAF387011A2000F047F9322000F094F84B
:10083000044604F0C00407F00701304661F3DF000E
:100840000443C6F3C701172000F036F9C7F3C70108
:10085000182000F031F9BDE8F08700001CB5104801
:10086000006840F010000E490860012002210023BA
:100870000246CDE9001050210A48FFF7E7FD09487C
:10088000406940F05000074948610846006820F47C
:10089000405008600846006840F4805008601CBD65
:1008A000303802400010024010B5782000F0D2FA33
:1008B00001200B4908600B49C1F89002782000F034
:1008C000C9FA0020064908390860782000F0C2FA09
:1008D00000200449C1F89802782000F0BBFA10BD4E
:1008E000980242420000424270B500241748006856
:1008F00020F4405015490860084600680860082543
:1009000015E0782000F0A6FA012011490860600681
:10091000040E1048D0F8180208B1601CC4B2782048
:1009200000F098FA00200A490860681EC5B2002D40
:10093000E7DC0648006820F4405004490860084697
:10094000006840F480500860204670BD00100240EE
:10095000900242420000424270B50446002500F079
:1009600023F8422000F054F8DC2000F073FA20460F
:1009700000F04EF8DC2000F06DFA00F02FF8DC20DB
:1009800000F068FA00F010F8432000F041F8DC2095
:1009900000F060FAFFF7A8FF0546FFF785FF00F0BB
:1009A0001DF8284670BD000010B5012009490860F7
:1009B0000949C1F89002782000F04CFA002005495E
:1009C0000860782000F046FA00200349C1F8900240
:1009D00010BD0000980242420000424210B50020C3
:1009E00009490860782000F035FA01200749C1F86C
:1009F0009002782000F02EFA012003490860782048
:100A000000F028FA10BD0000980242420000424265
:100A100070B5044600261BE004F0800018B10120E8
:100A20002249086002E00020204908606006040EA8
:100A3000782000F00FFA01201C490839086078205E
:100A400000F008FA00201A49C1F89002701CC6B2E2
:100A5000082EE1DB1748006820F440501549086073
:100A6000084600680860782000F0F4F901200F497A
:100A700008390860782000F0EDF90D48D0F8180228
:100A800008B1012500E00025002008490839086068
:100A90000848006820F4405006490860084600688D
:100AA00040F480500860284670BD00009802424221
:100AB000000042420010024070B505460C46002678
:100AC000FFF772FF4220FFF7A3FF00B10126DC20F1
:100AD00000F0C0F92846FFF79BFF00B10126DC209B
:100AE00000F0B8F92046FFF793FF00B10126FFF7A9
:100AF00075FF304670BD0000F0B504460D46164641
:100B00001F461448006840F00100124908600020A8
:100B10001049083108600F4800680F4908400D4926
:100B200008600E48091D0860081F006820F4802036
:100B3000091F0860002007490C3108603B46324617
:100B40002946204600F00CF800210846FFF764FD16
:100B5000F0BD000000380240FFFFF6FE1030002418
:100B6000F0B504460D46002100203D4E366846F49F
:100B700080363B4F3E6001E04E1CB1B2384E3668C5
:100B800006F400361EB941F6FF76B142F4DB41F6B9
:100B9000FF76B14201D1012060E0314E4036366827
:100BA00046F080562E4F40373E602E4E366846F453
:100BB00040462C4F3E602A4E0836366846F41446AE
:100BC000274F08373E60264E366826F08076244F41
:100BD0003E6045EA84160127C7EB520746EA0746FE
:100BE00046EA036646F480061D4F3F1D3E603E1FE9
:100BF000366846F080763F1F3E6000BF184E36686C
:100C000006F00076002EF9D0174E366846F480764E
:100C1000154F3E603E46366846F400763E603E46DE
:100C2000366846F480663E603E46366846F0050605
:100C30003E600B4E0836366826F00306084F08372C
:100C40003E603E46366846F002063E6000BF044EF7
:100C50000836366806F00C06082EF8D1F0BD000004
:100C60000038024000700040003C02400148024948
:100C7000086070470400FA050CED00E0354908886B
:100C80003549097801F0800100295ED100F00101A9
:100C9000D1B13149097801F04001A9B12E49097853
:100CA00001F03F013F290AD12B49097841F0800129
:100CB000294A11704FF0FF31284A116004E026499B
:100CC0000978491C244A117000F00201E9B3224955
:100CD000097801F0400199B11F49097841F080017C
:100CE0001D4A11701B49243109681C4A11601949B9
:100CF0001031098821F00201164A1032118024E0D7
:100D00000021154A1170154A11601349097841F004
:100D10004001114A11700F491039098821F0010171
:100D20000C4A103A118000210A4A14321160111F36
:100D3000098841F00201121F118006491039098803
:100D400041F00101034A103A11800021014A11804B
:100D500070470000100C0040050000200800002033
:100D600010B50648008800F0200030B103488088A4
:100D7000C4B22A2C01D1FFF779FF10BD0010014049
:100D8000014600BF7047000010B50723022208216A
:100D90004FF4A870FFF7B0FEA82000F01FF84FF442
:100DA000E131542000F096F8FFF73EFC40F6AC50DD
:100DB00000F034F80020FFF7DDFCFFF7BFFA4FF436
:100DC000A073F022AE210A20FFF702FD00200249A5
:100DD0000860FFF7ABFB10BDB40241424FF0E021C9
:100DE000096921F004014FF0E0221161C21700EB04
:100DF0005272C2F3C702074B1A701946097801EB09
:100E00004102C2EBC1114FF6FF7202EAC101024A70
:100E100011807047000000200200002070B50446D9
:100E20004FF4077094FBF0F0C6B24FF4077094FBD8
:100E3000F0F100FB114085B205E04FF4077000F0BF
:100E400027F8701EC6B2002EF7D115B1284600F063
:100E50001FF870BD01460D4A12784A434FF0E02357
:100E60005A6100229A6101221A6100BF4FF0E0220C
:100E7000106900F001021AB100F48032002AF5D0A6
:100E800000224FF0E0231A619A61704700000020B1
:100E900001460D4A12884A434FF0E0235A6100226E
:100EA0009A6101221A6100BF4FF0E022106900F040
:100EB00001021AB100F48032002AF5D000224FF06E
:100EC000E0231A619A61704702000020FFF75CFF7F
:100ED00000BFFEE7F0B52DED028B83B005460E4650
:100EE000384905FB01F000EE100AF8EE400A300127
:100EF00000EE100AB8EE400A80EE801AB0EE418A89
:100F0000BCEEC80A10EE100A84B200EE104AB8EE29
:100F1000400A38EE400AF3EE000A20EE200ABCEE4A
:100F2000C00A10EE107A4FF6FF7000EA0414E019C0
:100F300084B22548006840F0010023490860224837
:100F40001430006840F010001F491431086001207F
:100F5000022100230A46CDE900104FF4C0611B486E
:100F6000FFF774FA072209211848FFF74FFA072202
:100F70000A211648FFF74AFA15480481808920F4AF
:100F80000040134988810846808940F00800888124
:100F90000846808940F0040088810846808940F036
:100FA000200088810223252203210846FFF7E4FA66
:100FB0000748808940F400500549888103B0BDECA2
:100FC000028BF0BD40420F0030380240000002406A
:100FD000001001404FF04070E1EE100A70473A04F3
:100FE0004010121432801716180419021A7A030AD4
:100FF0000C0C15003E007000710172117309A20201
:1010000011007A207B1C7C287D3C7E557F68807691
:1010100081808288838F849685A386AF87C488D792
:1010200089E813E0000010000D001420A505AB07AF
:101030002475256326A59F78A068A103A6DFA7DFF6
:10104000A8F0A990AA9413E50E610F4B16021E2773
:10105000210222912907330B350B371D3871392AAC
:101060003C784D404E20695D6B8074198D4F8E0029
:101070008F0090009100920096009A80B084B10C8D
:10108000B20EB382B80A431444F045344658472898
:10109000483A59885A885B445C675D495E0E64042F
:1010A00065206605940495086C0A6D554F80508044
:1010B00051005222535E548009036E116F9F5500F8
:1010C0005640578012103A143D80671168FF40C0A7
:1010D00032801716180419021A7A030A0C0C15002C
:1010E0003E007000710172117309A20211007A2092
:1010F0007B1C7C287D3C7E557F6880768180828841
:10110000838F849685A386AF87C488D789E813E048
:10111000000010000D001420A505AB072475256301
:1011200026A59F78A068A103A6DFA7DFA8F0A99055
:10113000AA9413E50E610F4B16021E27210222917D
:101140002907330B350B371D3871392A3C784D4050
:101150004E20695D6B4074198D4F8E008F0090009A
:101160009100920096009A80B084B10CB20EB382C6
:10117000B80A431444F0453446584728483A598839
:101180005A885B445C675D495E0E640465206605B1
:10119000940495086C0A6D554F805080510052227E
:1011A000535E548009036E116F9F5500564057805F
:1011B000000000000000000000000000000000002F
:1011C000000000000000000000000000000000001F
:1011D000000000000000000000000000000000000F
:1011E00000000000000000000000000000000000FF
:1011F00000000000000000000000000000000000EF
:1012000000000000000000000000000000000000DE
:1012100000000000000000000000000000000000CE
:10122000401200080000002010000000C401000867
:10123000501200081000002060040000E0010008C7
:10124000000000000000000000000000000000009E
:040000050800018965
:00000001FF
