:020000040800F2
:10000000F025012029020008370200083902000803
:100010003B0200083D0200083F020008000000000B
:100020000000000000000000000000004102000885
:1000300043020008000000004502000847020008D3
:100040004902000849020008490200084902000864
:100050004902000849020008490200084902000854
:1000600049020008C928000849020008490200089E
:100070004902000849020008490200084902000834
:100080004902000849020008490200084902000824
:1000900049020008490200084902000889280008AE
:1000A0004902000849020008490200084902000804
:1000B000490200081D2800084902000849020008FA
:1000C00049020008490200084902000849020008E4
:1000D00049020008C9200008490200084902000836
:1000E00049020008490200084902000849020008C4
:1000F00049020008490200084902000849020008B4
:1001000049020008490200084902000849020008A3
:100110004902000849020008490200084902000893
:100120004902000849020008490200084902000883
:100130004902000849020008490200084902000873
:100140004902000849020008490200084902000863
:100150004902000849020008490200084902000853
:100160004902000849020008490200084902000843
:100170004902000849020008490200084902000833
:10018000490200084902000800F002F800F03CF8BB
:100190000AA090E8000C82448344AAF10107DA45E2
:1001A00001D100F031F8AFF2090EBAE80F0013F0F8
:1001B000010F18BFFB1A43F001031847DC4200008F
:1001C000FC420000103A24BF78C878C1FAD8520720
:1001D00024BF30C830C144BF04680C6070470000C1
:1001E0000023002400250026103A28BF78C1FBD840
:1001F000520728BF30C148BF0B6070471FB503F0DE
:1002000092FF1FBD10B510BD02F0E8FC1146FFF7CC
:10021000F5FF00F043F802F006FD03B4FFF7F2FF2C
:1002200003BC01F043FF00000B48016841F470017A
:1002300001600A480047FEE7FEE7FEE7FEE7FEE74B
:10024000FEE7FEE7FEE7FEE7FEE70000044805499B
:10025000034A054B7047000088ED00E08901000863
:10026000F0210120F0250120F021012010B500210E
:10027000084600F091F800F024F900F005FC01F0C8
:1002800080F900F0EBFF1C480068052805DD002020
:100290001A49086006201A49086010BD00F036F8B7
:1002A00029E000BF174800780028FBD016480078E6
:1002B000012820DD0021084600F06EF800F001F969
:1002C00000F0E2FB01F08CF901F0C2F800F0D3FF7E
:1002D00004E0012009490860FFF7C8FF08480068EA
:1002E000002808DB06480068062804DA03487C3842
:1002F00000680028EDD0D4E7100000208882414239
:100300000C0000201C0000202200002010B5072354
:10031000022208214FF4A87001F080FEA82001F00D
:100320001FFC4FF4E131542001F0DCFE01F05EFFD0
:100330004FF47A7001F068FC002001F0F3FF4FF4F5
:10034000A073F022AE210A2002F0BEF80020F94985
:10035000086002F0DEFA02F0ABFB02F0E7FA4FF4BD
:100360007A614CF24F3002F037FA10BD0821F24AA0
:10037000116040B1F0491439096821F00801EE4AD2
:10038000143A116007E0EC491439096841F008019A
:10039000E94A143A116070472DE9F05F0746884634
:1003A0000026B24672B60020E4490860E449C1F86C
:1003B00084020120DF4930390860002008600120F4
:1003C000DE490860DE49C1F88402002567E00024A8
:1003D00060E00020D74930390860DA48006800F052
:1003E000FF090120D649C1F884020020D1493039E3
:1003F00008600120D249C1F88402EA1705EB927225
:100400009210A5EB8202AABBE21704EB9272921043
:10041000A4EB820272BB4FEAE47C04EB9C7C4FEAC3
:10042000AC0CBC4534DB4FEAE57C05EB9C7C4FEA29
:10043000AC0CC4452CDB4FEAE47C04EB9C7C4FEA1B
:10044000AC0B07F1500CE34522DA4FEAE57C05EBF3
:100450009C7C4FEAAC0B08F13C0CE34518DA502EBB
:1004600009DA0AEB8A00B84901EB001000F806909F
:10047000701C86B20CE000260AF101001FFA80FA17
:100480000AEB8A00B04901EB001000F80690761CD8
:10049000601C84B2B4F5A07F9BDB681C85B2F02D94
:1004A00095DB4FF49652A849A84802F026FB4FF47A
:1004B0000070A14908600020A549087062B6BDE837
:1004C000F09F2DE9F0472DED068BADF5407D00271F
:1004D00014E000202DF8170080A9C8559FED9D0A53
:1004E0009D4800EB870080ED000A9FED9A0A9B482B
:1004F00000EB870080ED000A781C87B2FF2FE8DD53
:10050000002448E0002542E0954A1268A21A944B64
:100510001B68E31A5A43934B1B68EB1ADFF844C27B
:10052000DCF800C0A5EB0C0C03FB0C238E4A116811
:10053000CA1701EB5272DFF830C2DCF800C0ACEB36
:10054000E202DFF824C2DCF800004FEAE07C00EBB6
:100550005C7CDFF814A2DAF800A0AAEBEC0C02FB3A
:100560000CF2934211DA04EB8400784901EB00109D
:10057000405D3DF81000401C80B204EB8401734ADA
:1005800002EB0111495D2DF81100681C85B2502D58
:10059000BADB601C84B23C2CB4DB4FF0000812E0E4
:1005A0003DF8180000EE100AB8EE400ADFED6F0AC1
:1005B00080EE201A684800EB880080ED001A08F1F0
:1005C00001001FFA80F8B8F1FF0FE9DD00261FE0F7
:1005D00056B9614800EB860090ED000A5F4800EBD9
:1005E000860080ED000A11E0701E5C4901EB80007E
:1005F00090ED000A584800EB8600D0ED000A30EE7E
:10060000200A084600EB860080ED000A701C86B2C6
:10061000FF2EDDDD4FF0000924E0504800EB89009B
:1006200090ED000A10EE101A084603F00BFD41ECA5
:100630001A0B9FED4F0B53EC102B03F0D9FA41EC42
:10064000190B9FED4D0B53EC102B03F001F841EC0F
:10065000180B03F039FA80A901F8090009F101002B
:100660001FFA80F9B9F1FF0FD7DD002444E000251F
:100670003EE03B4A1268A21A394B1B68E31A5A4300
:10068000384B1B68EB1ADFF8DCC0DCF800C0A5EBC8
:100690000C0C03FB0C23344A1168CA1701EB52728D
:1006A000DFF8C4C0DCF800C0ACEBE202DFF8B8C091
:1006B000DCF800004FEAE07C00EB5C7CDFF8A8A0EF
:1006C000DAF800A0AAEBEC0C02FB0CF293420DDA74
:1006D00004EB84001D4901EB0010405D80A9085C1B
:1006E00004EB8401194A02EB01114855681C85B2DC
:1006F000502DBEDB601C84B23C2CB8DB0DF5407D78
:10070000BDEC068BBDE8F087F0B5ADF5007DDFED03
:100710001C0A60EE200AFCEEE00A10EE900A85B298
:10072000002103E000202DF81100491CFF29F9DD0C
:1007300001213FE0B4024142143C01409402424294
:100740000000414210140240A42500202400002093
:10075000220000200000000068190120681D01200F
:100760000400002000000020080000200000964542
:100770000000000000E06F40000000000000E03FCB
:1007800000A89145012212E001EB8100FC4E06EB2E
:100790000010805C3DF81000401C80B201EB810627
:1007A000F74F07EB0616B65C2DF81600521C4F2AC1
:1007B000EADB491C3B29E5DB00230024FF2105E09F
:1007C0003DF81100184483B2641C491EAB42F7DBAC
:1007D000C4F1FF000DF5007DF0BD2DE9F0414FF4AF
:1007E0009652E749E74802F088F9012492E0012592
:1007F0008CE0611C01EB8101E24A02EB0112691EEF
:10080000525C611C01EB8101DE4B03EB0111495D80
:10081000022313FB0122611C01EB8101D94B03EB85
:100820000113691C595C0A44611E01EB8101D54B1F
:1008300003EB0113691E5B5C611E01EB8101DFF8B4
:1008400044C30CEB0111495D4FF0020C1CFB01335A
:10085000611E01EB8101DFF82CC30CEB011C691C4C
:100860001CF801101944501A002801DB014600E071
:100870004142CFB2611E01EB8101C24A02EB01127B
:10088000691E525C04EB8401BE4B03EB0113691E2D
:10089000595C022313FB0122611C01EB8101B94B5E
:1008A00003EB0113691E595C0A44611E01EB8101CF
:1008B000B44B03EB0113691C5B5C04EB8401DFF8B0
:1008C000C4C20CEB011C691C1CF801104FF0020C97
:1008D0001CFB0133611C01EB8101DFF8A8C20CEBAA
:1008E000011C691C1CF801101944501A002801DB76
:1008F000014600E0414201F0FF0807EB080004EB6D
:1009000084019F4A02EB011148556D1C4F2DFFF6E3
:1009100070AF641C3B2CFFF66AAF9FED9B0AFFF79C
:10092000F3FE064601241CE0012517E004EB8400D9
:10093000934901EB0010405DB04207DDFF2004EB5E
:1009400084018F4A02EB0111485506E0002004EBB8
:1009500084018B4A02EB011148556D1C4F2DE5DBDC
:10096000641C3B2CE0DB4FF49651864802F0F7F80C
:10097000BDE8F0812DE9F04FADF5007D0346002084
:1009800003E000262DF81060401CFF28F9DD01204F
:1009900054E001214FE0DFF8F481D8F80080A0EBAB
:1009A0000808DFF8E891D9F80090A0EB090908FBE6
:1009B00009F8DFF8DC91D9F80090A1EB0909DFF81C
:1009C000D0A1DAF800A0A1EB0A0A09FB0A89DFF836
:1009D000C481D8F800704FEAE77807EB9878DFF821
:1009E000B4A1DAF800A0AAEBA808DFF8A8A1DAF809
:1009F00000604FEAE67A06EB9A7ADFF898B1DBF806
:100A000000B0ABEBAA0A08FB0AF8C14512DA00EB0A
:100A10008006614F07EB0616765C3DF81660761C83
:100A2000B6B200EB8007DFF8708108EB07177F5C38
:100A30002DF81760491C4F29ADDB401C3B28A8DB73
:100A4000002004E03DF810602E44B5B2401C0028A0
:100A5000F8DB5E1B00EE906AF8EEE00A60EE800ABA
:100A6000FCEEE00A10EE906AB4B200229446FF2039
:100A700004E03DF810601644B2B2401EA242F8DB1A
:100A80000DF5007DBDE8F08F2DE9F0474FF000082F
:100A90004FF4965240493B4802F02FF80124D3E02E
:100AA0000125CDE0394A1268A21A384B1B68E31AB7
:100AB0005A43374B1B68EB1ADFF8D4C0DCF800C090
:100AC000A5EB0C0C03FB0C23324A1168CA1701EB8F
:100AD0009272DFF8C0C0DCF800C0ACEBA202DFF815
:100AE000B4C0DCF800004FEAE07C00EB9C7CDFF84F
:100AF000A4A0DAF800A0AAEBAC0C02FB0CF2934223
:100B00007DDA611C01EB81011E4A02EB0112691EB4
:100B1000525C611C01EB81011A4B03EB0111495D31
:100B2000022313FB0122611C01EB8101154B03EB36
:100B30000113691C595C0A44611E01EB8101114BD0
:100B400003EB0113691E5B5C611E01EB8101DFF8A1
:100B500034C00CEB0111495D4FF0020C1CFB01335A
:100B6000611E01EB8101DFF81CC00CEB011C691C4C
:100B70001CF801101944501A00280FDB01460EE042
:100B8000A4250020E4120020295C8F3D04000020F1
:100B90000000002008000020240000204142CEB2C6
:100BA000611E01EB8101FC4A02EB0112691E525CDD
:100BB00004EB8401F84B03EB0113691E595C02231B
:100BC00013FB0122611C01EB8101F34B03EB0113C9
:100BD000691E595C0A44611E01EB8101EE4B03EB77
:100BE0000113691C5B5C04EB8401DFF8ACC30CEB04
:100BF000011C691C1CF801104FF0020C00E01EE003
:100C00001CFB0133611C01EB8101DFF88CC30CEB91
:100C1000011C691C1CF801101944501A002801DB42
:100C2000014600E04142CFB2B81904EB8401DB4A2F
:100C300002EB0111485508F101001FFA80F86D1C04
:100C40004F2DFFF62FAF641C3B2CFFF629AF40461B
:100C50009FEDD30AFFF78EFE00F0FF0901244BE061
:100C6000012546E0CF4A1268A21ACE4B1B68E31A50
:100C70005A43CD4B1B68EB1ADFF82CC3DCF800C0DD
:100C8000A5EB0C0C03FB0C23C84A1168CA1701EB37
:100C90009272DFF818C3DCF800C0ACEBA202DFF8F8
:100CA0000CC3DCF800004FEAE07C00EB9C7CDFF832
:100CB000FCA2DAF800A0AAEBAC0C02FB0CF2934207
:100CC00016DA04EB8400B54901EB0010405D48459D
:100CD00007DDFF2004EB8401B04A02EB0111485507
:100CE00006E0002004EB8401AC4A02EB01114855F8
:100CF0006D1C4F2DB6DB641C3B2CB1DB4FF49651C1
:100D0000A54801F02CFFBDE8F0872DE9F0472DED57
:100D10000C8B9FEDA70BB0EE408AF0EE608A0027A7
:100D2000A3E04FF000089BE007EB8700A24901EB2E
:100D3000001010F80800FF287DD100248BE04FF050
:100D4000000983E0484602F0ECFE41EC1A0B9FEDEF
:100D50009B0B53EC102B02F04BFF41EC190B9FED5A
:100D6000990B53EC102B02F027FD41EC180BB0EE61
:100D7000480AF0EE680A01F077FFB0EE40CAF0EEE4
:100D800060CA04F10F0002F0CCFE41EC1D0B53ECE5
:100D90001C2B02F02DFF41EC1A0B384602F0C1FE6D
:100DA00041EC1B0B53EC1A2B03F062F841EC190BCE
:100DB00002F05AFE0646B0EE480AF0EE680A01F06C
:100DC000B7FFB0EE40CAF0EE60CA04F10F0002F0C7
:100DD000A8FE41EC1D0B53EC1C2B02F009FF41EC6B
:100DE0001A0B404602F09DFE41EC1B0B53EC1A2BF4
:100DF00003F03EF841EC190B02F036FE0546002EDA
:100E000022DD3C2E20DA002D1EDD502D1CDA06EBF3
:100E1000C600C0EB86106D4901EB001005EB4501E3
:100E200001EBC5010844005D401C06EBC601C1EBA7
:100E30008611664A00E011E002EB011105EB450264
:100E400002EBC5021144085509F10A09B9F5B47F4E
:100E50007FF778AF641C0B2CFFF671AF08F1010827
:100E6000B8F1500FFFF660AF7F1C3C2FFFF659AF73
:100E7000BDEC0C8BBDE8F0872DE9F0474FF0000A80
:100E8000D046C146002772B6FFF73FFF0A262AE088
:100E9000002425E0002520E004EBC400C0EB841012
:100EA0004A4901EB001005EB450101EBC50108447F
:100EB000805D504510DD04EBC400C0EB8410434955
:100EC00001EB001005EB450101EBC501084410F8EA
:100ED00006A0A046A94637466D1C502DDCDB641CDD
:100EE0003C2CD7DB761E002ED2DA2F48C0F80090BB
:100EF0002C48C0F8008007F10F002C490860012041
:100F0000334908704CF64061304801F028FE62B663
:100F1000BDE8F0872DE9F0472DED0C8B9FED240BFC
:100F2000B0EE408AF0EE608A0024EDE00025E7E0B4
:100F30001C490968611A1B4A1268A21A51431A4ACD
:100F40001268AA1A184B1B68EB1A02FB0313174905
:100F50000968491D154A1268521D51438B427CDCB9
:100F600012490968491D032291FBF2F10D4A1268EA
:100F7000A01A002801DB024600E04242B2EB410F1A
:100F80006BDA04EB84000C4901EB0010405DFF2894
:100F900063D10026B0E00000E4120020240000200D
:100FA000CDCC4C3E040000200000002008000020B2
:100FB0000000000000000000A42500204AD8124DC7
:100FC000FB2109400000000000806640284B002003
:100FD0001C0000204FF0000989E0484602F0A1FD06
:100FE00041EC1A0B1FED0B0B53EC102B02F000FE23
:100FF00041EC190B1FED0D0B53EC102B02F0DCFB39
:1010000041EC180BB0EE480AF0EE680A01F02CFE35
:10101000B0EE40CAF0EE60CAFE4909680939881985
:1010200002F07FFD41EC1D0B53EC1C2B02F0E0FDA8
:1010300041EC1A0B204602F074FD41EC1B0B53EC03
:101040001A2B02F015FF41EC190B02F00DFD804642
:10105000B0EE480AF0EE680A00E050E001F068FEE9
:10106000B0EE40CAF0EE60CAEA4909680939881949
:1010700002F057FD41EC1D0B53EC1C2B02F0B8FDA8
:1010800041EC1A0B284602F04CFD41EC1B0B53ECD3
:101090001A2B02F0EDFE41EC190B02F0E5FC0746BD
:1010A000B8F1000F21DDB8F13C0F1EDA002F1CDD76
:1010B000502F1ADA08EBC800C0EB8810D64901EBB4
:1010C000001007EB470101EBC7010844805D401C9D
:1010D00008EBC801C1EB8811CF4A02EB011107EB05
:1010E000470202EBC7021144885509F10A09B9F514
:1010F000B47F7FF772AF761C0A2EFFF66BAF6D1CC4
:10110000502DFFF615AF641C3C2CFFF60FAFBDEC65
:101110000C8BBDE8F0872DE9F05F0027B846B94693
:10112000BC48D0F800B0BA4672B6FFF7F3FE092605
:1011300039E0002434E000252FE0B8490968601A3E
:10114000B4490968032291FBF2F2002801DB014651
:1011500000E041428A421FDD04EBC400C0EB841072
:10116000AD4901EB001005EB450101EBC501084459
:10117000805D504510DD04EBC400C0EB8410A6492F
:1011800001EB001005EB450101EBC501084410F827
:1011900006A0A8462746B1466D1C502DCDDB641C29
:1011A0003C2CC8DB761E002EC3DA9D48C0F80080B8
:1011B0009A480760ABF109004844964908604CF62C
:1011C0004061954801F0CBFC62B6BDE8F09FF8B5F0
:1011D0000646002410E000250BE004EB840006EB3B
:1011E0000010415D502000FB0450001D8D4A115439
:1011F0006D1C502DF1DB641C3C2CECDB41F2C42057
:10120000884B894A04210090884801F0ADFB80207A
:101210008549091F888241F2C421844801F032FCCB
:101220008248B438006800F0006038B17F48AC38BC
:10123000006840F000607D49AC390860F8BD10B529
:1012400077480068774908707448006848707148AA
:10125000006888707648FFF7BAFF10BD10B500200F
:10126000704908704870887072480078C870724879
:10127000FFF7ADFF10BD10B56948006869490870F7
:101280006648006848706348006888706B4800785A
:10129000C8706948FFF79BFF10BD2DE9F04F002390
:1012A0000025002600215AE0002055E0DFF86C817F
:1012B000D8F80080A0EB0808DFF86091D9F800901A
:1012C000A0EB090908FB09F8DFF85491D9F8009060
:1012D000A1EB0909DFF848A1DAF800A0A1EB0A0A9E
:1012E00009FB0A89DFF82C81D8F800C04FEAEC78B6
:1012F0000CEB9878DFF81CA1DAF800A0AAEBA8089C
:10130000DFF810A1DAF800704FEAE77A07EB9A7A73
:10131000DFF800B1DBF800B0ABEBAA0A08FB0AF873
:10132000C14518DADFF8EC80D8F800804FEA4808A9
:101330004FF0030998FBF9F9DFF8E080D8F8008056
:10134000A0EB0804002C01DBA04601E0C4F100087A
:10135000C14500DD5B1C401C3C28A7DB491C502913
:10136000A2DB092493FBF4F3082200216CE00020A7
:101370004EE0DFF8A8C0DCF800C0A0EB0C0CDFF8F2
:101380009C80D8F80080A0EB08080CFB08FCDFF874
:101390009080D8F80080A1EB0808DFF88490D9F895
:1013A0000090A1EB090908FB09C8DFF868C0DCF868
:1013B00000704FEAE77C07EB9C7CDFF85890D9F887
:1013C0000090A9EBAC0CDFF84C90D9F800404FEA44
:1013D000E47904EB9979DFF83CA0DAF800A0AAEBF5
:1013E000A9090CFB09FCE04511DA6D1C00EB800437
:1013F000114F07EB0414645CFF2C00D1761C9D4256
:1014000005DD01250E4C44F82260521E0126401CC9
:101410003C2817E008000020284B00200400002092
:10142000000000206438002004100140B86402402D
:10143000A425002010000020240000200C00002023
:101440006821012095DB491C502990DBBDE8F08F15
:10145000F0B52DED068B8FB00026242106A801F0F3
:101460007EFB002003900490059000900190029074
:10147000FFF713FF002428E0FE490968FD4A1268BF
:1014800001FB02F002F04DFB41EC1A0B9FEDFA0B51
:1014900053EC102B02F0ACFB41EC180BF84951F85F
:1014A000240002F03EFB41EC190B53EC182B02F028
:1014B00063FB03D20020F24941F82400F04850F8C1
:1014C000240006A941F82400641C092CD4DB002464
:1014D00018E006A850F82470651E07E006A850F82A
:1014E000251006AA681C42F820106D1E002D04DB92
:1014F00006A850F82500B842F0DB06A9681C41F8A0
:101500002070641C092CE4DB002415E006A850F8C8
:10151000240003A941F8240008250AE003A850F894
:101520002400D74951F82510884201D14DF82450A4
:101530006D1E002DF2DA641C032CE7DB002406E0AC
:101540005DF82400B04201DD5DF82460641C032CCA
:10155000F6DBCC480068CC490860CA4806600068E1
:10156000B04206D108460068B04202D1C7480660C2
:1015700003E04FF0FF30C54908600FB0BDEC068BAB
:10158000F0BD70B52DED068B0025FFF786FE00241B
:101590001FE0B8490968B74A126801FB02F002F07F
:1015A000C0FA41EC1A0B9FEDBA0B53EC102B02F072
:1015B0001FFB41EC180BB24951F8240002F0B1FABC
:1015C00041EC190B53EC182B02F010FC00D225460D
:1015D000641C092CDDDBB0480560BDEC068B70BDDA
:1015E000F0B50124B6E200240120B0E20121AAE214
:1015F000AA4D2D68451BA94E3668861B7543A84E1B
:1016000036688E1BA64F3F68CF1B06FB0756994DC9
:101610002B68DD1703EB9575964F3F68A7EBA50583
:10162000944F3A68D71702EB9777DFF848C2DCF897
:1016300000C0ACEBA7077D43AE425CDA00EB80054F
:10164000984E06EB05156D5CFF2D54D1421E02EB42
:101650008202334603EB02134A1E9A5CEABB421E27
:1016600002EB8202334603EB0212525CAABB421E1B
:1016700002EB820203EB02134A1C9A5C6ABB00EB8A
:101680008002334603EB02134A1E9A5CFF2A33D1D1
:1016900000EB8002334603EB02134A1C9A5CFF2ADC
:1016A0002AD1421C02EB8202334603EB0212525C47
:1016B000FF2A21D1421E02EB820203EB0212525C8E
:1016C0008AB9421C02EB820203EB0212525CFF2A2F
:1016D00009D1821C02EB820200E00DE003EB021252
:1016E000525C002A07D0002200EB80036D4D05EB11
:1016F00003135A54012425E2421E02EB8202694B75
:1017000003EB02134A1E9A5CF2BB00EB8002654BAE
:1017100003EB02134A1E9A5CB2BB421C02EB82022C
:10172000604B03EB02134A1E9A5C6ABB421E02EB3B
:1017300082025C4B03EB0212525CFF2A34D1421C42
:1017400002EB820203EB0212525CFF2A2CD100EB67
:10175000800203EB02134A1C9A5CFF2A24D100EB9F
:101760008002504B03EB02134A1E9A5C9AB900EBBD
:1017700080024C4B03EB02134A1C9A5CFF2A0AD1ED
:1017800000EB8002474B00E00EE003EB02138A1CE3
:101790009A5C002AAFD0002200EB8003414D05EB9C
:1017A00003135A540124CDE1421C02EB82023D4B4B
:1017B00003EB02134A1E9A5C9ABB421C02EB8202A4
:1017C000384B03EB0212525C5ABB421C02EB820202
:1017D00003EB02134A1C9A5C1ABB00EB8002314BEC
:1017E00003EB02134A1E9A5CFF2A1BD100EB800216
:1017F0002C4B03EB02134A1C9A5CFF2A12D1421EA7
:1018000002EB8202274B03EB0212525CFF2A09D142
:10181000002200EB8003234D05EB03135A540124EF
:1018200090E1FFE7421E02EB82021E4B03EB021324
:101830004A1C9A5CEAB900EB80021A4B03EB0213D4
:101840004A1C9A5CAAB9421C02EB8202154B03EBBC
:1018500002134A1C9A5C62B9421E02EB8202114BCF
:1018600003EB0212525CFF2A34D1421C02EB8202CB
:101870001AE02FE008000020B81E85EB51B89E3F0B
:101880006821012014000020180000200C00002016
:101890007B14AE47E17AB43F100000200400002022
:1018A000000000202400002003EB0212525CFF2AFB
:1018B00010D100EB800203EB02134A1E9A5CFF2A50
:1018C00008D1002200EB8003A44D05EB03135A540A
:1018D000012437E1421E02EB8202A04B03EB02120D
:1018E000525CEABB421E02EB820203EB02134A1C6B
:1018F0009A5CAABB00EB8002984B03EB02134A1CD4
:101900009A5C6ABB421C02EB8202944B03EB02120C
:10191000525CFF2A2AD100EB800203EB02134A1E1D
:101920009A5CFF2A22D1421E02EB82028B4B03EB10
:101930000212525C7AB9421C02EB820203EB0212E1
:10194000525CFF2A07D1821C02EB820203EB0212D7
:10195000525C002ABDD0002200EB80037F4D00E0E6
:1019600004E005EB03135A540124EBE0421E02EBA2
:1019700082027A4B03EB02134A1E9A5CF2BB421EB0
:1019800002EB8202754B03EB0212525CB2BB00EB1E
:10199000800203EB02134A1E9A5C7ABB00EB8002C2
:1019A0006E4B03EB02134A1C9A5CFF2A4CD1421C7B
:1019B00002EB8202694B03EB0212525CFF2A43D115
:1019C000421E02EB820203EB0212525C72B9421C0D
:1019D00002EB820203EB0212525CFF2A06D1821C48
:1019E00002EB820203EB0212525C52B1002200EBC6
:1019F00080035A4D05EB03135A5400E024E0012400
:101A0000A0E000EB8002554B03EB02134A1E9A5CE8
:101A10008AB900EB8002514B03EB02134A1C9A5C1B
:101A2000FF2A08D100EB80024C4B03EB02138A1C07
:101A30009A5C002A07D0002200EB8003474D05EB9B
:101A400003135A5401247DE000EB8002434B03EB67
:101A500002134A1E9A5CEABB421C02EB82023F4B15
:101A600003EB02134A1E9A5CA2BB421C02EB8202E9
:101A70003A4B03EB0212525C62BB421E02EB820243
:101A800003EB0212525CFF2A2BD100EB800203EB26
:101A900002134A1C9A5C012A23D100EB80022F4BCF
:101AA00003EB02134A1E9A5C82B900EB80022B4BB7
:101AB00003EB02134A1C9A5CFF2A07D100EB800259
:101AC000264B03EB02138A1C9A5CDAB3002200EB6C
:101AD000800300E005E0214D05EB03135A54012477
:101AE00030E000EB80021D4B03EB02134A1C9A5CB2
:101AF00042BB421C02EB8202184B03EB0212525C07
:101B000002BB421C02EB820203EB02134A1C9A5CEA
:101B1000C2B9421E02EB8202104B03EB0212525C6E
:101B2000FF2A0FD100EB800203EB02134A1E9A5CDE
:101B3000FF2A07D1002200EB8003084D05EB0313B9
:101B40005A540124491C4E29FFF652AD401C3A2834
:101B5000FFF64CAD002C7FF446ADF0BD2400002014
:101B60004FF0E021096921F004014FF0E0221161FA
:101B7000C21700EB5272C2F3C702314B1A701946FA
:101B8000097801EB4102C2EBC1114FF6FF7202EA84
:101B9000C1012C4A118070470146294A12784A43F4
:101BA0004FF0E0235A6100229A6101221A6100BFBE
:101BB0004FF0E022106900F001021AB100F4803207
:101BC000002AF5D000224FF0E0231A619A61704795
:101BD00001461C4A12884A434FF0E0235A61002212
:101BE0009A6101221A6100BF4FF0E022106900F0F3
:101BF00001021AB100F48032002AF5D000224FF021
:101C0000E0231A619A61704770B504464FF407707B
:101C100094FBF0F0C6B24FF4077094FBF0F100FBB8
:101C2000114085B205E04FF40770FFF7D1FF701E39
:101C3000C6B2002EF7D115B12846FFF7C9FF70BD17
:101C40001E000020200000204A0A52020243FE4BE0
:101C50001A6070470146072323EA01021202FA4B79
:101C60001B1D18684FF6FF031840F84B184310432C
:101C7000F54B1B1D186070472DE9F041074688465B
:101C800014461D462846FFF7E5FFC5F1040007FA94
:101C900000F60F20284100EA0800064306F00F0670
:101CA000E21704EBD2625211920002F1E022D2F864
:101CB00000212146E31704EBD3635B11A4EB431C23
:101CC000012303FA0CF31A432046E31704EBD36312
:101CD0005B119B0003F1E023C3F80021DC48005DA9
:101CE00040EA0610DA490855BDE8F081F0B5034630
:101CF0000846CD1701EB9575AD10A1EB8505AD0636
:101D00002C0ED448006840F48040D24D2860CD1796
:101D100001EB9575AE10D04D55F826500F26A64014
:101D2000B5430846CE1701EB9676B710CA4E46F873
:101D30002750CD1701EB9575AE10C74D55F82650BD
:101D400003FA04F63543CE1701EB9676B710C24E70
:101D500046F82750C148006801258D402843BF4DF3
:101D6000286002F0010040B1BC480C300068012539
:101D70008D402843B94D0C35286002F0020040B177
:101D8000B6480830006801258D402843B34D08351A
:101D90002860F0BD30B5CC1000F1200353F824309A
:101DA0004C07E50E0F24AC40A343CD1000F12004F6
:101DB00044F82530CC1000F1200353F824304C07B0
:101DC000E40E02FA04F42343CD1000F1200444F899
:101DD000253030BD2DE9F0470C46DDE908670021CC
:101DE00000258C4600BF60E04FF0010808FA01F5BD
:101DF00004EA050CAC4557D1D0F800804FEA410AFF
:101E00004FF0030909FA0AF928EA0908C0F8008026
:101E1000D0F800804FEA410902FA09F948EA0908B6
:101E2000C0F80080012A01D0022A27D1D0F808800A
:101E30004FEA410A4FF0030909FA0AF928EA0908AA
:101E4000C0F80880D0F808804FEA410906FA09F97D
:101E500048EA0908C0F80880D0F804904FF001085B
:101E600008FA01F829EA0809C0F80490D0F80480BB
:101E700003FA01F948EA0908C0F80480D0F80C8098
:101E80004FEA410A4FF0030909FA0AF928EA09085A
:101E9000C0F80C80D0F80C804FEA410907FA09F924
:101EA00048EA0908C0F80C80491C10299CD3BDE8F9
:101EB000F08730BF704772B6704762B6704700B5A2
:101EC00061480830006840F004005F49083108604C
:101ED0006048001F006840F080505E49091F08609C
:101EE0005F48406840F480705D494860084600687B
:101EF00040F0040008600846006840F002000860F6
:101F0000FFF7D7FF00BD5148001D4F49091D08606C
:101F10007047F0B504460D46002100204D4E443E6A
:101F2000366846F480364B4F443F3E6001E04E1C1D
:101F3000B1B2484E443E366806F400361EB941F64A
:101F4000FF76B142F3DB41F6FF76B14201D10120C9
:101F500063E0404E361F366846F080563D4F3F1FC7
:101F60003E603F4E366846F440463D4F3E60394E37
:101F70003C3E366846F41446364F3C3F3E60354E94
:101F8000443E366826F08076324F443F3E6045EA54
:101F900084160127C7EB520746EA074646EA03665E
:101FA00046F480062B4F403F3E603E1F366846F0A9
:101FB00080763F1F3E6000BF264E443E366806F0E6
:101FC0000076002EF8D0274E366846F48076254FEE
:101FD0003E603E46366846F400763E603E463668D1
:101FE00046F480663E603E46366846F005063E6032
:101FF000184E3C3E366826F00306164F3C3F3E60C6
:102000003E46366846F002063E6000BF114E3C3E3A
:10201000366806F00C06082EF8D1F0BDF0B504467F
:102020000D4616461F460B484438006840F0010034
:10203000084944390860002006493C3908600548D1
:1020400044380068084911E008ED00E00000FA0596
:1020500000E400E04438024008380140003C014000
:1020600000700040003C0240FFFFF6FE08400D49B2
:1020700008600D48091D0860081F006820F48020D2
:10208000091F0860002007490C3108603B463246B2
:1020900029462046FFF73DFF00210846FFF7D4FD03
:1020A000F0BD00000038024010300024014600BF9F
:1020B000704700BF494A128802F04002002AF9D056
:1020C000C2B2464B9A80704710B54448008800F071
:1020D000200030B141488088C4B22A2C01D1FFF7DA
:1020E00012FF10BDF0B52DED028B83B005460E46F4
:1020F0003B4905FB01F000EE100AF8EE400A300102
:1021000000EE100AB8EE400A80EE801AB0EE418A66
:10211000BCEEC80A10EE100A84B200EE104AB8EE07
:10212000400A38EE400AF3EE000A20EE200ABCEE28
:10213000C00A10EE107A4FF6FF7000EA0414E0199E
:1021400084B22848006840F001002649086025480C
:102150001430006840F0100022491431086001205A
:10216000022100230A46CDE900104FF4C0611E4849
:10217000FFF730FE072209211B48FFF70BFE07225D
:102180000A211948FFF706FE14480481808920F4CB
:102190000040124988810846808940F00800888103
:1021A0000846808940F0040088810846808940F014
:1021B000200088810223252203210846FFF75CFDC9
:1021C0000648808940F400500449888103B0BDEC82
:1021D000028BF0BDC1F308028280704700100140FD
:1021E00040420F0030380240000002407CB500251C
:1021F000D848006840F00100D649086008460068E9
:1022000040F0040008600846006840F010000860D4
:102210000846006840F020000860022000210B46BC
:102220000A46CDE900100102CB48FFF7D3FDCA48AA
:102230001430006840F40070C74914310860012070
:10224000032100230246CDE900100A21C348FFF70D
:10225000C1FDC2481430006840F00A00BF49143183
:102260000860022000210B460A46CDE90010FF213C
:10227000B948FFF7AFFDB8481430006840F0FF00E0
:10228000B549143108600120032100230246CDE93D
:1022900000102821B248FFF79DFDB148406940F089
:1022A0002800AF4948610120032100230246CDE9FF
:1022B00000104103A948FFF78DFD4FF40050A749D6
:1022C0001431086000F050F98021122000F035FA36
:1022D00008B101207CBD3220FFF796FC0B2000F0F6
:1022E0004BFA0446732C01D00220F3E70A2000F0D9
:1022F00043FA0446762C01D00220EBE700250DE0DE
:10230000984A02EB45025178964A12F8150000F0FF
:1023100014FA0220FFF778FC681C85B2AE2DEFD3CB
:102320000020D7E72DE9F0410446E72500260027E5
:10233000012C06D0022C08D0032C0AD0042C10D17A
:102340000BE0E5255A265C270BE0E525582660279B
:1023500007E0E52584264C2703E0E525962640275F
:1023600000BF00BF2946132000F0E7F931460120E5
:1023700000F0E3F93946022000F0DFF9BDE8F08112
:102380002DE9F0410446802522265E2734B1012C38
:1023900008D0032C0AD0042C10D10BE040251126C4
:1023A0002F270BE066251B264B2707E099252826BB
:1023B000712703E0C02533268D2700BF00BF2946C3
:1023C0004F2000F0BAF92946502000F0B6F900215C
:1023D000512000F0B2F93146522000F0AEF93946F2
:1023E000532000F0AAF92946542000F0A6F99E21B6
:1023F000582000F0A2F9BDE8F08170B50446002530
:1024000034B1012C06D0032C06D0042C08D105E0F1
:10241000B02505E0982503E0182501E0302500BF30
:1024200000BF2946552000F088F970BD70B50446FC
:10243000402534B1012C06D0032C06D0042C08D141
:1024400005E0302505E0382503E0502501E0602552
:1024500000BF00BF2946562000F06FF970BD2DE97E
:10246000F04104460425C0268027072C1DD2DFE852
:1024700004F01C04080C1014180024258026802762
:1024800013E01425802680270FE01425C02680271E
:102490000BE014254026402707E014258026C0279E
:1024A00003E01425A026402700BF00BF29463A209C
:1024B00000F043F93146682000F03FF939466720C3
:1024C00000F03BF9BDE8F0812DE9F04705460E46E6
:1024D0009046994605EB48001FFA80FA06EB490042
:1024E00087B2B7F5447F02DDA7F5447087B20320B9
:1024F00000F042F9044604F0F0040AF00301284613
:1025000061F39F0004432146032000F016F9C5F350
:102510008701192000F011F9CAF387011A2000F091
:102520000CF9322000F028F9044604F0C00407F04A
:102530000701304661F3DF000443C6F3C7011720EB
:1025400000F0FBF8C7F3C701182000F0F6F8BDE86B
:10255000F0870000303802400014024000080240BA
:1025600000100240164200081CB59748006840F071
:102570001000954908600120022100230246CDE9A0
:10258000001050219148FFF725FC9048406940F029
:1025900050008E4948610846006820F440500860A9
:1025A0000846006840F4805008601CBD10B501204A
:1025B000874908608749C1F890027820FFF7ECFA54
:1025C0000020834908607820FFF7E6FA002081495F
:1025D000C1F8900210BD10B500207D490860782038
:1025E000FFF7DAFA01207B49C1F890027820FFF763
:1025F000D3FA0120764908607820FFF7CDFA10BDA4
:1026000010B57820FFF7C8FA0120714908607149B8
:10261000C1F890027820FFF7BFFA00206C49083912
:1026200008607820FFF7B8FA00206A49C1F89802DC
:102630007820FFF7B1FA10BD70B5044600261BE004
:1026400004F0800018B101206149086002E0002018
:102650005F4908606006040E7820FFF79DFA0120AC
:102660005B49083908607820FFF796FA002059493D
:10267000C1F89002701CC6B2082EE1DB5348006816
:1026800020F44050514908600846006808607820EE
:10269000FFF782FA01204E49083908607820FFF7D9
:1026A0007BFA4C48D0F8180208B1012500E000255B
:1026B00000204749083908604448006820F4405029
:1026C000424908600846006840F480500860284687
:1026D00070BD70B500243D48006820F440503B496F
:1026E0000860084600680860082517E07820FFF7B2
:1026F00053FA01203649083908606006040E35484F
:10270000D0F8180208B1601CC4B27820FFF744FA70
:1027100000202F4908390860681EC5B2002DE5DC8D
:102720002A48006820F4405028490860084600689C
:1027300040F480500860204670BD70B505460C46D8
:102740000026FFF733FF4220FFF776FF00B1012696
:10275000DC20FFF721FA2846FFF76EFF00B10126C3
:10276000DC20FFF719FA2046FFF766FF00B10126CB
:10277000FFF731FF304670BD70B504460025FFF706
:1027800015FF4220FFF758FFDC20FFF705FA20462F
:10279000FFF752FFDC20FFF7FFF9FFF71CFFDC20FB
:1027A000FFF7FAF9FFF702FF4320FFF745FFDC20B0
:1027B000FFF7F2F9FFF78DFF0546FFF721FFFFF75F
:1027C0000AFF284670BD0000303802400010024069
:1027D000980242420000424270B505460C46274826
:1027E000006840F002002549086025480560001F88
:1027F000048023482038008840F001002049203917
:102800000880081D008820F00100091D08800223AF
:102810001D2200210120FFF72FFA70BD10B51848C6
:102820001C38008800F00100F8B10120FDF79EFD82
:102830001448006880B9C820FFF7E6F9002108466F
:10284000FDF7AAFDFDF7C9FFFEF716FBFEF7F7FC43
:10285000FEF761FCFEF7F3FC09482C3800880020E5
:1028600007492C390880FDF781FD05481C38008890
:1028700020F0010002491C39088010BD4038024098
:102880002C0400400C82414210B52F48006800F42F
:102890000070A0B100202D4908600120FFF77CF9ED
:1028A00001202B49C1F88C022A49C1F88C022A4820
:1028B0000078401C28490870C820FFF76DF94FF4D4
:1028C00000702149086010BD10B54FF4FA70FFF791
:1028D0009BF922480068012806D100201F497C315D
:1028E00008601F49087010E01E48008840F0010091
:1028F0001C4908802820FFF787F91A481030008803
:1029000020F0010017491031088008200E490860A6
:1029100010BD10B5022209210520FFF7E7F90223B7
:10292000172200210846FFF7A7F910BD10B50222B3
:1029300003210846FFF7DAF90223092200210120CA
:10294000FFF79AF910BD0000143C01408C0242428E
:102950000000424200004142220000200C8241421D
:102960001C000020000400402DE9F0410C461546F3
:10297000069E4C4FB84209D939464B4F3F6847F441
:102980008007DFF824C1CCF8007008E04749464FC3
:102990003F6847F40017DFF810C1CCF8007000BFA3
:1029A000076807F00107002FFAD1471A103F4FF0D0
:1029B000180CB7FBFCF7FAB2062A10DBCF68A2F1BD
:1029C000060C0CEB4C0C4FEA4C0C0CF1100C4FF0BD
:1029D0003D0808FA0CF847EA0807CF602FE0042A00
:1029E0000EDBCF68A2F1040C0CEB4C0C4FEA4C0848
:1029F0004FF03D0C0CFA08FC47EA0C07CF601EE0D4
:102A0000022A10DB8F68A2F1020C0CEB4C0C4FEA8F
:102A10004C0C0CF1100C4FF03D0808FA0CF847EA8A
:102A200008078F600BE08F6802EB420C4FEA4C08FE
:102A30004FF03D0C0CFA08FC47EA0C078F608560EC
:102A4000C360466000270760076847F040070760DB
:102A50000768076007680760076847F480670760D2
:102A60000768076007680760076847F480370760F2
:102A70000768076007680760076847EA44670760F8
:102A8000BDE8F081026822F00102026000BF026826
:102A900002F00102002AFAD14160026842F001020C
:102AA000026070470064024030380240006002401B
:102AB0001CB50E48006840F008000C490860012071
:102AC000032100230246CDE9001004210848FFF746
:102AD00081F9002000900346024608210190044835
:102AE000FFF778F90020034908601CBD3038024028
:102AF000000C024088824142704710B5203AC0F075
:102B00000B80B1E81850203AA0E81850B1E81850EE
:102B1000A0E81850BFF4F5AF5FEA027C24BFB1E82B
:102B20001850A0E8185044BF18C918C0BDE810409C
:102B30005FEA827C24BF51F8043B40F8043B08BFA5
:102B40007047D20728BF31F8023B48BF11F8012B6C
:102B500028BF20F8023B48BF00F8012B70474FF018
:102B6000000200B5134694469646203922BFA0E8DD
:102B70000C50A0E80C50B1F12001BFF4F7AF0907E9
:102B800028BFA0E80C5048BF0CC05DF804EB8900DA
:102B900028BF40F8042B08BF704748BF20F8022B1D
:102BA00011F0804F18BF00F8012B70477047704735
:102BB0007047704710B500F009F8006810BD10B5F7
:102BC000044600F003F8046010BD000000487047A0
:102BD0008C210120004870478C2101207546FFF7A9
:102BE000F9FFAE4605006946534620F007008546CA
:102BF00018B020B5FDF72AFBBDE820404FF00006D5
:102C00004FF000074FF000084FF0000B21F00701D4
:102C1000AC46ACE8C009ACE8C009ACE8C009ACE817
:102C2000C0098D4670470446AFF300802046FDF78B
:102C3000F4FA03B401984100009850EAC12018BF8B
:102C400004204A0D18BF40F0010040F2FF72B2EBC1
:102C5000515F08BF40F00200012808BF052002B004
:102C6000704700000000000010B52F499FED2C1B9D
:102C70002DED020B84B0059820F000408842D8BFAB
:102C80009DED040B2DDD2949884209D1049840B9F6
:102C90004FF00100FFF793FF00F0A2FC06B010BD5B
:102CA00005DB9DED040B00F08FFC06B010BD6846FF
:102CB0009DED040B00F0A0F810F0030004BF9DEDA3
:102CC000021B9DED000B0CD001280ED09DED021BC8
:102CD0009DED000B022817D0012000F0DDFB06B0AF
:102CE00010BD00F0A5FA06B010BD9DED021B9DEDD4
:102CF000000B012000F0D0FB51EC100B00F09CFC0D
:102D000006B041EC100B10BD00F092FA51EC100B24
:102D100000F092FC06B041EC100B10BD000000006A
:102D20000000000000000000FB21E93F0000F07FF0
:102D300010B52F499FED2C1B2DED020B84B005988B
:102D400020F000408842DCBF00209DED040B32DD06
:102D50002849884209D1049840B94FF00100FFF793
:102D60002EFF00F03DFC06B010BD05DB9DED040B11
:102D700000F02AFC06B010BD68469DED040B00F083
:102D80003BF810F0030011D0012818D09DED021B74
:102D90009DED000B02281AD000F04AFA51EC100BFE
:102DA00000F04AFC06B041EC100B10BD9DED021B7B
:102DB0009DED000B012000F06FFB06B010BD9DEDF6
:102DC000021B9DED000B00F033FA06B010BD012090
:102DD00000F062FB51EC100B00F02EFC06B041EC51
:102DE000100B10BD000000000000000000000000FB
:102DF000FB21E93F0000F07F2DE9F14F04462DED66
:102E0000020B2DED088B8AB09FEDE70B80ED020BD6
:102E1000139EE74826F0004585420ADC9DED120B23
:102E2000002084ED000B0AB0BDEC088B03B0BDE8B8
:102E3000F08FE0489FEDE0AB9FEDE1BBA84247DD9E
:102E4000E14F9FEDE39B9FEDE48B9DED120B53EC67
:102E50001A2B51EC100B002E1CDD01F009F841EC8F
:102E6000100BBD4208D053EC1B2B51EC100B00F0A3
:102E7000FFFFC4E900010BE053EC192B51EC100BE0
:102E800000F0F6FF53EC182B00F0F2FFC4E900014C
:102E90000120C8E700F0DCFB41EC100BBD4208D07C
:102EA00053EC1B2B51EC100B00F0D2FBC4E90001DA
:102EB0000BE053EC192B51EC100B00F0C9FB53EC59
:102EC000182B00F0C5FBC4E900014FF0FF30AAE762
:102ED000C348A84279DB9DED120B51EC100B00F0BA
:102EE0009FFB41EC180B9FEDC00B53EC102B00F037
:102EF0007FFE9FEDBF1B53EC112B00F0A9FB00F0F0
:102F0000B3FD074600F00DFE41EC190B53EC1A2BF4
:102F100000F06EFE53EC182B00F09EFF41EC180BF6
:102F200053EC1B2B51EC190B00F062FEDFF8C8A22A
:102F300041EC100B4FEA15580125FA4453EC102BC5
:102F400051EC180B00F094FF032DC4E900013DD0B3
:102F5000C1F30A5005EB4511A8EB0000113981427D
:102F600034DA0AEB051BB0EE48AA9BED000BF0EE3D
:102F700068AA53EC102B51EC190B00F039FE41EC10
:102F80001B0B51EC1A0B53EC1B2B00F071FF41ECA7
:102F9000180B51EC1A0B53EC182B00F069FF53EC93
:102FA0001B2B00F065FF9BED020B41EC1A0B53EC61
:102FB000102B51EC190B00F01BFE53EC1A2B00F0F8
:102FC00057FF41EC100B6D1CB8E70EE0002EA8BFB8
:102FD0003846BFF628AF94ED000B51EC100B00F013
:102FE0002BFBC4E9000178421DE7C6F3130040F44F
:102FF000801EC6F30A50A0F2F530471100F01F05FD
:10300000C5F12000DDF848B0089000200690079038
:103010000520EC467949002D07EB0002794408BFF2
:1030200051F8221009D051F8223001EB8201AB4057
:103030004A68089922FA01F11943A1FB0E26A1FB67
:103040000B131A449A4234BF0123002303EB0608F2
:103050000CEB8003D3E901A60E448E4234BF01215C
:10306000002192448A4411B1924502D903E092456D
:1030700001D2012100E00021C3E901A641444CF83E
:103080002010011EA0F10100C4DC029800F10050E4
:10309000850F0298DDE903678000DDF8148000F0F9
:1030A00040FD41EC1A0B304600F052FD9FED541BE1
:1030B00053EC112B00F09CFD41EC1B0B384600F04B
:1030C00047FD9FED511B53EC112B00F091FD41EC9E
:1030D000180B404600F03CFD9FED4D1B53EC112BAF
:1030E00000F086FD41EC190B51EC180B53EC192B39
:1030F00000F0AEFA53EC1B2B00F0AAFA53EC1A2B9B
:1031000000F0A6FACDE90801002008909DED080B1B
:1031100053EC1A2B51EC100B00F0AAFE53EC1B2BB6
:1031200000F0A6FE53EC182B00F0A2FE53EC192B76
:1031300000F092FE9FED381B53EC112B00F058FD70
:103140009FED370B41EC180B53EC102B9DED080B4A
:1031500051EC100B00F04CFD53EC182B00F078FAFA
:103160009FED310B41EC180B53EC102B9DED080B30
:1031700051EC100B00F03CFD53EC182B00F068FAFA
:1031800041EC100B139810F0004F06D06D4251EC3B
:10319000100B00F051FA41EC100B284684ED000BA7
:1031A00041E60000000000000000000000000000F8
:1031B000FB21E93F7CD9024000004054FB21F93F4C
:1031C0003163621A61B4D03DFB21F93F0000000079
:1031D0000000601A61B4D03D7370032E8A19A33BBE
:1031E000FB2139410000000083C8C96D305FE43F16
:1031F000000000000000E03F6A140000B813000067
:10320000000000000000103E000000000000103C24
:10321000000000000000103A182D4454FB21F93D35
:103220003326A611460B113C00000054FB21F93D4A
:1032300010B52DED040B2DED088B82B0B0EE419A48
:10324000F0EE619A0B9820F000449FED4BABB4F187
:10325000795F11DA9DED0A0B51EC100B00F004FCC4
:10326000002801BFB0EE4A0AF0EE6A0A02B0BDECD7
:10327000088B04BF04B010BD9DED0A0B53EC102B5E
:1032800051EC100B00F0B4FC41EC180B3C4806214B
:10329000B0EE480AF0EE680A784400F081F853EC8A
:1032A000182B51EC100B00F0A3FC9DED0A0B41EC28
:1032B0001B0B53EC192B51EC100B00F099FC41EC5B
:1032C000190B53EC1B2B51EC180B00F091FC53EC39
:1032D000192B00F0CDFD9FED2C0B41EC190B53EC9D
:1032E000102B51EC180B00F083FC41EC100B28481C
:1032F000844210DA53EC192B51EC100B00F0B8FD9E
:1033000053EC1A2B00F0A8FD41EC100B02B0BDEC01
:10331000088B04B010BD1F48A042BCBF9FED1E1B10
:103320008DED001B06DBA4F500100190002000903D
:103330009DED001B51EC100B53EC112B00F098FD90
:103340009DED000B41EC180B53EC102B51EC1A0BBC
:1033500000F08EFD41EC1A0B53EC192B51EC180BBD
:1033600000F086FD53EC1A2B00F076FD41EC100BBB
:10337000CCE7000000000000000000000000F03F6B
:10338000DC10000000000000000000000000E03F32
:103390003333D33F0000E93F000000000000D23F7C
:1033A00070B504462DED028B4D1E00EBC500B0EE4E
:1033B000408AF0EE608A90ED000B35F0060017D0E1
:1033C00053EC182B51EC100B00F012FC41EC100BDD
:1033D0006D1E04EBC50090ED001B51EC100B53EC7F
:1033E000112B00F035F941EC100B35F00600E7D158
:1033F000022D36D0042D1CD0062D1CBFBDEC028B37
:1034000070BD53EC182B51EC100B00F0F1FB94ED58
:103410000A1B53EC112B00F01BF953EC182B00F096
:10342000E7FB94ED081B53EC112B00F011F941EC74
:10343000100B53EC182B51EC100B00F0D9FB94ED52
:10344000061B53EC112B00F003F953EC182B00F082
:10345000CFFB94ED040B53EC102B00F0F9F841EC8A
:10346000100B53EC182B51EC100B00F0C1FB94ED3A
:10347000021B53EC112B00F0EBF853EC182B00F06F
:10348000B7FB94ED001B53EC112B00F0E1F8BDEC01
:10349000028B41EC100B70BD31B504462DED040BD1
:1034A0002DED0A8BB0EE41BAF0EE61BA0B989DEDAE
:1034B0000A0B20F00040B0F1795F0DDA51EC100BEF
:1034C000FFF7B7FB042808BF00F09AF89DED0A0B40
:1034D000BDEC0A8B05B030BD53EC102B51EC100B3A
:1034E00000F086FB41EC180B9DED0A0B53EC182BFA
:1034F00051EC100B00F07CFB41EC190B2C48B0EEAA
:10350000480AF0EE680A05217844FFF749FF9FED6D
:103510002ACBB0EE40AAF0EE60AA9CB353EC1C2B71
:1035200051EC190B00F064FB41EC1C0B53EC1A2B13
:1035300051EC190B00F05CFB9FED210B41EC190BDA
:1035400053EC102B51EC1B0B00F052FB53EC192BDE
:1035500000F08EFC53EC182B00F04AFB53EC1B2BB5
:1035600000F086FC53EC1C2B00F082FC9DED0A1B46
:1035700053EC112B00F070FCBDEC0A8B05B041EC54
:10358000100B30BDFFE753EC1A2B51EC180B00F079
:103590002FFB53EC1C2B00F05BF853EC192B00F0C5
:1035A00027FB9DED0A1B53EC112B00F051F8E3E7CC
:1035B000640F000000000000495555555555C5BF22
:1035C000000000000000E03F10B553EC102B51EC60
:1035D000100B00F03DF841EC100B10BD0000000096
:1035E0009FED050B10B553EC102B51EC100B00F0B8
:1035F000E3F841EC100B10BD0000000000000000DB
:103600009FED050B10B553EC102B51EC100B00F097
:10361000EFFA41EC100B10BD00000000000000109C
:1036200082B0CDE9000121F0004001909DED000B3A
:1036300002B051EC100B704781F00041704780F0F0
:103640000040704721F00041704720F00040704773
:1036500010B591EA030F48BF83F0004300F11084D6
:10366000841A71EB030C05D2121943EB0C03001BF7
:1036700061EB0C01DFF824E14FEA1154A4EB135C79
:103680001EEA430F18BF9EEA445F73D023EA0E037D
:10369000DCF1200E21EA045143F4801332D322FAE4
:1036A0000CFE10EB0E0023FA0CFE41EB0E01CCF1E8
:1036B000200E03FA0EFE10EB0E0051F10001B1F5E1
:1036C000801FCCF1200E32D201EB045112FA0EF21F
:1036D000BDE8104058BF7047401C38BF5FEA420247
:1036E00018BF7047002814BF20F0010041F100010D
:1036F0004FEA410313F5001F38BF7047A1F1C041E5
:1037000000F06EBB012A43EB0302ACF1200CDCF1AC
:103710001F0E32BF4FF0000E23FA0CF310EB030024
:1037200041EB0451B4EB115FD0D0A1EB045101F592
:10373000801149085FEA300001EB04510ED350F1CB
:10374000000038BF12FA0EFE08D1BDE81040C9E7EC
:10375000401C38BF5FEA4202CAD1C3E7BDE810404F
:103760004FEA410313F5001F38BF7047A1F1C04174
:1037700000F036BB9EEA445F08D011EA5E0FBDE858
:10378000104004BF01F0004100207047BDE8104028
:1037900070B500F0D7FA00BF64FBBE3E0000E0FF4A
:1037A000491058BFC1F140415B1058BFC3F14043BD
:1037B0008B42EFF3008070472DE9C04130B4DFF851
:1037C000A0C23CEA111418BF3CEA131400F0EC80CC
:1037D00081EA03051CEA111444EAD57418BF1CEAF7
:1037E000131500F0C780A4EB05044FF0004545EA2F
:1037F000C12145EAC32341EA505143EA525304F13F
:103800007F74994204F500344FEAC0204FEAC22287
:1038100008BF904200F09C804FEA13650FF24016FB
:10382000765D4FEA134506FB05F7C7F1807706FB87
:1038300007F74FEAD737A7FB03687642C8F5803809
:10384000A7FB06CE38BFA8F1010807FB08E64FF03A
:10385000000EA6FB028CE6FB03CEDCF1000CCEF1E1
:10386000004E38BFAEF1010EA6FB0C584FF000071A
:103870004FF00005E6FB0E87A1FB08C6A0FB07CEB4
:1038800016EB0E0645F10005E1FB076515F1E04E6C
:103890007EBFA4F580345FEA46066D4116F18007CD
:1038A00045F100054FEA17274FEA066647EA056724
:1038B000A6F1DE46B6F1805F4FEA15251FD93846DE
:1038C00024F0010C05EBC471BCF1FE6F01EB0C118F
:1038D00002D8F0BCBDE8008124425CBF01F5801E27
:1038E0009EEAC47F02D4F0BCBDE80081244238D4F3
:1038F000F0BCA1F1C041BDE8004100F071BA4FEA4F
:10390000D22242EA43524FEAD323A7FB02864FEA70
:10391000D02040EA415007FB03661EEA0E0F4FEA33
:10392000D12105FB026658BFA6EB0056B6EB005648
:103930004FEA520E4EEAC37E18EB0E0E56EB530EB4
:10394000BDD518EB02085E417F1C55F10005B6E7B6
:103950004FF480154FF000074FF000064FF00008BD
:10396000ADE7F0BC4FF0000001F1C04101F00041B3
:10397000BDE8008111EA0C1F0CEA131500D00CE021
:1039800013EA0C1F00F025804FF00000F0BC81EA24
:10399000030101F00041BDE80081F0BCBDE8004139
:1039A00081EA030100F01CBAF0BCBDE8004170B52B
:1039B00000F0C8F9097EFC3E00F007B881EA030177
:1039C0004FF0000001F00041704781EA030100F070
:1039D00007BAF0BCBDE800414FF000002149704734
:1039E000FFFDFBF9F7F5F4F2F0EEEDEBE9E8E6E4C4
:1039F000E3E1E0DEDDDBDAD8D7D5D4D3D1D0CFCD4B
:103A0000CCCBCAC8C7C6C5C4C2C1C0BFBEBDBCBB83
:103A1000BAB9B8B7B6B5B4B3B2B1B0AFAEADACAB7E
:103A2000AAA9A8A8A7A6A5A4A3A3A2A1A09F9F9E58
:103A30009D9C9C9B9A99999897979695959493930A
:103A4000929191908F8F8E8E8D8C8C8B8B8A8989A1
:103A50008888878786858584848383828281818024
:103A60000000FF070000F87F4FEA41034FEA53537D
:103A7000A3F58063D3F11E03C8BFD3F1210C0CDD85
:103A80004FF0004242EAC12242EA505232FA03FCAD
:103A90008CEAE17CACEBE1707047102BC4BF0020D6
:103AA000704703F5787CBCF1FF3F04D06FF0004213
:103AB00082EA2100704770B500F044F949922480F1
:103AC00000207047F2E700004FEA1153A3F580632E
:103AD000D3F11E03A8BFD3F1200C08DB4FF0004246
:103AE00042EAC12252EA505232FA03F070470942C8
:103AF0000BD4102BC4BF0020704703F5787CBCF1B9
:103B0000FF3F05D04FF0FF3070474FF00000704787
:103B100070B500F017F900BF49922480002070476B
:103B2000F0E710F0004248BF4042B0FA80F310FACC
:103B300003F10AD0C3F11D0303F580634FEA41503E
:103B400002EB035202EBD12170474FF000007047A7
:103B5000B0FA80F310FA03F10AD0C3F11D0303F5A4
:103B600080634FEA41504FEA035202EBD121704784
:103B70004FF000007047000051EA030C17D41CF509
:103B8000801F58BFBCF5801F00F10680994218BF06
:103B9000704708BF9042704707D711F5801F58BF84
:103BA00013F5801F19D499427047894270471CF55C
:103BB000801F08D5BCF5801FF7D58B4218BF704712
:103BC00008BF824270474FF4001C1CEB410F38BF06
:103BD0001CEB430F01D28B42704770B500F0B2F876
:103BE000922449004FF000514FF08053FFF7D8BDA9
:103BF000DFF848C170B51CEA111E1EBF1CEA131580
:103C00009EEA0C0F95EA0C0F00F06F8081EA030426
:103C100023EA4C134EEAD47E21EA4C1141F4801180
:103C200043F48013AE44A1FB024CA0FB0365AEF14C
:103C30007F7E361955EB0C05A1FB034C4CF10003BC
:103C4000A0FB021C16EB0C06654153F10003094270
:103C500018BF46F0010613F4007F0BD14FEA033181
:103C60004FEA0530340341EA155140EA16506FF02F
:103C700003020AE04FEAC3214FEAC520F40241EAF9
:103C8000555140EA56506FF0020202EB2E4201EB12
:103C9000025585EACE710AD05FEA440C18BF24F0C1
:103CA000004450F1000041F1000120EAD47040F2DC
:103CB000FE7C624500D270BDA84214BF4FF0804424
:103CC0004FF04044002E08BF0024BEF1806FA8BF13
:103CD000A1F1C041BDE8704080F282804FF0000049
:103CE00001F1C04101F0004170479EEA0C0F0CEA5F
:103CF000131518BF95EA0C0F06D04FF0000081EAAB
:103D0000030E0EF0004170BD00F01CF88900013E6A
:103D100000F007B800F009B84FEA430C5FEA5C5CBA
:103D200008D081EA030100F05BB84FEA410C5FEA7A
:103D30005C5CF6D14FF00000014970470000FF07BE
:103D40000000F87F0EF1020E2EF0030E5EF8046BF9
:103D5000364205D4012A43EB030515F5001F12D89E
:103D6000012841EB010C1CF5001F0CD80ED14FEAC5
:103D7000D17C15F5001F0CEB4C0C0CF1020C08BFAC
:103D80004CEBD37C04E04FF0080C01E04FEAD37C0D
:103D90000CEB4C0526FA05F606F00706B6F1040C06
:103DA00006D20EEB860CBDE870404CF0010C60476B
:103DB000DFE80CF0090B02024FF000414FF0000069
:103DC000A1F5002170BD19461046012851EB0104F0
:103DD00018BFD4F5001484BF002001F0004170BD6D
:103DE0000808A0F500114FEA3101704753EA010CB1
:103DF00017D41CF5801F58BFBCF5801F00F106804A
:103E00008B4218BF704708BF8242704707D713F52F
:103E1000801F58BF11F5801F19D48B4270479B42F9
:103E200070471CF5801F08D5BCF5801FF7D5994257
:103E300018BF704708BF904270474FF4001C1CEB3E
:103E4000430F38BF1CEB410F01D2994270470FB4AA
:103E50000CBC03BCFFF7C1BE91EA030F10B581F0A3
:103E600000413FF5FDAB83F0004300F009B80000CE
:103E700010B591EA030F48BF83F000433FF5F0AB64
:103E8000841A71EB030C07D212198CF0004C43EB2F
:103E90000C03001B61EB0C01DFF8A4E14FEA1154A5
:103EA000A4EB135C1EEA430F18BF9EEA445F00F0C8
:103EB000B08023EA6E03524221EA0451C3EB6E0341
:103EC00038BF5B1EDCF1200E25D322FA0CFE10EB6E
:103ED0000E0043FA0CFE41EB0E01CCF1200E03FA6A
:103EE0000EFE10EB0E0051F10001CCF1200E29D492
:103EF00012FA0EF201EB0451BDE8104058BF7047B2
:103F0000401C1CBFB2F1004F704700280CBF491C79
:103F100020F00100704712EB020E43EB030218BFC2
:103F20004FF0010E4EEA4202ACF1200CDCF11E0E05
:103F300054D943FA0CFE10EB0E0051F1FF31CCF1D5
:103F40001E0ED5D50EF1010E12FA0EFE404141EBC8
:103F5000010101EB445C5FEA5C5C10D910EBDE70A0
:103F600001EB045138BFBEF1004FBDE8104018BF4F
:103F7000704700280CBF491C20F00100704730D268
:103F80004FEAD42C11F5001124F400641BD0B1FACF
:103F900081F20B3AA41AA41ED2F12003914030FA08
:103FA00003F31943904001EBCC71002C01EB045159
:103FB000BDE81040A8BF704701F1C0414FF00000BC
:103FC00001F000417047B0FA80F310FA03F100D11C
:103FD00010BDE41A173C4805C90AE4E701EB045197
:103FE00010BD491001EB0451BDE810404FEA30000C
:103FF00002E04FF0000170474A0008BF0042F8D0CD
:10400000B2F5001F28BF704701F000414FF00000DB
:1040100070479EEA445F07D011EA5E0FBDE810408A
:1040200004BF002100207047BDE8104070B5FFF7C5
:1040300089FE00BF40DFF63E83F000411046704726
:104040000000E0FF43004FEAD30C4FEA3C0C434032
:104050001FBF40070CF1605113F0FE4F70471CF07A
:10406000006F03D100200CF0004170470CF00043BA
:1040700043EA507010B540EACC0000F00EF800BFE3
:10408000000000924FEA0001FFF7AABE4FF0004186
:104090004FF00000A1F5002170470EF1020E2EF046
:1040A000030E5EF8044B244204D44FEA4102B2F1FD
:1040B0007F4F11D84FEA4003B3F17F4F0CD80ED198
:1040C0004FEAD07CB2F17F4F0CEB4C0C0CF1020CA0
:1040D00008BF4CEBD17C04E04FF0080C01E04FEA44
:1040E000D17C0CEB4C0324FA03F404F00704B4F184
:1040F000040C06D20EEB840CBDE810404CF0010C11
:104100006047DFE80CF0070802024FF00040A0F51E
:10411000800010BD0846420018BFD2F1807288BFEF
:1041200000F0004010BD4FF04070E1EE100A704703
:104130003A044010121432801716180419021A7A21
:10414000030A0C0C15003E00700071017211730916
:10415000A20211007A207B1C7C287D3C7E557F6862
:10416000807681808288838F849685A386AF87C47A
:1041700088D789E813E0000010000D001420A50581
:10418000AB072475256326A59F78A068A103A6DF49
:10419000A7DFA8F0A990AA9413E50E610F4B1602B1
:1041A0001E27210222912907330B350B371D387149
:1041B000392A3C784D404E20695D6B8074198D4FD3
:1041C0008E008F0090009100920096009A80B0843B
:1041D000B10CB20EB382B80A431444F045344658C9
:1041E0004728483A59885A885B445C675D495E0EA7
:1041F000640465206605940495086C0A6D554F802B
:10420000508051005222535E548009036E116F9FFB
:1042100055005640578012103A143D80671168FFD0
:1042200040C032801716180419021A7A030A0C0CBF
:1042300015003E007000710172117309A202110095
:104240007A207B1C7C287D3C7E557F68807681802F
:104250008288838F849685A386AF87C488D789E8B0
:1042600013E0000010000D001420A505AB07247515
:10427000256326A59F78A068A103A6DFA7DFA8F085
:10428000A990AA9413E50E610F4B16021E27210276
:1042900022912907330B350B371D3871392A3C78A9
:1042A0004D404E20695D6B4074198D4F8E008F001C
:1042B00090009100920096009A80B084B10CB20EEA
:1042C000B382B80A431444F0453446584728483A64
:1042D00059885A885B445C675D495E0E64046520BA
:1042E0006605940495086C0A6D554F805080510006
:1042F0005222535E548009036E116F9F5500564041
:1043000057800000000000000000000000000000D6
:10431000000000000000000000000000000000009D
:10432000000000000000000000000000000000008D
:10433000000000000000000000000000000000007D
:10434000000000000000000000000000000000006D
:10435000000000000000000000000000000000005D
:10436000000000000000000000000000000000004D
:1043700000000000000000004C5555555555A53F64
:104380007751C1166CC156BF9015CB19A001FA3EEA
:10439000AD529C804F7E92BEC4B1B4BD9EEE213E14
:1043A000D43888BEE9FAA8BD00004054FB21F93F8B
:1043B0003163621A61B4D03D0000601A61B4D03D2F
:1043C0007370032E8A19A33B0000002E8A19A33BA9
:1043D000C14920259A837B390000000000000000BD
:1043E0006E83F9A22915444ED15727FCC0DD34F560
:1043F000999562DB4190433CAB6351FE61C5BBDEE6
:104400003A6E24B7E0D24D42EA2E49061C92D109F9
:104410001CEB1DFE3EA729B1F53582E88444BB2E76
:1044200026709CE9417E5FB439D69139F4395383C3
:104430008B5F849C3B28F9BDFF97F81F0F9805DE22
:104440008B112FEF1F6D0A5ACF7E366DB709CB2720
:10445000663F464F2DEA5F9EC7BA27757BF1E5EBB5
:10446000F739073DEA92528AB15FFB6B085D8D1FF9
:10447000A6F810111111813FD561C119A0012ABF01
:104480007DFEB157E31DC73EEB9C2B8AE6E55ABE85
:104490007CD5CF5A3AD9E53DB84400080000002049
:1044A00024000000C4010008DC44000824000020AF
:1044B000CC250100E001000802000000020000001D
:1044C00002000000FFFFFFFFFFFFFFFFFFFFFFFFF6
:0C44D000FFFFFFFF0000000000000000E4
:040000050800018965
:00000001FF
