:020000040800F2
:1000000038F40120290200083702000839020008EC
:100010003B0200083D0200083F020008000000000B
:100020000000000000000000000000004102000885
:1000300043020008000000004502000847020008D3
:100040004902000849020008490200084902000864
:100050004902000849020008490200084902000854
:10006000490200082D05000849020008490200085D
:100070004902000849020008490200084902000834
:100080004902000849020008490200084902000824
:100090004902000849020008490200087D050008DD
:1000A0004902000849020008490200084902000804
:1000B00049020008A5180008490200084902000882
:1000C00049020008490200084902000849020008E4
:1000D000490200085D1900084902000849020008A9
:1000E00049020008490200084902000849020008C4
:1000F00049020008490200084902000849020008B4
:1001000049020008490200084902000849020008A3
:100110004902000849020008490200084902000893
:100120004902000849020008490200084902000883
:100130004902000849020008490200084902000873
:100140004902000849020008490200084902000863
:100150004902000849020008490200084902000853
:100160004902000849020008490200084902000843
:100170004902000849020008490200084902000833
:10018000490200084902000800F002F800F03CF8BB
:100190000AA090E8000C82448344AAF10107DA45E2
:1001A00001D100F031F8AFF2090EBAE80F0013F0F8
:1001B000010F18BFFB1A43F001031847E435000094
:1001C00004360000103A24BF78C878C1FAD8520724
:1001D00024BF30C830C144BF04680C6070470000C1
:1001E0000023002400250026103A28BF78C1FBD840
:1001F000520728BF30C148BF0B6070471FB503F0DE
:1002000018F91FBD10B510BD00F0C4F81146FFF776
:10021000F5FF02F069FA00F0E2F803B4FFF7F2FF2D
:1002200003BC02F039F900000B48016841F4700189
:1002300001600A480047FEE7FEE7FEE7FEE7FEE74B
:10024000FEE7FEE7FEE7FEE7FEE70000044805499B
:10025000034A054B7047000088ED00E08901000863
:1002600038F0012038F4012038F00120704710B533
:10027000203AC0F00B80B1E81850203AA0E818509E
:10028000B1E81850A0E81850BFF4F5AF5FEA027C5F
:1002900024BFB1E81850A0E8185044BF18C918C0CE
:1002A000BDE810405FEA827C24BF51F8043B40F86F
:1002B000043B08BF7047D20728BF31F8023B48BF54
:1002C00011F8012B28BF20F8023B48BF00F8012B92
:1002D00070474FF000020429C0F0128010F0030CA8
:1002E00000F01B80CCF1040CBCF1020F18BF00F829
:1002F000012BA8BF20F8022BA1EB0C0100F00DB8D8
:100300005FEAC17C24BF00F8012B00F8012B48BF35
:1003100000F8012B70474FF0000200B513469446D9
:100320009646203922BFA0E80C50A0E80C50B1F14D
:100330002001BFF4F7AF090728BFA0E80C5048BF61
:100340000CC05DF804EB890028BF40F8042B08BFFF
:10035000704748BF20F8022B11F0804F18BF00F8FB
:10036000012B7047704770477047704710B500F019
:1003700009F8006810BD10B5044600F003F80460E9
:1003800010BD000000487047D4EF012000487047BE
:10039000D4EF01207546FFF7F9FFAE460500694628
:1003A000534620F00700854618B020B5FFF74EFFF2
:1003B000BDE820404FF000064FF000074FF0000866
:1003C0004FF0000B21F00701AC46ACE8C009ACE8E7
:1003D000C009ACE8C009ACE8C0098D4670470446C6
:1003E000AFF300802046FFF718FF00002DE9F05F13
:1003F000074688460026B246002044490860444922
:10040000C1F88402012043490860002008600120EF
:100410003E4908603E49C1F88402002565E0002499
:100420005EE000203B4908603B48006800F0FF099F
:1004300001203749C1F884020020364908600120B4
:100440003349C1F88402EA1705EB92729210A5EBCA
:100450008202AABBE21704EB92729210A4EB820212
:1004600072BB4FEAE47C04EB9C7C4FEAAC0CBC45CD
:1004700034DB4FEAE57C05EB9C7C4FEAAC0CC445D1
:100480002CDB4FEAE47C04EB9C7C4FEAAC0B07F1DD
:10049000500CE34522DA4FEAE57C05EB9C7C4FEA01
:1004A000AC0B08F13C0CE34518DA502E09DA0AEBE4
:1004B0008A001A4901EB001000F80690701C86B201
:1004C0000CE000260AF101001FFA80FA0AEB8A000C
:1004D000124901EB001000F80690761C601C84B2F3
:1004E000B4F5A07F9DDB681C85B2F02D97DB4FF43F
:1004F00096520A490A48FFF7BAFE4FF400700949BC
:100500000860002008490870BDE8F09F940242424C
:10051000000041428402414210140240AC250020F8
:100520002C000020143C01402000002010B53C208D
:1005300002F04EF80C48006801280AD100200B494F
:10054000086001200A490860002007497C310860E2
:1005500005E00848008840F00100064908800820AE
:100560000549086010BD00000C82414224000020B3
:100570002800002000040040143C014010B50E4843
:10058000006800F4007088B100200C490860012068
:1005900002F03AF801200A49C1F88C020949C1F871
:1005A0008C0209480078401C074908704FF400701D
:1005B0000149086010BD0000143C01408C02424219
:1005C00000004242000041422000002010B50222FB
:1005D0000921052000F014F8022317220021084603
:1005E00000F00AFD10BD10B502220321084600F0FC
:1005F00007F8022309220021012000F0FDFC10BDB4
:10060000F0B503460846CD1701EB9575AD10A1EB8B
:100610008505AD062C0E2448006840F48040224D2C
:100620002860CD1701EB9575AE10204D55F826507A
:100630000F26A640B5430846CE1701EB9676B710B5
:100640001A4E46F82750CD1701EB9575AE10174D91
:1006500055F8265003FA04F63543CE1701EB96768B
:10066000B710124E46F827501148006801258D40FA
:1006700028430F4D286002F0010040B10C480C30B7
:10068000006801258D402843094D0C35286002F093
:10069000020040B106480830006801258D4028431B
:1006A000034D08352860F0BD443802400838014049
:1006B000003C014030B5CC1000F1200353F8243049
:1006C0004C07E50E0F24AC40A343CD1000F12004ED
:1006D00044F82530CC1000F1200353F824304C07A7
:1006E000E40E02FA04F42343CD1000F1200444F890
:1006F000253030BD2DE9F0470C46DDE908670021C3
:1007000000258C4600BF60E04FF0010808FA01F5B3
:1007100004EA050CAC4557D1D0F800804FEA410AF5
:100720004FF0030909FA0AF928EA0908C0F800801D
:10073000D0F800804FEA410902FA09F948EA0908AD
:10074000C0F80080012A01D0022A27D1D0F8088001
:100750004FEA410A4FF0030909FA0AF928EA0908A1
:10076000C0F80880D0F808804FEA410906FA09F974
:1007700048EA0908C0F80880D0F804904FF0010852
:1007800008FA01F829EA0809C0F80490D0F80480B2
:1007900003FA01F948EA0908C0F80480D0F80C808F
:1007A0004FEA410A4FF0030909FA0AF928EA090851
:1007B000C0F80C80D0F80C804FEA410907FA09F91B
:1007C00048EA0908C0F80C80491C10299CD3BDE8F0
:1007D000F08700001CB50E48006840F008000C4986
:1007E00008600120032100230246CDE90010042106
:1007F0000848FFF77FFF00200090034602460821CB
:1008000001900448FFF776FF0020034908601CBDF3
:1008100030380240000C0240888241422DE9F04706
:100820002DED0C8B9FED780BB0EE408AF0EE608AD8
:100830004FF0000A0025A5E000269FE005EB8500AB
:10084000734901EB0010805DFF287CD1002491E00A
:100850004FF0000989E0484602F05BFB41EC1A0BBF
:100860009FED6C0B53EC102B02F07EFB41EC190B4F
:100870009FED6A0B53EC102B02F096F941EC180B2C
:10088000B0EE480AF0EE680A01F02AF9B0EE40CA6C
:10089000F0EE60CA04F1140002F03BFB41EC1D0BCA
:1008A00053EC1C2B02F060FB41EC1A0B284602F0C3
:1008B00030FB41EC1B0B53EC1A2B02F05FFC41ECBC
:1008C000190B02F0C9FA8046B0EE480AF0EE680A49
:1008D00001F06AF9B0EE40CAF0EE60CA04F114000B
:1008E00002F017FB41EC1D0B53EC1C2B02F03CFB00
:1008F00041EC1A0B304602F00CFB41EC1B0B53ECA5
:100900001A2B02F03BFC41EC190B02F0A5FA07464A
:10091000B8F1000F27DDB8F13C0F24DA002F22DDFB
:10092000502F20DA08EBC800C0EB88103D4901EBDE
:10093000401007EB470101EBC70100EB410030F825
:100940001400401C00E018E008EBC801C1EB88115E
:10095000344A02EB411107EB470202EBC70201EBFD
:10096000420121F8140009F10A09B9F5B47F7FF7B3
:1009700072AF641C0B2CFFF66BAF761C502EFFF68B
:100980005DAF6D1C3C2DFFF657AF002532E0002611
:100990002DE0002428E005EBC500C0EB85102149BF
:1009A00001EB401006EB460101EBC60100EB4100F4
:1009B00030F81400504516DB05EBC500C0EB851080
:1009C000184901EB401006EB460101EBC60100EBB4
:1009D000410030F814A0144806601448056004F182
:1009E000140013490860641C0B2CD4DB761C502EB9
:1009F000CFDB6D1C3C2DCADB0E490A48FFF769FCB2
:100A0000BDEC0C8BBDE8F08700000000000000008A
:100A1000AC2500204AD8124DFB21094000000000FF
:100A200000806640304B00200000002004000020C1
:100A300008000020809C01002DE9F0472DED068B79
:100A4000ADF5407D002714E000202DF8170080A9A7
:100A5000C8559FED880A884800EB870080ED000AA2
:100A60009FED840A854800EB870080ED000A781C22
:100A700087B2FF2FE8DD002545E000243FE0804AF3
:100A80001268AA1A52437F4B1B68E31ADFF8F4C1BD
:100A9000DCF800C0A4EB0C0C03FB0C237A4A1168B1
:100AA000CA1701EB5272DFF8E0C1DCF800C0ACEB12
:100AB000E202DFF8D4C1DCF800004FEAE07C00EB92
:100AC0005C7CDFF8C4A1DAF800A0AAEBEC0C02FB16
:100AD0000CF2934211DA05EB85006C4901EB001032
:100AE000005D3DF81000401C80B205EB8501674AAF
:100AF00002EB0111095D2DF81100601C84B2502C2D
:100B0000BDDB681C85B23C2DB7DB4FF0000812E05E
:100B10003DF8180000EE100AB8EE400ADFED5C0A5E
:100B200080EE201A544800EB880080ED001A08F18E
:100B300001001FFA80F8B8F1FF0FE9DD00261FE081
:100B400056B94D4800EB860090ED000A4B4800EB8B
:100B5000860080ED000A11E0701E484901EB80001C
:100B600090ED000A444800EB8600D0ED000A30EE1C
:100B7000200A084600EB860080ED000A701C86B251
:100B8000FF2EDDDD4FF0000924E03C4800EB89003A
:100B900090ED000A10EE101A084602F0D9FB41EC65
:100BA0001A0B9FED3C0B53EC102B02F0DDF941ECDE
:100BB000190B9FED3A0B53EC102B01F04DFF41EC5C
:100BC000180B02F079F980A901F8090009F1010078
:100BD0001FFA80F9B9F1FF0FD7DD002541E00024AD
:100BE0003BE0274A1268AA1A5243264B1B68E31AB5
:100BF000DFF890C0DCF800C0A4EB0C0C03FB0C2366
:100C0000214A1168CA1701EB5272DFF87CC0DCF888
:100C100000C0ACEBE202DFF870C0DCF800004FEA85
:100C2000E07C00EB5C7CDFF860A0DAF800A0AAEBC7
:100C3000EC0C02FB0CF293420DDA05EB8500134934
:100C400001EB0010005D80A9085C05EB85010F4AEF
:100C500002EB01110855601C84B2502CC1DB681CEA
:100C600085B23C2DBBDB0DF5407DBDEC068BBDE8B0
:100C7000F087000000000000B0E70120B0EB012089
:100C80000400002000000020080000202C000020AC
:100C9000000096450000000000E06F4000000000EA
:100CA0000000E03F10B5084800780849087008487F
:100CB0000078487007480078887007480078C87046
:100CC000064801F047FD10BD000000206C380020F0
:100CD00004000020080000200C0000202C00002050
:100CE00010B50020054908704870887004480078E5
:100CF000C870044801F02EFD10BD00006C380020C3
:100D0000100000202C0000202DE9F0414FF49652F5
:100D100064496548FFF7ABFA012492E001258CE0B5
:100D2000611C01EB8101604A02EB0112691E525CF9
:100D3000611C01EB81015C4B03EB0111495D022356
:100D400013FB0122611C01EB8101574B03EB0113E3
:100D5000691C595C0A44611E01EB8101524B03EB93
:100D60000113691E5B5C611E01EB8101DFF838C174
:100D70000CEB0111495D4FF0020C1CFB0133611EAD
:100D800001EB8101DFF820C10CEB011C691C1CF890
:100D900001101944501A002801DB014600E04142CD
:100DA000CFB2611E01EB81013F4A02EB0112691EC5
:100DB000525C04EB84013C4B03EB0113691E595C4C
:100DC000022313FB0122611C01EB8101364B03EB73
:100DD0000113691E595C0A44611E01EB8101324B0B
:100DE00003EB0113691C5B5C04EB8401DFF8B8C002
:100DF0000CEB011C691C1CF801104FF0020C1CFBD1
:100E00000133611C01EB8101DFF89CC00CEB011C7C
:100E1000691C1CF801101944501A002801DB014616
:100E200000E0414201F0FF0807EB080004EB8401F9
:100E30001C4A02EB011148556D1C4F2DFFF670AF97
:100E4000641C3B2CFFF66AAF9FED180A01F05AFBB9
:100E5000064601241CE0012517E004EB840011493B
:100E600001EB0010405DB04207DDFF2004EB840180
:100E70000C4A02EB0111485506E0002004EB840106
:100E8000084A02EB011148556D1C4F2DE5DB641C2F
:100E90003B2CE0DB4FF496510348FFF73CFABDE8EA
:100EA000F0810000AC250020EC1200200AD7233D81
:100EB0002DE9F0410C461546069E444FB84209D92B
:100EC0003946434F3F6847F48007DFF804C1CCF848
:100ED000007008E03F493E4F3F6847F40017DFF8D5
:100EE000F0C0CCF8007000BF076807F00107002FC2
:100EF000FAD1471A103F4FF0180CB7FBFCF7FAB2C3
:100F0000062A10DBCF68A2F1060C0CEB4C0C4FEA62
:100F10004C0C0CF1100C4FF03D0808FA0CF847EAA5
:100F20000807CF602FE0042A0EDBCF68A2F1040C83
:100F30000CEB4C0C4FEA4C084FF03D0C0CFA08FC43
:100F400047EA0C07CF601EE0022A10DB8F68A2F18F
:100F5000020C0CEB4C0C4FEA4C0C0CF1100C4FF04B
:100F60003D0808FA0CF847EA08078F600BE08F6825
:100F700002EB420C4FEA4C084FF03D0C0CFA08FC17
:100F800047EA0C078F608560C360466000270760F2
:100F9000076847F040070760076807600768076051
:100FA000076847F48067076007680760076807609D
:100FB000076847F4803707600768076007680760BD
:100FC000076847EA44670760BDE8F08100640240B3
:100FD0003038024000600240026822F001020260E4
:100FE00000BF026802F00102002AFAD141600268E3
:100FF00042F00102026070472DE9F0410746884641
:1010000014461D46284600F033F8C5F1040007FADF
:1010100000F60F20284100EA0800064306F00F06FC
:10102000E21704EBD2625211920002F1E022D2F8F0
:1010300000212146E31704EBD3635B11A4EB431CAF
:10104000012303FA0CF31A432046E31704EBD3639E
:101050005B119B0003F1E023C3F800210348005D0E
:1010600040EA061001490855BDE8F08100E400E0BF
:101070000146072323EA01021202054B18684FF6C6
:10108000FF031840034B18431043014B186070478F
:101090000CED00E00000FA054A0A52020243014B3F
:1010A0001A60704708ED00E07CB500254C480068E8
:1010B00040F001004A4908600846006840F004001A
:1010C00008600846006840F01000086008460068A4
:1010D00040F020000860022000210B460A46CDE9BE
:1010E000001001023F48FFF705FB3E48143000683E
:1010F00040F400703B4914310860012003210023B3
:101100000246CDE900100A213748FFF7F3FA3648C6
:101110001430006840F00A0033491431086002209E
:1011200000210B460A46CDE90010FF212D48FFF7AC
:10113000E1FA2C481430006840F0FF0029491431CE
:1011400008600120032100230246CDE90010282178
:101150002648FFF7CFFA2548406940F02800234988
:1011600048610120032100230246CDE9001041031C
:101170001D48FFF7BFFA4FF400501B4914310860B7
:1011800000F0ACF88021122000F0D6F908B101205F
:101190007CBD322001F01CFA0B2000F01DF9044642
:1011A000732C01D00220F3E70A2000F015F9044661
:1011B000762C01D00220EBE700250DE00C4A02EB73
:1011C000450251780A4A12F8150000F0B5F90220DC
:1011D00001F0FEF9681C85B2AE2DEFD30020D7E7F1
:1011E0003038024000140240000802400010024063
:1011F000223500082DE9F0410446E72500260027A6
:10120000012C06D0022C08D0032C0AD0042C10D1BB
:101210000BE0E5255A265C270BE0E52558266027DC
:1012200007E0E52584264C2703E0E52596264027A0
:1012300000BF00BF2946132000F07EF9314601208F
:1012400000F07AF93946022000F076F9BDE8F08125
:101250002DE9F04705460E469046994605EB4800B5
:101260001FFA80FA06EB490087B2B7F5447F02DD2A
:10127000A7F5447087B2032000F0AEF8044604F0EE
:10128000F0040AF00301284661F39F00044321465D
:10129000032000F051F9C5F38701192000F04CF943
:1012A000CAF387011A2000F047F9322000F094F8C1
:1012B000044604F0C00407F00701304661F3DF0084
:1012C0000443C6F3C701172000F036F9C7F3C7017E
:1012D000182000F031F9BDE8F08700001CB5104877
:1012E000006840F010000E49086001200221002330
:1012F0000246CDE9001050210A48FFF7FBF90948E2
:10130000406940F05000074948610846006820F4F1
:10131000405008600846006840F4805008601CBDDA
:10132000303802400010024010B5782001F06CF90E
:1013300001200B4908600B49C1F89002782001F0A8
:1013400063F90020064908390860782001F05CF94B
:1013500000200449C1F89802782001F055F910BD29
:10136000980242420000424270B5002417480068CB
:1013700020F44050154908600846006808600825B8
:1013800015E0782001F040F901201149086060065D
:10139000040E1048D0F8180208B1601CC4B27820BE
:1013A00001F032F900200A490860681EC5B2002D1C
:1013B000E7DC0648006820F440500449086008460D
:1013C000006840F480500860204670BD0010024064
:1013D000900242420000424270B50446002500F0EF
:1013E00023F8422000F054F8DC2001F00DF92046EB
:1013F00000F04EF8DC2001F007F900F02FF8DC20B7
:1014000001F002F900F010F8432000F041F8DC2070
:1014100001F0FAF8FFF7A8FF0546FFF785FF00F097
:101420001DF8284670BD000010B50120094908606C
:101430000949C1F89002782001F0E6F8002005493A
:101440000860782001F0E0F800200349C1F890021C
:1014500010BD0000980242420000424210B5002038
:1014600009490860782001F0CFF801200749C1F848
:101470009002782001F0C8F8012003490860782024
:1014800001F0C2F810BD0000980242420000424242
:1014900070B5044600261BE004F0800018B101205E
:1014A0002249086002E00020204908606006040E1E
:1014B000782001F0A9F801201C490839086078203B
:1014C00001F0A2F800201A49C1F89002701CC6B2BF
:1014D000082EE1DB1748006820F4405015490860E9
:1014E000084600680860782001F08EF801200F4956
:1014F00008390860782001F087F80D48D0F8180204
:1015000008B1012500E000250020084908390860DD
:101510000848006820F44050064908600846006802
:1015200040F480500860284670BD00009802424296
:10153000000042420010024070B505460C460026ED
:10154000FFF772FF4220FFF7A3FF00B10126DC2066
:1015500001F05AF82846FFF79BFF00B10126DC2076
:1015600001F052F82046FFF793FF00B10126FFF784
:1015700075FF304670BD00002DE9F0414FF49652E2
:1015800062496348FEF773FE0125B4E00124AEE032
:1015900060480068062190FBF1F05E490968081A6E
:1015A00040435D490968691A49435C4A1268A21AB6
:1015B0005A4B1B68E31A02FB031188427EDD691C4B
:1015C00001EB8101524A02EB0112611E525C691C5F
:1015D00001EB81014E4B03EB0111095D022313FB6B
:1015E0000122691C01EB8101494B03EB0113611CD2
:1015F000595C0A44691E01EB8101454B03EB011361
:10160000611E5B5C691E01EB8101DFF804C10CEB1C
:101610000111095D4FF0020C1CFB0133691E01EB47
:101620008101DFF8ECC00CEB011C611C1CF80110FF
:101630001944501A002801DB014600E04142CEB2B5
:10164000691E01EB8101324A02EB0112611E525CFC
:1016500005EB85012E4B03EB0113611E595C022340
:1016600013FB0122691C01EB8101294B03EB0113E0
:10167000611E595C0A44691E01EB8101244B03EB96
:101680000113611C5B5C05EB8501DFF884C00CEB8A
:10169000011C611C1CF801104FF0020C1CFB0133F3
:1016A000691C01EB8101DFF868C00CEB011C611CB7
:1016B0001CF801101944501A002800E016E001DB64
:1016C000014600E04142CFB2B819642807DDFF208F
:1016D00005EB85010D4A02EB0111085506E00020DB
:1016E00005EB8501094A02EB01110855641C4F2CDA
:1016F000FFF64EAF6D1C3B2DFFF648AF4FF49651F1
:101700000348FEF708FEBDE8F08100002C00002031
:10171000EC1200200800002004000020000000203F
:10172000F0B504460D4616461F461448006840F0C2
:1017300001001249086000201049083108600F4874
:1017400000680F4908400D4908600E48091D0860EF
:10175000081F006820F48020091F08600020074946
:101760000C3108603B4632462946204600F00CF812
:1017700000210846FFF790FCF0BD00000038024051
:10178000FFFFF6FE10300024F0B504460D460021A0
:1017900000203D4E366846F480363B4F3E6001E007
:1017A0004E1CB1B2384E366806F400361EB941F60A
:1017B000FF76B142F4DB41F6FF76B14201D1012060
:1017C00060E0314E4036366846F080562E4F403746
:1017D0003E602E4E366846F440462C4F3E602A4E00
:1017E0000836366846F41446274F08373E60264EC2
:1017F000366826F08076244F3E6045EA841601273D
:10180000C7EB520746EA074646EA036646F48006F7
:101810001D4F3F1D3E603E1F366846F080763F1FDD
:101820003E6000BF184E366806F00076002EF9D0F4
:10183000174E366846F48076154F3E603E46366851
:1018400046F400763E603E46366846F480663E606A
:101850003E46366846F005063E600B4E0836366852
:1018600026F00306084F08373E603E46366846F0CD
:1018700002063E6000BF044E0836366806F00C06CD
:10188000082EF8D1F0BD0000003802400070004082
:10189000003C024001480249086070470400FA0514
:1018A0000CED00E010B51648008800F00100F8B11A
:1018B00010E01448007801280CDD00210846FEF7EE
:1018C00095FDFFF721FAFEF7A9FF0F480068401EBB
:1018D0000D4908600C4800680128EAD001200B4936
:1018E0000860074810380088002005491039088032
:1018F0000348008820F001000149088010BD000065
:1019000010040040200000202800002024000020B7
:1019100070B505460C460F48006840F002000D49BE
:1019200008600D480560001F04800B4820380088BF
:1019300040F00100084920390880081D0088002077
:10194000091D088002231D2200210846FFF754FBD1
:1019500070BD0000403802402C04004010B506481D
:10196000008800F0200030B103488088C4B22A2CDF
:1019700001D1FFF78FFF10BD0010014030B50025E9
:1019800000F0A6FF002406E0054850F824001E28B9
:1019900000DD2546641C092CF6DB0248056030BDDD
:1019A000B0EF012010000020F0B58FB000262421F8
:1019B00006A8FEF7B0FC002003900490059000906C
:1019C0000190029000F084FF00240FE0344850F8AA
:1019D0002400142803DA0020314941F8240030485B
:1019E00050F8240006A941F82400641C092CEDDB02
:1019F000002418E006A850F82470651E07E006A829
:101A000050F8251006AA681C42F820106D1E002D03
:101A100004DB06A850F82500B842F0DB06A9681CD4
:101A200041F82070641C092CE4DB002415E006A8B2
:101A300050F8240003A941F8240008250AE003A86F
:101A400050F82400164951F82510884201D14DF86C
:101A500024506D1E002DF2DA641C032CE7DB0024F9
:101A600006E05DF82400B04201DD5DF82460641CEE
:101A7000032CF6DB0B4800680B4908600948066038
:101A80000068B04206D108460068B04202D107485B
:101A9000066003E04FF0FF30044908600FB0F0BD6E
:101AA000B0EF012014000020180000200C000020DE
:101AB00003B401984100009850EAC12018BF0420E7
:101AC0004A0D18BF40F0010040F2FF72B2EB515FC7
:101AD00008BF40F00200012808BF052002B070478F
:101AE00010B52F499FED2C1B2DED020B84B00598EE
:101AF00020F000408842D8BF9DED040B2DDD294920
:101B0000884209D1049840B94FF00100FEF733FC38
:101B100000F0A2FC06B010BD05DB9DED040B00F04B
:101B20008FFC06B010BD68469DED040B00F0A0F8D8
:101B300010F0030004BF9DED021B9DED000B0CD0C7
:101B400001280ED09DED021B9DED000B022817D041
:101B5000012000F0DDFB06B010BD00F0A5FA06B0D4
:101B600010BD9DED021B9DED000B012000F0D0FB90
:101B700051EC100B00F064FF06B041EC100B10BDEF
:101B800000F092FA51EC100B00F05AFF06B041EC55
:101B9000100B10BD0000000000000000000000005D
:101BA000FB21E93F0000F07F10B52F499FED2C1B72
:101BB0002DED020B84B0059820F000408842DCBF78
:101BC00000209DED040B32DD2849884209D104989C
:101BD00040B94FF00100FEF7CEFB00F03DFC06B02F
:101BE00010BD05DB9DED040B00F02AFC06B010BD16
:101BF00068469DED040B00F03BF810F0030011D097
:101C0000012818D09DED021B9DED000B02281AD073
:101C100000F04AFA51EC100B00F012FF06B041EC54
:101C2000100B10BD9DED021B9DED000B012000F07F
:101C30006FFB06B010BD9DED021B9DED000B00F08B
:101C400033FA06B010BD012000F062FB51EC100B1E
:101C500000F0F6FE06B041EC100B10BD00000000D5
:101C60000000000000000000FB21E93F0000F07FC1
:101C70002DE9F14F04462DED020B2DED088B8AB0B6
:101C80009FEDE70B80ED020B139EE74826F0004521
:101C900085420ADC9DED120B002084ED000B0AB09A
:101CA000BDEC088B03B0BDE8F08FE0489FEDE0ABE2
:101CB0009FEDE1BBA84247DDE14F9FEDE39B9FED28
:101CC000E48B9DED120B53EC1A2B51EC100B002EF4
:101CD0001CDD01F053FA41EC100BBD4208D053EC6F
:101CE0001B2B51EC100B01F049FAC4E900010BE089
:101CF00053EC192B51EC100B01F040FA53EC182B5C
:101D000001F03CFAC4E900010120C8E700F0A4FE9C
:101D100041EC100BBD4208D053EC1B2B51EC100BC7
:101D200000F09AFEC4E900010BE053EC192B51ECD2
:101D3000100B00F091FE53EC182B00F08DFEC4E95F
:101D400000014FF0FF30AAE7C348A84279DB9DEDC0
:101D5000120B51EC100B00F0BBFC41EC180B9FED8B
:101D6000C00B53EC102B01F0FFF89FEDBF1B53ECA1
:101D7000112B00F071FE01F06FF8074601F0C9F871
:101D800041EC190B53EC1A2B01F0EEF853EC182B25
:101D900001F0E8F941EC180B53EC1B2B51EC190B3B
:101DA00001F0E2F8DFF8C8A241EC100B4FEA155839
:101DB0000125FA4453EC102B51EC180B01F0DEF91D
:101DC000032DC4E900013DD0C1F30A5005EB4511D4
:101DD000A8EB00001139814234DA0AEB051BB0EEA2
:101DE00048AA9BED000BF0EE68AA53EC102B51ECC7
:101DF000190B01F0B9F841EC1B0B51EC1A0B53EC29
:101E00001B2B01F0BBF941EC180B51EC1A0B53ECF6
:101E1000182B01F0B3F953EC1B2B01F0AFF99BED3C
:101E2000020B41EC1A0B53EC102B51EC190B01F087
:101E30009BF853EC1A2B01F0A1F941EC100B6D1C2F
:101E4000B8E70EE0002EA8BF3846BFF628AF94EDE5
:101E5000000B51EC100B00F0F3FDC4E900017842D7
:101E60001DE7C6F3130040F4801EC6F30A50A0F22B
:101E7000F530471100F01F05C5F12000DDF848B02E
:101E800008900020069007900520EC467949002D27
:101E900007EB0002794408BF51F8221009D051F82D
:101EA000223001EB8201AB404A68089922FA01F125
:101EB0001943A1FB0E26A1FB0B131A449A4234BF0F
:101EC0000123002303EB06080CEB8003D3E901A6F2
:101ED0000E448E4234BF0121002192448A4411B144
:101EE000924502D903E0924501D2012100E0002190
:101EF000C3E901A641444CF82010011EA0F10100E5
:101F0000C4DC029800F10050850F0298DDE90367F8
:101F10008000DDF8148000F0FCFF41EC1A0B304625
:101F200001F00EF89FED541B53EC112B01F01CF83F
:101F300041EC1B0B384601F003F89FED511B53ECAD
:101F4000112B01F011F841EC180B404600F0F8FF9E
:101F50009FED4D1B53EC112B01F006F841EC190BD2
:101F600051EC180B53EC192B00F076FD53EC1B2BA6
:101F700000F072FD53EC1A2B00F06EFDCDE9080164
:101F8000002008909DED080B53EC1A2B51EC100B20
:101F900001F0F4F853EC1B2B01F0F0F853EC182B84
:101FA00001F0ECF853EC192B01F0DCF89FED381B35
:101FB00053EC112B00F0D8FF9FED370B41EC180BC1
:101FC00053EC102B9DED080B51EC100B00F0CCFFE7
:101FD00053EC182B00F040FD9FED310B41EC180B3A
:101FE00053EC102B9DED080B51EC100B00F0BCFFD7
:101FF00053EC182B00F030FD41EC100B139810F04F
:10200000004F06D06D4251EC100B00F019FD41EC71
:10201000100B284684ED000B41E600000000000094
:102020000000000000000000FB21E93F7CD90240D5
:1020300000004054FB21F93F3163621A61B4D03D86
:10204000FB21F93F000000000000601A61B4D03DA0
:102050007370032E8A19A33BFB2139410000000055
:1020600083C8C96D305FE43F000000000000E03F1E
:10207000FA18000048180000000000000000103EA0
:10208000000000000000103C000000000000103ABA
:10209000182D4454FB21F93D3326A611460B113C63
:1020A00000000054FB21F93D10B52DED040B2DED82
:1020B000088B82B0B0EE419AF0EE619A0B9820F056
:1020C00000449FED4BABB4F1795F11DA9DED0A0B43
:1020D00051EC100B00F0C0FE002801BFB0EE4A0A20
:1020E000F0EE6A0A02B0BDEC088B04BF04B010BD6C
:1020F0009DED0A0B53EC102B51EC100B00F034FF4C
:1021000041EC180B3C480621B0EE480AF0EE680A94
:10211000784400F081F853EC182B51EC100B00F0D0
:1021200023FF9DED0A0B41EC1B0B53EC192B51ECDB
:10213000100B00F019FF41EC190B53EC1B2B51EC69
:10214000180B00F011FF53EC192B01F017F89FED5D
:102150002C0B41EC190B53EC102B51EC180B00F02D
:1021600003FF41EC100B2848844210DA53EC192B82
:1021700051EC100B01F002F853EC1A2B00F0F2FFB7
:1021800041EC100B02B0BDEC088B04B010BD1F4831
:10219000A042BCBF9FED1E1B8DED001B06DBA4F50E
:1021A00000100190002000909DED001B51EC100BE1
:1021B00053EC112B00F0E2FF9DED000B41EC180BEE
:1021C00053EC102B51EC1A0B00F0D8FF41EC1A0B1A
:1021D00053EC192B51EC180B00F0D0FF53EC1A2BD9
:1021E00000F0C0FF41EC100BCCE700000000000045
:1021F000000000000000F03F6C150000000000002F
:10220000000000000000E03F3333D33F0000E93F0F
:10221000000000000000D23F70B504462DED028B97
:102220004D1E00EBC500B0EE408AF0EE608A90EDE6
:10223000000B35F0060017D053EC182B51EC100BA7
:1022400000F092FE41EC100B6D1E04EBC50090ED0A
:10225000001B51EC100B53EC112B00F0FDFB41EC7B
:10226000100B35F00600E7D1022D36D0042D1CD01E
:10227000062D1CBFBDEC028B70BD53EC182B51EC2E
:10228000100B00F071FE94ED0A1B53EC112B00F0C3
:10229000E3FB53EC182B00F067FE94ED081B53ECA6
:1022A000112B00F0D9FB41EC100B53EC182B51EC27
:1022B000100B00F059FE94ED061B53EC112B00F0AF
:1022C000CBFB53EC182B00F04FFE94ED040B53ECBA
:1022D000102B00F0C1FB41EC100B53EC182B51EC10
:1022E000100B00F041FE94ED021B53EC112B00F09B
:1022F000B3FB53EC182B00F037FE94ED001B53ECAE
:10230000112B00F0A9FBBDEC028B41EC100B70BD52
:1023100031B504462DED040B2DED0A8BB0EE41BA1C
:10232000F0EE61BA0B989DED0A0B20F00040B0F181
:10233000795F0DDA51EC100BFFF7BAFB042808BFE8
:1023400000F09AF89DED0A0BBDEC0A8B05B030BD8C
:1023500053EC102B51EC100B00F006FE41EC180B67
:102360009DED0A0B53EC182B51EC100B00F0FCFD0B
:1023700041EC190B2C48B0EE480AF0EE680A052132
:102380007844FFF749FF9FED2ACBB0EE40AAF0EE6C
:1023900060AA9CB353EC1C2B51EC190B00F0E4FD2C
:1023A00041EC1C0B53EC1A2B51EC190B00F0DCFD2B
:1023B0009FED210B41EC190B53EC102B51EC1B0B37
:1023C00000F0D2FD53EC192B00F0D8FE53EC182B83
:1023D00000F0CAFD53EC1B2B00F0D0FE53EC1C2B7D
:1023E00000F0CCFE9DED0A1B53EC112B00F0BAFE61
:1023F000BDEC0A8B05B041EC100B30BDFFE753EC90
:102400001A2B51EC180B00F0AFFD53EC1C2B00F015
:1024100023FB53EC192B00F0A7FD9DED0A1B53EC99
:10242000112B00F019FBE3E7F4130000000000009B
:10243000495555555555C5BF000000000000E03F07
:1024400010B553EC102B51EC100B00F005FB41ECD8
:10245000100B10BD000000009FED050B10B553ECF4
:10246000102B51EC100B00F09FFB41EC100B10BD3A
:1024700000000000000000009FED050B10B553ECBC
:10248000102B51EC100B00F06FFD41EC100B10BD48
:102490000000000000000010014600BF704700006F
:1024A00010B50723022208214FF4A870FFF738F96E
:1024B000A82000F06DF84FF4E131542000F088F9C5
:1024C000FEF7F2FD4FF47A7000F082F80020FEF77C
:1024D00091FE42F2CF014CF24F30FFF719FA4FF460
:1024E000A073F022AE210A20FEF7B2FE00200449BC
:1024F0000860FEF76FF9FEF776F8FEF767F810BD93
:10250000B4024142F0B5ADF5007DDFED1F0A60EE8B
:10251000200AFCEEE00A10EE900A85B2002103E0EA
:1025200000202DF81100491CFF29F9DD012117E0D9
:10253000012212E001EB8100144E06EB0010805CDA
:102540003DF81000401C80B201EB81060F4F07EBF5
:102550000616B65C2DF81600521C4F2AEADB491C01
:102560003B29E5DB00230024FF2105E03DF81100B5
:10257000184483B2641C491EAB42F7DBC4F1FF0070
:102580000DF5007DF0BD000000A89145AC250020B0
:102590004FF0E021096921F004014FF0E0221161C0
:1025A000C21700EB5272C2F3C702074B1A701946EA
:1025B000097801EB4102C2EBC1114FF6FF7202EA4A
:1025C000C101024A118070471C0000201E0000203B
:1025D00070B504464FF4077094FBF0F0C6B24FF4A8
:1025E000077094FBF0F100FB114085B205E04FF459
:1025F000077000F027F8701EC6B2002EF7D115B193
:10260000284600F01FF870BD01460D4A12784A4373
:102610004FF0E0235A6100229A6101221A6100BF43
:102620004FF0E022106900F001021AB100F480328C
:10263000002AF5D000224FF0E0231A619A6170471A
:102640001C00002001460D4A12884A434FF0E02347
:102650005A6100229A6101221A6100BF4FF0E02204
:10266000106900F001021AB100F48032002AF5D09E
:1026700000224FF0E0231A619A6170471E0000208B
:1026800010B50F480078012819DD00210846FDF734
:10269000ADFEFEF7D1F9FEF76FFFFFF76FF9FEF71A
:1026A0001FFB08480068062809DD0020064908606D
:1026B00007200649086041F28830FFF789FF10BD06
:1026C0002000002010000020888241420C000020E1
:1026D00082B0CDE9000121F0004001909DED000B9A
:1026E00002B051EC100B7047FFF7DAFE28E000BF94
:1026F000144800680028FBD01348007801281FDD2B
:1027000000210846FDF772FEFEF796F9FEF734FF4A
:10271000FFF74AF9FEF7C6FA0AE00C48006808B964
:10272000012000E0002009497C310860FFF7A8FF84
:1027300007480068002803DB054800680628ECDD30
:10274000D5E7000024000020200000200C82414238
:102750000C000020F8B50646002410E000250BE030
:1027600004EB840006EB0010415D502000FB045098
:10277000001D144A11546D1C502DF1DB641C3C2CBF
:10278000ECDB41F2C4200F4B0F4A042100900F48AC
:10279000FEF78EFB80200C49091F888241F2C4217C
:1027A0000A48FEF719FC0948B438006800F00060D8
:1027B00038B10648AC38006840F000600349AC39D5
:1027C0000860F8BD6C38002004100140B864024075
:1027D000F0B52DED028B83B005460E46384905FB5A
:1027E00001F000EE100AF8EE400A300100EE100A87
:1027F000B8EE400A80EE801AB0EE418ABCEEC80AFC
:1028000010EE100A84B200EE104AB8EE400A38EE1C
:10281000400AF3EE000A20EE200ABCEEC00A10EED9
:10282000107A4FF6FF7000EA0414E01984B22548CC
:10283000006840F001002349086022481430006815
:1028400040F010001F4914310860012002210023CC
:102850000A46CDE900104FF4C0611B48FDF74AFF5E
:10286000072209211848FDF725FF07220A211648EB
:10287000FDF720FF15480481808920F400401349AA
:1028800088810846808940F0080088810846808950
:1028900040F0040088810846808940F0200088814B
:1028A0000223252203210846FEF7A6FB074880895C
:1028B00040F400500549888103B0BDEC028BF0BDA7
:1028C00040420F003038024000000240001001403A
:1028D0002DE9F047002300250026002144E00020D8
:1028E0003FE0DFF848C1DCF800C04FF006089CFB71
:1028F000F8FCDFF83881D8F80080A8EB0C0C0CFB52
:102900000CFCDFF82C81D8F80080A0EB080808FB4D
:1029100008F8DFF82091D9F80090A1EB0909DFF859
:1029200014A1DAF800A0A1EB0A0A09FB0A88C44541
:1029300016DDDFF8FCC0DCF800C0A0EB0C04002CB6
:1029400001DBA44601E0C4F1000CDFF8E080D8F818
:10295000007007EBD7784FEA6808C44500DA5B1CC3
:10296000401C3C28BDDB491C5029B8DB092493FBE3
:10297000F4F30822002155E0002050E0DFF8ACC05D
:10298000DCF800C04FF006089CFBF8FCDFF89C80E8
:10299000D8F80080A8EB0C0C0CFB0CFCDFF8908046
:1029A000D8F80080A0EB080808FB08F8DFF884904E
:1029B000D9F80090A1EB0909DFF878A0DAF800A0B7
:1029C000A1EB0A0A09FB0A88C44527DDDFF860C0CD
:1029D000DCF800C0A0EB0C04002C01DBA44601E0F5
:1029E000C4F1000CDFF84480D8F8007007EBD7780A
:1029F0004FEA6808C44511DA6D1C00EB80040E4FE5
:102A000007EB0414645CFF2C00D1761C9D4205DDAD
:102A100001250A4C44F82260521E0126401C3C2825
:102A2000ACDB491C5029A7DBBDE8F087080000207B
:102A300004000020000000202C000020B0EF012046
:102A400081F00041704780F00040704721F0004164
:102A5000704720F00040704710B591EA030F48BF5F
:102A600083F0004300F19283841A71EB030C05D2CA
:102A7000121943EB0C03001B61EB0C01DFF824E19E
:102A80004FEA1154A4EB135C1EEA430F18BF9EEAF1
:102A9000445F73D023EA0E03DCF1200E21EA0451D7
:102AA00043F4801332D322FA0CFE10EB0E0023FA0B
:102AB0000CFE41EB0E01CCF1200E03FA0EFE10EBE2
:102AC0000E0051F10001B1F5801FCCF1200E32D281
:102AD00001EB045112FA0EF2BDE8104058BF7047E6
:102AE000401C38BF5FEA420218BF7047002814BF7D
:102AF00020F0010041F100014FEA410313F5001FEE
:102B000038BF7047A1F1C04100F026BB012A43EB5A
:102B10000302ACF1200CDCF11F0E32BF4FF0000EAF
:102B200023FA0CF310EB030041EB0451B4EB115FFB
:102B3000D0D0A1EB045101F5801149085FEA3000C3
:102B400001EB04510ED350F1000038BF12FA0EFE13
:102B500008D1BDE81040C9E7401C38BF5FEA420217
:102B6000CAD1C3E7BDE810404FEA410313F5001F87
:102B700038BF7047A1F1C04100F0EEBA9EEA445F51
:102B800008D011EA5E0FBDE8104004BF01F000411B
:102B900000207047BDE8104070B500F08FFA00BF0C
:102BA00064FBBE3E0000E0FF2DE9C04130B4DFF819
:102BB000A0C23CEA111418BF3CEA131400F0EC80E8
:102BC00081EA03051CEA111444EAD57418BF1CEA13
:102BD000131500F0C780A4EB05044FF0004545EA4B
:102BE000C12145EAC32341EA505143EA525304F15B
:102BF0007F74994204F500344FEAC0204FEAC222A4
:102C000008BF904200F09C804FEA13650FF2401617
:102C1000765D4FEA134506FB05F7C7F1807706FBA3
:102C200007F74FEAD737A7FB03687642C8F5803825
:102C3000A7FB06CE38BFA8F1010807FB08E64FF056
:102C4000000EA6FB028CE6FB03CEDCF1000CCEF1FD
:102C5000004E38BFAEF1010EA6FB0C584FF0000736
:102C60004FF00005E6FB0E87A1FB08C6A0FB07CED0
:102C700016EB0E0645F10005E1FB076515F1E04E88
:102C80007EBFA4F580345FEA46066D4116F18007E9
:102C900045F100054FEA17274FEA066647EA056740
:102CA000A6F1DE46B6F1805F4FEA15251FD93846FA
:102CB00024F0010C05EBC471BCF1FE6F01EB0C11AB
:102CC00002D8F0BCBDE8008124425CBF01F5801E43
:102CD0009EEAC47F02D4F0BCBDE80081244238D40F
:102CE000F0BCA1F1C041BDE8004100F035BA4FEAA7
:102CF000D22242EA43524FEAD323A7FB02864FEA8D
:102D0000D02040EA415007FB03661EEA0E0F4FEA4F
:102D1000D12105FB026658BFA6EB0056B6EB005664
:102D20004FEA520E4EEAC37E18EB0E0E56EB530ED0
:102D3000BDD518EB02085E417F1C55F10005B6E7D2
:102D40004FF480154FF000074FF000064FF00008D9
:102D5000ADE7F0BC4FF0000001F1C04101F00041CF
:102D6000BDE8008111EA0C1F0CEA131500D00CE03D
:102D700013EA0C1F00F025804FF00000F0BC81EA40
:102D8000030101F00041BDE80081F0BCBDE8004155
:102D900081EA030100F0E0B9F0BCBDE8004170B584
:102DA00000F08CF9097EFC3E00F007B881EA0301CF
:102DB0004FF0000001F00041704781EA030100F08C
:102DC000CBB9F0BCBDE800414FF00000214970478D
:102DD000FFFDFBF9F7F5F4F2F0EEEDEBE9E8E6E4E0
:102DE000E3E1E0DEDDDBDAD8D7D5D4D3D1D0CFCD67
:102DF000CCCBCAC8C7C6C5C4C2C1C0BFBEBDBCBBA0
:102E0000BAB9B8B7B6B5B4B3B2B1B0AFAEADACAB9A
:102E1000AAA9A8A8A7A6A5A4A3A3A2A1A09F9F9E74
:102E20009D9C9C9B9A999998979796959594939326
:102E3000929191908F8F8E8E8D8C8C8B8B8A8989BD
:102E40008888878786858584848383828281818040
:102E50000000FF070000F87F4FEA41034FEA535399
:102E6000A3F58063D3F11E03C8BFD3F1210C0CDDA1
:102E70004FF0004242EAC12242EA505232FA03FCC9
:102E80008CEAE17CACEBE1707047102BC4BF0020F2
:102E9000704703F5787CBCF1FF3F04D06FF000422F
:102EA00082EA2100704770B500F008F94992248049
:102EB00000207047F2E700004FEA1153A3F580634A
:102EC000D3F11E03A8BFD3F1200C08DB4FF0004262
:102ED00042EAC12252EA505232FA03F070470942E4
:102EE0000BD4102BC4BF0020704703F5787CBCF1D5
:102EF000FF3F05D04FF0FF3070474FF000007047A4
:102F000070B500F0DBF800BF4992248000207047C4
:102F1000F0E710F0004248BF4042B0FA80F310FAE8
:102F200003F10AD0C3F11D0303F580634FEA41505A
:102F300002EB035202EBD12170474FF000007047C3
:102F4000B0FA80F310FA03F10AD0C3F11D0303F5C0
:102F500080634FEA41504FEA035202EBD1217047A0
:102F60004FF0000070470000DFF848C170B51CEA60
:102F7000111E1EBF1CEA13159EEA0C0F95EA0C0FDA
:102F800000F06F8081EA030423EA4C134EEAD47EFA
:102F900021EA4C1141F4801143F48013AE44A1FBAB
:102FA000024CA0FB0365AEF17F7E361955EB0C0594
:102FB000A1FB034C4CF10003A0FB021C16EB0C061A
:102FC000654153F10003094218BF46F0010613F4AE
:102FD000007F0BD14FEA03314FEA0530340341EA59
:102FE000155140EA16506FF003020AE04FEAC32180
:102FF0004FEAC520F40241EA555140EA56506FF0BD
:10300000020202EB2E4201EB025585EACE710AD094
:103010005FEA440C18BF24F0004450F1000041F175
:10302000000120EAD47040F2FE7C624500D270BDFF
:10303000A84214BF4FF080444FF04044002E08BF18
:103040000024BEF1806FA8BFA1F1C041BDE870406F
:1030500080F282804FF0000001F1C04101F0004198
:1030600070479EEA0C0F0CEA131518BF95EA0C0F77
:1030700006D04FF0000081EA030E0EF0004170BD53
:1030800000F01CF88900013E00F007B800F009B814
:103090004FEA430C5FEA5C5C08D081EA030100F070
:1030A0005BB84FEA410C5FEA5C5CF6D14FF0000080
:1030B000014970470000FF070000F87F0EF1020E83
:1030C0002EF0030E5EF8046B364205D4012A43EB62
:1030D000030515F5001F12D8012841EB010C1CF562
:1030E000001F0CD80ED14FEAD17C15F5001F0CEB58
:1030F0004C0C0CF1020C08BF4CEBD37C04E04FF0FD
:10310000080C01E04FEAD37C0CEB4C0526FA05F6DF
:1031100006F00706B6F1040C06D20EEB860CBDE8ED
:1031200070404CF0010C6047DFE80CF0090B020224
:103130004FF000414FF00000A1F5002170BD19468D
:103140001046012851EB010418BFD4F5001484BFC8
:10315000002001F0004170BD0808A0F500114FEA01
:103160003101704791EA030F10B581F000413FF53E
:103170007BAC83F0004300F009B8000010B591EA81
:10318000030F48BF83F000433FF56EAC841A71EB28
:10319000030C07D212198CF0004C43EB0C03001BFC
:1031A00061EB0C01DFF8A4E14FEA1154A4EB135CCE
:1031B0001EEA430F18BF9EEA445F00F0B08023EA86
:1031C0006E03524221EA0451C3EB6E0338BF5B1E0B
:1031D000DCF1200E25D322FA0CFE10EB0E0043FA90
:1031E0000CFE41EB0E01CCF1200E03FA0EFE10EBAB
:1031F0000E0051F10001CCF1200E29D412FA0EF28A
:1032000001EB0451BDE8104058BF7047401C1CBF83
:10321000B2F1004F704700280CBF491C20F001009C
:10322000704712EB020E43EB030218BF4FF0010E82
:103230004EEA4202ACF1200CDCF11E0E54D943FAE6
:103240000CFE10EB0E0051F1FF31CCF11E0ED5D566
:103250000EF1010E12FA0EFE404141EB010101EBAD
:10326000445C5FEA5C5C10D910EBDE7001EB04514A
:1032700038BFBEF1004FBDE8104018BF70470028AE
:103280000CBF491C20F00100704730D24FEAD42C0B
:1032900011F5001124F400641BD0B1FA81F20B3A4D
:1032A000A41AA41ED2F12003914030FA03F319436B
:1032B000904001EBCC71002C01EB0451BDE81040B3
:1032C000A8BF704701F1C0414FF0000001F000417C
:1032D0007047B0FA80F310FA03F100D110BDE41A80
:1032E000173C4805C90AE4E701EB045110BD491039
:1032F00001EB0451BDE810404FEA300002E04FF00E
:10330000000170474A0008BF0042F8D0B2F5001F24
:1033100028BF704701F000414FF0000070479EEA5F
:10332000445F07D011EA5E0FBDE8104004BF0021E2
:1033300000207047BDE8104070B5FFF7BFFE00BF2A
:1033400040DFF63E83F00041104670470000E0FF8A
:1033500043004FEAD30C4FEA3C0C43401FBF4007E9
:103360000CF1605113F0FE4F70471CF0006F03D159
:1033700000200CF0004170470CF0004343EA50700D
:1033800010B540EACC0000F00EF800BF000000923B
:103390004FEA0001FFF7E0BE4FF000414FF00000A0
:1033A000A1F5002170470EF1020E2EF0030E5EF81B
:1033B000044B244204D44FEA4102B2F17F4F11D8AA
:1033C0004FEA4003B3F17F4F0CD80ED14FEAD07CC7
:1033D000B2F17F4F0CEB4C0C0CF1020C08BF4CEB24
:1033E000D17C04E04FF0080C01E04FEAD17C0CEBFB
:1033F0004C0324FA03F404F00704B4F1040C06D2DD
:103400000EEB840CBDE810404CF0010C6047DFE887
:103410000CF0070802024FF00040A0F5800010BD3C
:103420000846420018BFD2F1807288BF00F0004009
:1034300010BD4FF04070E1EE100A70473A044010A2
:10344000121432801716180419021A7A030A0C0C87
:1034500015003E007000710172117309A202110083
:103460007A207B1C7C287D3C7E557F68807681801D
:103470008288838F849685A386AF87C488D789E89E
:1034800013E0000010000D001420A505AB07247503
:10349000256326A59F78A068A103A6DFA7DFA8F073
:1034A000A990AA9413E50E610F4B16021E27210264
:1034B00022912907330B350B371D3871392A3C7897
:1034C0004D404E20695D6B8074198D4F8E008F00CA
:1034D00090009100920096009A80B084B10CB20ED8
:1034E000B382B80A431444F0453446584728483A52
:1034F00059885A885B445C675D495E0E64046520A8
:103500006605940495086C0A6D554F8050805100F3
:103510005222535E548009036E116F9F550056402E
:10352000578012103A143D80671168FF40C0328006
:103530001716180419021A7A030A0C0C15003E001B
:103540007000710172117309A20211007A207B1CB4
:103550007C287D3C7E557F68807681808288838F41
:10356000849685A386AF87C488D789E813E00000D6
:1035700010000D001420A505AB072475256326A5B2
:103580009F78A068A103A6DFA7DFA8F0A990AA945E
:1035900013E50E610F4B16021E2721022291290707
:1035A000330B350B371D3871392A3C784D404E208E
:1035B000695D6B4074198D4F8E008F0090009100F3
:1035C000920096009A80B084B10CB20EB382B80A11
:1035D000431444F0453446584728483A59885A8895
:1035E0005B445C675D495E0E640465206605940477
:1035F00095086C0A6D554F80508051005222535EE1
:10360000548009036E116F9F55005640578000008B
:1036100000000000000000000000000000000000AA
:10362000000000000000000000000000000000009A
:10363000000000000000000000000000000000008A
:10364000000000000000000000000000000000007A
:10365000000000000000000000000000000000006A
:10366000000000000000000000000000000000005A
:10367000000000000000000000000000000000004A
:103680004C5555555555A53F7751C1166CC156BF80
:103690009015CB19A001FA3EAD529C804F7E92BE90
:1036A000C4B1B4BD9EEE213ED43888BEE9FAA8BDAF
:1036B00000004054FB21F93F3163621A61B4D03DF0
:1036C0000000601A61B4D03D7370032E8A19A33BC9
:1036D0000000002E8A19A33BC14920259A837B391B
:1036E00000000000000000006E83F9A22915444E7E
:1036F000D15727FCC0DD34F5999562DB4190433CFE
:10370000AB6351FE61C5BBDE3A6E24B7E0D24D42D9
:10371000EA2E49061C92D1091CEB1DFE3EA729B1D9
:10372000F53582E88444BB2E26709CE9417E5FB467
:1037300039D69139F43953838B5F849C3B28F9BD8A
:10374000FF97F81F0F9805DE8B112FEF1F6D0A5A98
:10375000CF7E366DB709CB27663F464F2DEA5F9E79
:10376000C7BA27757BF1E5EBF739073DEA92528A34
:10377000B15FFB6B085D8D1FA6F810111111813F21
:10378000D561C119A0012ABF7DFEB157E31DC73E17
:10379000EB9C2B8AE6E55ABE7CD5CF5A3AD9E53D5B
:1037A000C0370008000000202C000000C401000801
:1037B000EC3700082C0000200CF40100E0010008A8
:1037C000000000000000000000000000FFFFFFFFFD
:1037D000FFFFFFFFFFFFFFFFFFFFFFFF00000000F5
:0C37E000000000000000000001000000DC
:040000050800018965
:00000001FF
