:020000040800F2
:1000000038F40120290200083702000839020008EC
:100010003B0200083D0200083F020008000000000B
:100020000000000000000000000000004102000885
:1000300043020008000000004502000847020008D3
:100040004902000849020008490200084902000864
:100050004902000849020008C904000849020008D2
:10006000FD04000831050008650500084902000884
:100070004902000849020008490200084902000834
:100080004902000849020008490200084902000824
:10009000490200084902000849020008B1050008A9
:1000A0004902000849020008490200084902000804
:1000B0004902000805160008490200084902000824
:1000C00049020008490200084902000849020008E4
:1000D00049020008251700084902000849020008E3
:1000E00049020008490200084902000849020008C4
:1000F00049020008490200084902000849020008B4
:100100004902000849020008411600084902000897
:100110004902000849020008490200084902000893
:100120004902000849020008490200084902000883
:100130004902000849020008490200084902000873
:100140004902000849020008490200084902000863
:100150004902000849020008490200084902000853
:100160004902000849020008490200084902000843
:100170004902000849020008490200084902000833
:10018000490200084902000800F002F800F03CF8BB
:100190000AA090E8000C82448344AAF10107DA45E2
:1001A00001D100F031F8AFF2090EBAE80F0013F0F8
:1001B000010F18BFFB1A43F001031847B4210000D8
:1001C000D4210000103A24BF78C878C1FAD8520769
:1001D00024BF30C830C144BF04680C6070470000C1
:1001E0000023002400250026103A28BF78C1FBD840
:1001F000520728BF30C148BF0B6070471FB501F0E0
:1002000090FF1FBD10B510BD00F092F81146FFF72A
:10021000F5FF01F0C3FB00F0B0F803B4FFF7F2FF05
:1002200003BC01F08FFA00000B48016841F4700133
:1002300001600A480047FEE7FEE7FEE7FEE7FEE74B
:10024000FEE7FEE7FEE7FEE7FEE70000044805499B
:10025000034A054B7047000088ED00E08901000863
:1002600038F0012038F4012038F00120704710B533
:10027000203AC0F00B80B1E81850203AA0E818509E
:10028000B1E81850A0E81850BFF4F5AF5FEA027C5F
:1002900024BFB1E81850A0E8185044BF18C918C0CE
:1002A000BDE810405FEA827C24BF51F8043B40F86F
:1002B000043B08BF7047D20728BF31F8023B48BF54
:1002C00011F8012B28BF20F8023B48BF00F8012B92
:1002D00070474FF0000200B5134694469646203909
:1002E00022BFA0E80C50A0E80C50B1F12001BFF4EF
:1002F000F7AF090728BFA0E80C5048BF0CC05DF855
:1003000004EB890028BF40F8042B08BF704748BFA2
:1003100020F8022B11F0804F18BF00F8012B704716
:10032000704770477047704700487047D8EF01200A
:100330007546FFF7F9FFAE4605006946534620F0C3
:100340000700854618B020B5FFF780FFBDE82040C4
:100350004FF000064FF000074FF000084FF0000B81
:1003600021F00701AC46ACE8C009ACE8C009ACE834
:10037000C009ACE8C0098D4670470446AFF3008061
:100380002046FFF74AFF00002DE9F05F0746884648
:100390000026B2460020444908604449C1F884025E
:1003A0000120434908600020086001203E490860A0
:1003B0003E49C1F88402002565E000245EE000208B
:1003C0003B4908603B48006800F0FF0901203749BD
:1003D000C1F8840200203649086001203349C1F881
:1003E0008402EA1705EB92729210A5EB8202AABB77
:1003F000E21704EB92729210A4EB820272BB4FEAF6
:10040000E47C04EB9C7C4FEAAC0CBC4534DB4FEA4B
:10041000E57C05EB9C7C4FEAAC0CC4452CDB4FEA39
:10042000E47C04EB9C7C4FEAAC0B07F1500CE345F9
:1004300022DA4FEAE57C05EB9C7C4FEAAC0B08F135
:100440003C0CE34518DA502E09DA0AEB8A001A4907
:1004500001EB001000F80690701C86B20CE000263C
:100460000AF101001FFA80FA0AEB8A00124901EB37
:10047000001000F80690761C601C84B2B4F5A07FD2
:100480009DDB681C85B2F02D97DB4FF496520A492C
:100490000A48FFF7ECFE4FF400700949086000209D
:1004A00008490870BDE8F09F9402424200004142B2
:1004B0008402414210140240B02500203000002088
:1004C000143C01400C00002010B50A2001F00EFA87
:1004D00007480068012807D10648006808B90120CC
:1004E00000E000200349086001200349086010BDB6
:1004F00000024042A0824242143C014010B50A2052
:1005000001F0F4F90748006838B90748006808B9ED
:10051000012000E00020044908600420034908602D
:1005200010BD000008024242A4824242143C014035
:1005300010B50A2001F0DAF90748006838B9074811
:10054000006808B9012000E0002004490860082084
:100550000349086010BD00000C024242A8824242DA
:10056000143C014010B50A2001F0C0F90C480068A5
:1005700088B90C48006808B9012000E0002009494A
:1005800008600948D0F8A80208B9012000E000205E
:100590000449091D086010200449086010BD0000CE
:1005A00010024242A482424200804242143C014076
:1005B00010B51348006800F40070D8B111480078F5
:1005C000022817DA0F48007860B900200E49086049
:1005D000012001F0A7F901200C49C1F88C020C4957
:1005E000086002E000200A49086006480078401CC4
:1005F000044908704FF400700149086010BD000004
:10060000143C01400C0000208C0242420000424297
:100610008C02414210B502220921052000F008F8A1
:10062000022317220021084600F030FB10BD000015
:10063000F0B503460846CD1701EB9575AD10A1EB5B
:100640008505AD062C0E2448006840F48040224DFC
:100650002860CD1701EB9575AE10204D55F826504A
:100660000F26A640B5430846CE1701EB9676B71085
:100670001A4E46F82750CD1701EB9575AE10174D61
:1006800055F8265003FA04F63543CE1701EB96765B
:10069000B710124E46F827501148006801258D40CA
:1006A00028430F4D286002F0010040B10C480C3087
:1006B000006801258D402843094D0C35286002F063
:1006C000020040B106480830006801258D402843EB
:1006D000034D08352860F0BD443802400838014019
:1006E000003C014030B5CC1000F1200353F8243019
:1006F0004C07E50E0F24AC40A343CD1000F12004BD
:1007000044F82530CC1000F1200353F824304C0776
:10071000E40E02FA04F42343CD1000F1200444F85F
:10072000253030BD2DE9F0470C46DDE90867002192
:1007300000258C4600BF60E04FF0010808FA01F583
:1007400004EA050CAC4557D1D0F800804FEA410AC5
:100750004FF0030909FA0AF928EA0908C0F80080ED
:10076000D0F800804FEA410902FA09F948EA09087D
:10077000C0F80080012A01D0022A27D1D0F80880D1
:100780004FEA410A4FF0030909FA0AF928EA090871
:10079000C0F80880D0F808804FEA410906FA09F944
:1007A00048EA0908C0F80880D0F804904FF0010822
:1007B00008FA01F829EA0809C0F80490D0F8048082
:1007C00003FA01F948EA0908C0F80480D0F80C805F
:1007D0004FEA410A4FF0030909FA0AF928EA090821
:1007E000C0F80C80D0F80C804FEA410907FA09F9EB
:1007F00048EA0908C0F80C80491C10299CD3BDE8C0
:10080000F08700002DE9F0472DED068BADF5407D1A
:10081000002714E000202DF8170080A9C8559FED8F
:10082000880A884800EB870080ED000A9FED840A63
:10083000854800EB870080ED000A781C87B2FF2F07
:10084000E8DD002545E000243FE0804A1268AA1A4E
:1008500052437F4B1B68E31ADFF8F4C1DCF800C099
:10086000A4EB0C0C03FB0C237A4A1168CA1701EBAA
:100870005272DFF8E0C1DCF800C0ACEBE202DFF856
:10088000D4C1DCF800004FEAE07C00EB5C7CDFF8D0
:10089000C4A1DAF800A0AAEBEC0C02FB0CF2934224
:1008A00011DA05EB85006C4901EB0010005D3DF8A5
:1008B0001000401C80B205EB8501674A02EB011174
:1008C000095D2DF81100601C84B2502CBDDB681C42
:1008D00085B23C2DB7DB4FF0000812E03DF8180060
:1008E00000EE100AB8EE400ADFED5C0A80EE201A36
:1008F000544800EB880080ED001A08F101001FFA4F
:1009000080F8B8F1FF0FE9DD00261FE056B94D4829
:1009100000EB860090ED000A4B4800EB860080ED6E
:10092000000A11E0701E484901EB800090ED000ABA
:10093000444800EB8600D0ED000A30EE200A08465D
:1009400000EB860080ED000A701C86B2FF2EDDDD14
:100950004FF0000924E03C4800EB890090ED000ACC
:1009600010EE101A084601F06BFB41EC1A0B9FEDDC
:100970003C0B53EC102B01F07BF941EC190B9FED74
:100980003A0B53EC102B01F09DF841EC180B01F0E1
:1009900041F980A901F8090009F101001FFA80F965
:1009A000B9F1FF0FD7DD002541E000243BE0274AE5
:1009B0001268AA1A5243264B1B68E31ADFF890C04C
:1009C000DCF800C0A4EB0C0C03FB0C23214A1168DB
:1009D000CA1701EB5272DFF87CC0DCF800C0ACEB48
:1009E000E202DFF870C0DCF800004FEAE07C00EBC8
:1009F0005C7CDFF860A0DAF800A0AAEBEC0C02FB4C
:100A00000CF293420DDA05EB8500134901EB00105F
:100A1000005D80A9085C05EB85010F4A02EB01111E
:100A20000855601C84B2502CC1DB681C85B23C2D7B
:100A3000BBDB0DF5407DBDEC068BBDE8F08700000B
:100A400000000000B4E70120B4EB012014000020F6
:100A50001000002018000020300000200000964503
:100A60000000000000E06F40000000000000E03FD8
:100A700038B500201E490870487088701D480078FD
:100A8000C870002411E000250CE004EB84001A4932
:100A900001EB0010415D502000FB0450001D144A82
:100AA00011546D1C502DF0DB641C3C2CEBDB41F22F
:100AB000C4200F4B114A04210090114800F042F865
:100AC00080200E49091F888241F2C4210C4800F0A1
:100AD000CDF80B48B438006800F0006038B1084821
:100AE000AC38006840F000600549AC39086038BD9A
:100AF0007038002020000020300000200410014049
:100B0000B86402401CB50B48006840F02000094959
:100B100008600120032100230246CDE900104902AC
:100B20000548FFF7FFFD0120044908600449C1F8AA
:100B3000A8021CBD3038024000140240A482424288
:100B4000008042422DE9F0410C461546069E444F76
:100B5000B84209D93946434F3F6847F48007DFF868
:100B600004C1CCF8007008E03F493E4F3F6847F4AD
:100B70000017DFF8F0C0CCF8007000BF076807F07E
:100B80000107002FFAD1471A103F4FF0180CB7FB9E
:100B9000FCF7FAB2062A10DBCF68A2F1060C0CEBC8
:100BA0004C0C4FEA4C0C0CF1100C4FF03D0808FABD
:100BB0000CF847EA0807CF602FE0042A0EDBCF6865
:100BC000A2F1040C0CEB4C0C4FEA4C084FF03D0C1E
:100BD0000CFA08FC47EA0C07CF601EE0022A10DB83
:100BE0008F68A2F1020C0CEB4C0C4FEA4C0C0CF190
:100BF000100C4FF03D0808FA0CF847EA08078F6020
:100C00000BE08F6802EB420C4FEA4C084FF03D0CB2
:100C10000CFA08FC47EA0C078F608560C3604660E9
:100C200000270760076847F040070760076807600C
:100C300007680760076847F4806707600768076010
:100C400007680760076847F4803707600768076030
:100C500007680760076847EA44670760BDE8F081F6
:100C6000006402403038024000600240026822F016
:100C70000102026000BF026802F00102002AFAD1FC
:100C80004160026842F00102026070472DE9F041C4
:100C90000746884614461D46284600F033F8C5F13D
:100CA000040007FA00F60F20284100EA0800064376
:100CB00006F00F06E21704EBD2625211920002F125
:100CC000E022D2F800212146E31704EBD3635B1145
:100CD000A4EB431C012303FA0CF31A432046E31749
:100CE00004EBD3635B119B0003F1E023C3F8002105
:100CF0000348005D40EA061001490855BDE8F0814F
:100D000000E400E00146072323EA01021202054B3A
:100D100018684FF6FF031840034B18431043014B6C
:100D2000186070470CED00E00000FA054A0A520214
:100D30000243014B1A60704708ED00E07CB50025C6
:100D40004C48006840F001004A49086008460068C5
:100D500040F0040008600846006840F01000086099
:100D60000846006840F020000860022000210B4681
:100D70000A46CDE9001001023F48FFF7D3FC3E4888
:100D80001430006840F400703B49143108600120C1
:100D9000032100230246CDE900100A213748FFF75E
:100DA000C1FC36481430006840F00A003349143161
:100DB0000860022000210B460A46CDE90010FF2101
:100DC0002D48FFF7AFFC2C481430006840F0FF00BE
:100DD0002949143108600120032100230246CDE98E
:100DE000001028212648FFF79DFC2548406940F067
:100DF0002800234948610120032100230246CDE950
:100E0000001041031D48FFF78DFC4FF400501B49B3
:100E10001431086000F0ACF88021122000F0D6F9FF
:100E200008B101207CBD322000F060FD0B2000F0F5
:100E30001DF90446732C01D00220F3E70A2000F0CC
:100E400015F90446762C01D00220EBE700250DE0D1
:100E50000C4A02EB450251780A4A12F8150000F0DC
:100E6000B5F9022000F042FD681C85B2AE2DEFD32B
:100E70000020D7E73038024000140240000802404A
:100E800000100240122200082DE9F0410446E72537
:100E900000260027012C06D0022C08D0032C0AD0F3
:100EA000042C10D10BE0E5255A265C270BE0E52544
:100EB0005826602707E0E52584264C2703E0E52532
:100EC0009626402700BF00BF2946132000F07EF978
:100ED0003146012000F07AF93946022000F076F917
:100EE000BDE8F0812DE9F04705460E46904699464B
:100EF00005EB48001FFA80FA06EB490087B2B7F508
:100F0000447F02DDA7F5447087B2032000F0AEF8FD
:100F1000044604F0F0040AF00301284661F39F0040
:100F200004432146032000F051F9C5F3870119203D
:100F300000F04CF9CAF387011A2000F047F932207B
:100F400000F094F8044604F0C00407F007013046AE
:100F500061F3DF000443C6F3C701172000F036F940
:100F6000C7F3C701182000F031F9BDE8F087000091
:100F70001CB51048006840F010000E4908600120C0
:100F8000022100230246CDE9001050210A48FFF754
:100F9000C9FB0948406940F05000074948610846CC
:100FA000006820F4405008600846006840F4805013
:100FB00008601CBD303802400010024010B5782097
:100FC00000F0B0FC01200B4908600B49C1F8900209
:100FD000782000F0A7FC0020064908390860782036
:100FE00000F0A0FC00200449C1F89802782000F02D
:100FF00099FC10BD980242420000424270B50024A4
:101000001748006820F440501549086008460068F9
:101010000860082515E0782000F084FC01201149C3
:1010200008606006040E1048D0F8180208B1601C71
:10103000C4B2782000F076FC00200A490860681EDF
:10104000C5B2002DE7DC0648006820F44050044992
:1010500008600846006840F480500860204670BD73
:1010600000100240900242420000424270B5044625
:10107000002500F023F8422000F054F8DC2000F0B6
:1010800051FC204600F04EF8DC2000F04BFC00F054
:101090002FF8DC2000F046FC00F010F8432000F0B0
:1010A00041F8DC2000F03EFCFFF7A8FF0546FFF703
:1010B00085FF00F01DF8284670BD000010B5012026
:1010C000094908600949C1F89002782000F02AFC1B
:1010D000002005490860782000F024FC0020034926
:1010E000C1F8900210BD0000980242420000424246
:1010F00010B5002009490860782000F013FC012099
:101100000749C1F89002782000F00CFC0120034947
:101110000860782000F006FC10BD000098024242F2
:101120000000424270B5044600261BE004F0800037
:1011300018B101202249086002E00020204908601F
:101140006006040E782000F0EDFB01201C490839F0
:101150000860782000F0E6FB00201A49C1F89002F0
:10116000701CC6B2082EE1DB1748006820F440501E
:1011700015490860084600680860782000F0D2FB36
:1011800001200F4908390860782000F0CBFB0D489A
:10119000D0F8180208B1012500E000250020084918
:1011A000083908600848006820F440500649086083
:1011B0000846006840F480500860284670BD000072
:1011C00098024242000042420010024070B50546BB
:1011D0000C460026FFF772FF4220FFF7A3FF00B185
:1011E0000126DC2000F09EFB2846FFF79BFF00B1A4
:1011F0000126DC2000F096FB2046FFF793FF00B1AC
:101200000126FFF775FF304670BD00002DE9F0475D
:101210004FF000094FF4965292499348FFF727F890
:101220000125C2E00124BCE0904A1268AA1A524388
:101230008F4B1B68E31ADFF838C2DCF800C0A4EB60
:101240000C0C03FB0C238B4A1168CA1701EB52727A
:10125000DFF820C2DCF800C0ACEBE202DFF814C219
:10126000DCF800004FEAE07C00EB5C7CDFF804A2D5
:10127000DAF800A0AAEBEC0C02FB0CF293427DDA48
:10128000691C01EB8101784A02EB0112611E525C7C
:10129000691C01EB8101744B03EB0111095D022311
:1012A00013FB0122691C01EB81016F4B03EB01135E
:1012B000611C595C0A44691E01EB81016A4B03EB16
:1012C0000113611E5B5C691E01EB8101DFF898C1AF
:1012D0000CEB0111095D4FF0020C1CFB0133691E80
:1012E00001EB8101DFF880C10CEB011C611C1CF8D3
:1012F00001101944501A002801DB014600E0414268
:10130000CFB2691E01EB8101574A02EB0112611E47
:10131000525C05EB8501544B03EB0113611E595CD4
:10132000022313FB0122691C01EB81014E4B03EBED
:101330000113611E595C0A44691E01EB81014A4B8D
:1013400003EB0113611C5B5C05EB8501DFF818C141
:101350000CEB011C611C1CF801104FF0020C1CFB73
:101360000133691C01EB8101DFF8FCC00CEB011CAF
:10137000611C1CF801101944501A00E010E000280C
:1013800001DB014600E0414201F0FF0809F10109DB
:1013900008EB070005EB8501324A02EB0111085505
:1013A000641C4F2CFFF640AF6D1C3B2DFFF63AAF8F
:1013B00048469FED310A00F0F3F90646012548E062
:1013C000012443E0294A1268AA1A5243284B1B6899
:1013D000E31ADFF89CC0DCF800C0A4EB0C0C03FBA4
:1013E0000C23244A1168CA1701EB5272DFF884C03B
:1013F000DCF800C0ACEBE202DFF878C0DCF80000FB
:101400004FEAE07C00EB5C7CDFF868A0DAF800A033
:10141000AAEBEC0C02FB0CF2934216DA05EB85000A
:10142000164901EB0010005DB04207DDFF2005EB1F
:1014300085010C4A02EB0111085506E0002005EB7E
:101440008501084A02EB01110855641C4F2CB9DBD9
:101450006D1C3B2DB4DB4FF496510348FEF739FF6A
:10146000BDE8F08730000020F012002014000020BA
:101470001000002018000020CDCCCC3DB02500206D
:10148000F0B504460D4616461F461448006840F065
:1014900001001249086000201049083108600F4817
:1014A00000680F4908400D4908600E48091D086092
:1014B000081F006820F48020091F086000200749E9
:1014C0000C3108603B4632462946204600F00CF8B5
:1014D00000210846FFF72AFCF0BD0000003802405A
:1014E000FFFFF6FE10300024F0B504460D46002143
:1014F00000203D4E366846F480363B4F3E6001E0AA
:101500004E1CB1B2384E366806F400361EB941F6AC
:10151000FF76B142F4DB41F6FF76B14201D1012002
:1015200060E0314E4036366846F080562E4F4037E8
:101530003E602E4E366846F440462C4F3E602A4EA2
:101540000836366846F41446274F08373E60264E64
:10155000366826F08076244F3E6045EA84160127DF
:10156000C7EB520746EA074646EA036646F480069A
:101570001D4F3F1D3E603E1F366846F080763F1F80
:101580003E6000BF184E366806F00076002EF9D097
:10159000174E366846F48076154F3E603E463668F4
:1015A00046F400763E603E46366846F480663E600D
:1015B0003E46366846F005063E600B4E08363668F5
:1015C00026F00306084F08373E603E46366846F070
:1015D00002063E6000BF044E0836366806F00C0670
:1015E000082EF8D1F0BD0000003802400070004025
:1015F000003C024001480249086070470400FA05B7
:101600000CED00E00B48008800F0010050B10A48E2
:10161000006808B9012000E00020074908600020A8
:10162000064908700348008820F00100014908803D
:101630007047000010040040A882424204000020CD
:10164000354908883549097801F0800100295ED1C3
:1016500000F00101D1B13149097801F04001A9B18F
:101660002E49097801F03F013F290AD12B49097819
:1016700041F08001294A11704FF0FF31284A116072
:1016800004E026490978491C244A117000F002013F
:10169000E9B32249097801F0400199B11F4909785D
:1016A00041F080011D4A11701B49243109681C4A10
:1016B000116019491031098821F00201164A1032CF
:1016C000118024E00021154A1170154A1160134958
:1016D000097841F04001114A11700F491039098809
:1016E00021F001010C4A103A118000210A4A1432FB
:1016F0001160111F098841F00201121F1180064973
:101700001039098841F00101034A103A1180002183
:10171000014A118070470000100C004005000020B5
:101720000800002010B50648008800F0200030B105
:1017300003488088C4B22A2C01D1FFF75BFF10BD9B
:1017400000100140014600BF7047000010B507239C
:10175000022208214FF4A870FFF792FEA82000F0A3
:10176000A5F84FF4E131542000F02CF9FFF7E6FA28
:1017700040F6AC5000F0BAF8FFF7C4F90020FFF7CC
:1017800083FBFEF747FF4FF4A073F022AE210A203F
:10179000FFF7A8FB00200149086010BDB4024142D8
:1017A0002DE9F047ADF5007D034600EE903AF8EEE6
:1017B000E00A60EE800AFCEEE00A10EE900A87B2C2
:1017C000002103E000202DF81100491CFF29F9DD5C
:1017D00001214EE0012249E0DFF8C0C0DCF800C082
:1017E000A1EB0C0C0CFB0CFCDFF8B480D8F80080EB
:1017F000A2EB0808DFF8A890D9F80090A2EB09093D
:1018000008FB09C8DFF89CC0DCF800604FEAE67C02
:1018100006EB5C7CDFF88C90D9F80090A9EBEC0C1F
:10182000DFF88090D9F800004FEAE07900EB5979B1
:10183000DFF870A0DAF800A0AAEBE9090CFB09FCBC
:10184000E04512DA01EB8100174E06EB0010805CD8
:101850003DF81000401C80B201EB8106DFF848C063
:101860000CEB0616B65C2DF81600521C4F2AB3DBA3
:10187000491C3B29AEDB00240025FF2105E03DF893
:101880001100204484B26D1C491EBC42F7DBC5F137
:10189000FF000DF5007DBDE8F0870000140000207A
:1018A0001000002018000020300000204FF0E02140
:1018B000096921F004014FF0E0221161C21700EB29
:1018C0005272C2F3C702074B1A701946097801EB2E
:1018D0004102C2EBC1114FF6FF7202EAC101024A96
:1018E00011807047000000200200002070B50446FF
:1018F0004FF4077094FBF0F0C6B24FF4077094FBFE
:10190000F0F100FB114085B205E04FF4077000F0E4
:1019100027F8701EC6B2002EF7D115B1284600F088
:101920001FF870BD01460D4A12784A434FF0E0237C
:101930005A6100229A6101221A6100BF4FF0E02231
:10194000106900F001021AB100F48032002AF5D0CB
:1019500000224FF0E0231A619A61704700000020D6
:1019600001460D4A12884A434FF0E0235A61002293
:101970009A6101221A6100BF4FF0E022106900F065
:1019800001021AB100F48032002AF5D000224FF093
:10199000E0231A619A61704702000020FFF7D6FE2B
:1019A0000DE007480078022809D100210846FEF71B
:1019B000EBFCFEF727FFFFF729FCFFF759F8F0E7EC
:1019C0000C000020F0B52DED028B83B005460E46CD
:1019D000384905FB01F000EE100AF8EE400A30012C
:1019E00000EE100AB8EE400A80EE801AB0EE418A8E
:1019F000BCEEC80A10EE100A84B200EE104AB8EE2F
:101A0000400A38EE400AF3EE000A20EE200ABCEE4F
:101A1000C00A10EE107A4FF6FF7000EA0414E019C5
:101A200084B22548006840F001002349086022483C
:101A30001430006840F010001F4914310860012084
:101A4000022100230A46CDE900104FF4C0611B4873
:101A5000FEF768FE072209211848FEF743FE072219
:101A60000A211648FEF73EFE15480481808920F4BD
:101A70000040134988810846808940F00800888129
:101A80000846808940F0040088810846808940F03B
:101A9000200088810223252203210846FFF7F6F85B
:101AA0000748808940F400500549888103B0BDECA7
:101AB000028BF0BD40420F0030380240000002406F
:101AC0000010014010B591EA030F48BF83F00043B6
:101AD00000F1D481841A71EB030C05D2121943EB87
:101AE0000C03001B61EB0C01DFF824E14FEA1154F9
:101AF000A4EB135C1EEA430F18BF9EEA445F73D049
:101B000023EA0E03DCF1200E21EA045143F4801392
:101B100032D322FA0CFE10EB0E0023FA0CFE41EB3E
:101B20000E01CCF1200E03FA0EFE10EB0E0051F167
:101B30000001B1F5801FCCF1200E32D201EB04512F
:101B400012FA0EF2BDE8104058BF7047401C38BF73
:101B50005FEA420218BF7047002814BF20F001005E
:101B600041F100014FEA410313F5001F38BF7047F0
:101B7000A1F1C04100F074B9012A43EB0302ACF1BA
:101B8000200CDCF11F0E32BF4FF0000E23FA0CF3D5
:101B900010EB030041EB0451B4EB115FD0D0A1EB8B
:101BA000045101F5801149085FEA300001EB04514E
:101BB0000ED350F1000038BF12FA0EFE08D1BDE876
:101BC0001040C9E7401C38BF5FEA4202CAD1C3E7F0
:101BD000BDE810404FEA410313F5001F38BF7047BE
:101BE000A1F1C04100F03CB99EEA445F08D011EA7F
:101BF0005E0FBDE8104004BF01F0004100207047B7
:101C0000BDE8104070B500F0DDF800BF64FBBE3EDB
:101C10000000E0FF4FEA1153A3F58063D3F11E03E8
:101C2000A8BFD3F1200C08DB4FF0004242EAC122EA
:101C300052EA505232FA03F0704709420BD4102B8B
:101C4000C4BF0020704703F5787CBCF1FF3F05D08E
:101C50004FF0FF3070474FF00000704770B500F054
:101C6000B1F800BF4992248000207047F0E70000DF
:101C7000DFF848C170B51CEA111E1EBF1CEA13151F
:101C80009EEA0C0F95EA0C0F00F06F8081EA0304C6
:101C900023EA4C134EEAD47E21EA4C1141F4801120
:101CA00043F48013AE44A1FB024CA0FB0365AEF1EC
:101CB0007F7E361955EB0C05A1FB034C4CF100035C
:101CC000A0FB021C16EB0C06654153F10003094210
:101CD00018BF46F0010613F4007F0BD14FEA033121
:101CE0004FEA0530340341EA155140EA16506FF0CF
:101CF00003020AE04FEAC3214FEAC520F40241EA99
:101D0000555140EA56506FF0020202EB2E4201EBB1
:101D1000025585EACE710AD05FEA440C18BF24F060
:101D2000004450F1000041F1000120EAD47040F27B
:101D3000FE7C624500D270BDA84214BF4FF08044C3
:101D40004FF04044002E08BF0024BEF1806FA8BFB2
:101D5000A1F1C041BDE8704080F282804FF00000E8
:101D600001F1C04101F0004170479EEA0C0F0CEAFE
:101D7000131518BF95EA0C0F06D04FF0000081EA4A
:101D8000030E0EF0004170BD00F01CF88900013E0A
:101D900000F007B800F009B84FEA430C5FEA5C5C5A
:101DA00008D081EA030100F05BB84FEA410C5FEA1A
:101DB0005C5CF6D14FF00000014970470000FF075E
:101DC0000000F87F0EF1020E2EF0030E5EF8046B99
:101DD000364205D4012A43EB030515F5001F12D83E
:101DE000012841EB010C1CF5001F0CD80ED14FEA65
:101DF000D17C15F5001F0CEB4C0C0CF1020C08BF4C
:101E00004CEBD37C04E04FF0080C01E04FEAD37CAC
:101E10000CEB4C0526FA05F606F00706B6F1040CA5
:101E200006D20EEB860CBDE870404CF0010C60470A
:101E3000DFE80CF0090B02024FF000414FF0000008
:101E4000A1F5002170BD19461046012851EB01048F
:101E500018BFD4F5001484BF002001F0004170BD0C
:101E60000808A0F500114FEA3101704710B591EA5A
:101E7000030F48BF83F000433FF52CAE841A71EB8B
:101E8000030C07D212198CF0004C43EB0C03001B1F
:101E900061EB0C01DFF8A4E14FEA1154A4EB135CF1
:101EA0001EEA430F18BF9EEA445F00F0B08023EAA9
:101EB0006E03524221EA0451C3EB6E0338BF5B1E2E
:101EC000DCF1200E25D322FA0CFE10EB0E0043FAB3
:101ED0000CFE41EB0E01CCF1200E03FA0EFE10EBCE
:101EE0000E0051F10001CCF1200E29D412FA0EF2AD
:101EF00001EB0451BDE8104058BF7047401C1CBFA7
:101F0000B2F1004F704700280CBF491C20F00100BF
:101F1000704712EB020E43EB030218BF4FF0010EA5
:101F20004EEA4202ACF1200CDCF11E0E54D943FA09
:101F30000CFE10EB0E0051F1FF31CCF11E0ED5D589
:101F40000EF1010E12FA0EFE404141EB010101EBD0
:101F5000445C5FEA5C5C10D910EBDE7001EB04516D
:101F600038BFBEF1004FBDE8104018BF70470028D1
:101F70000CBF491C20F00100704730D24FEAD42C2E
:101F800011F5001124F400641BD0B1FA81F20B3A70
:101F9000A41AA41ED2F12003914030FA03F319438E
:101FA000904001EBCC71002C01EB0451BDE81040D6
:101FB000A8BF704701F1C0414FF0000001F000419F
:101FC0007047B0FA80F310FA03F100D110BDE41AA3
:101FD000173C4805C90AE4E701EB045110BD49105C
:101FE00001EB0451BDE810404FEA300002E04FF031
:101FF000000170474A0008BF0042F8D0B2F5001F48
:1020000028BF704701F000414FF0000070479EEA82
:10201000445F07D011EA5E0FBDE8104004BF002105
:1020200000207047BDE8104070B5FFF7CBFE00BF41
:1020300040DFF63E83F00041104670470000E0FFAD
:1020400043004FEAD30C4FEA3C0C43401FBF40070C
:102050000CF1605113F0FE4F70471CF0006F03D17C
:1020600000200CF0004170470CF0004343EA507030
:1020700010B540EACC0000F00EF800BF000000925E
:102080004FEA0001FFF7ECBE4FF000414FF00000B7
:10209000A1F5002170470EF1020E2EF0030E5EF83E
:1020A000044B244204D44FEA4102B2F17F4F11D8CD
:1020B0004FEA4003B3F17F4F0CD80ED14FEAD07CEA
:1020C000B2F17F4F0CEB4C0C0CF1020C08BF4CEB47
:1020D000D17C04E04FF0080C01E04FEAD17C0CEB1E
:1020E0004C0324FA03F404F00704B4F1040C06D200
:1020F0000EEB840CBDE810404CF0010C6047DFE8AB
:102100000CF0070802024FF00040A0F5800010BD5F
:102110000846420018BFD2F1807288BF00F000402C
:1021200010BD4FF04070E1EE100A70473A044010C5
:10213000121432801716180419021A7A030A0C0CAA
:1021400015003E007000710172117309A2021100A6
:102150007A207B1C7C287D3C7E557F688076818040
:102160008288838F849685A386AF87C488D789E8C1
:1021700013E0000010000D001420A505AB07247526
:10218000256326A59F78A068A103A6DFA7DFA8F096
:10219000A990AA9413E50E610F4B16021E27210287
:1021A00022912907330B350B371D3871392A3C78BA
:1021B0004D404E20695D6B8074198D4F8E008F00ED
:1021C00090009100920096009A80B084B10CB20EFB
:1021D000B382B80A431444F0453446584728483A75
:1021E00059885A885B445C675D495E0E64046520CB
:1021F0006605940495086C0A6D554F805080510017
:102200005222535E548009036E116F9F5500564051
:10221000578012103A143D80671168FF40C0328029
:102220001716180419021A7A030A0C0C15003E003E
:102230007000710172117309A20211007A207B1CD7
:102240007C287D3C7E557F68807681808288838F64
:10225000849685A386AF87C488D789E813E00000F9
:1022600010000D001420A505AB072475256326A5D5
:102270009F78A068A103A6DFA7DFA8F0A990AA9481
:1022800013E50E610F4B16021E272102229129072A
:10229000330B350B371D3871392A3C784D404E20B1
:1022A000695D6B4074198D4F8E008F009000910016
:1022B000920096009A80B084B10CB20EB382B80A34
:1022C000431444F0453446584728483A59885A88B8
:1022D0005B445C675D495E0E64046520660594049A
:1022E00095086C0A6D554F80508051005222535E04
:1022F000548009036E116F9F5500564057800000AF
:1023000000000000000000000000000000000000CD
:1023100000000000000000000000000000000000BD
:1023200000000000000000000000000000000000AD
:10233000000000000000000000000000000000009D
:10234000000000000000000000000000000000008D
:10235000000000000000000000000000000000007D
:10236000000000000000000000000000000000006D
:10237000902300080000002030000000C401000885
:10238000C02300083000002008F40100E00100082C
:10239000000000000000000000000000000000003D
:1023A000000000000000000000000000000000002D
:1023B000FFFFFFFF00000000000000000000000021
:040000050800018965
:00000001FF
