:020000040800F2
:10000000F8240120290200083702000839020008FC
:100010003B0200083D0200083F020008000000000B
:100020000000000000000000000000004102000885
:1000300043020008000000004502000847020008D3
:100040004902000849020008490200084902000864
:100050004902000849020008490200084902000854
:1000600049020008652E00084902000849020008FC
:100070004902000849020008490200084902000834
:100080004902000849020008490200084902000824
:10009000490200084902000849020008252E00080C
:1000A0004902000849020008490200084902000804
:1000B00049020008992D0008490200084902000879
:1000C00049020008490200084902000849020008E4
:1000D00049020008352600084902000849020008C4
:1000E00049020008490200084902000849020008C4
:1000F00049020008490200084902000849020008B4
:1001000049020008490200084902000849020008A3
:100110004902000849020008490200084902000893
:100120004902000849020008490200084902000883
:100130004902000849020008490200084902000873
:100140004902000849020008490200084902000863
:100150004902000849020008490200084902000853
:100160004902000849020008490200084902000843
:100170004902000849020008490200084902000833
:10018000490200084902000800F002F800F03CF8BB
:100190000AA090E8000C82448344AAF10107DA45E2
:1001A00001D100F031F8AFF2090EBAE80F0013F0F8
:1001B000010F18BFFB1A43F001031847A4480000C1
:1001C000C4480000103A24BF78C878C1FAD8520752
:1001D00024BF30C830C144BF04680C6070470000C1
:1001E0000023002400250026103A28BF78C1FBD840
:1001F000520728BF30C148BF0B6070471FB504F0DD
:1002000076FA1FBD10B510BD02F0CEFF1146FFF704
:10021000F5FF00F043F802F0ECFF03B4FFF7F2FF44
:1002200003BC02F0F9F900000B48016841F47001C9
:1002300001600A480047FEE7FEE7FEE7FEE7FEE74B
:10024000FEE7FEE7FEE7FEE7FEE70000044805499B
:10025000034A054B7047000088ED00E08901000863
:10026000F8200120F8240120F820012010B50021F9
:10027000084600F08FF800F022F900F0D7FB01F0FB
:10028000BAF901F03AF81C480068052805DD00209D
:100290001A49086006201A49086010BD00F034F8B9
:1002A00029E000BF174800780028FBD013487C38AD
:1002B000006800BB0021084600F06CF800F0FFF871
:1002C00000F0B4FB00F00CFD01F0FCF801F022F8A6
:1002D00004E0012009490860FFF7C8FF08480068EA
:1002E000002808DB06480068062804DA03487C3842
:1002F00000680028EDD0D4E7100000208882414239
:100300000C0000201C00002010B507230222082149
:100310004FF4A87002F038F9A82001F0D7FE4FF48E
:10032000E131542002F094F902F016FA4FF47A7099
:1003300001F020FF002002F0ABFA4FF4A073F0228E
:10034000AE210A2002F076FB0020FE49086002F090
:10035000B4FD02F083FE02F0BDFD41F6E74144F634
:100360001F6002F0EFFC10BD0821F74A116040B198
:10037000F5491439096821F00801F34A143A11606B
:1003800007E0F1491439096841F00801EE4A143ACE
:10039000116070472DE9F05F074688460026B24697
:1003A00072B60020E9490860E949C1F884020120D9
:1003B000E44930390860002008600120E349086002
:1003C000E349C1F88402002567E0002460E00020D2
:1003D000DC4930390860DF48006800F0FF0901207F
:1003E000DB49C1F884020020D64930390860012079
:1003F000D749C1F88402EA1705EB92729210A5EB77
:100400008202AABBE21704EB92729210A4EB820262
:1004100072BB4FEAE47C04EB9C7C4FEAAC0CBC451D
:1004200034DB4FEAE57C05EB9C7C4FEAAC0CC44521
:100430002CDB4FEAE47C04EB9C7C4FEAAC0B07F12D
:10044000500CE34522DA4FEAE57C05EB9C7C4FEA51
:10045000AC0B08F13C0CE34518DA502E09DA0AEB34
:100460008A00BD4901EB001000F80690701C86B2AE
:100470000CE000260AF101001FFA80FA0AEB8A005C
:10048000B54901EB001000F80690761C601C84B2A0
:10049000B4F5A07F9BDB681C85B2F02D95DB4FF493
:1004A0009652AD49AD4802F00EFE4FF40070A649D9
:1004B00008600020AA49087062B6BDE8F09F2DE9E7
:1004C000F05F2DED068B4FF0000A00270EE00020B4
:1004D000A44921F81700A449C8559FEDA40AA448CF
:1004E00000EB870080ED000A781C87B2FF2FEEDD5D
:1004F00000244DE0002547E09E4A1268A21A9D4B59
:100500001B68E31A5A439C4B1B68EB1ADFF868C25E
:10051000DCF800C0A5EB0C0C03FB0C23974A116818
:10052000CA1701EB5272DFF854C2DCF800C0ACEB22
:10053000E202DFF848C2DCF800004FEAE07C00EBA2
:100540005C7CDFF838B2DBF800B0ABEBEC0C02FB04
:100550000CF2934216DA04EB8400804901EB0010A0
:10056000405D804931F81000401C04EB84017B4A57
:1005700002EB0111495D7B4A22F811000AF10100EA
:100580001FFA80FA681C85B2502DB5DB601C84B25E
:100590003C2CAFDB4FF0000815E0724830F8180033
:1005A00000EE100AF8EE400A00EE10AAB8EE400A7B
:1005B00080EE801A6E4800EB880080ED001A08F18A
:1005C00001001FFA80F8B8F1FF0FE6DD012613E005
:1005D000701E674901EB800090ED000A084600EBB1
:1005E0008600D0ED000A30EE200A084600EB8600B7
:1005F00080ED000A701C86B2B6F5807FE8DD4FF012
:10060000000926E05A4A09F1010002EB800090ED52
:10061000000A10EE101A084603F0F8FF41EC1A0B1E
:100620009FED570B53EC102B03F0C6FD41EC190B5B
:100630009FED550B53EC102B03F0EEFA41EC180B29
:1006400003F026FD484901F8090009F101001FFAED
:1006500080F9B9F1FF0FD5DD002444E000253EE02C
:10066000444A1268A21A434B1B68E31A5A43424B8E
:100670001B68EB1ADFF800C1DCF800C0A5EB0C0C1E
:1006800003FB0C233D4A1168CA1701EB5272DFF8D5
:10069000ECC0DCF800C0ACEBE202DFF8E0C0DCF854
:1006A00000004FEAE07C00EB5C7CDFF8D0B0DBF8C8
:1006B00000B0ABEBEC0C02FB0CF293420DDA04EB56
:1006C0008400264901EB0010405D2749085C04EBDB
:1006D0008401224A02EB01114855681C85B2502D55
:1006E000BEDB601C84B23C2CB8DBBDEC068BBDE8E5
:1006F000F09FF0B5ADF5007DDFED250A60EE200A34
:10070000FCEEE00A10EE900A85B2002103E0002022
:100710002DF81100491CFF29F9DD012140E00122DB
:100720003BE001EB81000C4E06EB0010805C3DF8D5
:100730001000401C80B201EB8106074F07EB061644
:10074000B65C27E0B4024142143C014094024242AC
:100750000000414210140240AC2500202C00002073
:1007600028000020741E0120741D012000000000DC
:100770007019012004000020000000200800002063
:100780000000000000E06F40000000000000E03FBB
:1007900000A891452DF81600521C4F2AC1DB491CB8
:1007A0003B29BCDB00230024FF2105E03DF81100BC
:1007B000184483B2641C491EAB42F7DBC4F1FF004E
:1007C0000DF5007DF0BD2DE9F0474FF49652FE493E
:1007D000FE4802F078FC9FEDFE0AFFF78AFF814693
:1007E00001249CE0012596E0611C01EB8101F74AA0
:1007F00002EB0112691E525C611C01EB8101F34B9B
:1008000003EB0111495D022313FB0122611C01EB83
:100810008101EE4B03EB0113691C595C0A44611E14
:1008200001EB8101E94B03EB0113691E5B5C611E67
:1008300001EB8101DFF894C30CEB0111495D4FF02E
:10084000020C1CFB0133611E01EB8101DFF87CC34C
:100850000CEB011C691C1CF801101944501A0028EB
:1008600001DB014600E04142CEB2611E01EB810195
:10087000D64A02EB0112691E525C04EB8401D34B91
:1008800003EB0113691E595C022313FB0122611C57
:1008900001EB8101CD4B03EB0113691E595C0A4446
:1008A000611E01EB8101C94B03EB0113691C5B5C09
:1008B00004EB8401DFF814C30CEB011C691C1CF869
:1008C00001104FF0020C1CFB0133611C01EB810194
:1008D000DFF8F8C20CEB011C691C1CF8011019446C
:1008E000501A002801DB014600E04142CFB206EB7E
:1008F0000708C84507DDFF2004EB8401B24A02EB7C
:100900000111485506E0002004EB8401AE4A02EBD9
:10091000011148556D1C4F2DFFF666AF641C3B2C32
:10092000FFF660AF4FF49651A84802F0FEFBBDE819
:10093000F0872DE9F041ADF5007D0346002003E08E
:1009400000262DF81060401CFF28F9DD012048E04A
:10095000012143E09F4E3668032796FBF7F69D4F33
:100960003F68BE1B9B4F3F684FF0030C97FBFCF7A3
:10097000DFF860C2DCF800C0ACEB07077E43964F9F
:100980003F68C71BDFF850C2DCF800C0A0EB0C0CBE
:1009900007FB0CF7DFF844C2DCF800C0A1EB0C0C3D
:1009A000DFF83882D8F80080A1EB08080CFB087744
:1009B000BE4212DD00EB8006894F07EB0616765C1F
:1009C0003DF81660761CB6B200EB8007DFF810C267
:1009D0000CEB07177F5C2DF81760491C4F29B9DB1A
:1009E000401C3B28B4DB002004E03DF810602E449E
:1009F000B5B2401C0028F8DB5E1B00EE906AF8EEF2
:100A0000E00A60EE800AFCEEE00A10EE906AB4B2F2
:100A10000022FF2004E03DF810601644B2B2401EF0
:100A2000A242F8DB0DF5007DBDE8F0812DE9F0472D
:100A30004FF000094FF496526949644802F043FBB5
:100A400001242BE0012526E062480068062190FB86
:100A5000F1F060490968081A5E490968062291FBAD
:100A6000F2F15C4A1268511A48435B490968611AFD
:100A7000594A1268A21A5143584A1268AA1A574B87
:100A80001B68EB1A02FB0311884203DD09F1010028
:100A90001FFA80F96D1C4F2DD6DB641C3B2CD1DB7B
:100AA00048469FED4B0AFFF744FF00F0FF0A012480
:100AB000D1E00125CBE047480068062190FBF1F02A
:100AC00044490968081A43490968062291FBF2F172
:100AD000404A1268511A48433F490968611A3E4A20
:100AE0001268A21A51433D4A1268AA1A3B4B1B686E
:100AF000EB1A02FB0311884274DD611C01EB8101DA
:100B0000324A02EB0112691E525C611C01EB810149
:100B10002E4B03EB0111495D022313FB0122611CE3
:100B200001EB8101294B03EB0113691C595C114452
:100B3000621E02EB8202254B03EB02136A1E9B5CD2
:100B4000621E02EB8202DFF884C00CEB0212525DDF
:100B50004FF0020C1CFB0233621E02EB8202DFF834
:100B60006CC00CEB021C6A1C1CF802201A44881A88
:100B7000002801DB014600E04142CFB2611E01EBDB
:100B80008101124A02EB0112691E525C04EB8401DE
:100B90000E4B03EB0113691E595C022313FB012268
:100BA000611C01EB8101094B03EB0113691E595CC8
:100BB0001144621E02EB8202044B03EB02136A1C17
:100BC0009B5C04EB84020EE0AC250020EC120020BC
:100BD000CDCCCC3D08000020040000200000002007
:100BE0002C00002032E0DFF840C40CEB021C6A1C31
:100BF0001CF802204FF0020C1CFB0233621C02EBBB
:100C00008202DFF824C40CEB021C6A1C1CF80220D0
:100C10001A44881A002801DB014600E0414201F035
:100C2000FF0808EB0706564509DDC82E07DDFF2043
:100C300004EB8401FD4A02EB0111485506E0002057
:100C400004EB8401F94A02EB011148556D1C4F2D4C
:100C5000FFF631AF641C3B2CFFF62BAF4FF49651DF
:100C6000F14802F062FABDE8F087F0B503460024CF
:100C700001212FE001222AE0ED480068062590FBC3
:100C8000F5F0EB4D2D68281AE94D2D68062695FBE9
:100C9000F6F5E74E3668751B6843E64D2D684D1B2B
:100CA000E44E36688E1B7543E34E3668961BE24F62
:100CB0003F68D71B06FB0755A84207DD01EB810003
:100CC000DA4D05EB0010805C204484B2521C4F2AA0
:100CD000D2DB491C3B29CDDB94FBF3F0C0B2F0BD65
:100CE00030B5012144E001203FE0D14A12680623DB
:100CF00092FBF3F2CE4B1B689A1ACD4B1B6806246D
:100D000093FBF4F3CA4C2468E31A5A43C94B1B689B
:100D1000CB1AC84C24680C1B6343C74C2468041BC3
:100D2000C54D2D68451B04FB05339A421CDD01EBC4
:100D30008102BE4B03EB0212125CFF2A14D14A1E41
:100D400002EB820203EB0212125C6AB94A1C02EB4C
:100D5000820203EB0212125C32B9002201EB810322
:100D6000B24C04EB03131A54401C4F28BDDB491C42
:100D70003B29B8DB30BD2DE9F0472DED0C8B9FED05
:100D8000AF0BB0EE408AF0EE608A0027A3E04FF090
:100D900000089BE007EB8700AA4901EB001010F860
:100DA0000800FF287DD100248BE04FF0000983E08C
:100DB000484603F09AF941EC1A0B9FEDA30B53EC54
:100DC000102B03F0F9F941EC190B9FEDA10B53EC3B
:100DD000102B02F0D5FF41EC180BB0EE480AF0EEF4
:100DE000680A02F025FAB0EE40CAF0EE60CA04F1DB
:100DF000140003F07AF941EC1D0B53EC1C2B03F0AB
:100E0000DBF941EC1A0B384603F06FF941EC1B0B90
:100E100053EC1A2B03F010FB41EC190B03F008F90B
:100E20000646B0EE480AF0EE680A02F065FAB0EE47
:100E300040CAF0EE60CA04F1140003F056F941EC28
:100E40001D0B53EC1C2B03F0B7F941EC1A0B404679
:100E500003F04BF941EC1B0B53EC1A2B03F0ECFAAB
:100E600041EC190B03F0E4F80546002E22DD3C2E80
:100E700020DA002D1EDD502D1CDA06EBC600C0EB7B
:100E80008610754901EB001005EB450101EBC5012A
:100E90000844005D401C06EBC601C1EB86116E4A9A
:100EA00000E011E002EB011105EB450202EBC50287
:100EB0001144085509F10A09B9F5B47F7FF778AFF5
:100EC000641C0B2CFFF671AF08F10108B8F1500F4C
:100ED000FFF660AF7F1C3C2FFFF659AFBDEC0C8BCB
:100EE000BDE8F0872DE9F0474FF0000AD046C14633
:100EF000002772B6FFF73FFF0A262AE0002425E00C
:100F0000002520E004EBC400C0EB8410524901EB43
:100F1000001005EB450101EBC5010844805D50451B
:100F200010DD04EBC400C0EB84104B4901EB001052
:100F300005EB450101EBC501084410F806A0A046E9
:100F4000A94637466D1C502DDCDB641C3C2CD7DBDE
:100F5000761E002ED2DA3848C0F800903548C0F826
:100F6000008007F114003249086001203B490870F5
:100F70004CF64061384802F0D8F862B6BDE8F08718
:100F80002DE9F0472DED0C8B9FED2C0BB0EE408A38
:100F9000F0EE608A0024EDE00025E7E0254A1268C3
:100FA000A21A244B1B68E31A5A43234B1B68EB1A03
:100FB000DFF884C0DCF800C0A5EB0C0C03FB0C2CA4
:100FC0001B4A1268D21C1A4B1B68DB1C5A439445FF
:100FD0007DDC184A1268A01A002801DB024600E0F6
:100FE0004242134B1B68D91C01EBD1735B109A4230
:100FF0006DDA04EB8400134901EB0010405DFF281B
:1010000065D10026AEE04FF00009A6E0484603F0A7
:101010006CF841EC1A0B9FED0C0B53EC102B03F00A
:10102000CBF841EC190B1BE0EC1200202C00002047
:101030000800002004000020000000200000000044
:1010400000000000AC2500204AD8124DFB210940C9
:101050000000000000806640304B00201C00002093
:101060001FED050B53EC102B02F08AFE41EC180B20
:10107000B0EE480AF0EE680A02F0DAF8B0EE40CAC4
:10108000F0EE60CAFE4909680939881903F02DF8A5
:1010900041EC1D0B53EC1C2B03F08EF841EC1A0BAA
:1010A000204603F022F841EC1B0B53EC1A2B03F003
:1010B000C3F941EC190B02F0BBFF8046B0EE480AC1
:1010C000F0EE680A02F018F9B0EE40CA00E04CE019
:1010D000F0EE60CAEA4909680939881903F005F891
:1010E00041EC1D0B53EC1C2B03F066F841EC1A0B82
:1010F000284602F0FAFF41EC1B0B53EC1A2B03F0CD
:101100009BF941EC190B02F093FF0746B8F1000F71
:1011100021DDB8F13C0F1EDA002F1CDD502F1ADA4A
:1011200008EBC800C0EB8810D64901EB001007EBB4
:10113000470101EBC7010844805D401C08EBC80172
:10114000C1EB8811CF4A02EB011107EB470202EB1A
:10115000C7021144885509F10A09B9F5B47F7FF730
:1011600055AF761C0A2EFFF64EAF6D1C502DFFF6C4
:1011700015AF641C3C2CFFF60FAFBDEC0C8BBDE82B
:10118000F0872DE9F05F0027B846B946BC48D0F893
:1011900000B0BA4672B6FFF7F3FE092652E000240B
:1011A0004DE0002548E0B84B1B68E21A002A01DB3D
:1011B000134600E05342DFF8C8C2DCF800104FEAE3
:1011C000E17C01EB9C7C4FEAAC0C634533DAAC4B21
:1011D0001B684FF0030C93FBFCF3DFF8B0C2DCF8A4
:1011E00000C0A5EB0C00002801DB844601E0C0F143
:1011F000000C63451FDD04EBC400C0EB8410A14963
:1012000001EB001005EB450101EBC5010844805DD1
:10121000504510DD04EBC400C0EB8410994901EB8C
:10122000001005EB450101EBC501084410F806A0CC
:10123000A8462746B1466D1C502DB4DB641C3C2CDF
:10124000AFDB761E002EAADA9048C0F800808E48E8
:101250000760ABF109004844894908604CF64061D9
:10126000884801F062FF62B6BDE8F09FF8B5064617
:10127000002410E000250BE004EB840006EB0010D6
:10128000415D502000FB0450001D814A11546D1C2B
:10129000502DF1DB641C3C2CECDB41F2C4207C4B78
:1012A0007C4A042100907C4801F034FE802079497A
:1012B000091F888241F2C421774801F0B9FE7648BF
:1012C000B438006800F0006038B17348AC3800688A
:1012D00040F000607049AC390860F8BD10B56B484B
:1012E00000686B4908706848006848706448006886
:1012F00088706A48FFF7BAFF10BD10B50020644936
:1013000008704870887066480078C8706548FFF7B4
:10131000ADFF10BD10B55D4800685D4908705A48C2
:10132000006848705648006888705F480078C87048
:101330005C48FFF79BFF10BD2DE9F043002300251B
:101340000026002151E000204CE04D4F3F684FF057
:10135000030C97FBFCF7DFF828C1DCF800C0ACEB0E
:101360000707DFF81CC1DCF800C04FF003089CFB46
:10137000F8FCDFF80C81D8F80080A8EB0C0C07FB18
:101380000CF7DFF804C1DCF800C0A0EB0C0CDFF8B0
:10139000F880D8F80080A0EB08080CFB08FCDFF808
:1013A000EC80D8F80080A1EB0808DFF8E090D9F8CD
:1013B0000090A1EB090908FB09CC674511DD304F0E
:1013C0003F687F004FF0030C97FBFCFC2E4F3F68FB
:1013D000C41B002C01DB274600E06742BC4500DD52
:1013E0005B1C401C3C28B0DB491C5029ABDB0924AA
:1013F00093FBF4F30822002160E000205BE0204C26
:101400002468032794FBF7F41D4F3F683C1B1C4FD7
:101410003F684FF0030C97FBFCF7DFF864C0DCF883
:1014200000C0ACEB07077C43174F3F68C71BDFF8D2
:1014300058C0DCF800C0A0EB0C0C07FB0CF7DFF881
:101440004CC0DCF800C0A1EB0C0CDFF84080D8F8F1
:101450000080A1EB08080CFB0877BC422ADD6D1C5C
:1014600000EB80040F4F07EB0414645CFF2C00D1E9
:10147000761C9D421EDD01250C4C44F8226017E0CD
:1014800008000020304B0020040000200000002055
:101490006C38002004100140B8640240AC250020E4
:1014A000100000202C0000200C00002074200120DF
:1014B000521E0126401C3C28A1DB491C50299CDB04
:1014C000BDE8F083F0B52DED068B8FB0002624210A
:1014D00006A801F02AFE00200390049005900090D9
:1014E00001900290FFF728FF002428E0F5490968E1
:1014F000F44A126801FB02F002F0F7FD41EC1A0B0E
:101500009FEDF10B53EC102B02F056FE41EC180B43
:10151000EF4951F8240002F0E8FD41EC190B53ECBF
:10152000182B02F00DFE03D20020E94941F82400F7
:10153000E74850F8240006A941F82400641C092C4F
:10154000D4DB002418E006A850F82470651E07E0DC
:1015500006A850F8251006AA681C42F820106D1E37
:10156000002D04DB06A850F82500B842F0DB06A9E0
:10157000681C41F82070641C092CE4DB002415E091
:1015800006A850F8240003A941F8240008250AE021
:1015900003A850F82400CE4951F82510884201D103
:1015A0004DF824506D1E002DF2DA641C032CE7DB8D
:1015B000002406E05DF82400B04201DD5DF82460FF
:1015C000641C032CF6DBC3480068C3490860C148AB
:1015D00006600068B04206D108460068B04202D1F9
:1015E000BE48066003E04FF0FF30BC4908600FB012
:1015F000BDEC068BF0BD70B52DED068B0025FFF719
:101600009BFE00241FE0AF490968AE4A126801FB47
:1016100002F002F06AFD41EC1A0B9FEDB10B53ECA6
:10162000102B02F0C9FD41EC180BA94951F8240018
:1016300002F05BFD41EC190B53EC182B02F0BAFEE3
:1016400000D22546641C092CDDDBA7480560BDECF3
:10165000068B70BD30B501228AE20022012084E2AF
:1016600001217EE200EB8003A04C04EB03135B5CE2
:10167000FF2B53D1431E03EB830304EB03144B1ED8
:10168000E35CEBBB431E03EB8303984C04EB0313B7
:101690005B5CABBB431E03EB830304EB03144B1CEB
:1016A000E35C6BBB00EB8003904C04EB03144B1E1C
:1016B000E35CFF2B33D100EB80038C4C04EB031471
:1016C0004B1CE35CFF2B2AD1431C03EB8303874CA9
:1016D00004EB03135B5CFF2B21D1431E03EB83035D
:1016E00004EB03135B5C8BB9431C03EB830304EB38
:1016F00003135B5CFF2B09D1831C03EB830300E026
:101700000DE004EB03135B5C002B07D0002300EB20
:101710008004764D05EB04146354012220E2431E3D
:1017200003EB8303714C04EB03144B1EE35CEBBB34
:1017300000EB80036D4C04EB03144B1EE35CABBB6E
:10174000431C03EB8303694C04EB03144B1EE35C63
:1017500063BB431E03EB8303644C04EB03135B5C2A
:10176000FF2B34D1431C03EB830304EB03135B5CBB
:10177000FF2B2CD100EB800304EB03144B1CE35C28
:10178000FF2B24D100EB8003584C04EB03144B1EB9
:10179000E35C9BB900EB8003544C04EB03144B1C3B
:1017A000E35CFF2B0AD100EB800300E00FE04F4C1D
:1017B00004EB03148B1CE35C002BAFD0002300EB85
:1017C00080044A4D05EB041463540122C8E1431C14
:1017D00003EB8303454C04EB03144B1EE35C9BBB00
:1017E000431C03EB8303414C04EB03135B5C5BBBC7
:1017F000431C03EB830304EB03144B1CE35C1BBB94
:1018000000EB8003394C04EB03144B1EE35CFF2B0D
:101810001BD100EB8003354C04EB03144B1CE35C41
:10182000FF2B12D1431E03EB8303304C04EB031355
:101830005B5CFF2B09D1002300EB80042B4D05EBF3
:101840000414635401228BE1FFE7431E03EB83037F
:10185000264C04EB03144B1CE35C93BB00EB8003AE
:10186000224C04EB03144B1CE35C53BB431C03EB03
:1018700083031E4C04EB03144B1CE35C0BBB431EA5
:1018800003EB8303194C04EB03135B5CFF2B2FD199
:10189000431C03EB830304EB03135B5CFF2B27D197
:1018A00000EB800304EB03144B1EE35CFF2B1FD102
:1018B000002300EB80040D4D05EB0414635401225A
:1018C0004EE115E008000020B81E85EB51B89E3FA0
:1018D0007420012014000020180000200C000020BB
:1018E0009A9999999999A93F10000020AC25002058
:1018F000431E03EB8303FE4C04EB03135B5CEBBB67
:10190000431E03EB830304EB03144B1CE35CABBBF0
:1019100000EB8003F64C04EB03144B1CE35C6BBB45
:10192000431C03EB8303F24C04EB03135B5CFF2BC0
:101930002AD100EB800304EB03144B1EE35CFF2B66
:1019400022D1431E03EB8303E94C04EB03135B5CDE
:101950007BB9431C03EB830304EB03135B5CFF2B9A
:1019600007D1831C03EB830304EB03135B5C002BA5
:10197000A6D0002300EB8004DD4D00E004E005EB81
:10198000041463540122EBE0431E03EB8303D84CA1
:1019900004EB03144B1EE35CF3BB431E03EB830316
:1019A000D34C04EB03135B5CB3BB00EB800304EB91
:1019B00003144B1EE35C7BBB00EB8003CC4C04EBBD
:1019C00003144B1CE35CFF2B4CD1431C03EB830340
:1019D000C74C04EB03135B5CFF2B43D1431E03EBAB
:1019E000830304EB03135B5C73B9431C03EB8303B6
:1019F00004EB03135B5CFF2B06D1831C03EB830317
:101A000004EB03135B5C53B1002300EB8004B84D7F
:101A100005EB0414635400E024E00122A0E000EB95
:101A20008003B34C04EB03144B1EE35C8BB900EB57
:101A30008003AF4C04EB03144B1CE35CFF2B08D179
:101A400000EB8003AA4C04EB03148B1CE35C002B1B
:101A500007D0002300EB8004A54D05EB041463546C
:101A600001227DE000EB8003A14C04EB03144B1E2C
:101A7000E35CEBBB431C03EB83039D4C04EB0314BF
:101A80004B1EE35CA3BB431C03EB8303984C04EBAA
:101A900003135B5C63BB431E03EB830304EB031381
:101AA0005B5CFF2B2BD100EB800304EB03144B1C7E
:101AB000E35C012B23D100EB80038D4C04EB03147A
:101AC0004B1EE35C83B900EB8003894C04EB0314E9
:101AD0004B1CE35CFF2B07D100EB8003844C04EB31
:101AE00003148B1CE35CDBB3002300EB800400E0F9
:101AF00005E07F4D05EB04146354012230E000EB58
:101B000080037B4C04EB03144B1CE35C43BB431C82
:101B100003EB8303764C04EB03135B5C03BB431CB6
:101B200003EB830304EB03144B1CE35CC3B9431EB8
:101B300003EB83036E4C04EB03135B5CFF2B0FD1B1
:101B400000EB800304EB03144B1EE35CFF2B07D177
:101B5000002300EB8004664D05EB0414635401225E
:101B6000491C4E29FFF67EAD401C3A28FFF678ADA1
:101B7000002A7FF472AD30BD70B50122A0E20022D0
:101B800001209AE2012194E25A4B1B68032493FB43
:101B9000F4F3584C2468E31A564C2468032594FB4C
:101BA000F5F4544D2D682C1B6343534C2468041BDF
:101BB000514D2D68451B6C43504D2D684D1B4F4EAC
:101BC00036688E1B05FB0644A3425BDD00EB8003F9
:101BD0004B4C04EB03135B5CFF2B53D1431E03EB15
:101BE000830304EB03144B1EE35CEBBB431E03EBCC
:101BF0008303434C04EB03135B5CABBB431E03EB5F
:101C0000830304EB03144B1CE35C6BBB00EB80030E
:101C10003B4C04EB03144B1EE35CFF2B33D100EB76
:101C20008003374C04EB03144B1CE35CFF2B2AD1DD
:101C3000431C03EB8303324C04EB03135B5CFF2B6D
:101C400021D1431E03EB830304EB03135B5C8BB9CD
:101C5000431C03EB830304EB03135B5CFF2B09D1F1
:101C6000831C03EB830300E00DE004EB03135B5CD8
:101C7000002B07D0002300EB8004214D05EB04145A
:101C80006354012214E2431E03EB83031C4C04EB58
:101C900003144B1EE35C53BB00EB8003184C04EBB6
:101CA00003144B1EE35C13BB431C03EB8303144C74
:101CB00004EB03144B1EE35CCBB9431E03EB83031D
:101CC0000F4C04EB03135B5CFF2B3ED1431C03EB77
:101CD000830304EB03135B5CFF2B36D100EB800323
:101CE00004EB03144B1CE35CFF2B2ED10AE02CE029
:101CF000AC25002008000020040000200000002087
:101D00002C00002000EB8003EF4C04EB03144B1E6F
:101D1000E35C8BB900EB8003EB4C04EB03144B1C2E
:101D2000E35CFF2B08D100EB8003E74C04EB0314CA
:101D30008B1CE35C002BA5D0002300EB8004E24D5C
:101D400005EB041463540122B2E1431C03EB83034B
:101D5000DD4C04EB03144B1EE35C9BBB431C03EB09
:101D60008303D94C04EB03135B5C5BBB431C03EBA9
:101D7000830304EB03144B1CE35C1BBB00EB8003ED
:101D8000D14C04EB03144B1EE35CFF2B1BD100EB87
:101D90008003CD4C04EB03144B1CE35CFF2B12D1EE
:101DA000431E03EB8303C84C04EB03135B5CFF2B64
:101DB00009D1002300EB8004C34D05EB04146354E8
:101DC000012275E1FFE7431E03EB8303BE4C04EBE6
:101DD00003144B1CE35C93BB00EB8003BA4C04EB95
:101DE00003144B1CE35C53BB431C03EB8303B64C53
:101DF00004EB03144B1CE35C0BBB431E03EB83039C
:101E0000B14C04EB03135B5CFF2B19D1431C03EBB8
:101E1000830304EB03135B5CFF2B11D100EB800306
:101E200004EB03144B1EE35CFF2B09D1002300EBF2
:101E30008004A54D05EB04146354012238E1FFE74B
:101E4000431E03EB8303A04C04EB03135B5CEBBB6F
:101E5000431E03EB830304EB03144B1CE35CABBB9B
:101E600000EB8003984C04EB03144B1CE35C6BBB4E
:101E7000431C03EB8303944C04EB03135B5CFF2BC9
:101E80002AD100EB800304EB03144B1EE35CFF2B11
:101E900022D1431E03EB83038B4C04EB03135B5CE7
:101EA0007BB9431C03EB830304EB03135B5CFF2B45
:101EB00007D1831C03EB830304EB03135B5C002B50
:101EC000BCD0002300EB80047F4D00E004E005EB74
:101ED000041463540122EBE0431E03EB83037A4CAA
:101EE00004EB03144B1EE35CF3BB431E03EB8303C1
:101EF000754C04EB03135B5CB3BB00EB800304EB9A
:101F000003144B1EE35C7BBB00EB80036E4C04EBC5
:101F100003144B1CE35CFF2B4CD1431C03EB8303EA
:101F2000694C04EB03135B5CFF2B43D1431E03EBB3
:101F3000830304EB03135B5C73B9431C03EB830360
:101F400004EB03135B5CFF2B06D1831C03EB8303C1
:101F500004EB03135B5C53B1002300EB80045A4D88
:101F600005EB0414635400E024E00122A0E000EB40
:101F70008003554C04EB03144B1EE35C8BB900EB60
:101F80008003514C04EB03144B1CE35CFF2B08D182
:101F900000EB80034C4C04EB03148B1CE35C002B24
:101FA00007D0002300EB8004474D05EB0414635475
:101FB00001227DE000EB8003434C04EB03144B1E35
:101FC000E35CEBBB431C03EB83033F4C04EB0314C8
:101FD0004B1EE35CA3BB431C03EB83033A4C04EBB3
:101FE00003135B5C63BB431E03EB830304EB03132C
:101FF0005B5CFF2B2BD100EB800304EB03144B1C29
:10200000E35C012B23D100EB80032F4C04EB031482
:102010004B1EE35C83B900EB80032B4C04EB0314F1
:102020004B1CE35CFF2B07D100EB8003264C04EB39
:1020300003148B1CE35CDBB3002300EB800400E0A3
:1020400005E0214D05EB04146354012230E000EB60
:1020500080031D4C04EB03144B1CE35C43BB431C8B
:1020600003EB8303184C04EB03135B5C03BB431CBF
:1020700003EB830304EB03144B1CE35CC3B9431E63
:1020800003EB8303104C04EB03135B5CFF2B0FD1BA
:1020900000EB800304EB03144B1EE35CFF2B07D122
:1020A000002300EB8004084D05EB04146354012267
:1020B000491C4E29FFF668AD401C3A28FFF662AD78
:1020C000002A7FF45CAD70BD2C0000204FF0E021B1
:1020D000096921F004014FF0E0221161C21700EB01
:1020E0005272C2F3C702314B1A701946097801EBDC
:1020F0004102C2EBC1114FF6FF7202EAC1012C4A44
:10210000118070470146294A12784A434FF0E02374
:102110005A6100229A6101221A6100BF4FF0E02249
:10212000106900F001021AB100F48032002AF5D0E3
:1021300000224FF0E0231A619A61704701461C4A61
:1021400012884A434FF0E0235A6100229A6101222B
:102150001A6100BF4FF0E022106900F001021AB1CD
:1021600000F48032002AF5D000224FF0E0231A61FB
:102170009A61704770B504464FF4077094FBF0F015
:10218000C6B24FF4077094FBF0F100FB114085B22A
:1021900005E04FF40770FFF7D1FF701EC6B2002EA6
:1021A000F7D115B12846FFF7C9FF70BD1E0000200A
:1021B000200000204A0A52020243FE4B1A60704778
:1021C0000146072323EA01021202FA4B1B1D18687D
:1021D0004FF6FF031840F84B18431043F54B1B1DF7
:1021E000186070472DE9F0410746884614461D46A1
:1021F0002846FFF7E5FFC5F1040007FA00F60F20B7
:10220000284100EA0800064306F00F06E21704EB37
:10221000D2625211920002F1E022D2F8002121464E
:10222000E31704EBD3635B11A4EB431C012303FA14
:102230000CF31A432046E31704EBD3635B119B00B6
:1022400003F1E023C3F80021DC48005D40EA0610FA
:10225000DA490855BDE8F081F0B503460846CD17C8
:1022600001EB9575AD10A1EB8505AD062C0ED4489C
:10227000006840F48040D24D2860CD1701EB957581
:10228000AE10D04D55F826500F26A640B54308464F
:10229000CE1701EB9676B710CA4E46F82750CD17E9
:1022A00001EB9575AE10C74D55F8265003FA04F6AC
:1022B0003543CE1701EB9676B710C24E46F827503D
:1022C000C148006801258D402843BF4D286002F0B9
:1022D000010040B1BC480C30006801258D40284306
:1022E000B94D0C35286002F0020040B1B648083004
:1022F000006801258D402843B34D08352860F0BDA6
:1023000030B5CC1000F1200353F824304C07E50E13
:102310000F24AC40A343CD1000F1200444F8253035
:10232000CC1000F1200353F824304C07E40E02FADD
:1023300004F42343CD1000F1200444F8253030BDCF
:102340002DE9F0470C46DDE90867002100258C46A1
:1023500000BF60E04FF0010808FA01F504EA050C3F
:10236000AC4557D1D0F800804FEA410A4FF003093D
:1023700009FA0AF928EA0908C0F80080D0F80080B4
:102380004FEA410902FA09F948EA0908C0F8008051
:10239000012A01D0022A27D1D0F808804FEA410A49
:1023A0004FF0030909FA0AF928EA0908C0F8088079
:1023B000D0F808804FEA410906FA09F948EA090805
:1023C000C0F80880D0F804904FF0010808FA01F82E
:1023D00029EA0809C0F80490D0F8048003FA01F94A
:1023E00048EA0908C0F80480D0F80C804FEA410A96
:1023F0004FF0030909FA0AF928EA0908C0F80C8025
:10240000D0F80C804FEA410907FA09F948EA0908AF
:10241000C0F80C80491C10299CD3BDE8F08730BF60
:10242000704772B6704762B6704700B561480830B1
:10243000006840F004005F49083108606048001FF0
:10244000006840F080505E49091F08605F4840689E
:1024500040F480705D4948600846006840F0040020
:1024600008600846006840F002000860FFF7D7FFE8
:1024700000BD5148001D4F49091D08607047F0B567
:1024800004460D46002100204D4E443E366846F479
:1024900080364B4F443F3E6001E04E1CB1B2484E87
:1024A000443E366806F400361EB941F6FF76B14266
:1024B000F3DB41F6FF76B14201D1012063E0404EEB
:1024C000361F366846F080563D4F3F1F3E603F4EF8
:1024D000366846F440463D4F3E60394E3C3E3668D5
:1024E00046F41446364F3C3F3E60354E443E366817
:1024F00026F08076324F443F3E6045EA841601273D
:10250000C7EB520746EA074646EA036646F48006EA
:102510002B4F403F3E603E1F366846F080763F1F9F
:102520003E6000BF264E443E366806F00076002E20
:10253000F8D0274E366846F48076254F3E603E46FA
:10254000366846F400763E603E46366846F480665D
:102550003E603E46366846F005063E60184E3C3EFC
:10256000366826F00306164F3C3F3E603E4636680E
:1025700046F002063E6000BF114E3C3E366806F053
:102580000C06082EF8D1F0BDF0B504460D461646EF
:102590001F460B484438006840F0010008494439A0
:1025A0000860002006493C39086005484438006846
:1025B000084911E008ED00E00000FA0500E400E041
:1025C0004438024008380140003C0140007000409F
:1025D000003C0240FFFFF6FE08400D4908600D4830
:1025E000091D0860081F006820F48020091F08608A
:1025F000002007490C3108603B46324629462046F8
:10260000FFF73DFF00210846FFF7D4FDF0BD0000B5
:102610000038024010300024014600BF704700BF60
:10262000494A128802F04002002AF9D0C2B2464B51
:102630009A80704710B54448008800F0200030B1FF
:1026400041488088C4B22A2C01D1FFF712FF10BD87
:10265000F0B52DED028B83B005460E463B4905FBD8
:1026600001F000EE100AF8EE400A300100EE100A08
:10267000B8EE400A80EE801AB0EE418ABCEEC80A7D
:1026800010EE100A84B200EE104AB8EE400A38EE9E
:10269000400AF3EE000A20EE200ABCEEC00A10EE5B
:1026A000107A4FF6FF7000EA0414E01984B228484B
:1026B000006840F001002649086025481430006891
:1026C00040F010002249143108600120022100234B
:1026D0000A46CDE900104FF4C0611E48FFF730FEF6
:1026E000072209211B48FFF70BFE07220A21194880
:1026F000FFF706FE14480481808920F40040124947
:1027000088810846808940F00800888108468089D1
:1027100040F0040088810846808940F020008881CC
:102720000223252203210846FFF75CFD0648808925
:1027300040F400500449888103B0BDEC028BF0BD29
:10274000C1F30802828070470010014040420F0030
:1027500030380240000002407CB50025D8480068AF
:1027600040F00100D64908600846006840F00400C7
:1027700008600846006840F01000086008460068DD
:1027800040F020000860022000210B460A46CDE9F7
:1027900000100102CB48FFF7D3FDCA48143000688F
:1027A00040F40070C7491431086001200321002360
:1027B0000246CDE900100A21C348FFF7C1FDC24817
:1027C0001430006840F00A00BF491431086002204C
:1027D00000210B460A46CDE90010FF21B948FFF75A
:1027E000AFFDB8481430006840F0FF00B54914311F
:1027F00008600120032100230246CDE900102821B2
:10280000B248FFF79DFDB148406940F02800AF494C
:1028100048610120032100230246CDE90010410355
:10282000A948FFF78DFD4FF40050A7491431086007
:1028300000F050F98021122000F035FA08B1012093
:102840007CBD3220FFF796FC0B2000F04BFA0446CB
:10285000732C01D00220F3E70A2000F043FA04466B
:10286000762C01D00220EBE700250DE0984A02EB20
:1028700045025178964A12F8150000F014FA022029
:10288000FFF778FC681C85B2AE2DEFD30020D7E7A8
:102890002DE9F0410446E72500260027012C06D04B
:1028A000022C08D0032C0AD0042C10D10BE0E52513
:1028B0005A265C270BE0E5255826602707E0E5252A
:1028C00084264C2703E0E5259626402700BF00BF5D
:1028D0002946132000F0E7F93146012000F0E3F922
:1028E0003946022000F0DFF9BDE8F0812DE9F04122
:1028F0000446802522265E2734B1012C08D0032C03
:102900000AD0042C10D10BE0402511262F270BE014
:1029100066251B264B2707E099252826712703E00B
:10292000C02533268D2700BF00BF29464F2000F069
:10293000BAF92946502000F0B6F90021512000F0E4
:10294000B2F93146522000F0AEF93946532000F07A
:10295000AAF92946542000F0A6F99E21582000F03B
:10296000A2F9BDE8F08170B50446002534B1012C10
:1029700006D0032C06D0042C08D105E0B02505E0D4
:10298000982503E0182501E0302500BF00BF294647
:10299000552000F088F970BD70B50446402534B16B
:1029A000012C06D0032C06D0042C08D105E03025DC
:1029B00005E0382503E0502501E0602500BF00BF99
:1029C0002946562000F06FF970BD2DE9F04104460C
:1029D0000425C0268027072C1DD2DFE804F01C0444
:1029E000080C1014180024258026802713E01425D5
:1029F000802680270FE01425C02680270BE01425B1
:102A00004026402707E014258026C02703E0142530
:102A1000A026402700BF00BF29463A2000F043F916
:102A20003146682000F03FF93946672000F03BF955
:102A3000BDE8F0812DE9F04705460E4690469946DF
:102A400005EB48001FFA80FA06EB490087B2B7F59C
:102A5000447F02DDA7F5447087B2032000F042F9FD
:102A6000044604F0F0040AF00301284661F39F00D5
:102A700004432146032000F016F9C5F3870119200D
:102A800000F011F9CAF387011A2000F00CF9322086
:102A900000F028F9044604F0C00407F007013046AE
:102AA00061F3DF000443C6F3C701172000F0FBF811
:102AB000C7F3C701182000F0F6F8BDE8F087000062
:102AC000303802400014024000080240001002406A
:102AD000DE4700081CB59748006840F01000954993
:102AE00008600120022100230246CDE90010502198
:102AF0009148FFF725FC9048406940F050008E490E
:102B000048610846006820F44050086008460068A4
:102B100040F4805008601CBD10B501208749086052
:102B20008749C1F890027820FFF7ECFA002083492A
:102B300008607820FFF7E6FA00208149C1F890028A
:102B400010BD10B500207D4908607820FFF7DAFA43
:102B500001207B49C1F890027820FFF7D3FA0120C9
:102B6000764908607820FFF7CDFA10BD10B57820BF
:102B7000FFF7C8FA0120714908607149C1F8900255
:102B80007820FFF7BFFA00206C49083908607820E8
:102B9000FFF7B8FA00206A49C1F898027820FFF7D9
:102BA000B1FA10BD70B5044600261BE004F08000A9
:102BB00018B101206149086002E000205F49086007
:102BC0006006040E7820FFF79DFA01205B49083962
:102BD00008607820FFF796FA00205949C1F8900262
:102BE000701CC6B2082EE1DB5348006820F4405048
:102BF000514908600846006808607820FFF782FAAB
:102C000001204E49083908607820FFF77BFA4C48CC
:102C1000D0F8180208B1012500E00025002047493E
:102C2000083908604448006820F440504249086070
:102C30000846006840F480500860284670BD70B5B2
:102C400000243D48006820F440503B490860084695
:102C500000680860082517E07820FFF753FA012084
:102C60003649083908606006040E3548D0F8180265
:102C700008B1601CC4B27820FFF744FA00202F4945
:102C800008390860681EC5B2002DE5DC2A480068D6
:102C900020F44050284908600846006840F48050FD
:102CA0000860204670BD70B505460C460026FFF74B
:102CB00033FF4220FFF776FF00B10126DC20FFF74B
:102CC00021FA2846FFF76EFF00B10126DC20FFF74E
:102CD00019FA2046FFF766FF00B10126FFF731FF22
:102CE000304670BD70B504460025FFF715FF422041
:102CF000FFF758FFDC20FFF705FA2046FFF752FFE9
:102D0000DC20FFF7FFF9FFF71CFFDC20FFF7FAF9E3
:102D1000FFF702FF4320FFF745FFDC20FFF7F2F942
:102D2000FFF78DFF0546FFF721FFFFF70AFF284653
:102D300070BD00003038024000100240980242424C
:102D40000000424270B505460C463248006840F02B
:102D500002003049086030480560001F04802E489A
:102D60002038008840F001002B4920390880081DD8
:102D7000008820F00100091D088002231D22002187
:102D80000120FFF72FFA24482C38008840F001007A
:102D900021492C39088070BD10B51F482C38008897
:102DA00000201D492C3908801C480068401C1B4924
:102DB000086008460068022823DD0020164908390B
:102DC000086015481C38008800F00100C8B114489C
:102DD0000068B0B9C820FFF7CDF900210846FDF71B
:102DE000D9FA00200E4988310860FDF7ECFCFEF7A7
:102DF00031FCFEF777F8FEF771FAFEF7C2F9FEF73D
:102E00006DFA05481C38008820F0010002491C3981
:102E1000088010BD403802402C04004024000020EF
:102E20000C82414210B53248006800F40070A0B135
:102E30000020304908600120FFF764F901202E4985
:102E4000C1F88C022D49C1F88C022D480078401C35
:102E50002B490870C820FFF755F94FF4007024493A
:102E6000086010BD10B56420FFF784F9254800689C
:102E7000012809D100202349883108602249C1F87E
:102E800088022249087014E001201E498831086038
:102E90001F48008840F001001D4908806420FFF7AA
:102EA00069F91B481030008820F0010018491031E2
:102EB000088008200E49086010BD10B502220921C3
:102EC0000520FFF7C9F90223172200210846FFF762
:102ED00089F910BD10B5032211461046FFF7BCF961
:102EE0000223092200210320FFF77CF910BD000016
:102EF000143C01408C024242000042420000414228
:102F0000280000200C824142008041421C00002029
:102F1000000400402DE9F0410C461546069E4C4F3A
:102F2000B84209D939464B4F3F6847F48007DFF86C
:102F300024C1CCF8007008E04749464F3F6847F489
:102F40000017DFF810C1CCF8007000BF076807F069
:102F50000107002FFAD1471A103F4FF0180CB7FBAA
:102F6000FCF7FAB2062A10DBCF68A2F1060C0CEBD4
:102F70004C0C4FEA4C0C0CF1100C4FF03D0808FAC9
:102F80000CF847EA0807CF602FE0042A0EDBCF6871
:102F9000A2F1040C0CEB4C0C4FEA4C084FF03D0C2A
:102FA0000CFA08FC47EA0C07CF601EE0022A10DB8F
:102FB0008F68A2F1020C0CEB4C0C4FEA4C0C0CF19C
:102FC000100C4FF03D0808FA0CF847EA08078F602C
:102FD0000BE08F6802EB420C4FEA4C084FF03D0CBF
:102FE0000CFA08FC47EA0C078F608560C3604660F6
:102FF00000270760076847F0400707600768076019
:1030000007680760076847F480670760076807601C
:1030100007680760076847F480370760076807603C
:1030200007680760076847EA44670760BDE8F08102
:10303000026822F00102026000BF026802F0010291
:10304000002AFAD14160026842F001020260704732
:103050000064024030380240006002401CB5154850
:10306000006840F008001349086001200321002394
:103070000246CDE9001004210F48FFF761F9012055
:10308000032100230246CDE9001020210A48FFF762
:1030900057F9002000900346024608210190064897
:1030A000FFF74EF900200549086001200449C1F8E6
:1030B00094021CBD30380240000C0240888241421C
:1030C00000804142704710B5203AC0F00B80B1E853
:1030D0001850203AA0E81850B1E81850A0E818504D
:1030E000BFF4F5AF5FEA027C24BFB1E81850A0E856
:1030F000185044BF18C918C0BDE810405FEA827C70
:1031000024BF51F8043B40F8043B08BF7047D20786
:1031100028BF31F8023B48BF11F8012B28BF20F827
:10312000023B48BF00F8012B70474FF0000200B58A
:10313000134694469646203922BFA0E80C50A0E8DA
:103140000C50B1F12001BFF4F7AF090728BFA0E888
:103150000C5048BF0CC05DF804EB890028BF40F854
:10316000042B08BF704748BF20F8022B11F0804F96
:1031700018BF00F8012B70477047704770477047C1
:1031800010B500F009F8006810BD10B5044600F055
:1031900003F8046010BD000000487047982001202B
:1031A00000487047982001207546FFF7F9FFAE46AA
:1031B00005006946534620F00700854618B020B543
:1031C000FDF744F8BDE820404FF000064FF000073F
:1031D0004FF000084FF0000B21F00701AC46ACE8BF
:1031E000C009ACE8C009ACE8C009ACE8C0098D462C
:1031F00070470446AFF300802046FDF70EF803B495
:1032000001984100009850EAC12018BF04204A0DDF
:1032100018BF40F0010040F2FF72B2EB515F08BFEF
:1032200040F00200012808BF052002B070470000EE
:1032300010B52F499FED2C1B2DED020B84B0059886
:1032400020F000408842D8BF9DED040B2DDD2949B8
:10325000884209D1049840B94FF00100FFF795FF6B
:1032600000F0A2FC06B010BD05DB9DED040B00F0E4
:103270008FFC06B010BD68469DED040B00F0A0F871
:1032800010F0030004BF9DED021B9DED000B0CD060
:1032900001280ED09DED021B9DED000B022817D0DA
:1032A000012000F0DDFB06B010BD00F0A5FA06B06D
:1032B00010BD9DED021B9DED000B012000F0D0FB29
:1032C00051EC100B00F09CFC06B041EC100B10BD53
:1032D00000F092FA51EC100B00F092FC06B041ECB9
:1032E000100B10BD000000000000000000000000F6
:1032F000FB21E93F0000F07F10B52F499FED2C1B0B
:103300002DED020B84B0059820F000408842DCBF10
:1033100000209DED040B32DD2849884209D1049834
:1033200040B94FF00100FFF730FF00F03DFC06B060
:1033300010BD05DB9DED040B00F02AFC06B010BDAE
:1033400068469DED040B00F03BF810F0030011D02F
:10335000012818D09DED021B9DED000B02281AD00C
:1033600000F04AFA51EC100B00F04AFC06B041ECB8
:10337000100B10BD9DED021B9DED000B012000F018
:103380006FFB06B010BD9DED021B9DED000B00F024
:1033900033FA06B010BD012000F062FB51EC100BB7
:1033A00000F02EFC06B041EC100B10BD0000000038
:1033B0000000000000000000FB21E93F0000F07F5A
:1033C0002DE9F14F04462DED020B2DED088B8AB04F
:1033D0009FEDE70B80ED020B139EE74826F00045BA
:1033E00085420ADC9DED120B002084ED000B0AB033
:1033F000BDEC088B03B0BDE8F08FE0489FEDE0AB7B
:103400009FEDE1BBA84247DDE14F9FEDE39B9FEDC0
:10341000E48B9DED120B53EC1A2B51EC100B002E8C
:103420001CDD01F009F841EC100BBD4208D053EC53
:103430001B2B51EC100B00F0FFFFC4E900010BE067
:1034400053EC192B51EC100B00F0F6FF53EC182B3A
:1034500000F0F2FFC4E900010120C8E700F0DCFB46
:1034600041EC100BBD4208D053EC1B2B51EC100B60
:1034700000F0D2FBC4E900010BE053EC192B51EC36
:10348000100B00F0C9FB53EC182B00F0C5FBC4E98E
:1034900000014FF0FF30AAE7C348A84279DB9DED59
:1034A000120B51EC100B00F09FFB41EC180B9FED41
:1034B000C00B53EC102B00F07FFE9FEDBF1B53ECB5
:1034C000112B00F0A9FB00F0B3FD074600F00DFE44
:1034D00041EC190B53EC1A2B00F06EFE53EC182B39
:1034E00000F09EFF41EC180B53EC1B2B51EC190B19
:1034F00000F062FEDFF8C8A241EC100B4FEA15584D
:103500000125FA4453EC102B51EC180B00F094FFFA
:10351000032DC4E900013DD0C1F30A5005EB45116C
:10352000A8EB00001139814234DA0AEB051BB0EE3A
:1035300048AA9BED000BF0EE68AA53EC102B51EC5F
:10354000190B00F039FE41EC1B0B51EC1A0B53EC3C
:103550001B2B00F071FF41EC180B51EC1A0B53ECD4
:10356000182B00F069FF53EC1B2B00F065FF9BED5F
:10357000020B41EC1A0B53EC102B51EC190B00F021
:103580001BFE53EC1A2B00F057FF41EC100B6D1C87
:10359000B8E70EE0002EA8BF3846BFF628AF94ED7E
:1035A000000B51EC100B00F02BFBC4E9000178423A
:1035B0001DE7C6F3130040F4801EC6F30A50A0F2C4
:1035C000F530471100F01F05C5F12000DDF848B0C7
:1035D00008900020069007900520EC467949002DC0
:1035E00007EB0002794408BF51F8221009D051F8C6
:1035F000223001EB8201AB404A68089922FA01F1BE
:103600001943A1FB0E26A1FB0B131A449A4234BFA7
:103610000123002303EB06080CEB8003D3E901A68A
:103620000E448E4234BF0121002192448A4411B1DC
:10363000924502D903E0924501D2012100E0002128
:10364000C3E901A641444CF82010011EA0F101007D
:10365000C4DC029800F10050850F0298DDE9036791
:103660008000DDF8148000F040FD41EC1A0B30467C
:1036700000F052FD9FED541B53EC112B00F09CFD0C
:1036800041EC1B0B384600F047FD9FED511B53ECFE
:10369000112B00F091FD41EC180B404600F03CFD71
:1036A0009FED4D1B53EC112B00F086FD41EC190BE7
:1036B00051EC180B53EC192B00F0AEFA53EC1B2B0A
:1036C00000F0AAFA53EC1A2B00F0A6FACDE9080193
:1036D000002008909DED080B53EC1A2B51EC100BB9
:1036E00000F0AAFE53EC1B2B00F0A6FE53EC182BA7
:1036F00000F0A2FE53EC192B00F092FE9FED381B58
:1037000053EC112B00F058FD9FED370B41EC180BDB
:1037100053EC102B9DED080B51EC100B00F04CFD01
:1037200053EC182B00F078FA9FED310B41EC180B9D
:1037300053EC102B9DED080B51EC100B00F03CFDF1
:1037400053EC182B00F068FA41EC100B139810F0B2
:10375000004F06D06D4251EC100B00F051FA41ECD5
:10376000100B284684ED000B41E60000000000002D
:103770000000000000000000FB21E93F7CD902406E
:1037800000004054FB21F93F3163621A61B4D03D1F
:10379000FB21F93F000000000000601A61B4D03D39
:1037A0007370032E8A19A33BFB21394100000000EE
:1037B00083C8C96D305FE43F000000000000E03FB7
:1037C0006A140000B8130000000000000000103E62
:1037D000000000000000103C000000000000103A53
:1037E000182D4454FB21F93D3326A611460B113CFC
:1037F00000000054FB21F93D10B52DED040B2DED1B
:10380000088B82B0B0EE419AF0EE619A0B9820F0EE
:1038100000449FED4BABB4F1795F11DA9DED0A0BDB
:1038200051EC100B00F004FC002801BFB0EE4A0A76
:10383000F0EE6A0A02B0BDEC088B04BF04B010BD04
:103840009DED0A0B53EC102B51EC100B00F0B4FC67
:1038500041EC180B3C480621B0EE480AF0EE680A2D
:10386000784400F081F853EC182B51EC100B00F069
:10387000A3FC9DED0A0B41EC1B0B53EC192B51ECF7
:10388000100B00F099FC41EC190B53EC1B2B51EC85
:10389000180B00F091FC53EC192B00F0CDFD9FEDBF
:1038A0002C0B41EC190B53EC102B51EC180B00F0C6
:1038B00083FC41EC100B2848844210DA53EC192B9E
:1038C00051EC100B00F0B8FD53EC1A2B00F0A8FDE2
:1038D00041EC100B02B0BDEC088B04B010BD1F48CA
:1038E000A042BCBF9FED1E1B8DED001B06DBA4F5A7
:1038F00000100190002000909DED001B51EC100B7A
:1039000053EC112B00F098FD9DED000B41EC180BD2
:1039100053EC102B51EC1A0B00F08EFD41EC1A0BFE
:1039200053EC192B51EC180B00F086FD53EC1A2BBD
:1039300000F076FD41EC100BCCE700000000000029
:10394000000000000000F03FDC100000000000005C
:10395000000000000000E03F3333D33F0000E93FA8
:10396000000000000000D23F70B504462DED028B30
:103970004D1E00EBC500B0EE408AF0EE608A90ED7F
:10398000000B35F0060017D053EC182B51EC100B40
:1039900000F012FC41EC100B6D1E04EBC50090ED25
:1039A000001B51EC100B53EC112B00F035F941ECDE
:1039B000100B35F00600E7D1022D36D0042D1CD0B7
:1039C000062D1CBFBDEC028B70BD53EC182B51ECC7
:1039D000100B00F0F1FB94ED0A1B53EC112B00F0DF
:1039E0001BF953EC182B00F0E7FB94ED081B53EC8C
:1039F000112B00F011F941EC100B53EC182B51EC8A
:103A0000100B00F0D9FB94ED061B53EC112B00F0CA
:103A100003F953EC182B00F0CFFB94ED040B53EC9F
:103A2000102B00F0F9F841EC100B53EC182B51EC73
:103A3000100B00F0C1FB94ED021B53EC112B00F0B6
:103A4000EBF853EC182B00F0B7FB94ED001B53EC94
:103A5000112B00F0E1F8BDEC028B41EC100B70BDB6
:103A600031B504462DED040B2DED0A8BB0EE41BAB5
:103A7000F0EE61BA0B989DED0A0B20F00040B0F11A
:103A8000795F0DDA51EC100BFFF7B9FB042808BF82
:103A900000F09AF89DED0A0BBDEC0A8B05B030BD25
:103AA00053EC102B51EC100B00F086FB41EC180B83
:103AB0009DED0A0B53EC182B51EC100B00F07CFB26
:103AC00041EC190B2C48B0EE480AF0EE680A0521CB
:103AD0007844FFF749FF9FED2ACBB0EE40AAF0EE05
:103AE00060AA9CB353EC1C2B51EC190B00F064FB47
:103AF00041EC1C0B53EC1A2B51EC190B00F05CFB46
:103B00009FED210B41EC190B53EC102B51EC1B0BCF
:103B100000F052FB53EC192B00F08EFC53EC182BE9
:103B200000F04AFB53EC1B2B00F086FC53EC1C2BE3
:103B300000F082FC9DED0A1B53EC112B00F070FC91
:103B4000BDEC0A8B05B041EC100B30BDFFE753EC28
:103B50001A2B51EC180B00F02FFB53EC1C2B00F030
:103B60005BF853EC192B00F027FB9DED0A1B53EC7F
:103B7000112B00F051F8E3E7640F00000000000093
:103B8000495555555555C5BF000000000000E03FA0
:103B900010B553EC102B51EC100B00F03DF841EC3C
:103BA000100B10BD000000009FED050B10B553EC8D
:103BB000102B51EC100B00F0E3F841EC100B10BD92
:103BC00000000000000000009FED050B10B553EC55
:103BD000102B51EC100B00F0EFFA41EC100B10BD64
:103BE000000000000000001082B0CDE9000121F0CB
:103BF000004001909DED000B02B051EC100B70479E
:103C000081F00041704780F00040704721F0004192
:103C1000704720F00040704710B591EA030F48BF8D
:103C200083F0004300F11084841A71EB030C05D279
:103C3000121943EB0C03001B61EB0C01DFF824E1CC
:103C40004FEA1154A4EB135C1EEA430F18BF9EEA1F
:103C5000445F73D023EA0E03DCF1200E21EA045105
:103C600043F4801332D322FA0CFE10EB0E0023FA39
:103C70000CFE41EB0E01CCF1200E03FA0EFE10EB10
:103C80000E0051F10001B1F5801FCCF1200E32D2AF
:103C900001EB045112FA0EF2BDE8104058BF704714
:103CA000401C38BF5FEA420218BF7047002814BFAB
:103CB00020F0010041F100014FEA410313F5001F1C
:103CC00038BF7047A1F1C04100F06EBB012A43EB41
:103CD0000302ACF1200CDCF11F0E32BF4FF0000EDE
:103CE00023FA0CF310EB030041EB0451B4EB115F2A
:103CF000D0D0A1EB045101F5801149085FEA3000F2
:103D000001EB04510ED350F1000038BF12FA0EFE41
:103D100008D1BDE81040C9E7401C38BF5FEA420245
:103D2000CAD1C3E7BDE810404FEA410313F5001FB5
:103D300038BF7047A1F1C04100F036BB9EEA445F36
:103D400008D011EA5E0FBDE8104004BF01F0004149
:103D500000207047BDE8104070B500F0D7FA00BFF2
:103D600064FBBE3E0000E0FF491058BFC1F1404176
:103D70005B1058BFC3F140438B42EFF300807047A4
:103D80002DE9C04130B4DFF8A0C23CEA111418BFDD
:103D90003CEA131400F0EC8081EA03051CEA1114DC
:103DA00044EAD57418BF1CEA131500F0C780A4EBD1
:103DB00005044FF0004545EAC12145EAC32341EA25
:103DC000505143EA525304F17F74994204F5003490
:103DD0004FEAC0204FEAC22208BF904200F09C8008
:103DE0004FEA13650FF24016765D4FEA134506FB66
:103DF00005F7C7F1807706FB07F74FEAD737A7FB30
:103E000003687642C8F58038A7FB06CE38BFA8F114
:103E1000010807FB08E64FF0000EA6FB028CE6FB4C
:103E200003CEDCF1000CCEF1004E38BFAEF1010E36
:103E3000A6FB0C584FF000074FF00005E6FB0E877D
:103E4000A1FB08C6A0FB07CE16EB0E0645F1000548
:103E5000E1FB076515F1E04E7EBFA4F580345FEA13
:103E600046066D4116F1800745F100054FEA172718
:103E70004FEA066647EA0567A6F1DE46B6F1805FBF
:103E80004FEA15251FD9384624F0010C05EBC47103
:103E9000BCF1FE6F01EB0C1102D8F0BCBDE8008153
:103EA00024425CBF01F5801E9EEAC47F02D4F0BCB0
:103EB000BDE80081244238D4F0BCA1F1C041BDE886
:103EC000004100F071BA4FEAD22242EA43524FEA6F
:103ED000D323A7FB02864FEAD02040EA415007FBDC
:103EE00003661EEA0E0F4FEAD12105FB026658BF9A
:103EF000A6EB0056B6EB00564FEA520E4EEAC37ED2
:103F000018EB0E0E56EB530EBDD518EB02085E41B2
:103F10007F1C55F10005B6E74FF480154FF0000700
:103F20004FF000064FF00008ADE7F0BC4FF0000086
:103F300001F1C04101F00041BDE8008111EA0C1F10
:103F40000CEA131500D00CE013EA0C1F00F02580DA
:103F50004FF00000F0BC81EA030101F00041BDE830
:103F60000081F0BCBDE8004181EA030100F01CBA09
:103F7000F0BCBDE8004170B500F0C8F9097EFC3E18
:103F800000F007B881EA03014FF0000001F00041A2
:103F9000704781EA030100F007BAF0BCBDE80041B8
:103FA0004FF0000021497047FFFDFBF9F7F5F4F2EF
:103FB000F0EEEDEBE9E8E6E4E3E1E0DEDDDBDAD8C4
:103FC000D7D5D4D3D1D0CFCDCCCBCAC8C7C6C5C422
:103FD000C2C1C0BFBEBDBCBBBAB9B8B7B6B5B4B339
:103FE000B2B1B0AFAEADACABAAA9A8A8A7A6A5A424
:103FF000A3A3A2A1A09F9F9E9D9C9C9B9A999998E8
:104000009797969595949393929191908F8F8E8E8A
:104010008D8C8C8B8B8A8989888887878685858417
:1040200084838382828181800000FF070000F87F03
:104030004FEA41034FEA5353A3F58063D3F11E03C4
:10404000C8BFD3F1210C0CDD4FF0004242EAC1227F
:1040500042EA505232FA03FC8CEAE17CACEBE170AC
:104060007047102BC4BF0020704703F5787CBCF16B
:10407000FF3F04D06FF0004282EA2100704770B524
:1040800000F044F94992248000207047F2E70000D4
:104090004FEA1153A3F58063D3F11E03A8BFD3F1F8
:1040A000200C08DB4FF0004242EAC12252EA505293
:1040B00032FA03F0704709420BD4102BC4BF002022
:1040C000704703F5787CBCF1FF3F05D04FF0FF301F
:1040D00070474FF00000704770B500F017F900BF4F
:1040E0004992248000207047F0E710F0004248BF5A
:1040F0004042B0FA80F310FA03F10AD0C3F11D0375
:1041000003F580634FEA415002EB035202EBD121E9
:1041100070474FF000007047B0FA80F310FA03F1D7
:104120000AD0C3F11D0303F580634FEA41504FEA03
:10413000035202EBD12170474FF00000704700009E
:1041400051EA030C17D41CF5801F58BFBCF5801F23
:1041500000F10680994218BF704708BF904270472F
:1041600007D711F5801F58BF13F5801F19D4994246
:104170007047894270471CF5801F08D5BCF5801F29
:10418000F7D58B4218BF704708BF824270474FF483
:10419000001C1CEB410F38BF1CEB430F01D28B42BC
:1041A000704770B500F0B2F8922449004FF000510A
:1041B0004FF08053FFF7D8BDDFF848C170B51CEA57
:1041C000111E1EBF1CEA13159EEA0C0F95EA0C0F78
:1041D00000F06F8081EA030423EA4C134EEAD47E98
:1041E00021EA4C1141F4801143F48013AE44A1FB49
:1041F000024CA0FB0365AEF17F7E361955EB0C0532
:10420000A1FB034C4CF10003A0FB021C16EB0C06B7
:10421000654153F10003094218BF46F0010613F44B
:10422000007F0BD14FEA03314FEA0530340341EAF6
:10423000155140EA16506FF003020AE04FEAC3211D
:104240004FEAC520F40241EA555140EA56506FF05A
:10425000020202EB2E4201EB025585EACE710AD032
:104260005FEA440C18BF24F0004450F1000041F113
:10427000000120EAD47040F2FE7C624500D270BD9D
:10428000A84214BF4FF080444FF04044002E08BFB6
:104290000024BEF1806FA8BFA1F1C041BDE870400D
:1042A00080F282804FF0000001F1C04101F0004136
:1042B00070479EEA0C0F0CEA131518BF95EA0C0F15
:1042C00006D04FF0000081EA030E0EF0004170BDF1
:1042D00000F01CF88900013E00F007B800F009B8B2
:1042E0004FEA430C5FEA5C5C08D081EA030100F00E
:1042F0005BB84FEA410C5FEA5C5CF6D14FF000001E
:10430000014970470000FF070000F87F0EF1020E20
:104310002EF0030E5EF8046B364205D4012A43EBFF
:10432000030515F5001F12D8012841EB010C1CF5FF
:10433000001F0CD80ED14FEAD17C15F5001F0CEBF5
:104340004C0C0CF1020C08BF4CEBD37C04E04FF09A
:10435000080C01E04FEAD37C0CEB4C0526FA05F67D
:1043600006F00706B6F1040C06D20EEB860CBDE88B
:1043700070404CF0010C6047DFE80CF0090B0202C2
:104380004FF000414FF00000A1F5002170BD19462B
:104390001046012851EB010418BFD4F5001484BF66
:1043A000002001F0004170BD0808A0F500114FEA9F
:1043B0003101704753EA010C17D41CF5801F58BF18
:1043C000BCF5801F00F106808B4218BF704708BF04
:1043D0008242704707D713F5801F58BF11F5801F21
:1043E00019D48B4270479B4270471CF5801F08D53B
:1043F000BCF5801FF7D5994218BF704708BF90429F
:1044000070474FF4001C1CEB430F38BF1CEB410FEF
:1044100001D2994270470FB40CBC03BCFFF7C1BE78
:1044200091EA030F10B581F000413FF5FDAB83F039
:10443000004300F009B8000010B591EA030F48BF2F
:1044400083F000433FF5F0AB841A71EB030C07D205
:1044500012198CF0004C43EB0C03001B61EB0C01B8
:10446000DFF8A4E14FEA1154A4EB135C1EEA430FFA
:1044700018BF9EEA445F00F0B08023EA6E03524208
:1044800021EA0451C3EB6E0338BF5B1EDCF1200E42
:1044900025D322FA0CFE10EB0E0043FA0CFE41EB82
:1044A0000E01CCF1200E03FA0EFE10EB0E0051F1BE
:1044B0000001CCF1200E29D412FA0EF201EB0451C6
:1044C000BDE8104058BF7047401C1CBFB2F1004F00
:1044D000704700280CBF491C20F00100704712EB08
:1044E000020E43EB030218BF4FF0010E4EEA4202E8
:1044F000ACF1200CDCF11E0E54D943FA0CFE10EB8B
:104500000E0051F1FF31CCF11E0ED5D50EF1010E8A
:1045100012FA0EFE404141EB010101EB445C5FEAFF
:104520005C5C10D910EBDE7001EB045138BFBEF1BA
:10453000004FBDE8104018BF704700280CBF491C51
:1045400020F00100704730D24FEAD42C11F5001151
:1045500024F400641BD0B1FA81F20B3AA41AA41E11
:10456000D2F12003914030FA03F31943904001EB5C
:10457000CC71002C01EB0451BDE81040A8BF70477E
:1045800001F1C0414FF0000001F000417047B0FA66
:1045900080F310FA03F100D110BDE41A173C48056E
:1045A000C90AE4E701EB045110BD491001EB0451C5
:1045B000BDE810404FEA300002E04FF000017047C4
:1045C0004A0008BF0042F8D0B2F5001F28BF70476C
:1045D00001F000414FF0000070479EEA445F07D0B1
:1045E00011EA5E0FBDE8104004BF002100207047B3
:1045F000BDE8104070B5FFF789FE00BF40DFF63E12
:1046000083F00041104670470000E0FF43004FEA8E
:10461000D30C4FEA3C0C43401FBF40070CF16051E4
:1046200013F0FE4F70471CF0006F03D100200CF018
:10463000004170470CF0004343EA507010B540EA67
:10464000CC0000F00EF800BF000000924FEA00011D
:10465000FFF7AABE4FF000414FF00000A1F5002186
:1046600070470EF1020E2EF0030E5EF8044B24424A
:1046700004D44FEA4102B2F17F4F11D84FEA400310
:10468000B3F17F4F0CD80ED14FEAD07CB2F17F4FFF
:104690000CEB4C0C0CF1020C08BF4CEBD17C04E091
:1046A0004FF0080C01E04FEAD17C0CEB4C0324FAEC
:1046B00003F404F00704B4F1040C06D20EEB840CEE
:1046C000BDE810404CF0010C6047DFE80CF0070833
:1046D00002024FF00040A0F5800010BD08464200E5
:1046E00018BFD2F1807288BF00F0004010BD4FF0BB
:1046F0004070E1EE100A70473A0440101214328004
:104700001716180419021A7A030A0C0C15003E0039
:104710007000710172117309A20211007A207B1CD2
:104720007C287D3C7E557F68807681808288838F5F
:10473000849685A386AF87C488D789E813E00000F4
:1047400010000D001420A505AB072475256326A5D0
:104750009F78A068A103A6DFA7DFA8F0A990AA947C
:1047600013E50E610F4B16021E2721022291290725
:10477000330B350B371D3871392A3C784D404E20AC
:10478000695D6B8074198D4F8E008F0090009100D1
:10479000920096009A80B084B10CB20EB382B80A2F
:1047A000431444F0453446584728483A59885A88B3
:1047B0005B445C675D495E0E640465206605940495
:1047C00095086C0A6D554F80508051005222535EFF
:1047D000548009036E116F9F550056405780121088
:1047E0003A143D80671168FF40C0328017161804E4
:1047F00019021A7A030A0C0C15003E0070007101B0
:1048000072117309A20211007A207B1C7C287D3C66
:104810007E557F68807681808288838F849685A389
:1048200086AF87C488D789E813E0000010000D0028
:104830001420A505AB072475256326A59F78A068DD
:10484000A103A6DFA7DFA8F0A990AA9413E50E6143
:104850000F4B16021E27210222912907330B350B1D
:10486000371D3871392A3C784D404E20695D6B40C8
:1048700074198D4F8E008F00900091009200960069
:104880009A80B084B10CB20EB382B80A431444F0DB
:10489000453446584728483A59885A885B445C67EB
:1048A0005D495E0E640465206605940495086C0AF3
:1048B0006D554F80508051005222535E5480090341
:1048C0006E116F9F55005640578000000000000099
:1048D00000000000000000000000000000000000D8
:1048E00000000000000000000000000000000000C8
:1048F00000000000000000000000000000000000B8
:1049000000000000000000000000000000000000A7
:104910000000000000000000000000000000000097
:104920000000000000000000000000000000000087
:104930000000000000000000000000000000000077
:104940004C5555555555A53F7751C1166CC156BFAD
:104950009015CB19A001FA3EAD529C804F7E92BEBD
:10496000C4B1B4BD9EEE213ED43888BEE9FAA8BDDC
:1049700000004054FB21F93F3163621A61B4D03D1D
:104980000000601A61B4D03D7370032E8A19A33BF6
:104990000000002E8A19A33BC14920259A837B3948
:1049A00000000000000000006E83F9A22915444EAB
:1049B000D15727FCC0DD34F5999562DB4190433C2B
:1049C000AB6351FE61C5BBDE3A6E24B7E0D24D4207
:1049D000EA2E49061C92D1091CEB1DFE3EA729B107
:1049E000F53582E88444BB2E26709CE9417E5FB495
:1049F00039D69139F43953838B5F849C3B28F9BDB8
:104A0000FF97F81F0F9805DE8B112FEF1F6D0A5AC5
:104A1000CF7E366DB709CB27663F464F2DEA5F9EA6
:104A2000C7BA27757BF1E5EBF739073DEA92528A61
:104A3000B15FFB6B085D8D1FA6F810111111813F4E
:104A4000D561C119A0012ABF7DFEB157E31DC73E44
:104A5000EB9C2B8AE6E55ABE7CD5CF5A3AD9E53D88
:104A6000804A0008000000202C000000C40100085B
:104A7000AC4A00082C000020CC240100E001000812
:104A8000020000000200000002000000FFFFFFFF24
:104A9000FFFFFFFFFFFFFFFFFFFFFFFF0000000022
:0C4AA0000000000000000000000000000A
:040000050800018965
:00000001FF
