:020000040800F2
:10000000C837012029020008370200083902000819
:100010003B0200083D0200083F020008000000000B
:100020000000000000000000000000004102000885
:1000300043020008000000004502000847020008D3
:100040004902000849020008490200084902000864
:100050004902000849020008490200084902000854
:1000600049020008913900084902000849020008C5
:100070004902000849020008490200084902000834
:100080004902000849020008490200084902000824
:1000900049020008490200084902000851390008D5
:1000A0004902000849020008490200084902000804
:1000B000CD380008E337000849020008490200086B
:1000C00049020008490200084902000849020008E4
:1000D00049020008453000084902000849020008AA
:1000E00049020008490200084902000849020008C4
:1000F00049020008490200084902000849020008B4
:1001000049020008490200084902000849020008A3
:100110004902000849020008490200084902000893
:100120004902000849020008490200084902000883
:100130004902000849020008490200084902000873
:100140004902000849020008490200084902000863
:100150004902000849020008490200084902000853
:100160004902000849020008490200084902000843
:100170004902000849020008490200084902000833
:10018000490200084902000800F002F800F03CF8BB
:100190000AA090E8000C82448344AAF10107DA45E2
:1001A00001D100F031F8AFF2090EBAE80F0013F0F8
:1001B000010F18BFFB1A43F0010318476C550000EC
:1001C0008C550000103A24BF78C878C1FAD852077D
:1001D00024BF30C830C144BF04680C6070470000C1
:1001E0000023002400250026103A28BF78C1FBD840
:1001F000520728BF30C148BF0B6070471FB505F0DC
:10020000DAF81FBD10B510BD03F01CFE1146FFF754
:10021000F5FF00F09DF803F04EFE03B4FFF7F2FF88
:1002200003BC02F001FF00000B48016841F47001BB
:1002300001600A480047FEE7FEE7FEE7FEE7FEE74B
:10024000FEE7FEE7FEE7FEE7FEE70000044805499B
:10025000034A054B7047000088ED00E08901000863
:10026000C8330120C8370120C833012010B5002150
:10027000084600F00AFB00F09BFB01F043F801F098
:10028000C3FE01F073FC4FF08040406A6449098866
:1002900008446349088000204FF08041486261486B
:1002A0000068052805DC5E4800884CF25031884221
:1002B00014DD4FF0FF305C4908605C4908600020A5
:1002C0005B49086006205B490860584908604FF0A8
:1002D0008040008800204FF08041088010BD10B59C
:1002E0000021084600F0D1FA00F062FB00F0F9FEB0
:1002F00001F05BFE01F03AFC4FF08040406A484953
:10030000098808444649088000204FF0804148622F
:1003100044480068052805DC414800884CF250310B
:10032000884214DD4FF0FF303F4908603F490860C4
:1003300000203F49086006203E4908603B490860AC
:100340004FF08040008800204FF08041088010BDB1
:1003500000F021FA63E000BF374800780028FBD0A6
:1003600033487C38006850BB31486C38006830BB7B
:100370000021084600F089FA00F01AFB00F0B1FEF7
:1003800001F01DF901F0C2FC01F0FFFB0AE00120C1
:10039000274908608007008840F00100C9060880EE
:1003A000FFF79DFF23480068002838DB21480068DC
:1003B000062834DA1E487C38006880BBE7E71C4812
:1003C0007C38006858BB1A486C380068012826D170
:1003D0000021084600F059FA00F0EAFA00F092FF16
:1003E00001F0EDF801F047FD01F0CFFB0AE001203C
:1003F0000F4908608007008840F00100C9060880A6
:10040000FFF734FF0B480068002808DB0948006844
:10041000062804DA06487C3800680028E7D09AE706
:1004200002000020140000201C0000201800002002
:10043000888241421000002020000020F8B50646C6
:1004400000242EE0002529E004EB840006EB0010D8
:10045000405DAA2807D1AB21502000FB0450401D6D
:10046000F84A115419E004EB840006EB0010405DDB
:10047000552807D15621502000FB0450401DF14A59
:1004800011540AE004EB840006EB0010415D50209B
:1004900000FB0450401DEB4A11546D1C502DD3DB62
:1004A000641C3C2CCEDBAA20E64908705521E648A6
:1004B00080F8C51241F2C620E24BE44A04210090C4
:1004C000E34803F0EDFA8020E049091F888241F2F9
:1004D000C621DF4803F072FBDD48B438006800F045
:1004E000006038B1DA48AC38006840F00060D849A4
:1004F000AC390860F8BD2DE9F0414FF49652D5496A
:10050000D54803F0DFFB01249DE0012597E0611C45
:1005100001EB8101D04A02EB0112691E525C611CA1
:1005200001EB8101CC4B03EB0111495D022313FB6D
:100530000122611C01EB8101C74B03EB0113691C14
:10054000595C0A44611E01EB8101C34B03EB0113AB
:10055000691E5B5C611E01EB8101DFF8FCC20CEBE4
:100560000111495D4FF0020C1CFB0133611E01EBD0
:100570008101DFF8E4C20CEB011C691C1CF80110BE
:100580001944501A002801DB014600E04142CEB276
:10059000611E01EB8101B04A02EB0112691E525C3F
:1005A00004EB8401AC4B03EB0113691E595C02237D
:1005B00013FB0122611C01EB8101A74B03EB01132B
:1005C000691E595C0A44611E01EB8101A24B03EBD9
:1005D0000113691C5B5C04EB8401DFF87CC20CEB4B
:1005E000011C691C1CF801104FF0020C1CFB0133AC
:1005F000611C01EB8101DFF860C20CEB011C691C7E
:100600001CF801101944501A002801DB014600E0D3
:100610004142CFB206EB0708B8F13C0F07DDFF20DF
:1006200004EB84018B4A02EB0111485506E00020DF
:1006300004EB8401874A02EB011148556D1C4F2DD4
:10064000FFF665AF641C3B2CFFF65FAF4FF496518D
:10065000814803F08BFBBDE8F0812DE9F04F0446A3
:100660000D460022002772B60023DFF8F0C1CCF857
:100670009432DFF8ECC1CCF884320123CCF8843218
:100680000023CCF884320123DFF8D0C1CCF89432B7
:10069000DFF8CCC1CCF8843200216CE0002065E0AA
:1006A0000023DFF8BCC1CCF884326E4B1B68DEB28D
:1006B0000123CCF884320023CCF884320123CCF817
:1006C00084324FEAE17801EB98784FEAA808A1EB71
:1006D0008808B8F1000F47D14FEAE07800EB98782E
:1006E0004FEAA808A0EB8808B8F1000F3CD14FEA08
:1006F000E07A00EB9A7A4FEAAA0AA24534DB4FEA85
:10070000E17A01EB9A7A4FEAAA0AAA452CDB8446E1
:100710004FEAE07A00EB9A7A4FEAAA0B04F1500A0A
:10072000D34521DA0B464FEAE17A01EB9A7A4FEA98
:10073000AA0B05F13C0AD34516DA502A09DA07EB71
:100740008703DFF810C10CEB03139E54531C9AB2BD
:100750000AE000227B1C9FB207EB8703DFF8F4C09E
:100760000CEB03139E54521C431C98B2B0F5A07FAF
:1007700096DB4B1C99B2F02990DB4FF40073DFF845
:10078000E8C0CCF800300023DFF8E0C08CF800307F
:1007900062B6BDE8F08F10B50723022208214FF49E
:1007A000A87002F0F9FBA82002F098F94FF4E131AB
:1007B000542002F055FC02F0D7FC4FF47A7002F09E
:1007C000E1F9002002F06CFD4FF4A073F022AE219D
:1007D0000A2002F037FE00202549086003F028F9BE
:1007E00003F002FA03F031F942F2CF0147F22F5041
:1007F00002F0B0FF44F29F114CF24F3002F0D4FFF0
:1008000001201C49C1F8980249F6404002F0BAF9AB
:1008100000210846FFF721FF002017490860FFF775
:100820006AFE0C48FFF70AFE10BD08210E4A11604F
:1008300020B30D491439096821F008010A4A143A15
:10084000116021E0344B0020345B00200410014093
:10085000B864024034000020B42500200000424269
:100860000000414210140240143C014030000020BE
:10087000B40241420080414298824142FA490968EB
:1008800041F00801F84A116070472DE9F05F074612
:1008900088460026B24672B60020F4490860F44942
:1008A000C1F884020120F34908600020086001209B
:1008B000EE490860EE49C1F88402002565E0002495
:1008C0005EE00020EB490860EB48006800F0FF099B
:1008D0000120E749C1F884020020E64908600120B0
:1008E000E349C1F88402EA1705EB92729210A5EB76
:1008F0008202AABBE21704EB92729210A4EB82026E
:1009000072BB4FEAE47C04EB9C7C4FEAAC0CBC4528
:1009100034DB4FEAE57C05EB9C7C4FEAAC0CC4452C
:100920002CDB4FEAE47C04EB9C7C4FEAAC0B07F138
:10093000500CE34522DA4FEAE57C05EB9C7C4FEA5C
:10094000AC0B08F13C0CE34518DA502E09DA0AEB3F
:100950008A00CA4901EB001000F80690701C86B2AC
:100960000CE000260AF101001FFA80FA0AEB8A0067
:10097000C24901EB001000F80690761C601C84B29E
:10098000B4F5A07F9DDB681C85B2F02D97DB4FF49A
:100990009652BA49BA4803F095F94FF40070B2493B
:1009A000143108600020B749087062B6BDE8F09FB6
:1009B0002DE9F05F2DED068B4FF0000A00270EE0C9
:1009C0000020B14921F81700B049C8559FEDB00A81
:1009D000B04800EB870080ED000A781C87B2FF2F3B
:1009E000EEDD00244DE0002547E0AB4A1268A21A74
:1009F000A94B1B68E31A5A43A84B1B68EB1ADFF894
:100A00009CC2DCF800C0A5EB0C0C03FB0C23A44A31
:100A10001168CA1701EB5272DFF884C2DCF800C01B
:100A2000ACEBE202DFF878C2DCF800004FEAE07CD1
:100A300000EB5C7CDFF868B2DBF800B0ABEBEC0CF1
:100A400002FB0CF2934216DA04EB84008C4901EBB2
:100A50000010405D8C4931F81000401C04EB84010B
:100A6000874A02EB0111495D874A22F811000AF119
:100A700001001FFA80FA681C85B2502DB5DB601C9E
:100A800084B23C2CAFDB4FF0000815E07E4830F814
:100A9000180000EE100AF8EE400A00EE10AAB8EEB8
:100AA000400A80EE801A7B4800EB880080ED001A37
:100AB00008F101001FFA80F8B8F1FF0FE6DD01260A
:100AC00013E0701E734901EB800090ED000A0846A8
:100AD00000EB8600D0ED000A30EE200A084600EB5D
:100AE000860080ED000A701C86B2B6F5807FE8DDD6
:100AF0004FF0000926E0674A09F1010002EB80008F
:100B000090ED000A10EE101A084604F0E3FB41ECE9
:100B10001A0B9FED640B53EC102B04F0B1F941EC70
:100B2000190B9FED620B53EC102B03F0D9FE41EC37
:100B3000180B04F011F9554901F8090009F10100F9
:100B40001FFA80F9B9F1FF0FD5DD002444E000253C
:100B50003EE0514A1268A21A4F4B1B68E31A5A43EF
:100B60004E4B1B68EB1ADFF834C1DCF800C0A5EB74
:100B70000C0C03FB0C234A4A1168CA1701EB527292
:100B8000DFF81CC1DCF800C0ACEBE202DFF810C1FA
:100B9000DCF800004FEAE07C00EB5C7CDFF800B1A1
:100BA000DBF800B0ABEBEC0C02FB0CF293420DDA7D
:100BB00004EB8400324901EB0010405D3349085CCE
:100BC00004EB84012E4A02EB01114855681C85B2E2
:100BD000502DBEDB601C84B23C2CB8DBBDEC068B18
:100BE000BDE8F09FF0B5ADF5007DDFED320A60EEB7
:100BF000200AFCEEE00A10EE900A85B2002103E024
:100C000000202DF81100491CFF29F9DD012117E012
:100C1000012212E001EB8100184E06EB0010805C0F
:100C20003DF81000401C80B201EB8106134F07EB2A
:100C30000616B65C2DF81600521C4F2AEADB491C3A
:100C40003B29E5DB00230024FF2105E03DF81100EE
:100C5000184483B2641C491EAB42F7DBC4F1FF00A9
:100C60000DF5007DF0BD0000003C014094024242C1
:100C700000004142840241421014024074380020B6
:100C8000F4120020300000204031012040300120CB
:100C9000000000003C2C012008000020040000207F
:100CA0000C0000200000000000E06F400000000089
:100CB0000000E03F00A891452DE9F0470120FA49E6
:100CC00008704FF49652F949F94802F0FBFF9FED86
:100CD000F90AFFF787FF814601249CE0012596E091
:100CE000611C01EB8101F24A02EB0112691E525CA8
:100CF000611C01EB8101EE4B03EB0111495D022305
:100D000013FB0122611C01EB8101E94B03EB011391
:100D1000691C595C0A44611E01EB8101E44B03EB41
:100D20000113691E5B5C611E01EB8101DFF880C36A
:100D30000CEB0111495D4FF0020C1CFB0133611EED
:100D400001EB8101DFF868C30CEB011C691C1CF886
:100D500001101944501A002801DB014600E041420D
:100D6000CEB2611E01EB8101D14A02EB0112691E74
:100D7000525C04EB8401CE4B03EB0113691E595CFA
:100D8000022313FB0122611C01EB8101C84B03EB21
:100D90000113691E595C0A44611E01EB8101C44BB9
:100DA00003EB0113691C5B5C04EB8401DFF800C3F7
:100DB0000CEB011C691C1CF801104FF0020C1CFB11
:100DC0000133611C01EB8101DFF8E4C20CEB011C73
:100DD000691C1CF801101944501A002801DB014657
:100DE00000E04142CFB206EB0708C84507DDFF200F
:100DF00004EB8401AD4A02EB0111485506E00020E6
:100E000004EB8401A94A02EB011148556D1C4F2DDA
:100E1000FFF666AF641C3B2CFFF660AF4FF49651B3
:100E2000A34802F0A3FFBDE8F0872DE9F0414FF49D
:100E300096529E499E4802F045FF01249DE00125FF
:100E400097E0611C01EB8101994A02EB0112691ED6
:100E5000525C611C01EB8101954B03EB0111495D73
:100E6000022313FB0122611C01EB8101904B03EB78
:100E70000113691C595C0A44611E01EB81018C4B12
:100E800003EB0113691E5B5C611E01EB8101DFF85E
:100E900020C20CEB0111495D4FF0020C1CFB013329
:100EA000611E01EB8101DFF808C20CEB011C691C1B
:100EB0001CF801101944501A002801DB014600E01B
:100EC0004142CEB2611E01EB8101794A02EB01126F
:100ED000691E525C04EB8401754B03EB0113691E20
:100EE000595C022313FB0122611C01EB8101704B51
:100EF00003EB0113691E595C0A44611E01EB810179
:100F00006B4B03EB0113691C5B5C04EB8401DFF8A2
:100F1000A0C10CEB011C691C1CF801104FF0020C65
:100F20001CFB0133611C01EB8101DFF884C10CEB78
:100F3000011C691C1CF801101944501A002801DB1F
:100F4000014600E04142CFB206EB0708B8F13C0F82
:100F500007DDFF2004EB8401544A02EB01114855E0
:100F600006E0002004EB8401504A02EB01114855D1
:100F70006D1C4F2DFFF665AF641C3B2CFFF65FAF79
:100F80004FF496514A4802F0F1FEBDE8F08110B5E9
:100F9000012014E001210FE000EB8002464B03EB3F
:100FA0000212525CFF2A06D1002200EB80033F4C64
:100FB00004EB03135A54491C4F29EDDB401C3B281A
:100FC000E8DB10BD2DE9F041ADF5007D03460020C2
:100FD00003E000262DF81060401CFF28F9DD0120F9
:100FE00048E0012143E0354E3668032796FBF7F6CB
:100FF000324F3F68BE1B314F3F684FF0030C97FBE9
:10100000FCF7DFF8B8C0DCF800C0ACEB07077E43A4
:101010002B4F3F68C71BDFF8A8C0DCF800C0A0EB6F
:101020000C0C07FB0CF7DFF89CC0DCF800C0A1EB50
:101030000C0CDFF89080D8F80080A1EB08080CFBBE
:101040000877BE4212DD00EB80061F4F07EB061645
:10105000765C3DF81660761CB6B200EB8007DFF8D0
:1010600068C00CEB07177F5C2DF81760491C4F29EF
:10107000B9DB401C3B28B4DB002004E03DF81060E5
:101080002E44B5B2401C0028F8DB5E1B00EE906ACF
:10109000F8EEE00A60EE800AFCEEE00A10EE906ADC
:1010A000B4B20022FF2016E0310000207438002086
:1010B000B4250020CDCCCC3D340000200C00002015
:1010C0000800002004000020F41200203DF8106009
:1010D0001644B2B2401EA242F8DB0DF5007DBDE819
:1010E000F0812DE9F0474FF000094FF49652FA498C
:1010F000FA4802F0E7FD01242BE0012526E0F8483C
:101100000068062190FBF1F0F5490968081AF449D6
:101110000968062291FBF2F1F14A1268511A48431C
:10112000F0490968611AEF4A1268A21A5143EE4A5F
:101130001268AA1AEC4B1B68EB1A02FB03118842D7
:1011400003DD09F101001FFA80F96D1C4F2DD6DB7C
:10115000641C3B2CD1DB48461FED2A0AFFF732FF07
:1011600000F0FF0A0124C3E00125BDE0DC4800686F
:10117000062190FBF1F0DA490968081AD849096894
:10118000062291FBF2F1D64A1268511A4843D5491A
:101190000968611AD34A1268A21A5143D24A1268E6
:1011A000AA1AD14B1B68EB1A02FB031188427DDDA2
:1011B000611C01EB8101C94A02EB0112691E525CFC
:1011C000611C01EB8101C54B03EB0111495D022359
:1011D00013FB0122611C01EB8101C04B03EB0113E6
:1011E000691C595C1144621E02EB8202BB4B03EB8B
:1011F00002136A1E9B5C621E02EB8202DFF8DCC2F5
:101200000CEB0212525D4FF0020C1CFB0233621E0B
:1012100002EB8202DFF8C4C20CEB021C6A1C1CF851
:1012200002201A44881A002801DB014600E04142EE
:10123000CFB2611E01EB8101A84A02EB0112691EC7
:10124000525C04EB8401A54B03EB0113691E595C4E
:10125000022313FB0122611C01EB81019F4B03EB75
:101260000113691E595C1144621E02EB82029B4B02
:1012700003EB02136A1C9B5C04EB8402DFF85CC284
:101280000CEB021C6A1C1CF802204FF0020C1CFB29
:101290000233621C02EB8202DFF840C20CEB021C3C
:1012A0006A1C1CF802201A44881A00E01BE000287F
:1012B00001DB014600E0414201F0FF0808EB0706B0
:1012C000564509DDC82E07DDFF2004EB8401824A64
:1012D00002EB0111485506E0002004EB84017E4A30
:1012E00002EB011148556D1C4F2DFFF63FAF641CFA
:1012F0003B2CFFF639AF4FF49651784802F036FD9B
:10130000BDE8F0872DE9F0474FF000084FF4965202
:101310007149724802F0D6FC01242BE0012526E039
:101320006F480068062190FBF1F06D490968081AC2
:101330006B490968062291FBF2F1694A1268511A59
:10134000484368490968611A664A1268A21A5143FB
:10135000654A1268AA1A644B1B68EB1A02FB031158
:10136000884203DD08F101001FFA80F86D1C4F2D43
:10137000D6DB641C3B2CD1DB40469FED5C0AFFF7BB
:1013800021FE00F0FF090124D4E00125CEE05448FD
:101390000068062190FBF1F051490968081A50498C
:1013A0000968062291FBF2F14D4A1268511A48432E
:1013B0004C490968611A4B4A1268A21A51434A4AB9
:1013C0001268AA1A484B1B68EB1A02FB03118842E9
:1013D0007EDD611C01EB8101404A02EB0112691EB6
:1013E000525C611C01EB81013C4B03EB0111495D37
:1013F000022313FB0122611C01EB8101374B03EB3C
:101400000113691C595C1144621E02EB8202334BCA
:1014100003EB02136A1E9B5C621E02EB8202DFF882
:10142000BCC00CEB0212525D4FF0020C1CFB0233ED
:10143000621E02EB8202DFF8A4C00CEB021C6A1CE5
:101440001CF802201A44881A002801DB014600E03B
:101450004142CEB2611E01EB8101204A02EB011232
:10146000691E525C04EB84011C4B03EB0113691EE3
:10147000595C022313FB0122611C01EB8101174B14
:1014800003EB0113691E595C1144621E02EB8202D8
:10149000124B03EB02136A1C9B5C04EB8402DFF823
:1014A0003CC00CEB021C6A1C1CF802204FF0020C22
:1014B0001CFB0233621C02EB8202DFF820C00CEB43
:1014C000021C6A1C1CF802201A44881A002800E03A
:1014D0002BE00DDB01460CE0F4120020B4250020C7
:1014E0000C00002008000020040000200AD7233C44
:1014F0004142CFB207EB060ACA450FDD04EB840078
:10150000F74901EB0010405DC82807DAFF2004EB23
:101510008401F34A02EB0111485506E0002004EB78
:101520008401EF4A02EB011148556D1C4F2DFFF667
:101530002EAF641C3B2CFFF628AF4FF49651E948C0
:1015400002F014FCBDE8F087F0B503460024012149
:101550002FE001222AE0E4480068062590FBF5F020
:10156000E14D2D68281AE04D2D68062695FBF6F50D
:10157000DD4E3668751B6843DC4D2D684D1BDB4E18
:1015800036688E1B7543DA4E3668961BD84F3F6817
:10159000D71B06FB0755A84207DD01EB8100D04DA4
:1015A00005EB0010805C204484B2521C4F2AD2DB31
:1015B000491C3B29CDDB94FBF3F0C0B2F0BD30B544
:1015C000012144E001203FE0C74A1268062392FB54
:1015D000F3F2C54B1B689A1AC34B1B68062493FB96
:1015E000F4F3C14C2468E31A5A43C04B1B68CB1A6E
:1015F000BE4C24680C1B6343BD4C2468041BBC4DCB
:101600002D68451B04FB05339A421CDD01EB81026A
:10161000B34B03EB0212125CFF2A14D14A1E02EBF9
:10162000820203EB0212125C6AB94A1C02EB8202CC
:1016300003EB0212125C32B9002201EB8103A84CC9
:1016400004EB03131A54401C4F28BDDB491C3B29F3
:10165000B8DB30BD2DE9F0472DED0C8B9FEDA50BD0
:10166000B0EE408AF0EE608A0027A3E04FF0000859
:101670009BE007EB8700A14901EB001010F8080080
:10168000FF287DD100248BE04FF0000983E048461D
:1016900003F08FFB41EC1A0B9FED990B53EC102BD1
:1016A00003F0EEFB41EC190B9FED970B53EC102B65
:1016B00003F0CAF941EC180BB0EE480AF0EE680AE4
:1016C00002F01AFCB0EE40CAF0EE60CA04F1140059
:1016D00003F06FFB41EC1D0B53EC1C2B03F0D0FB14
:1016E00041EC1A0B384603F064FB41EC1B0B53EC46
:1016F0001A2B03F005FD41EC190B03F0FDFA064629
:10170000B0EE480AF0EE680A02F05AFCB0EE40CAA9
:10171000F0EE60CA04F1140003F04BFB41EC1D0B2A
:1017200053EC1C2B03F0ACFB41EC1A0B404603F0CE
:1017300040FB41EC1B0B53EC1A2B03F0E1FC41EC9A
:10174000190B03F0D9FA0546002E22DD3C2E20DAD3
:10175000002D1EDD502D1CDA06EBC600C0EB8610F6
:101760006B4901EB001005EB450101EBC501084495
:10177000005D401C06EBC601C1EB8611644A00E027
:1017800011E002EB011105EB450202EBC502114429
:10179000085509F10A09B9F5B47F7FF778AF641CE1
:1017A0000B2CFFF671AF08F10108B8F1500FFFF6EE
:1017B00060AF7F1C3C2FFFF659AFBDEC0C8BBDE832
:1017C000F0872DE9F0474FF0000AD046C1460027C8
:1017D000FFF740FF0A262AE0002425E0002520E04C
:1017E00004EBC400C0EB8410494901EB001005EB89
:1017F000450101EBC5010844805D504510DD04EB57
:10180000C400C0EB8410424901EB001005EB450118
:1018100001EBC501084410F806A0A046A9463746CA
:101820006D1C502DDCDB641C3C2CD7DB761E002E9F
:10183000D2DA2F48C0F800902C48C0F8008007F199
:101840001400294908604CF64061314802F06CFAF6
:10185000002030490870BDE8F0872DE9F0472DEDF4
:101860000C8B9FED240BB0EE408AF0EE608A0024D2
:10187000ECE00025E6E01D4A1268A21A1B4B1B682B
:10188000E31A5A431A4B1B68EB1ADFF864C0DCF802
:1018900000C0A5EB0C0C03FB0C2C134A1268D21CE5
:1018A000114B1B68DB1C5A4394457CDC0F4A1268C1
:1018B000A01A002801DB024600E042420A4B1B68E6
:1018C000D91C01EBD1735B109A426CDA04EB8400F3
:1018D0000A4901EB0010405DFF2864D10026ADE00D
:1018E000F4120020B42500200C0000200800002085
:1018F00004000020000000000000000074380020F8
:101900004AD8124DFB2109400000000000806640CB
:10191000FA5D0020310000204FF0000989E04846C0
:1019200003F047FA41EC1A0B1FED0B0B53EC102B95
:1019300003F0A6FA41EC190B1FED0D0B53EC102B25
:1019400003F082F841EC180BB0EE480AF0EE680A9A
:1019500002F0D2FAB0EE40CAF0EE60CAFE49096861
:101960000939881903F025FA41EC1D0B53EC1C2BA7
:1019700003F086FA41EC1A0B204603F01AFA41EC08
:101980001B0B53EC1A2B03F0BBFB41EC190B03F0C0
:10199000B3F98046B0EE480AF0EE680A02F010FB98
:1019A000B0EE40CA00E04CE0F0EE60CAEA490968D7
:1019B0000939881903F0FDF941EC1D0B53EC1C2B80
:1019C00003F05EFA41EC1A0B284603F0F2F941EC01
:1019D0001B0B53EC1A2B03F093FB41EC190B03F098
:1019E0008BF90746B8F1000F21DDB8F13C0F1EDA84
:1019F000002F1CDD502F1ADA08EBC800C0EB88104E
:101A0000D64901EB001007EB470101EBC701084481
:101A1000805D401C08EBC801C1EB8811CF4A02EB86
:101A2000011107EB470202EBC7021144885509F187
:101A30000A09B9F5B47F7FF772AF761C0A2EFFF65C
:101A40006BAF6D1C502DFFF616AF641C3C2CFFF6DF
:101A500010AFBDEC0C8BBDE8F0872DE9F05F0027DF
:101A6000B846B946BC48D0F800B0BA46FFF7F5FE14
:101A7000092652E000244DE0002548E0B84B1B68E1
:101A8000E21A002A01DB134600E05342DFF8C8C225
:101A9000DCF800104FEAE17C01EB9C7C4FEAAC0CD7
:101AA000634533DAAC4B1B684FF0030C93FBFCF33C
:101AB000DFF8B0C2DCF800C0A5EB0C00002801DBA9
:101AC000844601E0C0F1000C63451FDD04EBC40057
:101AD000C0EB8410A14901EB001005EB450101EBBF
:101AE000C5010844805D504510DD04EBC400C0EB27
:101AF00084109A4901EB001005EB450101EBC5018B
:101B0000084410F806A0A8462746B1466D1C502D83
:101B1000B4DB641C3C2CAFDB761E002EAADA9148A5
:101B2000C0F800808E480760ABF1090048448A493C
:101B300008604CF64061894802F0F6F800208A49B6
:101B40000870BDE8F09F10B5AA2088490870854844
:101B5000006848708248006888707F480068C870D4
:101B6000002008718248FEF769FC10BD10B5AA205C
:101B70007E490870002048708870C8707D480078E1
:101B800008717D48FEF75AFC10BD10B5AA207749B0
:101B900008707448006848707148006888706E4822
:101BA0000068C8707548007808717348FEF746FCF5
:101BB00010BD2DE9F043002300250026002151E04F
:101BC00000204CE0644F3F684FF0030C97FBFCF79C
:101BD000DFF884C1DCF800C0ACEB0707DFF878C1A0
:101BE000DCF800C04FF003089CFBF8FCDFF86881CC
:101BF000D8F80080A8EB0C0C07FB0CF7DFF860C1ED
:101C0000DCF800C0A0EB0C0CDFF85481D8F80080A1
:101C1000A0EB08080CFB08FCDFF84881D8F800802E
:101C2000A1EB0808DFF83C91D9F80090A1EB090975
:101C300008FB09CC674511DD474F3F687F004FF037
:101C4000030C97FBFCFC464F3F68C41B002C01DBD8
:101C5000274600E06742BC4500DD5B1C401C3C2879
:101C6000B0DB491C5029ABDB092493FBF4F30822B9
:101C7000002147E0002042E0374C2468032794FB12
:101C8000F7F4354F3F683C1B334F3F684FF0030C70
:101C900097FBFCF7DFF8C0C0DCF800C0ACEB07072F
:101CA0007C432F4F3F68C71BDFF8B4C0DCF800C08F
:101CB000A0EB0C0C07FB0CF7DFF8A8C0DCF800C0A9
:101CC000A1EB0C0CDFF89C80D8F80080A1EB080891
:101CD0000CFB0877BC4211DD6D1C00EB8004264F25
:101CE00007EB0414645CFF2C00D1761C9D4205DDDB
:101CF0000125234C44F82260521E0126401C3C283A
:101D0000BADB491C5029B5DBBDE8F083F0B52DEDF9
:101D1000068B8FB00026242106A802F027F80020A9
:101D2000039004900590009001900290FFF741FF0E
:101D3000002444E008490968074A126801FB02F0E0
:101D400003F037F841EC1A0B9FED0E0B53EC102B00
:101D500003F096F81AE000000C000020FA5D002065
:101D6000080000200400002031000020344B002037
:101D70007438002014000020F4120020100000200D
:101D800040330120B81E85EB51B89E3F41EC180B43
:101D9000FE4951F8240003F00CF841EC190B53EC08
:101DA000182B03F031F803D20020F84941F8240041
:101DB000F64850F8240006A941F82400641C092CB8
:101DC000B8DB002418E006A850F82470651E07E070
:101DD00006A850F8251006AA681C42F820106D1EAF
:101DE000002D04DB06A850F82500B842F0DB06A958
:101DF000681C41F82070641C092CE4DB002415E009
:101E000006A850F8240003A941F8240008250AE098
:101E100003A850F82400DD4951F82510884201D16B
:101E20004DF824506D1E002DF2DA641C032CE7DB04
:101E3000002406E05DF82400B04201DD5DF8246076
:101E4000641C032CF6DBD2480068D2490860D048F5
:101E500006600068B04206D108460068B04202D170
:101E6000CD48066003E04FF0FF30CB4908600FB06B
:101E7000BDEC068BF0BDF0B52DED068B8FB00026C6
:101E8000242106A801F072FF002003900490059021
:101E9000009001900290FFF78CFE002428E0BF49DB
:101EA0000968BE4A126801FB02F002F082FF41ECB1
:101EB0001A0B1FED4C0B53EC102B02F0E1FF41EC21
:101EC000180BB24951F8240002F073FF41EC190BD2
:101ED00053EC182B02F098FF03D20020AB4941F8D5
:101EE0002400AA4850F8240006A941F82400641CE4
:101EF000092CD4DB002418E006A850F82470651ED5
:101F000007E006A850F8251006AA681C42F8201021
:101F10006D1E002D04DB06A850F82500B842F0DB4A
:101F200006A9681C41F82070641C092CE4DB00241D
:101F300015E006A850F8240003A941F8240008255C
:101F40000AE003A850F82400904951F8251088426F
:101F500001D14DF824506D1E002DF2DA641C032CC3
:101F6000E7DB002406E05DF82400B04201DD5DF807
:101F70002460641C032CF6DB85480068B04206D15F
:101F800084480068B04202D18348066003E04FF005
:101F9000FF30814908607E4800687E4908607C48BF
:101FA00006600FB0BDEC068BF0BD70B52DED068B55
:101FB0000025FFF7FEFD00241FE078490968774AF5
:101FC000126801FB02F002F0F4FE41EC1A0B9FEDE7
:101FD000740B53EC102B02F053FF41EC180B6B49C0
:101FE00051F8240002F0E5FE41EC190B53EC182BDC
:101FF00003F044F800D22546641C092CDDDB6A4856
:102000000560BDEC068B70BD70B52DED068B00250F
:10201000FFF7CFFD00241FE0604909685F4A12689E
:1020200001FB02F002F0C5FE41EC1A0B9FED5C0BC8
:1020300053EC102B02F024FF41EC180B534951F8DC
:10204000240002F0B6FE41EC190B53EC182B03F000
:1020500015F800D22546641C092CDDDB52480560CA
:10206000BDEC068B70BD30B5012286E20022012056
:1020700080E201217AE200EB80034C4C04EB031375
:102080005B5CFF2B53D1431E03EB830304EB031470
:102090004B1EE35CEBBB431E03EB8303434C04EB9F
:1020A00003135B5CABBB431E03EB830304EB031422
:1020B0004B1CE35C6BBB00EB80033C4C04EB031458
:1020C0004B1EE35CFF2B33D100EB8003374C04EB5A
:1020D00003144B1CE35CFF2B2AD1431C03EB83034B
:1020E000324C04EB03135B5CFF2B21D1431E03EB4B
:1020F000830304EB03135B5C8BB9431C03EB830387
:1021000004EB03135B5CFF2B09D1831C03EB8303FC
:1021100000E00DE004EB03135B5C002B07D0002311
:1021200000EB8004214D05EB0414635401221CE2F2
:10213000431E03EB83031D4C04EB03144B1EE35CB3
:10214000B3BB00EB8003194C04EB03144B1EE35CA0
:1021500073BB431C03EB8303144C04EB03144B1EAF
:10216000E35C2BBB431E03EB8303104C04EB031314
:102170005B5CFF2B46D1431C03EB830304EB03138F
:102180005B5CFF2B3ED100EB800312E0403301206B
:10219000180000201C000020100000200C0000206F
:1021A0009A9999999999A93F1400002074380020B0
:1021B00028E004EB03144B1CE35CFF2B22D100EB63
:1021C0008003FE4C04EB03144B1EE35C8BB900EB65
:1021D0008003FA4C04EB03144B1CE35CFF2B08D187
:1021E00000EB8003F54C04EB03148B1CE35C002B29
:1021F0009DD0002300EB8004F04D05EB04146354E4
:102200000122B2E1431C03EB8303EC4C04EB031407
:102210004B1EE35C9BBB431C03EB8303E74C04EBCB
:1022200003135B5C5BBB431C03EB830304EB0314F2
:102230004B1CE35C1BBB00EB8003E04C04EB031482
:102240004B1EE35CFF2B1BD100EB8003DB4C04EB4C
:1022500003144B1CE35CFF2B12D1431E03EB8303DF
:10226000D64C04EB03135B5CFF2B09D1002300EB7E
:102270008004D24D05EB04146354012275E1FFE79D
:10228000431E03EB8303CD4C04EB03144B1CE35CB4
:1022900093BB00EB8003C94C04EB03144B1CE35CC1
:1022A00053BB431C03EB8303C44C04EB03144B1CD0
:1022B000E35C0BBB431E03EB8303C04C04EB031333
:1022C0005B5CFF2B19D1431C03EB830304EB03136B
:1022D0005B5CFF2B11D100EB800304EB03144B1E5E
:1022E000E35CFF2B09D1002300EB8004B34D05EB29
:1022F00004146354012238E1FFE7431E03EB830318
:10230000AE4C04EB03135B5CEBBB431E03EB83039C
:1023100004EB03144B1CE35CABBB00EB8003A74C4A
:1023200004EB03144B1CE35C6BBB431C03EB830308
:10233000A24C04EB03135B5CFF2B2AD100EB800360
:1023400004EB03144B1EE35CFF2B22D1431E03EB73
:1023500083039A4C04EB03135B5C7BB9431C03EBD4
:10236000830304EB03135B5CFF2B07D1831C03EB9C
:10237000830304EB03135B5C002BBCD0002300EB56
:1023800080048E4D00E004E005EB04146354012248
:10239000EBE0431E03EB8303884C04EB03144B1E5A
:1023A000E35CEBBB431E03EB8303844C04EB03139E
:1023B0005B5CABBB00EB800304EB03144B1EE35CE4
:1023C00073BB00EB80037D4C04EB03144B1CE35CFC
:1023D000FF2B4CD1431C03EB8303784C04EB03131A
:1023E0005B5CFF2B43D1431E03EB830304EB03131E
:1023F0005B5C73B9431C03EB830304EB03135B5C6B
:10240000FF2B06D1831C03EB830304EB03135B5CFC
:1024100053B1002300EB8004684D05EB041400E089
:1024200025E063540122A0E000EB8003634C04EB41
:1024300003144B1EE35C8BB900EB80035F4C04EB91
:1024400003144B1CE35CFF2B08D100EB80035B4CB7
:1024500004EB03148B1CE35C002B07D0002300EB80
:102460008004564D05EB0414635401227DE000EB1B
:102470008003524C04EB03144B1EE35CF3BB431C80
:1024800003EB83034D4C04EB03144B1EE35CABBB2B
:10249000431C03EB8303494C04EB03135B5C6BBBF2
:1024A000431E03EB830304EB03135B5CFF2B2BD175
:1024B00000EB800304EB03144B1CE35C012B23D1E2
:1024C00000EB80033D4C04EB03144B1EE35C83B92B
:1024D00000EB8003394C04EB03144B1CE35CFF2B33
:1024E00007D100EB8003354C04EB03148B1CE35C39
:1024F000DBB3002300EB8004304D00E004E005EB8B
:1025000004146354012230E000EB80032B4C04EBF5
:1025100003144B1CE35C43BB431C03EB8303274CBA
:1025200004EB03135B5C03BB431C03EB830304EB6F
:1025300003144B1CE35CC3B9431E03EB83031F4C22
:1025400004EB03135B5CFF2B0FD100EB800304EB68
:1025500003144B1EE35CFF2B07D1002300EB800428
:10256000164D05EB041463540122491C4E29FFF655
:1025700082AD401C3A28FFF67CAD002A7FF476AD90
:1025800030BD70B50122A3E2002201209DE20121AD
:1025900097E20B4B1B68032493FBF4F3084C24686D
:1025A000E31A074C2468032594FBF5F4044D2D68C9
:1025B0002C1B6343034C2468041B05E07438002083
:1025C0000C00002008000020FB4D2D68451B6C43CB
:1025D000FA4D2D684D1BF94E36688E1B05FB0644DF
:1025E000A3425BDD00EB8003F54C04EB03135B5C63
:1025F000FF2B53D1431E03EB830304EB03144B1E49
:10260000E35CEBBB431E03EB8303ED4C04EB0313D2
:102610005B5CABBB431E03EB830304EB03144B1C5B
:10262000E35C6BBB00EB8003E54C04EB03144B1E37
:10263000E35CFF2B33D100EB8003E14C04EB03148C
:102640004B1CE35CFF2B2AD1431C03EB8303DC4CC4
:1026500004EB03135B5CFF2B21D1431E03EB8303CD
:1026600004EB03135B5C8BB9431C03EB830304EBA8
:1026700003135B5CFF2B09D1831C03EB830300E096
:102680000DE004EB03135B5C002B07D0002300EB91
:102690008004CB4D05EB04146354012210E2431E69
:1026A00003EB8303C64C04EB03144B1EE35CEBBB50
:1026B00000EB8003C24C04EB03144B1EE35CABBB8A
:1026C000431C03EB8303BE4C04EB03144B1EE35C7F
:1026D00063BB431E03EB8303B94C04EB03135B5C46
:1026E000FF2B34D1431C03EB830304EB03135B5C2C
:1026F000FF2B2CD100EB800304EB03144B1CE35C99
:10270000FF2B24D100EB8003AD4C04EB03144B1ED4
:10271000E35C9BB900EB8003A94C04EB03144B1C56
:10272000E35CFF2B0AD100EB800300E00FE0A44C38
:1027300004EB03148B1CE35C002BAFD0002300EBF5
:1027400080049F4D05EB041463540122B8E1431C3F
:1027500003EB83039A4C04EB03144B1EE35C9BBB1B
:10276000431C03EB8303964C04EB03135B5C5BBBE2
:10277000431C03EB830304EB03144B1CE35C1BBB04
:1027800000EB80038E4C04EB03144B1EE35CFF2B29
:102790001BD100EB80038A4C04EB03144B1CE35C5D
:1027A000FF2B12D1431E03EB8303854C04EB031371
:1027B0005B5CFF2B09D1002300EB8004804D05EB0F
:1027C0000414635401227BE1FFE7431E03EB830300
:1027D0007B4C04EB03144B1CE35C93BB00EB8003CA
:1027E000774C04EB03144B1CE35C53BB431C03EB1F
:1027F0008303734C04EB03144B1CE35C0BBB431EC1
:1028000003EB83036E4C04EB03135B5CFF2B19D1CA
:10281000431C03EB830304EB03135B5CFF2B11D11D
:1028200000EB800304EB03144B1EE35CFF2B09D188
:10283000002300EB8004624D05EB04146354012275
:102840003EE1FFE7431E03EB83035D4C04EB031300
:102850005B5CEBBB431E03EB830304EB03144B1CD9
:10286000E35CABBB00EB8003554C04EB03144B1C47
:10287000E35C6BBB431C03EB8303514C04EB03137E
:102880005B5CFF2B2AD100EB800304EB03144B1E8F
:10289000E35CFF2B22D1431E03EB8303484C04EB84
:1028A00003135B5C7BB9431C03EB830304EB03134F
:1028B0005B5CFF2B07D1831C03EB830304EB031347
:1028C0005B5C002BBCD0002300EB80043C4D00E09F
:1028D00004E005EB041463540122F1E0431E03EB12
:1028E0008303374C04EB03144B1EE35CF3BB431E22
:1028F00003EB8303324C04EB03135B5CB3BB00EBD1
:10290000800304EB03144B1EE35C7BBB00EB8003F2
:102910002B4C04EB03144B1CE35CFF2B52D1431CE8
:1029200003EB8303264C04EB03135B5CFF2B49D1C1
:10293000431E03EB830304EB03135B5C73B9431C7B
:1029400003EB830304EB03135B5CFF2B06D1831CB7
:1029500003EB830304EB03135B5C53B1002300EB35
:102960008004174D05EB0414635400E02AE00122B3
:10297000A6E000EB8003124C04EB03144B1EE35C57
:102980008BB900EB80030E4C04EB03144B1CE35C8F
:10299000FF2B08D100EB8003094C04EB03148B1CC4
:1029A000E35C002B07D0002300EB8004044D05EB13
:1029B00004146354012283E0080000200400002076
:1029C000F412002000EB8003434C04EB03144B1E75
:1029D000E35CEBBB431C03EB83033F4C04EB0314AE
:1029E0004B1EE35CA3BB431C03EB83033A4C04EB99
:1029F00003135B5C63BB431E03EB830304EB031312
:102A00005B5CFF2B2BD100EB800304EB03144B1C0E
:102A1000E35C012B23D100EB80032F4C04EB031468
:102A20004B1EE35C83B900EB80032B4C04EB0314D7
:102A30004B1CE35CFF2B07D100EB8003264C04EB1F
:102A400003148B1CE35CDBB3002300EB800400E089
:102A500005E0214D05EB04146354012230E000EB46
:102A600080031D4C04EB03144B1CE35C43BB431C71
:102A700003EB8303184C04EB03135B5C03BB431CA5
:102A800003EB830304EB03144B1CE35CC3B9431E49
:102A900003EB8303104C04EB03135B5CFF2B0FD1A0
:102AA00000EB800304EB03144B1EE35CFF2B07D108
:102AB000002300EB8004084D05EB0414635401224D
:102AC000491C4E29FFF665AD401C3A28FFF65FAD64
:102AD000002A7FF459AD70BDF41200204FF0E021C0
:102AE000096921F004014FF0E0221161C21700EBE7
:102AF0005272C2F3C702314B1A701946097801EBC2
:102B00004102C2EBC1114FF6FF7202EAC1012C4A29
:102B1000118070470146294A12784A434FF0E0235A
:102B20005A6100229A6101221A6100BF4FF0E0222F
:102B3000106900F001021AB100F48032002AF5D0C9
:102B400000224FF0E0231A619A61704701461C4A47
:102B500012884A434FF0E0235A6100229A61012211
:102B60001A6100BF4FF0E022106900F001021AB1B3
:102B700000F48032002AF5D000224FF0E0231A61E1
:102B80009A61704770B504464FF4077094FBF0F0FB
:102B9000C6B24FF4077094FBF0F100FB114085B210
:102BA00005E04FF40770FFF7D1FF701EC6B2002E8C
:102BB000F7D115B12846FFF7C9FF70BD22000020EC
:102BC000240000204A0A52020243FE4B1A6070475A
:102BD0000146072323EA01021202FA4B1B1D186863
:102BE0004FF6FF031840F84B18431043F54B1B1DDD
:102BF000186070472DE9F0410746884614461D4687
:102C00002846FFF7E5FFC5F1040007FA00F60F209C
:102C1000284100EA0800064306F00F06E21704EB1D
:102C2000D2625211920002F1E022D2F80021214634
:102C3000E31704EBD3635B11A4EB431C012303FAFA
:102C40000CF31A432046E31704EBD3635B119B009C
:102C500003F1E023C3F80021DC48005D40EA0610E0
:102C6000DA490855BDE8F081F0B503460846CD17AE
:102C700001EB9575AD10A1EB8505AD062C0ED44882
:102C8000006840F48040D24D2860CD1701EB957567
:102C9000AE10D04D55F826500F26A640B543084635
:102CA000CE1701EB9676B710CA4E46F82750CD17CF
:102CB00001EB9575AE10C74D55F8265003FA04F692
:102CC0003543CE1701EB9676B710C24E46F8275023
:102CD000C148006801258D402843BF4D286002F09F
:102CE000010040B1BC480C30006801258D402843EC
:102CF000B94D0C35286002F0020040B1B6480830EA
:102D0000006801258D402843B34D08352860F0BD8B
:102D100030B5CC1000F1200353F824304C07E50EF9
:102D20000F24AC40A343CD1000F1200444F825301B
:102D3000CC1000F1200353F824304C07E40E02FAC3
:102D400004F42343CD1000F1200444F8253030BDB5
:102D50002DE9F0470C46DDE90867002100258C4687
:102D600000BF60E04FF0010808FA01F504EA050C25
:102D7000AC4557D1D0F800804FEA410A4FF0030923
:102D800009FA0AF928EA0908C0F80080D0F800809A
:102D90004FEA410902FA09F948EA0908C0F8008037
:102DA000012A01D0022A27D1D0F808804FEA410A2F
:102DB0004FF0030909FA0AF928EA0908C0F808805F
:102DC000D0F808804FEA410906FA09F948EA0908EB
:102DD000C0F80880D0F804904FF0010808FA01F814
:102DE00029EA0809C0F80490D0F8048003FA01F930
:102DF00048EA0908C0F80480D0F80C804FEA410A7C
:102E00004FF0030909FA0AF928EA0908C0F80C800A
:102E1000D0F80C804FEA410907FA09F948EA090895
:102E2000C0F80C80491C10299CD3BDE8F08730BF46
:102E3000704772B6704762B6704700B56148083097
:102E4000006840F004005F49083108606048001FD6
:102E5000006840F080505E49091F08605F48406884
:102E600040F480705D4948600846006840F0040006
:102E700008600846006840F002000860FFF7D7FFCE
:102E800000BD5148001D4F49091D08607047F0B54D
:102E900004460D46002100204D4E443E366846F45F
:102EA00080364B4F443F3E6001E04E1CB1B2484E6D
:102EB000443E366806F400361EB941F6FF76B1424C
:102EC000F3DB41F6FF76B14201D1012063E0404ED1
:102ED000361F366846F080563D4F3F1F3E603F4EDE
:102EE000366846F440463D4F3E60394E3C3E3668BB
:102EF00046F41446364F3C3F3E60354E443E3668FD
:102F000026F08076324F443F3E6045EA8416012722
:102F1000C7EB520746EA074646EA036646F48006D0
:102F20002B4F403F3E603E1F366846F080763F1F85
:102F30003E6000BF264E443E366806F00076002E06
:102F4000F8D0274E366846F48076254F3E603E46E0
:102F5000366846F400763E603E46366846F4806643
:102F60003E603E46366846F005063E60184E3C3EE2
:102F7000366826F00306164F3C3F3E603E463668F4
:102F800046F002063E6000BF114E3C3E366806F039
:102F90000C06082EF8D1F0BDF0B504460D461646D5
:102FA0001F460B484438006840F001000849443986
:102FB0000860002006493C3908600548443800682C
:102FC000084911E008ED00E00000FA0500E400E027
:102FD0004438024008380140003C01400070004085
:102FE000003C0240FFFFF6FE08400D4908600D4816
:102FF000091D0860081F006820F48020091F086070
:10300000002007490C3108603B46324629462046DD
:10301000FFF73DFF00210846FFF7D4FDF0BD00009B
:103020000038024010300024014600BF704700BF46
:10303000494A128802F04002002AF9D0C2B2464B37
:103040009A80704710B54448008800F0200030B1E5
:1030500041488088C4B22A2C01D1FFF712FF10BD6D
:10306000F0B52DED028B83B005460E463B4905FBBE
:1030700001F000EE100AF8EE400A300100EE100AEE
:10308000B8EE400A80EE801AB0EE418ABCEEC80A63
:1030900010EE100A84B200EE104AB8EE400A38EE84
:1030A000400AF3EE000A20EE200ABCEEC00A10EE41
:1030B000107A4FF6FF7000EA0414E01984B2284831
:1030C000006840F001002649086025481430006877
:1030D00040F0100022491431086001200221002331
:1030E0000A46CDE900104FF4C0611E48FFF730FEDC
:1030F000072209211B48FFF70BFE07220A21194866
:10310000FFF706FE14480481808920F4004012492C
:1031100088810846808940F00800888108468089B7
:1031200040F0040088810846808940F020008881B2
:103130000223252203210846FFF75CFD064880890B
:1031400040F400500449888103B0BDEC028BF0BD0F
:10315000C1F30802828070470010014040420F0016
:1031600030380240000002407CB50025D848006895
:1031700040F00100D64908600846006840F00400AD
:1031800008600846006840F01000086008460068C3
:1031900040F020000860022000210B460A46CDE9DD
:1031A00000100102CB48FFF7D3FDCA481430006875
:1031B00040F40070C7491431086001200321002346
:1031C0000246CDE900100A21C348FFF7C1FDC248FD
:1031D0001430006840F00A00BF4914310860022032
:1031E00000210B460A46CDE90010FF21B948FFF740
:1031F000AFFDB8481430006840F0FF00B549143105
:1032000008600120032100230246CDE90010282197
:10321000B248FFF79DFDB148406940F02800AF4932
:1032200048610120032100230246CDE9001041033B
:10323000A948FFF78DFD4FF40050A74914310860ED
:1032400000F050F98021122000F035FA08B1012079
:103250007CBD3220FFF796FC0B2000F04BFA0446B1
:10326000732C01D00220F3E70A2000F043FA044651
:10327000762C01D00220EBE700250DE0984A02EB06
:1032800045025178964A12F8150000F014FA02200F
:10329000FFF778FC681C85B2AE2DEFD30020D7E78E
:1032A0002DE9F0410446E72500260027012C06D031
:1032B000022C08D0032C0AD0042C10D10BE0E525F9
:1032C0005A265C270BE0E5255826602707E0E52510
:1032D00084264C2703E0E5259626402700BF00BF43
:1032E0002946132000F0E7F93146012000F0E3F908
:1032F0003946022000F0DFF9BDE8F0812DE9F04108
:103300000446802522265E2734B1012C08D0032CE8
:103310000AD0042C10D10BE0402511262F270BE0FA
:1033200066251B264B2707E099252826712703E0F1
:10333000C02533268D2700BF00BF29464F2000F04F
:10334000BAF92946502000F0B6F90021512000F0CA
:10335000B2F93146522000F0AEF93946532000F060
:10336000AAF92946542000F0A6F99E21582000F021
:10337000A2F9BDE8F08170B50446002534B1012CF6
:1033800006D0032C06D0042C08D105E0B02505E0BA
:10339000982503E0182501E0302500BF00BF29462D
:1033A000552000F088F970BD70B50446402534B151
:1033B000012C06D0032C06D0042C08D105E03025C2
:1033C00005E0382503E0502501E0602500BF00BF7F
:1033D0002946562000F06FF970BD2DE9F0410446F2
:1033E0000425C0268027072C1DD2DFE804F01C042A
:1033F000080C1014180024258026802713E01425BB
:10340000802680270FE01425C02680270BE0142596
:103410004026402707E014258026C02703E0142516
:10342000A026402700BF00BF29463A2000F043F9FC
:103430003146682000F03FF93946672000F03BF93B
:10344000BDE8F0812DE9F04705460E4690469946C5
:1034500005EB48001FFA80FA06EB490087B2B7F582
:10346000447F02DDA7F5447087B2032000F042F9E3
:10347000044604F0F0040AF00301284661F39F00BB
:1034800004432146032000F016F9C5F387011920F3
:1034900000F011F9CAF387011A2000F00CF932206C
:1034A00000F028F9044604F0C00407F00701304694
:1034B00061F3DF000443C6F3C701172000F0FBF8F7
:1034C000C7F3C701182000F0F6F8BDE8F087000048
:1034D0003038024000140240000802400010024050
:1034E000A65400081CB59748006840F010009549A4
:1034F00008600120022100230246CDE9001050217E
:103500009148FFF725FC9048406940F050008E49F3
:1035100048610846006820F440500860084600688A
:1035200040F4805008601CBD10B501208749086038
:103530008749C1F890027820FFF7ECFA0020834910
:1035400008607820FFF7E6FA00208149C1F8900270
:1035500010BD10B500207D4908607820FFF7DAFA29
:1035600001207B49C1F890027820FFF7D3FA0120AF
:10357000764908607820FFF7CDFA10BD10B57820A5
:10358000FFF7C8FA0120714908607149C1F890023B
:103590007820FFF7BFFA00206C49083908607820CE
:1035A000FFF7B8FA00206A49C1F898027820FFF7BF
:1035B000B1FA10BD70B5044600261BE004F080008F
:1035C00018B101206149086002E000205F490860ED
:1035D0006006040E7820FFF79DFA01205B49083948
:1035E00008607820FFF796FA00205949C1F8900248
:1035F000701CC6B2082EE1DB5348006820F440502E
:10360000514908600846006808607820FFF782FA90
:1036100001204E49083908607820FFF77BFA4C48B2
:10362000D0F8180208B1012500E000250020474924
:10363000083908604448006820F440504249086056
:103640000846006840F480500860284670BD70B598
:1036500000243D48006820F440503B49086008467B
:1036600000680860082517E07820FFF753FA01206A
:103670003649083908606006040E3548D0F818024B
:1036800008B1601CC4B27820FFF744FA00202F492B
:1036900008390860681EC5B2002DE5DC2A480068BC
:1036A00020F44050284908600846006840F48050E3
:1036B0000860204670BD70B505460C460026FFF731
:1036C00033FF4220FFF776FF00B10126DC20FFF731
:1036D00021FA2846FFF76EFF00B10126DC20FFF734
:1036E00019FA2046FFF766FF00B10126FFF731FF08
:1036F000304670BD70B504460025FFF715FF422027
:10370000FFF758FFDC20FFF705FA2046FFF752FFCE
:10371000DC20FFF7FFF9FFF71CFFDC20FFF7FAF9C9
:10372000FFF702FF4320FFF745FFDC20FFF7F2F928
:10373000FFF78DFF0546FFF721FFFFF70AFF284639
:1037400070BD000030380240001002409802424232
:103750000000424270B505460C467348006840F0D0
:1037600002007149086071480560001F04806F48BD
:103770002038008840F001006C4920390880081D7D
:10378000008820F00100091D088002231D2200216D
:103790000120FFF72FFA65482C38008840F001001F
:1037A00062492C39088070BD70B505460C465E48EC
:1037B000006840F001005C4908600806C5620485A5
:1037C000808940F00100090688810846008A20F0BF
:1037D0000100088202231C2200210120FFF70AFABF
:1037E00070BD10B551482C38008800204F492C3945
:1037F00008804F480078401C4D4908700846007802
:10380000022862DB002049490839086047481C3813
:10381000008800F00100002857D044481C38008878
:1038200020F0010041491C3908804248006808BB6B
:10383000404810300068E8B93FA000F037FAC820CF
:10384000FFF7A0F900210846FDF71FF800203949CD
:1038500088310860FDF730FAFEF705FCFDF7B1FF8F
:10386000FEF771F9FEF7F9F8FEF76DF9012033491B
:10387000087023E02F48006800BB2E481030006815
:1038800001281BD12EA000F011FAC820FFF77AF909
:1038900000210846FCF7F9FFFDF7C7FAFDF777FBB3
:1038A000FDF78FFFFEF74FF9002022498C310860A9
:1038B00001202449C1F88C02204908701C48007876
:1038C000FF2802D101201A49087010BD4FF0804036
:1038D000008800204FF0804108801B480078401C81
:1038E000194908700846007802281CDB4FF0804018
:1038F000008A20F001004FF08041088200204862D9
:103900000846008A00F0010068B101200F490870E4
:10391000002008497C3108600B480078FF2802D15C
:103920000120094908707047403802402C040040CB
:103930002E0000200C824142303000002000002088
:1039400031310000008040422F00002000000020A4
:1039500010B54448006800F40070C0B14FF4007026
:10396000404908600020404908600120FFF7D2F874
:1039700001203E49C1F88C023D49C1F88C023D4806
:103980000078401C3B490870C820FFF7C3F810BD01
:1039900010B53448006800F00800002847D008201F
:1039A000304908604FF4FA70FFF7ECF832480068CD
:1039B000012811D1002030498C3108602F49C1F80D
:1039C00094022D497C3108602D4908702D490870FA
:1039D0002D49C1F88C022AE02A48007838BB2648D5
:1039E000006820BB00204FF08041486227490870E2
:1039F0002749088020481030006838B901201E4946
:103A00008831086023A000F051F90AE01A4810300C
:103A10000068012805D118498C3108601EA000F00B
:103A200045F91E48008840F001001C49088010BD7F
:103A300010B5022209210520FFF716F902231722EB
:103A400000210846FFF7D6F810BD10B50322114635
:103A50001046FFF709F90223092200210120FFF790
:103A6000C9F810BD143C01408C02424200004242A1
:103A700000004142300000200C824142008041425F
:103A80002000002031000020008040420000002083
:103A9000020000203000000031000000000400405F
:103AA0002DE9F0410C461546069E4C4FB84209D907
:103AB00039464B4F3F6847F48007DFF824C1CCF804
:103AC000007008E04749464F3F6847F40017DFF8A9
:103AD00010C1CCF8007000BF076807F00107002F85
:103AE000FAD1471A103F4FF0180CB7FBFCF7FAB2A7
:103AF000062A10DBCF68A2F1060C0CEB4C0C4FEA47
:103B00004C0C0CF1100C4FF03D0808FA0CF847EA89
:103B10000807CF602FE0042A0EDBCF68A2F1040C67
:103B20000CEB4C0C4FEA4C084FF03D0C0CFA08FC27
:103B300047EA0C07CF601EE0022A10DB8F68A2F173
:103B4000020C0CEB4C0C4FEA4C0C0CF1100C4FF02F
:103B50003D0808FA0CF847EA08078F600BE08F6809
:103B600002EB420C4FEA4C084FF03D0C0CFA08FCFB
:103B700047EA0C078F608560C360466000270760D6
:103B8000076847F040070760076807600768076035
:103B9000076847F480670760076807600768076081
:103BA000076847F4803707600768076007680760A1
:103BB000076847EA44670760BDE8F081026822F0C1
:103BC0000102026000BF026802F00102002AFAD17D
:103BD0004160026842F001020260704700640240E6
:103BE00030380240006002401CB52948006840F0AF
:103BF0000800274908600846006840F00200086095
:103C00000120032100230246CDE9001004212148B0
:103C1000FFF79EF80120032100230246CDE90010A2
:103C200020211C48FFF794F80120032100230246BD
:103C3000CDE9001040211748FFF78AF80120032141
:103C400000230246CDE9001008211348FFF780F851
:103C50000020009003460246082101900D48FFF71E
:103C600077F8002000900346024680210190094821
:103C7000FFF76EF80020094908600949C1F894026D
:103C80000649103108600749C1F88C021CBD0000CC
:103C900030380240000C0240000402408882414259
:103CA0000080414200804042704700000FB4044948
:103CB00010B503AA029800F08FF810BC5DF814FB51
:103CC0002800002010B5203AC0F00B80B1E8185051
:103CD000203AA0E81850B1E81850A0E81850BFF4F6
:103CE000F5AF5FEA027C24BFB1E81850A0E8185095
:103CF00044BF18C918C0BDE810405FEA827C24BFE9
:103D000051F8043B40F8043B08BF7047D20728BF76
:103D100031F8023B48BF11F8012B28BF20F8023BC5
:103D200048BF00F8012B70474FF000020429C0F093
:103D3000128010F0030C00F01B80CCF1040CBCF1DD
:103D4000020F18BF00F8012BA8BF20F8022BA1EB2F
:103D50000C0100F00DB85FEAC17C24BF00F8012B14
:103D600000F8012B48BF00F8012B70474FF000020C
:103D700000B5134694469646203922BFA0E80C5061
:103D8000A0E80C50B1F12001BFF4F7AF090728BF3C
:103D9000A0E80C5048BF0CC05DF804EB890028BFB8
:103DA00040F8042B08BF704748BF20F8022B11F0E1
:103DB000804F18BF00F8012B70477047704770475D
:103DC000704710B500F01AF8006810BD10B5044631
:103DD00000F014F8046010BD074B70B50D467B442D
:103DE00000F015F80446284600F024F810B14FF012
:103DF000FF3070BD204670BD4DF2FFFF0048704798
:103E00006433012001694A1C02610878704700B5DB
:103E10008FB0CDE901310021059105497944CDE903
:103E200003101146684600F032F80FB000BD0000E4
:103E3000E5FFFFFF007B00F08000704700487047FF
:103E4000643301207546FFF7F9FFAE460500694669
:103E5000534620F00700854618B020B5FCF7F6F968
:103E6000BDE820404FF000064FF000074FF000087B
:103E70004FF0000B21F00701AC46ACE8C009ACE8FC
:103E8000C009ACE8C009ACE8C0098D4670472DE90F
:103E9000F04106460024D6E90170F56880463046B8
:103EA00003E04146B847641C3046A8470028F8D1D3
:103EB0002046BDE8F0810446AFF300802046FCF7C1
:103EC000ACF903B401984100009850EAC12018BF32
:103ED00004204A0D18BF40F0010040F2FF72B2EB1F
:103EE000515F08BF40F00200012808BF052002B062
:103EF000704700000000000010B52F499FED2C1BFB
:103F00002DED020B84B0059820F000408842D8BF08
:103F10009DED040B2DDD2949884209D1049840B953
:103F20004FF00100FFF752FF00F0A2FC06B010BDF9
:103F300005DB9DED040B00F08FFC06B010BD68465C
:103F40009DED040B00F0A0F810F0030004BF9DED00
:103F5000021B9DED000B0CD001280ED09DED021B25
:103F60009DED000B022817D0012000F0DDFB06B00C
:103F700010BD00F0A5FA06B010BD9DED021B9DED31
:103F8000000B012000F0D0FB51EC100B00F09CFC6A
:103F900006B041EC100B10BD00F092FA51EC100B82
:103FA00000F092FC06B041EC100B10BD00000000C8
:103FB0000000000000000000FB21E93F0000F07F4E
:103FC00010B52F499FED2C1B2DED020B84B00598E9
:103FD00020F000408842DCBF00209DED040B32DD64
:103FE0002849884209D1049840B94FF00100FFF7F1
:103FF000EDFE00F03DFC06B010BD05DB9DED040BB1
:1040000000F02AFC06B010BD68469DED040B00F0E0
:104010003BF810F0030011D0012818D09DED021BD1
:104020009DED000B02281AD000F04AFA51EC100B5B
:1040300000F04AFC06B041EC100B10BD9DED021BD8
:104040009DED000B012000F06FFB06B010BD9DED53
:10405000021B9DED000B00F033FA06B010BD0120ED
:1040600000F062FB51EC100B00F02EFC06B041ECAE
:10407000100B10BD00000000000000000000000058
:10408000FB21E93F0000F07F2DE9F14F04462DEDC3
:10409000020B2DED088B8AB09FEDE70B80ED020B34
:1040A000139EE74826F0004585420ADC9DED120B81
:1040B000002084ED000B0AB0BDEC088B03B0BDE816
:1040C000F08FE0489FEDE0AB9FEDE1BBA84247DDFC
:1040D000E14F9FEDE39B9FEDE48B9DED120B53ECC5
:1040E0001A2B51EC100B002E1CDD01F009F841ECED
:1040F000100BBD4208D053EC1B2B51EC100B00F001
:10410000FFFFC4E900010BE053EC192B51EC100B3D
:1041100000F0F6FF53EC182B00F0F2FFC4E90001A9
:104120000120C8E700F0DCFB41EC100BBD4208D0D9
:1041300053EC1B2B51EC100B00F0D2FBC4E9000137
:104140000BE053EC192B51EC100B00F0C9FB53ECB6
:10415000182B00F0C5FBC4E900014FF0FF30AAE7BF
:10416000C348A84279DB9DED120B51EC100B00F017
:104170009FFB41EC180B9FEDC00B53EC102B00F094
:104180007FFE9FEDBF1B53EC112B00F0A9FB00F04D
:10419000B3FD074600F00DFE41EC190B53EC1A2B52
:1041A00000F06EFE53EC182B00F09EFF41EC180B54
:1041B00053EC1B2B51EC190B00F062FEDFF8C8A288
:1041C00041EC100B4FEA15580125FA4453EC102B23
:1041D00051EC180B00F094FF032DC4E900013DD011
:1041E000C1F30A5005EB4511A8EB000011398142DB
:1041F00034DA0AEB051BB0EE48AA9BED000BF0EE9B
:1042000068AA53EC102B51EC190B00F039FE41EC6D
:104210001B0B51EC1A0B53EC1B2B00F071FF41EC04
:10422000180B51EC1A0B53EC182B00F069FF53ECF0
:104230001B2B00F065FF9BED020B41EC1A0B53ECBE
:10424000102B51EC190B00F01BFE53EC1A2B00F055
:1042500057FF41EC100B6D1CB8E70EE0002EA8BF15
:104260003846BFF628AF94ED000B51EC100B00F070
:104270002BFBC4E9000178421DE7C6F3130040F4AC
:10428000801EC6F30A50A0F2F530471100F01F055A
:10429000C5F12000DDF848B0089000200690079096
:1042A0000520EC467949002D07EB0002794408BF50
:1042B00051F8221009D051F8223001EB8201AB40B5
:1042C0004A68089922FA01F11943A1FB0E26A1FBC5
:1042D0000B131A449A4234BF0123002303EB060850
:1042E0000CEB8003D3E901A60E448E4234BF0121BA
:1042F000002192448A4411B1924502D903E09245CB
:1043000001D2012100E00021C3E901A641444CF89B
:104310002010011EA0F10100C4DC029800F1005041
:10432000850F0298DDE903678000DDF8148000F056
:1043300040FD41EC1A0B304600F052FD9FED541B3E
:1043400053EC112B00F09CFD41EC1B0B384600F0A8
:1043500047FD9FED511B53EC112B00F091FD41ECFB
:10436000180B404600F03CFD9FED4D1B53EC112B0C
:1043700000F086FD41EC190B51EC180B53EC192B96
:1043800000F0AEFA53EC1B2B00F0AAFA53EC1A2BF8
:1043900000F0A6FACDE90801002008909DED080B79
:1043A00053EC1A2B51EC100B00F0AAFE53EC1B2B14
:1043B00000F0A6FE53EC182B00F0A2FE53EC192BD4
:1043C00000F092FE9FED381B53EC112B00F058FDCE
:1043D0009FED370B41EC180B53EC102B9DED080BA8
:1043E00051EC100B00F04CFD53EC182B00F078FA58
:1043F0009FED310B41EC180B53EC102B9DED080B8E
:1044000051EC100B00F03CFD53EC182B00F068FA57
:1044100041EC100B139810F0004F06D06D4251EC98
:10442000100B00F051FA41EC100B284684ED000B04
:1044300041E6000000000000000000000000000055
:10444000FB21E93F7CD9024000004054FB21F93FA9
:104450003163621A61B4D03DFB21F93F00000000D6
:104460000000601A61B4D03D7370032E8A19A33B1B
:10447000FB2139410000000083C8C96D305FE43F73
:10448000000000000000E03F6A140000B8130000C4
:10449000000000000000103E000000000000103C82
:1044A000000000000000103A182D4454FB21F93D93
:1044B0003326A611460B113C00000054FB21F93DA8
:1044C00010B52DED040B2DED088B82B0B0EE419AA6
:1044D000F0EE619A0B9820F000449FED4BABB4F1E5
:1044E000795F11DA9DED0A0B51EC100B00F004FC22
:1044F000002801BFB0EE4A0AF0EE6A0A02B0BDEC35
:10450000088B04BF04B010BD9DED0A0B53EC102BBB
:1045100051EC100B00F0B4FC41EC180B3C480621A8
:10452000B0EE480AF0EE680A784400F081F853ECE7
:10453000182B51EC100B00F0A3FC9DED0A0B41EC85
:104540001B0B53EC192B51EC100B00F099FC41ECB8
:10455000190B53EC1B2B51EC180B00F091FC53EC96
:10456000192B00F0CDFD9FED2C0B41EC190B53ECFA
:10457000102B51EC180B00F083FC41EC100B284879
:10458000844210DA53EC192B51EC100B00F0B8FDFB
:1045900053EC1A2B00F0A8FD41EC100B02B0BDEC5F
:1045A000088B04B010BD1F48A042BCBF9FED1E1B6E
:1045B0008DED001B06DBA4F500100190002000909B
:1045C0009DED001B51EC100B53EC112B00F098FDEE
:1045D0009DED000B41EC180B53EC102B51EC1A0B1A
:1045E00000F08EFD41EC1A0B53EC192B51EC180B1B
:1045F00000F086FD53EC1A2B00F076FD41EC100B19
:10460000CCE7000000000000000000000000F03FC8
:10461000DC10000000000000000000000000E03F8F
:104620003333D33F0000E93F000000000000D23FD9
:1046300070B504462DED028B4D1E00EBC500B0EEAB
:10464000408AF0EE608A90ED000B35F0060017D03E
:1046500053EC182B51EC100B00F012FC41EC100B3A
:104660006D1E04EBC50090ED001B51EC100B53ECDC
:10467000112B00F035F941EC100B35F00600E7D1B5
:10468000022D36D0042D1CD0062D1CBFBDEC028B94
:1046900070BD53EC182B51EC100B00F0F1FB94EDB6
:1046A0000A1B53EC112B00F01BF953EC182B00F0F4
:1046B000E7FB94ED081B53EC112B00F011F941ECD2
:1046C000100B53EC182B51EC100B00F0D9FB94EDB0
:1046D000061B53EC112B00F003F953EC182B00F0E0
:1046E000CFFB94ED040B53EC102B00F0F9F841ECE8
:1046F000100B53EC182B51EC100B00F0C1FB94ED98
:10470000021B53EC112B00F0EBF853EC182B00F0CC
:10471000B7FB94ED001B53EC112B00F0E1F8BDEC5E
:10472000028B41EC100B70BD31B504462DED040B2E
:104730002DED0A8BB0EE41BAF0EE61BA0B989DED0B
:104740000A0B20F00040B0F1795F0DDA51EC100B4C
:10475000FFF7B7FB042808BF00F09AF89DED0A0B9D
:10476000BDEC0A8B05B030BD53EC102B51EC100B97
:1047700000F086FB41EC180B9DED0A0B53EC182B57
:1047800051EC100B00F07CFB41EC190B2C48B0EE07
:10479000480AF0EE680A05217844FFF749FF9FEDCB
:1047A0002ACBB0EE40AAF0EE60AA9CB353EC1C2BCF
:1047B00051EC190B00F064FB41EC1C0B53EC1A2B71
:1047C00051EC190B00F05CFB9FED210B41EC190B38
:1047D00053EC102B51EC1B0B00F052FB53EC192B3C
:1047E00000F08EFC53EC182B00F04AFB53EC1B2B13
:1047F00000F086FC53EC1C2B00F082FC9DED0A1BA4
:1048000053EC112B00F070FCBDEC0A8B05B041ECB1
:10481000100B30BDFFE753EC1A2B51EC180B00F0D6
:104820002FFB53EC1C2B00F05BF853EC192B00F022
:1048300027FB9DED0A1B53EC112B00F051F8E3E729
:10484000640F000000000000495555555555C5BF7F
:10485000000000000000E03F10B553EC102B51ECBD
:10486000100B00F03DF841EC100B10BD00000000F3
:104870009FED050B10B553EC102B51EC100B00F015
:10488000E3F841EC100B10BD000000000000000038
:104890009FED050B10B553EC102B51EC100B00F0F5
:1048A000EFFA41EC100B10BD0000000000000010FA
:1048B00082B0CDE9000121F0004001909DED000B98
:1048C00002B051EC100B704781F00041704780F04E
:1048D0000040704721F00041704720F000407047D1
:1048E00010B591EA030F48BF83F0004300F1108434
:1048F000841A71EB030C05D2121943EB0C03001B55
:1049000061EB0C01DFF824E14FEA1154A4EB135CD6
:104910001EEA430F18BF9EEA445F73D023EA0E03DA
:10492000DCF1200E21EA045143F4801332D322FA41
:104930000CFE10EB0E0023FA0CFE41EB0E01CCF145
:10494000200E03FA0EFE10EB0E0051F10001B1F53E
:10495000801FCCF1200E32D201EB045112FA0EF27C
:10496000BDE8104058BF7047401C38BF5FEA4202A4
:1049700018BF7047002814BF20F0010041F100016A
:104980004FEA410313F5001F38BF7047A1F1C04142
:1049900000F06EBB012A43EB0302ACF1200CDCF10A
:1049A0001F0E32BF4FF0000E23FA0CF310EB030082
:1049B00041EB0451B4EB115FD0D0A1EB045101F5F0
:1049C000801149085FEA300001EB04510ED350F129
:1049D000000038BF12FA0EFE08D1BDE81040C9E74A
:1049E000401C38BF5FEA4202CAD1C3E7BDE81040AD
:1049F0004FEA410313F5001F38BF7047A1F1C041D2
:104A000000F036BB9EEA445F08D011EA5E0FBDE8B5
:104A1000104004BF01F0004100207047BDE8104085
:104A200070B500F0D7FA00BF64FBBE3E0000E0FFA7
:104A3000491058BFC1F140415B1058BFC3F140431A
:104A40008B42EFF3008070472DE9C04130B4DFF8AE
:104A5000A0C23CEA111418BF3CEA131400F0EC8029
:104A600081EA03051CEA111444EAD57418BF1CEA54
:104A7000131500F0C780A4EB05044FF0004545EA8C
:104A8000C12145EAC32341EA505143EA525304F19C
:104A90007F74994204F500344FEAC0204FEAC222E5
:104AA00008BF904200F09C804FEA13650FF2401659
:104AB000765D4FEA134506FB05F7C7F1807706FBE5
:104AC00007F74FEAD737A7FB03687642C8F5803867
:104AD000A7FB06CE38BFA8F1010807FB08E64FF098
:104AE000000EA6FB028CE6FB03CEDCF1000CCEF13F
:104AF000004E38BFAEF1010EA6FB0C584FF0000778
:104B00004FF00005E6FB0E87A1FB08C6A0FB07CE11
:104B100016EB0E0645F10005E1FB076515F1E04EC9
:104B20007EBFA4F580345FEA46066D4116F180072A
:104B300045F100054FEA17274FEA066647EA056781
:104B4000A6F1DE46B6F1805F4FEA15251FD938463B
:104B500024F0010C05EBC471BCF1FE6F01EB0C11EC
:104B600002D8F0BCBDE8008124425CBF01F5801E84
:104B70009EEAC47F02D4F0BCBDE80081244238D450
:104B8000F0BCA1F1C041BDE8004100F071BA4FEAAC
:104B9000D22242EA43524FEAD323A7FB02864FEACE
:104BA000D02040EA415007FB03661EEA0E0F4FEA91
:104BB000D12105FB026658BFA6EB0056B6EB0056A6
:104BC0004FEA520E4EEAC37E18EB0E0E56EB530E12
:104BD000BDD518EB02085E417F1C55F10005B6E714
:104BE0004FF480154FF000074FF000064FF000081B
:104BF000ADE7F0BC4FF0000001F1C04101F0004111
:104C0000BDE8008111EA0C1F0CEA131500D00CE07E
:104C100013EA0C1F00F025804FF00000F0BC81EA81
:104C2000030101F00041BDE80081F0BCBDE8004196
:104C300081EA030100F01CBAF0BCBDE8004170B588
:104C400000F0C8F9097EFC3E00F007B881EA0301D4
:104C50004FF0000001F00041704781EA030100F0CD
:104C600007BAF0BCBDE800414FF000002149704791
:104C7000FFFDFBF9F7F5F4F2F0EEEDEBE9E8E6E421
:104C8000E3E1E0DEDDDBDAD8D7D5D4D3D1D0CFCDA8
:104C9000CCCBCAC8C7C6C5C4C2C1C0BFBEBDBCBBE1
:104CA000BAB9B8B7B6B5B4B3B2B1B0AFAEADACABDC
:104CB000AAA9A8A8A7A6A5A4A3A3A2A1A09F9F9EB6
:104CC0009D9C9C9B9A999998979796959594939368
:104CD000929191908F8F8E8E8D8C8C8B8B8A8989FF
:104CE0008888878786858584848383828281818082
:104CF0000000FF070000F87F4FEA41034FEA5353DB
:104D0000A3F58063D3F11E03C8BFD3F1210C0CDDE2
:104D10004FF0004242EAC12242EA505232FA03FC0A
:104D20008CEAE17CACEBE1707047102BC4BF002033
:104D3000704703F5787CBCF1FF3F04D06FF0004270
:104D400082EA2100704770B500F044F9499224804E
:104D500000207047F2E700004FEA1153A3F580638B
:104D6000D3F11E03A8BFD3F1200C08DB4FF00042A3
:104D700042EAC12252EA505232FA03F07047094225
:104D80000BD4102BC4BF0020704703F5787CBCF116
:104D9000FF3F05D04FF0FF3070474FF000007047E5
:104DA00070B500F017F900BF4992248000207047C9
:104DB000F0E710F0004248BF4042B0FA80F310FA2A
:104DC00003F10AD0C3F11D0303F580634FEA41509C
:104DD00002EB035202EBD12170474FF00000704705
:104DE000B0FA80F310FA03F10AD0C3F11D0303F502
:104DF00080634FEA41504FEA035202EBD1217047E2
:104E00004FF000007047000051EA030C17D41CF566
:104E1000801F58BFBCF5801F00F10680994218BF63
:104E2000704708BF9042704707D711F5801F58BFE1
:104E300013F5801F19D499427047894270471CF5B9
:104E4000801F08D5BCF5801FF7D58B4218BF70476F
:104E500008BF824270474FF4001C1CEB410F38BF63
:104E60001CEB430F01D28B42704770B500F0B2F8D3
:104E7000922449004FF000514FF08053FFF7D8BD06
:104E8000DFF848C170B51CEA111E1EBF1CEA1315DD
:104E90009EEA0C0F95EA0C0F00F06F8081EA030484
:104EA00023EA4C134EEAD47E21EA4C1141F48011DE
:104EB00043F48013AE44A1FB024CA0FB0365AEF1AA
:104EC0007F7E361955EB0C05A1FB034C4CF100031A
:104ED000A0FB021C16EB0C06654153F100030942CE
:104EE00018BF46F0010613F4007F0BD14FEA0331DF
:104EF0004FEA0530340341EA155140EA16506FF08D
:104F000003020AE04FEAC3214FEAC520F40241EA56
:104F1000555140EA56506FF0020202EB2E4201EB6F
:104F2000025585EACE710AD05FEA440C18BF24F01E
:104F3000004450F1000041F1000120EAD47040F239
:104F4000FE7C624500D270BDA84214BF4FF0804481
:104F50004FF04044002E08BF0024BEF1806FA8BF70
:104F6000A1F1C041BDE8704080F282804FF00000A6
:104F700001F1C04101F0004170479EEA0C0F0CEABC
:104F8000131518BF95EA0C0F06D04FF0000081EA08
:104F9000030E0EF0004170BD00F01CF88900013EC8
:104FA00000F007B800F009B84FEA430C5FEA5C5C18
:104FB00008D081EA030100F05BB84FEA410C5FEAD8
:104FC0005C5CF6D14FF00000014970470000FF071C
:104FD0000000F87F0EF1020E2EF0030E5EF8046B57
:104FE000364205D4012A43EB030515F5001F12D8FC
:104FF000012841EB010C1CF5001F0CD80ED14FEA23
:10500000D17C15F5001F0CEB4C0C0CF1020C08BF09
:105010004CEBD37C04E04FF0080C01E04FEAD37C6A
:105020000CEB4C0526FA05F606F00706B6F1040C63
:1050300006D20EEB860CBDE870404CF0010C6047C8
:10504000DFE80CF0090B02024FF000414FF00000C6
:10505000A1F5002170BD19461046012851EB01044D
:1050600018BFD4F5001484BF002001F0004170BDCA
:105070000808A0F500114FEA3101704753EA010C0E
:1050800017D41CF5801F58BFBCF5801F00F10680A7
:105090008B4218BF704708BF8242704707D713F58D
:1050A000801F58BF11F5801F19D48B4270479B4257
:1050B00070471CF5801F08D5BCF5801FF7D59942B5
:1050C00018BF704708BF904270474FF4001C1CEB9C
:1050D000430F38BF1CEB410F01D2994270470FB408
:1050E0000CBC03BCFFF7C1BE91EA030F10B581F001
:1050F00000413FF5FDAB83F0004300F009B800002C
:1051000010B591EA030F48BF83F000433FF5F0ABC1
:10511000841A71EB030C07D212198CF0004C43EB8C
:105120000C03001B61EB0C01DFF8A4E14FEA115402
:10513000A4EB135C1EEA430F18BF9EEA445F00F025
:10514000B08023EA6E03524221EA0451C3EB6E039E
:1051500038BF5B1EDCF1200E25D322FA0CFE10EBCB
:105160000E0043FA0CFE41EB0E01CCF1200E03FAC7
:105170000EFE10EB0E0051F10001CCF1200E29D4EF
:1051800012FA0EF201EB0451BDE8104058BF70470F
:10519000401C1CBFB2F1004F704700280CBF491CD7
:1051A00020F00100704712EB020E43EB030218BF20
:1051B0004FF0010E4EEA4202ACF1200CDCF11E0E63
:1051C00054D943FA0CFE10EB0E0051F1FF31CCF133
:1051D0001E0ED5D50EF1010E12FA0EFE404141EB26
:1051E000010101EB445C5FEA5C5C10D910EBDE70FE
:1051F00001EB045138BFBEF1004FBDE8104018BFAD
:10520000704700280CBF491C20F00100704730D2C5
:105210004FEAD42C11F5001124F400641BD0B1FA2C
:1052200081F20B3AA41AA41ED2F12003914030FA65
:1052300003F31943904001EBCC71002C01EB0451B6
:10524000BDE81040A8BF704701F1C0414FF0000019
:1052500001F000417047B0FA80F310FA03F100D179
:1052600010BDE41A173C4805C90AE4E701EB0451F4
:1052700010BD491001EB0451BDE810404FEA300069
:1052800002E04FF0000170474A0008BF0042F8D02A
:10529000B2F5001F28BF704701F000414FF0000039
:1052A00070479EEA445F07D011EA5E0FBDE81040E8
:1052B00004BF002100207047BDE8104070B5FFF723
:1052C00089FE00BF40DFF63E83F000411046704784
:1052D0000000E0FF43004FEAD30C4FEA3C0C434090
:1052E0001FBF40070CF1605113F0FE4F70471CF0D8
:1052F000006F03D100200CF0004170470CF0004318
:1053000043EA507010B540EACC0000F00EF800BF40
:10531000000000924FEA0001FFF7AABE4FF00041E3
:105320004FF00000A1F5002170470EF1020E2EF0A3
:10533000030E5EF8044B244204D44FEA4102B2F15A
:105340007F4F11D84FEA4003B3F17F4F0CD80ED1F5
:105350004FEAD07CB2F17F4F0CEB4C0C0CF1020CFD
:1053600008BF4CEBD17C04E04FF0080C01E04FEAA1
:10537000D17C0CEB4C0324FA03F404F00704B4F1E1
:10538000040C06D20EEB840CBDE810404CF0010C6E
:105390006047DFE80CF0070802024FF00040A0F57C
:1053A000800010BD0846420018BFD2F1807288BF4D
:1053B00000F0004010BD4FF04070E1EE100A704761
:1053C0003A044010121432801716180419021A7A7F
:1053D000030A0C0C15003E00700071017211730974
:1053E000A20211007A207B1C7C287D3C7E557F68C0
:1053F000807681808288838F849685A386AF87C4D8
:1054000088D789E813E0000010000D001420A505DE
:10541000AB072475256326A59F78A068A103A6DFA6
:10542000A7DFA8F0A990AA9413E50E610F4B16020E
:105430001E27210222912907330B350B371D3871A6
:10544000392A3C784D404E20695D6B8074198D4F30
:105450008E008F0090009100920096009A80B08498
:10546000B10CB20EB382B80A431444F04534465826
:105470004728483A59885A885B445C675D495E0E04
:10548000640465206605940495086C0A6D554F8088
:10549000508051005222535E548009036E116F9F59
:1054A00055005640578012103A143D80671168FF2E
:1054B00040C032801716180419021A7A030A0C0C1D
:1054C00015003E007000710172117309A2021100F3
:1054D0007A207B1C7C287D3C7E557F68807681808D
:1054E0008288838F849685A386AF87C488D789E80E
:1054F00013E0000010000D001420A505AB07247573
:10550000256326A59F78A068A103A6DFA7DFA8F0E2
:10551000A990AA9413E50E610F4B16021E272102D3
:1055200022912907330B350B371D3871392A3C7806
:105530004D404E20695D6B4074198D4F8E008F0079
:1055400090009100920096009A80B084B10CB20E47
:10555000B382B80A431444F0453446584728483AC1
:1055600059885A885B445C675D495E0E6404652017
:105570006605940495086C0A6D554F805080510063
:105580005222535E548009036E116F9F550056409E
:105590005780000000000000000000000000000034
:1055A00000000000000000000000000000000000FB
:1055B00000000000000000000000000000000000EB
:1055C00000000000000000000000000000000000DB
:1055D00000000000000000000000000000000000CB
:1055E00000000000000000000000000000000000BB
:1055F00000000000000000000000000000000000AB
:1056000000000000000000004C5555555555A53FC1
:105610007751C1166CC156BF9015CB19A001FA3E47
:10562000AD529C804F7E92BEC4B1B4BD9EEE213E71
:10563000D43888BEE9FAA8BD00004054FB21F93FE8
:105640003163621A61B4D03D0000601A61B4D03D8C
:105650007370032E8A19A33B0000002E8A19A33B06
:10566000C14920259A837B3900000000000000001A
:105670006E83F9A22915444ED15727FCC0DD34F5BD
:10568000999562DB4190433CAB6351FE61C5BBDE43
:105690003A6E24B7E0D24D42EA2E49061C92D10957
:1056A0001CEB1DFE3EA729B1F53582E88444BB2ED4
:1056B00026709CE9417E5FB439D69139F439538321
:1056C0008B5F849C3B28F9BDFF97F81F0F9805DE80
:1056D0008B112FEF1F6D0A5ACF7E366DB709CB277E
:1056E000663F464F2DEA5F9EC7BA27757BF1E5EB13
:1056F000F739073DEA92528AB15FFB6B085D8D1F57
:10570000A6F810111111813FD561C119A0012ABF5E
:105710007DFEB157E31DC73EEB9C2B8AE6E55ABEE2
:105720007CD5CF5A3AD9E53D485700080000002003
:1057300034000000C40100087C5700083400002039
:1057400094370100E00100080000000002000000A2
:105750000200000002000000FFFFFFFFFFFFFFFF4D
:10576000FFFFFFFFFFFFFFFF000000000000000041
:0C5770000000000000000000000000002D
:040000050800018965
:00000001FF
