:020000040800F2
:10000000E037012029020008370200083902000801
:100010003B0200083D0200083F020008000000000B
:100020000000000000000000000000004102000885
:1000300043020008000000004502000847020008D3
:100040004902000849020008490200084902000864
:100050004902000849020008490200084902000854
:1000600049020008E93D0008490200084902000869
:100070004902000849020008490200084902000834
:100080004902000849020008490200084902000824
:10009000490200084902000849020008A93D000879
:1000A0004902000849020008490200084902000804
:1000B00055390008C53A0008F93C00084902000813
:1000C00049020008490200084902000849020008E4
:1000D000490200088D300008490200084902000862
:1000E00049020008490200084902000849020008C4
:1000F00049020008490200084902000849020008B4
:100100004902000849020008033A000849020008B1
:100110004902000849020008490200084902000893
:100120004902000849020008490200084902000883
:100130004902000849020008490200084902000873
:100140004902000849020008490200084902000863
:100150004902000849020008490200084902000853
:100160004902000849020008490200084902000843
:100170004902000849020008490200084902000833
:10018000490200084902000800F002F800F03CF8BB
:100190000AA090E8000C82448344AAF10107DA45E2
:1001A00001D100F031F8AFF2090EBAE80F0013F0F8
:1001B000010F18BFFB1A43F0010318475C5A0000F7
:1001C0007C5A0000103A24BF78C878C1FAD8520788
:1001D00024BF30C830C144BF04680C6070470000C1
:1001E0000023002400250026103A28BF78C1FBD840
:1001F000520728BF30C148BF0B6070471FB505F0DC
:1002000052FB1FBD10B510BD04F096F81146FFF764
:10021000F5FF00F0BFF804F0C8F803B4FFF7F2FFF1
:1002200003BC02F025FF00000B48016841F4700197
:1002300001600A480047FEE7FEE7FEE7FEE7FEE74B
:10024000FEE7FEE7FEE7FEE7FEE70000044805499B
:10025000034A054B7047000088ED00E08901000863
:10026000E0330120E0370120E033012010B5002108
:10027000084600F04EF900F07FFA00F0F0FF01F0C0
:10028000C9FE01F072FC6B480068052813DD6A485E
:10029000006842F2107188420DD94FF0FF30674973
:1002A00008606749086000206649086006206649C2
:1002B00008606349086010BD10B50021084600F0D1
:1002C00028F900F059FA00F0CAFF01F0DAFD01F058
:1002D0005BFC07E05D48007810B1012059490860D7
:1002E000FFF7C4FF5848006800280ADB564800683A
:1002F000062806DA5548007818B1554800780028D5
:10030000E8D010BD10B50021084600F002F900F059
:1003100033FA00F083FE01F04EFE01F026FC454862
:100320000068052813DD4448006846F2A811884299
:100330000DD94FF0FF304149086041490860002065
:10034000404908600620404908603D49086010BDEA
:1003500010B50021084600F0DCF800F00DFA00F0BE
:100360005DFE01F0C5F801F0D0FC01F00DFC04E0E9
:10037000012034490860FFF7C5FF334800680028B2
:1003800007DB31480068052803DA30480078002888
:10039000EED110BD00F060F84AE000BF2B480078B5
:1003A0000028FBD029480078F0B12A480078D8B955
:1003B00001E0FFF7A7FF1F480068052806DC244876
:1003C000007818B9214800780028F2D100201D4992
:1003D000086001E0FFF7BCFF1D48007828BB1B4800
:1003E00000780028F6D120E018480078E8B11948D4
:1003F0000078D0B101E0FFF739FF0E48006805280A
:1004000006DC1348007818B9104800780028F2D1AB
:1004100000200C49086001E0FFF74EFF0C4800780F
:1004200018B90A4800780028F6D10020054908606C
:10043000B3E7000014000020240800401C00002046
:100440001800002088824142100000202000002077
:10045000010000203D00002010B5072302220821E2
:100460004FF4A87002F0BCFDA82002F05BFB4FF433
:10047000E131542002F018FE02F09AFE4FF47A7037
:1004800002F0A4FB002002F02FFF4FF4A073F02233
:10049000AE210A2002F0FAFF0020FC49086003F0B8
:1004A000EDFC03F0C9FD03F0F6FC53214FF6FF709D
:1004B00003F0EDF942F2CF0144F61F6003F098F922
:1004C00044F29F1141F2873003F0BCF948F23F310A
:1004D00049F63F4003F062F942F2CF0140F2F310D7
:1004E00003F00CFA10BD0821E94A116040B1E84957
:1004F0001439096821F00801E54A143A116007E04F
:10050000E3491439096841F00801E14A143A1160DD
:1005100070472DE9F05F074688460026B24672B65E
:100520000020DC490860DC49C1F884020120D74979
:1005300030390860002008600120D6490860D6499B
:10054000C1F88402002567E0002460E00020CF4964
:1005500030390860D148006800F0FF090120CE4919
:10056000C1F884020020C949303908600120CA4915
:10057000C1F88402EA1705EB92729210A5EB820291
:10058000AABBE21704EB92729210A4EB820272BB38
:100590004FEAE47C04EB9C7C4FEAAC0CBC4534DBBA
:1005A0004FEAE57C05EB9C7C4FEAAC0CC4452CDBA8
:1005B0004FEAE47C04EB9C7C4FEAAC0B07F1500C57
:1005C000E34522DA4FEAE57C05EB9C7C4FEAAC0B75
:1005D00008F13C0CE34518DA502E09DA0AEB8A00E0
:1005E000AF4901EB001000F80690701C86B20CE0D9
:1005F00000260AF101001FFA80FA0AEB8A00A849D6
:1006000001EB001000F80690761C601C84B2B4F573
:10061000A07F9BDB681C85B2F02D95DB4FF49652D2
:100620009F49A04803F0C8FD4FF400709849086046
:1006300000209D49087062B6BDE8F09F2DE9F04F9B
:1006400004460D460022002772B60023DFF85CC284
:10065000CCF89432DFF840C2CCF884320123CCF8D5
:1006600084320023CCF884320123DFF840C2CCF876
:100670009432DFF824C2CCF8843200216CE00020F0
:1006800065E00023DFF810C2CCF88432834B1B688E
:10069000DEB20123CCF884320023CCF8843201236B
:1006A000CCF884324FEAE17801EB98784FEAA80859
:1006B000A1EB8808B8F1000F47D14FEAE07800EBD2
:1006C00098784FEAA808A0EB8808B8F1000F3CD151
:1006D0004FEAE07A00EB9A7A4FEAAA0AA24534DBA5
:1006E0004FEAE17A01EB9A7A4FEAAA0AAA452CDB93
:1006F00084464FEAE07A00EB9A7A4FEAAA0B04F1BB
:10070000500AD34521DA0B464FEAE17A01EB9A7A97
:100710004FEAAA0B05F13C0AD34516DA502A09DA4A
:1007200007EB8703DFF888C10CEB03139E54531CBF
:100730009AB20AE000227B1C9FB207EB8703DFF826
:1007400070C10CEB03139E54521C431C98B2B0F5BD
:10075000A07F96DB4B1C99B2F02990DB4FF400731D
:10076000DFF82CC1CCF800300023DFF83CC18CF856
:10077000003062B6BDE8F08F2DE9F05F2DED068BFD
:100780004FF0000A00270EE000204A4921F8170028
:100790004949C8559FED490A494800EB870080ED5B
:1007A000000A781C87B2FF2FEEDD00244DE0002503
:1007B00047E0444A1268A21A424B1B68E31A5A43A4
:1007C000414B1B68EB1ADFF800C1DCF800C0A5EB59
:1007D0000C0C03FB0C233D4A1168CA1701EB527243
:1007E000DFF8E8C0DCF800C0ACEBE202DFF8DCC008
:1007F000DCF800004FEAE07C00EB5C7CDFF8CCB07A
:10080000DBF800B0ABEBEC0C02FB0CF2934216DA17
:1008100004EB8400234901EB0010405D254931F8C9
:100820001000401C04EB84011E4A02EB0111495DDB
:10083000204A22F811000AF101001FFA80FA681C10
:1008400085B2502DB5DB601C84B23C2CAFDB4FF081
:10085000000815E0174830F8180000EE100AF8EE0E
:10086000400A00EE10AAB8EE400A80EE801A144842
:1008700000EB880080ED001A08F101001FFA80F8F3
:10088000B8F1FF0FE6DD012636E00000B402414278
:10089000143C0140940242420000414210140240C4
:1008A00090380020101300203C000020000042423D
:1008B000500000205C3101205C300120000000006D
:1008C000582C012008000020040000200C0000200B
:1008D000701EFE4901EB800090ED000A084600EB17
:1008E0008600D0ED000A30EE200A084600EB8600B4
:1008F00080ED000A701C86B2B6F5807FE8DD4FF00F
:10090000000926E0F14A09F1010002EB800090EDB8
:10091000000A10EE101A084604F054FF41EC1A0BBE
:100920009FEDEB0B53EC102B04F022FD41EC190B67
:100930009FEDE90B53EC102B04F04AFA41EC180B35
:1009400004F082FCE64901F8090009F101001FFAF0
:1009500080F9B9F1FF0FD5DD002444E000253EE029
:10096000E04A1268A21ADF4B1B68E31A5A43DE4BB7
:100970001B68EB1ADFF870C3DCF800C0A5EB0C0CA9
:1009800003FB0C23D94A1168CA1701EB5272DFF836
:100990005CC3DCF800C0ACEBE202DFF850C3DCF86B
:1009A00000004FEAE07C00EB5C7CDFF840B3DBF852
:1009B00000B0ABEBEC0C02FB0CF293420DDA04EB53
:1009C0008400CB4901EB0010405DC549085C04EB95
:1009D0008401C74A02EB01114855681C85B2502DAD
:1009E000BEDB601C84B23C2CB8DBBDEC068BBDE8E2
:1009F000F09FF0B5ADF5007DDFEDBE0A60EE200A98
:100A0000FCEEE00A10EE900A85B2002103E000201F
:100A10002DF81100491CFF29F9DD012117E0012201
:100A200012E001EB8100B44E06EB0010805C3DF853
:100A30001000401C80B201EB8106AF4F07EB061699
:100A4000B65C2DF81600521C4F2AEADB491C3B29E4
:100A5000E5DB00230024FF2105E03DF811001844E8
:100A600083B2641C491EAB42F7DBC4F1FF000DF5F5
:100A7000007DF0BD2DE9F0470120A04908704FF43A
:100A800096529D499E4803F097FB9FED9E0AFFF703
:100A9000B0FF814601249CE0012596E0611C01EB3A
:100AA0008101974A02EB0112691E525C611C01EB45
:100AB0008101934B03EB0111495D022313FB0122DA
:100AC000611C01EB81018E4B03EB0113691C595C26
:100AD0000A44611E01EB8101894B03EB0113691E7E
:100AE0005B5C611E01EB8101DFF814C20CEB0111AC
:100AF000495D4FF0020C1CFB0133611E01EB8101CB
:100B0000DFF8FCC10CEB011C691C1CF80110194436
:100B1000501A002801DB014600E04142CEB2611EBE
:100B200001EB8101764A02EB0112691E525C04EB73
:100B30008401734B03EB0113691E595C022313FB01
:100B40000122611C01EB81016D4B03EB0113691E56
:100B5000595C0A44611E01EB8101694B03EB0113EF
:100B6000691C5B5C04EB8401DFF894C10CEB011C95
:100B7000691C1CF801104FF0020C1CFB0133611CB6
:100B800001EB8101DFF878C10CEB011C691C1CF83A
:100B900001101944501A002801DB014600E04142CF
:100BA000CFB206EB0708C84507DDFF2004EB840140
:100BB000514A02EB0111485506E0002004EB840184
:100BC0004D4A02EB011148556D1C4F2DFFF666AFE3
:100BD000641C3B2CFFF660AF4FF49651484803F07D
:100BE0003FFBBDE8F0872DE9F0414FF496524249B2
:100BF000434803F0E1FA0124BCE00125B6E0611CA2
:100C000001EB81013E4A02EB0112691E525C611C3C
:100C100001EB81013A4B03EB0111495D022313FB08
:100C20000122611C01EB8101354B03EB0113691CAF
:100C3000595C0A44611E01EB8101314B03EB011346
:100C4000691E5B5C611E01EB8101DFF8B4C00CEB37
:100C50000111495D4FF0020C1CFB0133611E01EBD9
:100C60008101DFF89CC00CEB011C691C1CF8011011
:100C70001944501A002801DB014600E04142CEB27F
:100C8000611E01EB81011E4A02EB0112691E525CDA
:100C900004EB84011A4B03EB0113691E595C022318
:100CA00013FB0122611C01EB8101154B03EB0113C6
:100CB000691E595C0A44611E01EB8101104B03EB74
:100CC0000113691C5B5C04EB84011DE0582C0120BE
:100CD0000000000000E06F40000000000000E03F66
:100CE0005C30012008000020040000200C000020DF
:100CF0001013002000A89145903800203E000020ED
:100D0000D0250020CDCCCC3DDFF83CC40CEB011C41
:100D1000691C1CF801104FF0020C1CFB0133611C14
:100D200001EB8101DFF820C40CEB011C691C1CF8ED
:100D300001101944501A002801DB014600E041422D
:100D4000CFB206EB0708B8F1640F07DDFF2004EB14
:100D50008401FE4A02EB0111485506E0002004EB35
:100D60008401FA4A02EB011148556D1C4F2DFFF624
:100D700046AF641C3B2CFFF640AF4FF49651F2484F
:100D800003F06EFABDE8F0812DE9F0414FF4965280
:100D9000EF49ED4803F010FA01249DE0012597E0AA
:100DA000611C01EB8101E84A02EB0112691E525CF1
:100DB000611C01EB8101E44B03EB0111495D02234E
:100DC00013FB0122611C01EB8101DF4B03EB0113DB
:100DD000691C595C0A44611E01EB8101DA4B03EB8B
:100DE0000113691E5B5C611E01EB8101DFF858C3D2
:100DF0000CEB0111495D4FF0020C1CFB0133611E2D
:100E000001EB8101DFF840C30CEB011C691C1CF8ED
:100E100001101944501A002801DB014600E041424C
:100E2000CEB2611E01EB8101C74A02EB0112691EBD
:100E3000525C04EB8401C44B03EB0113691E595C43
:100E4000022313FB0122611C01EB8101BE4B03EB6A
:100E50000113691E595C0A44611E01EB8101BA4B02
:100E600003EB0113691C5B5C04EB8401DFF8D8C25F
:100E70000CEB011C691C1CF801104FF0020C1CFB50
:100E80000133611C01EB8101DFF8BCC20CEB011CDA
:100E9000691C1CF801101944501A002801DB014696
:100EA00000E04142CFB206EB0708B8F13C0F07DD86
:100EB000FF2004EB8401A64A02EB0111485506E02D
:100EC000002004EB8401A24A02EB011148556D1C7D
:100ED0004F2DFFF665AF641C3B2CFFF65FAF4FF460
:100EE0009651994803F0BCF9BDE8F08110B5012096
:100EF00014E001210FE000EB8002954B03EB02129E
:100F0000525CFF2A06D1002200EB80038F4C04EBD9
:100F100003135A54491C4F29EDDB401C3B28E8DBE6
:100F200010BD2DE9F041ADF5007D0346002003E042
:100F300000262DF81060401CFF28F9DD012048E054
:100F4000012143E0834E3668032796FBF7F6814F75
:100F50003F68BE1B7F4F3F684FF0030C97FBFCF7C9
:100F6000DFF8F0C1DCF800C0ACEB07077E437A4F36
:100F70003F68C71BDFF8E0C1DCF800C0A0EB0C0C39
:100F800007FB0CF7DFF8D4C1DCF800C0A1EB0C0CB8
:100F9000DFF8C881D8F80080A1EB08080CFB0877BF
:100FA000BE4212DD00EB80066D4F07EB0616765C45
:100FB0003DF81660761CB6B200EB8007DFF8A0C1E2
:100FC0000CEB07177F5C2DF81760491C4F29B9DB24
:100FD000401C3B28B4DB002004E03DF810602E44A8
:100FE000B5B2401C0028F8DB5E1B00EE906AF8EEFC
:100FF000E00A60EE800AFCEEE00A10EE906AB4B2FD
:101000000022FF2004E03DF810601644B2B2401EFA
:10101000A242F8DB0DF5007DBDE8F0812DE9F04737
:101020004FF000094FF496524D49474803F0C4F879
:1010300001242BE0012526E046480068062190FBAC
:10104000F1F044490968081A42490968062291FBEF
:10105000F2F1404A1268511A48433F490968611A3F
:101060003D4A1268A21A51433C4A1268AA1A3B4BE5
:101070001B68EB1A02FB0311884203DD09F1010032
:101080001FFA80F96D1C4F2DD6DB641C3B2CD1DB85
:1010900048461FEDE40AFFF744FF00F0FF0A012471
:1010A000D3E00125CDE02B480068062190FBF1F04C
:1010B00028490968081A27490968062291FBF2F1B4
:1010C000244A1268511A484323490968611A224A7E
:1010D0001268A21A5143214A1268AA1A1F4B1B68B0
:1010E000EB1A02FB031188427DDD611C01EB8101DB
:1010F000154A02EB0112691E525C611C01EB810171
:10110000114B03EB0111495D022313FB0122611C0A
:1011100001EB81010C4B03EB0113691C595C114479
:10112000621E02EB8202084B03EB02136A1E9B5CF9
:10113000621E02EB8202DFF810C00CEB0212525D5D
:101140004FF0020C0EE00000D02500209038002067
:10115000500000200C0000200800002004000020A7
:10116000101300201CFB0233621E02EB8202DFF828
:1011700018C40CEB021C6A1C1CF802201A44881AC2
:10118000002801DB014600E04142CFB2611E01EBC5
:101190008101FD4A02EB0112691E525C04EB8401DD
:1011A000F94B03EB0113691E595C022313FB012267
:1011B000611C01EB8101F44B03EB0113691E595CC7
:1011C0001144621E02EB8202EF4B03EB02136A1C16
:1011D0009B5C04EB8402DFF8B0C30CEB021C6A1CBE
:1011E0001CF8022000E02BE04FF0020C1CFB023345
:1011F000621C02EB8202DFF890C30CEB021C6A1C3B
:101200001CF802201A44881A002801DB014600E07D
:10121000414201F0FF0808EB0706564509DDC82EDC
:1012200007DDFF2004EB8401D84A02EB0111485589
:1012300006E0002004EB8401D44A02EB011148557A
:101240006D1C4F2DFFF62FAF641C3B2CFFF629AF12
:101250004FF49651CC4803F003F8BDE8F0872DE930
:10126000F0474FF000084FF49652C849C64802F0C4
:10127000A3FF01242BE0012526E0C54800680621D4
:1012800090FBF1F0C2490968091AC14800680622BA
:1012900090FBF2F0BE4A1268101A4143BD48006844
:1012A000201ABC4A1268A21A5043BB4A1268AA1AF2
:1012B000B94B1B68EB1A02FB0300814203DD08F106
:1012C00001001FFA80F86D1C4F2DD6DB641C3B2CEF
:1012D000D1DB40469FEDB10AFFF723FE00F0FF0986
:1012E0000124C0E00125BAE0A9480068062190FB6E
:1012F000F1F0A7490968081AA5490968062291FB77
:10130000F2F1A34A1268511A4843A2490968611AC6
:10131000A04A1268A21A51439F4A1268AA1A9E4B09
:101320001B68EB1A02FB031188427DDD611C01EB97
:101330008101954A02EB0112691E525C611C01EBAE
:101340008101914B03EB0111495D022313FB012243
:10135000611C01EB81018C4B03EB0113691C595C8F
:101360001144621E02EB8202874B03EB02136A1EDA
:101370009B5C621E02EB8202DFF80CC20CEB0212D5
:10138000525D4FF0020C1CFB0233621E02EB820224
:10139000DFF8F4C10CEB021C6A1C1CF802201A4492
:1013A000881A002801DB014600E04142CEB2611EEE
:1013B00001EB8101744A02EB0112691E525C04EBDD
:1013C0008401714B03EB0113691E595C022313FB6B
:1013D0000122611C01EB81016B4B03EB0113691EC0
:1013E000595C1144621E02EB8202674B03EB02134D
:1013F0006A1C9B5C04EB8402DFF88CC10CEB021CC2
:101400006A1C1CF802204FF0020C1CFB0233621C09
:1014100002EB8202DFF870C10CEB021C6A1C1CF8A4
:1014200002201A44881A00E018E0002801DB014677
:1014300000E04142CFB207EB060ACA4507DDFF20B4
:1014400004EB8401514A02EB0111485506E00020EB
:1014500004EB84014D4A02EB011148556D1C4F2DE0
:10146000FFF642AF641C3B2CFFF63CAF4FF49651A5
:10147000454802F0F5FEBDE8F087F0B503460024CC
:1014800001212FE001222AE041480068062590FB57
:10149000F5F03F4D2D68281A3D4D2D68062695FB29
:1014A000F6F53B4E3668751B68433A4D2D684D1B6B
:1014B000384E36688E1B7543374E3668961B364F4E
:1014C0003F68D71B06FB0755A84207DD01EB8100EB
:1014D0002E4D05EB0010805C204484B2521C4F2A34
:1014E000D2DB491C3B29CDDB94FBF3F0C0B2F0BD4D
:1014F00030B5012144E001203FE0254A126806236F
:1015000092FBF3F2224B1B689A1A214B1B680624AC
:1015100093FBF4F31E4C2468E31A5A431D4B1B68DB
:10152000CB1A1C4C24680C1B63431B4C2468041B03
:10153000194D2D68451B04FB05339A421CDD01EB58
:101540008102124B03EB0212125CFF2A14D14A1ED5
:1015500002EB820203EB0212125C6AB94A1C02EB34
:10156000820203EB0212125C32B9002201EB81030A
:10157000064C04EB03131A54401C4F28BDDB491CD6
:101580003B29B8DB30BD0000D0250020101300201F
:101590000C0000200800002004000020CDCCCC3D31
:1015A0002DE9F0472DED0C8B9FEDF70BB0EE408A47
:1015B000F0EE608A0027A3E04FF000089BE007EB05
:1015C0008700F34901EB001010F80800FF287DD1D7
:1015D00000248BE04FF0000983E0484603F061FEF1
:1015E00041EC1A0B9FEDEB0B53EC102B03F0C0FEFC
:1015F00041EC190B9FEDE90B53EC102B03F09CFC15
:1016000041EC180BB0EE480AF0EE680A02F0ECFE6E
:10161000B0EE40CAF0EE60CA04F1140003F041FEDF
:1016200041EC1D0B53EC1C2B03F0A2FE41EC1A0BFA
:10163000384603F036FE41EC1B0B53EC1A2B03F03B
:10164000D7FF41EC190B03F0CFFD0646B0EE480A78
:10165000F0EE680A02F02CFFB0EE40CAF0EE60CA6D
:1016600004F1140003F01DFE41EC1D0B53EC1C2B88
:1016700003F07EFE41EC1A0B404603F012FE41ECF3
:101680001B0B53EC1A2B03F0B3FF41EC190B03F0C7
:10169000ABFD0546002E22DD3C2E20DA002D1EDD9E
:1016A000502D1CDA06EBC600C0EB8610BD4901EBDD
:1016B000001005EB450101EBC5010844005D401C2D
:1016C00006EBC601C1EB8611B64A00E011E002EB61
:1016D000011105EB450202EBC5021144085509F161
:1016E0000A09B9F5B47F7FF778AF641C0B2CFFF6BD
:1016F00071AF08F10108B8F1500FFFF660AF7F1C21
:101700003C2FFFF659AFBDEC0C8BBDE8F0872DE9FF
:10171000F0474FF0000AD046C1460027FFF740FFD0
:101720000A262AE0002425E0002520E004EBC4007E
:10173000C0EB84109B4901EB001005EB450101EB68
:10174000C5010844805D504510DD04EBC400C0EBCA
:101750008410944901EB001005EB450101EBC50134
:10176000084410F806A0A046A94637466D1C502D27
:10177000DCDB641C3C2CD7DB761E002ED2DA8A48D8
:10178000C0F800908948C0F8008007F1140088492B
:1017900008604CF64061834802F040FD0020854916
:1017A0000870BDE8F0872DE9F0472DED0C8B9FED1B
:1017B000760BB0EE408AF0EE608A0024D0E000257F
:1017C000CAE07A4A1268A21A784B1B68E31A5A4395
:1017D000754B1B68EB1ADFF8D0C1DCF800C0A5EB35
:1017E0000C0C03FB0C2C724A1268D21C704B1B6849
:1017F000DB1C5A4394457DDC6C4A1268A01A002811
:1018000001DB024600E04242694B1B68D91C01EB38
:10181000D1735B109A426DDA04EB84005C4901EBF2
:101820000010405DFF2865D1002691E04FF00009CF
:1018300089E0484603F035FD41EC1A0B9FED550B4E
:1018400053EC102B03F094FD41EC190B9FED530B5F
:1018500053EC102B03F070FB41EC180BB0EE480A70
:10186000F0EE680A02F0C0FDB0EE40CAF0EE60CAC9
:101870004F4909680939881903F013FD41EC1D0B24
:1018800053EC1C2B03F074FD41EC1A0B204603F0C3
:1018900008FD41EC1B0B53EC1A2B03F0A9FE41ECA5
:1018A000190B03F0A1FC8046B0EE480AF0EE680A7E
:1018B00002F0FEFDB0EE40CAF0EE60CA3C49096895
:1018C0000939881903F0EDFC41EC1D0B53EC1C2B7E
:1018D00003F04EFD41EC1A0B284603F0E2FC41EC0C
:1018E0001B0B53EC1A2B03F083FE41EC190B03F096
:1018F0007BFC00E02FE00746B8F1000F21DDB8F1D6
:101900003C0F1EDA002F1CDD502F1ADA08EBC8003E
:10191000C0EB8810234901EB001007EB470101EBF6
:10192000C7010844805D401C08EBC801C1EB881169
:101930001C4A02EB011107EB470202EBC7021144FC
:10194000885509F10A09B9F5B47F7FF772AF761CA3
:101950000A2EFFF66BAF6D1C502DFFF632AF641CE4
:101960003C2CFFF62CAFBDEC0C8BBDE8F0872DE9CD
:10197000F05F0027B846B9460D48D0F800B0BA4627
:10198000FFF711FF09266AE00000000000000000D8
:10199000903800204AD8124DFB2109400000000079
:1019A00000806640165E0020040000200800002031
:1019B0000C0000203E00002000244DE0002548E0FF
:1019C000FE4B1B68E21A002A01DB134600E053427B
:1019D000DFF8ECC3DCF800104FEAE17C01EB9C7C03
:1019E0004FEAAC0C634533DAF54B1B684FF0030C40
:1019F00093FBFCF3DFF8CCC3DCF800C0A5EB0C00D4
:101A0000002801DB844601E0C0F1000C63451FDDC6
:101A100004EBC400C0EB8410EB4901EB001005EBB4
:101A2000450101EBC5010844805D504510DD04EB24
:101A3000C400C0EB8410E44901EB001005EB450144
:101A400001EBC501084410F806A0A8462746B14698
:101A50006D1C502DB4DB641C3C2CAFDB761E002EBD
:101A6000AADAD848C0F80080D4480760ABF1090072
:101A70004844D34908604CF64061D34802F0CEFB9D
:101A80000020D2490870BDE8F09FF8B50646002452
:101A90002EE0002529E004EB840006EB0010405DF9
:101AA000AA2807D1AB21502000FB0450401DC84A92
:101AB000115419E004EB840006EB0010405D55283A
:101AC00007D15621502000FB0450401DC04A11543C
:101AD0000AE004EB840006EB0010415D502000FB9F
:101AE0000450401DBA4A11546D1C502DD3DB641CA8
:101AF0003C2CCEDBAA20B64908705521B54880F8A9
:101B0000C51241F2C620B24BB34A04210090B3483B
:101B100002F0EEF98020B049091F888241F2C62107
:101B2000AE4802F073FAAD48B438006800F00060C7
:101B300038B1AA48AC38006840F00060A749AC3919
:101B40000860F8BD10B5AA20A14908709D4800683A
:101B500048709A480068887099480068C8700020EA
:101B600008719F48FFF791FF10BD10B5AA20984952
:101B70000870002048708870C8709A480078087112
:101B80009948FFF782FF10BD10B5AA209049087050
:101B90008C480068487089480068887088480068E8
:101BA000C8709248007808718F48FFF76EFF10BD2B
:101BB0002DE9F043002300250026002151E00020FC
:101BC0004CE07F4F3F684FF0030C97FBFCF7DFF8CA
:101BD000F0C1DCF800C0ACEB0707DFF8E4C1DCF8CB
:101BE00000C04FF003089CFBF8FCDFF8D481D8F864
:101BF0000080A8EB0C0C07FB0CF7DFF8C0C1DCF889
:101C000000C0A0EB0C0CDFF8B481D8F80080A0EB8A
:101C100008080CFB08FCDFF8AC81D8F80080A1EBC9
:101C20000808DFF8A091D9F80090A1EB090908FB9A
:101C300009CC674511DD624F3F687F004FF0030C10
:101C400097FBFCFC5D4F3F68C41B002C01DB274663
:101C500000E06742BC4500DD5B1C401C3C28B0DB5B
:101C6000491C5029ABDB092493FBF4F30822002123
:101C700047E0002042E0524C2468032794FBF7F42D
:101C80004F4F3F683C1B4E4F3F684FF0030C97FB94
:101C9000FCF7DFF82CC1DCF800C0ACEB07077C4395
:101CA000464F3F68C71BDFF814C1DCF800C0A0EB4B
:101CB0000C0C07FB0CF7DFF80CC1DCF800C0A1EB43
:101CC0000C0CDFF80081D8F80080A1EB08080CFBB1
:101CD0000877BC4211DD6D1C00EB8004424F07EB1E
:101CE0000414645CFF2C00D1761C9D4205DD0125A7
:101CF0003F4C44F82260521E0126401C3C28BADBAF
:101D0000491C5029B5DBBDE8F083F0B52DED068BFD
:101D10008FB00026242106A802F0A2FA002003902A
:101D200004900590009001900290FFF741FF00247D
:101D300028E023490968224A126801FB02F003F0F7
:101D4000B0FA41EC1A0B9FED2B0B53EC102B03F068
:101D50000FFB41EC180B264951F8240003F0A1FABF
:101D600041EC190B53EC182B03F0C6FA03D20020F8
:101D70001F4941F824001E4850F8240006A941F8E4
:101D80002400641C092CD4DB00243AE006A850F897
:101D90002470651E07E006A850F8251006AA681CE6
:101DA00042F820106D1E002D04DB06A850F8250017
:101DB000B842F0DB06A9681C20E000000800002003
:101DC0000C00002004000020165E00203E000020D1
:101DD000504B0020505B002004100140B8640240CA
:101DE0009038002014000020101300201000002064
:101DF0005C330120B81E85EB51B89E3F41F820703E
:101E0000641C092CC2DB002415E006A850F824004D
:101E100003A941F8240008250AE003A850F824008B
:101E2000FE4951F82510884201D14DF824506D1E0D
:101E3000002DF2DA641C032CE7DB002406E05DF8D9
:101E40002400B04201DD5DF82460641C032CF6DB45
:101E5000F3480068B04206D1F2480068B04202D1AF
:101E6000F148066003E04FF0FF30EF490860EC48AE
:101E70000068EC490860EA4806600FB0BDEC068BCC
:101E8000F0BDF0B52DED068B8FB00026242106A8FD
:101E900002F0E6F900200390049005900090019074
:101EA0000290FFF785FE002428E0E0490968DF4A38
:101EB000126801FB02F003F0F4F941EC1A0B9FEDFC
:101EC000DC0B53EC102B03F053FA41EC180BD34905
:101ED00051F8240003F0E5F941EC190B53EC182BF1
:101EE00003F00AFA03D20020CC4941F82400CB4881
:101EF00050F8240006A941F82400641C092CD4DB06
:101F0000002418E006A850F82470651E07E006A813
:101F100050F8251006AA681C42F820106D1E002DEE
:101F200004DB06A850F82500B842F0DB06A9681CBF
:101F300041F82070641C092CE4DB002415E006A89D
:101F400050F8240003A941F8240008250AE003A85A
:101F500050F82400B14951F82510884201D14DF8BC
:101F600024506D1E002DF2DA641C032CE7DB0024E4
:101F700006E05DF82400B04201DD5DF82460641CD9
:101F8000032CF6DBA6480068B04206D1A5480068DD
:101F9000B04202D1A448066003E04FF0FF30A249EE
:101FA00008609F4800689F4908609D4806600FB020
:101FB000BDEC068BF0BD70B52DED068B0025FFF74F
:101FC000F7FD00241FE099490968984A126801FB4F
:101FD00002F003F066F941EC1A0B9FED950B53EC00
:101FE000102B03F0C5F941EC180B8C4951F8240073
:101FF00003F057F941EC190B53EC182B03F0B6FA28
:1020000000D22546641C092CDDDB8B480560BDEC45
:10201000068B70BD70B52DED068B0025FFF7C8FD52
:1020200000241FE081490968804A126801FB02F020
:1020300003F037F941EC1A0B9FED800B53EC102B9A
:1020400003F096F941EC180B744951F8240003F0A1
:1020500028F941EC190B53EC182B03F087FA00D246
:102060002546641C092CDDDB73480560BDEC068B3E
:1020700070BD30B501228CE20022012086E20121F0
:1020800080E200EB80036F4C04EB03135B5CFF2BDF
:1020900053D1431E03EB830304EB03144B1EE35C99
:1020A000EBBB431E03EB8303664C04EB03135B5C47
:1020B000ABBB431E03EB830304EB03144B1CE35C39
:1020C0006BBB00EB80035F4C04EB03144B1EE35C23
:1020D000FF2B33D100EB80035A4C04EB03144B1C51
:1020E000E35CFF2B2AD1431C03EB8303554C04EB29
:1020F00003135B5CFF2B21D1431E03EB830304EB33
:1021000003135B5C8BB9431C03EB830304EB0313E6
:102110005B5CFF2B09D1831C03EB830300E00DE024
:1021200004EB03135B5C002B07D0002300EB80045F
:10213000444D05EB04146354012222E2431E03EBD9
:102140008303404C04EB03144B1EE35CF3BB00EB36
:1021500080033C4C04EB03144B1EE35CB3BB431CF9
:1021600003EB8303374C04EB03144B1EE35C6BBBA4
:10217000431E03EB8303334C04EB03135B5CFF2B25
:1021800034D1431C03EB830304EB03135B5CFF2B91
:102190002CD100EB800304EB03144B1CE35CFF2BFE
:1021A00024D100EB8003274C04EB03144B1EE35CAB
:1021B0009BB900EB8003234C04EB03144B1CE35C42
:1021C000FF2B0AD100EB80031E4C00E00EE004EB75
:1021D00003148B1CE35C002BAFD0002300EB8004C6
:1021E000184D05EB041463540122CAE1431C03EBB0
:1021F0008303144C04EB03144B1EE35CEBBB431C46
:1022000003EB83030F4C04EB03135B5CABBB431C7E
:1022100003EB830304EB03144B1C15E05C33012038
:10222000180000201C000020100000200C000020DE
:102230007B14AE47E17AA43F14000020B81E85EB62
:1022400051B8AE3F90380020E35CB3B900EB800397
:10225000FE4C04EB03144B1EE35CFF2B1CD100EB84
:102260008003FA4C04EB03144B1CE35CFF2B13D1EB
:10227000431E03EB8303F54C00E00DE004EB031376
:102280005B5CFF2B08D1002300EB8004EF4D05EBD6
:1022900004146354012274E1431E03EB8303EB4CEB
:1022A00004EB03144B1CE35C93BB00EB8003E74C93
:1022B00004EB03144B1CE35C53BB431C03EB830391
:1022C000E24C04EB03144B1CE35C0BBB431E03EB1F
:1022D0008303DE4C04EB03135B5CFF2B19D1431C1F
:1022E00003EB830304EB03135B5CFF2B11D100EBC7
:1022F000800304EB03144B1EE35CFF2B09D1002386
:1023000000EB8004D14D05EB04146354012238E145
:10231000FFE7431E03EB8303CC4C04EB03135B5C2E
:10232000EBBB431E03EB830304EB03144B1CE35C86
:10233000ABBB00EB8003C54C04EB03144B1CE35C0C
:102340006BBB431C03EB8303C04C04EB03135B5CCC
:10235000FF2B2AD100EB800304EB03144B1EE35C3C
:10236000FF2B22D1431E03EB8303B84C04EB031372
:102370005B5C7BB9431C03EB830304EB03135B5CE3
:10238000FF2B07D1831C03EB830304EB03135B5C7C
:10239000002BBCD0002300EB8004AC4D00E004E037
:1023A00005EB041463540122EBE0431E03EB8303AB
:1023B000A64C04EB03144B1EE35CEBBB431E03EB88
:1023C0008303A24C04EB03135B5CABBB00EB800309
:1023D00004EB03144B1EE35C73BB00EB80039B4CCC
:1023E00004EB03144B1CE35CFF2B4CD1431C03EBAD
:1023F0008303964C04EB03135B5CFF2B43D1431E1A
:1024000003EB830304EB03135B5C73B9431C03EB23
:10241000830304EB03135B5CFF2B06D1831C03EBEC
:10242000830304EB03135B5C53B1002300EB8004D4
:10243000864D05EB041400E025E063540122A0E082
:1024400000EB8003814C04EB03144B1EE35C8BB95F
:1024500000EB80037D4C04EB03144B1CE35CFF2B6F
:1024600008D100EB8003794C04EB03148B1CE35C74
:10247000002B07D0002300EB8004744D05EB0414FF
:10248000635401227DE000EB8003704C04EB0314E5
:102490004B1EE35CF3BB431C03EB83036B4C04EB6D
:1024A00003144B1EE35CABBB431C03EB8303674C81
:1024B00004EB03135B5C6BBB431E03EB830304EB76
:1024C00003135B5CFF2B2BD100EB800304EB0314A5
:1024D0004B1CE35C012B23D100EB80035B4C04EB32
:1024E00003144B1EE35C83B900EB8003574C04EBF1
:1024F00003144B1CE35CFF2B07D100EB8003534C10
:1025000004EB03148B1CE35CDBB3002300EB8004BF
:102510004E4D00E004E005EB04146354012230E06A
:1025200000EB8003494C04EB03144B1CE35C43BBFE
:10253000431C03EB8303454C04EB03135B5C03BBBD
:10254000431C03EB830304EB03144B1CE35CC3B990
:10255000431E03EB83033D4C04EB03135B5CFF2B37
:102560000FD100EB800304EB03144B1EE35CFF2B45
:1025700007D1002300EB8004344D05EB04146354B1
:102580000122491C4E29FFF67CAD401C3A28FFF67B
:1025900076AD002A7FF470AD30BD70B50122A5E2A2
:1025A000002201209FE2012199E2294B1B680324AC
:1025B00093FBF4F3264C2468E31A254C2468032586
:1025C00094FBF5F4224D2D682C1B6343214C2468A9
:1025D000041B204D2D68451B6C431F4D2D684D1B62
:1025E0001D4E36688E1B05FB0644A34265DD00EBDD
:1025F00080031A4C04EB03135B5CFF2B5DD1431E7D
:1026000003EB830304EB03144B1EE35C43BB431E49
:1026100003EB8303114C04EB03135B5C03BB431E0E
:1026200003EB830304EB03144B1CE35CC3B900EB23
:1026300080030A4C04EB03144B1EE35CFF2B3DD1DB
:1026400000EB8003054C04EB03140AE090380020F3
:102650000C000020080000200400002010130020BF
:102660002CE04B1CE35CFF2B28D1431C03EB8303C2
:10267000FD4C04EB03135B5CFF2B1FD1431E03EBEC
:10268000830304EB03135B5C7BB9431C03EB830301
:1026900004EB03135B5CFF2B07D1831C03EB830369
:1026A00004EB03135B5C002B07D0002300EB8004DA
:1026B000ED4D05EB0414635401220FE2431E03EBBE
:1026C0008303E94C04EB03144B1EE35CF3BB00EB08
:1026D0008003E54C04EB03144B1EE35CB3BB431CCB
:1026E00003EB8303E04C04EB03144B1EE35C6BBB76
:1026F000431E03EB8303DC4C04EB03135B5CFF2BF7
:1027000034D1431C03EB830304EB03135B5CFF2B0B
:102710002CD100EB800304EB03144B1CE35CFF2B78
:1027200024D100EB8003D04C04EB03144B1EE35C7C
:102730009BB900EB8003CC4C04EB03144B1CE35C13
:10274000FF2B0AD100EB8003C74C00E00EE004EB46
:1027500003148B1CE35C002BAFD0002300EB800440
:10276000C14D05EB041463540122B7E1431C03EB94
:102770008303BD4C04EB03144B1EE35C9BBB431C67
:1027800003EB8303B84C04EB03135B5C5BBB431CA0
:1027900003EB830304EB03144B1CE35C1BBB00EB58
:1027A0008003B14C04EB03144B1EE35CFF2B1BD1E5
:1027B00000EB8003AC4C04EB03144B1CE35CFF2BDD
:1027C00012D1431E03EB8303A74C04EB03135B5CA2
:1027D000FF2B09D1002300EB8004A34D05EB04146B
:1027E000635401227AE1FFE7431E03EB83039E4C0F
:1027F00004EB03144B1CE35C93BB00EB80039A4C8B
:1028000004EB03144B1CE35C53BB431C03EB83033B
:10281000954C04EB03144B1CE35C0BBB431E03EB16
:102820008303914C04EB03135B5CFF2B19D1431C16
:1028300003EB830304EB03135B5CFF2B11D100EB71
:10284000800304EB03144B1EE35CFF2B09D1002330
:1028500000EB8004844D05EB0414635401223DE138
:10286000FFE7431E03EB83037F4C04EB03135B5C26
:10287000EBBB431E03EB830304EB03144B1CE35C31
:10288000ABBB00EB8003784C04EB03144B1CE35C04
:102890006BBB431C03EB8303734C04EB03135B5CC4
:1028A000FF2B2AD100EB800304EB03144B1EE35CE7
:1028B000FF2B22D1431E03EB83036B4C04EB03136A
:1028C0005B5C7BB9431C03EB830304EB03135B5C8E
:1028D000FF2B07D1831C03EB830304EB03135B5C27
:1028E000002BBCD0002300EB80045F4D00E004E02F
:1028F00005EB041463540122F0E0431E03EB830351
:10290000594C04EB03144B1EE35CEBBB431E03EB7F
:102910008303554C04EB03135B5CABBB00EB800300
:1029200004EB03144B1EE35C73BB00EB80034E4CC3
:1029300004EB03144B1CE35CFF2B4CD1431C03EB57
:102940008303494C04EB03135B5CFF2B43D1431E11
:1029500003EB830304EB03135B5C73B9431C03EBCE
:10296000830304EB03135B5CFF2B06D1831C03EB97
:10297000830304EB03135B5C53B1002300EB80047F
:10298000394D05EB041400E025E063540122A5E075
:1029900000EB8003344C04EB03144B1EE35C8BB957
:1029A00000EB8003304C04EB03144B1CE35CFF2B67
:1029B00008D100EB80032C4C04EB03148B1CE35C6C
:1029C000002B07D0002300EB8004274D05EB0414F7
:1029D0006354012282E000EB8003234C04EB0314D8
:1029E0004B1EE35CF3BB431C03EB83031E4C04EB65
:1029F00003144B1EE35CABBB431C03EB83031A4C79
:102A000004EB03135B5C6BBB431E03EB830304EB20
:102A100003135B5CFF2B2ED100EB800304EB03144C
:102A20004B1CE35C012B26D100EB80030E4C04EB26
:102A300003144B1EE35C83B900EB80030A4C04EBE8
:102A400003144B1CE35CFF2B07D100EB8003064C07
:102A500004EB03148B1CE35CF3B3002300EB800452
:102A6000014D03E007E000001013002005EB041403
:102A70006354012232E000EB8003284C04EB031482
:102A80004B1CE35C43BB431C03EB8303234C04EB71
:102A900003135B5C03BB431C03EB830304EB0314D2
:102AA0004B1CE35CC3B9431E03EB83031B4C04EBD9
:102AB00003135B5CFF2B11D100EB800304EB0314C9
:102AC0004B1EE35CFF2B09D1002300EB8004134D68
:102AD00005EB0414635400E000E00122491C4E2978
:102AE000FFF663AD401C3A28FFF65DAD002A7FF487
:102AF00057AD70BD10B53C200CE0002107E000226E
:102B000001EB8103064C04EB03131A54491C3C29C6
:102B1000F5DB401C5028F0DB10BD00001013002036
:102B2000903800204FF0E021096921F004014FF0B6
:102B3000E0221161C21700EB5272C2F3C702314B9F
:102B40001A701946097801EB4102C2EBC1114FF628
:102B5000FF7202EAC1012C4A118070470146294ADE
:102B600012784A434FF0E0235A6100229A61012211
:102B70001A6100BF4FF0E022106900F001021AB1A3
:102B800000F48032002AF5D000224FF0E0231A61D1
:102B90009A61704701461C4A12884A434FF0E0236D
:102BA0005A6100229A6101221A6100BF4FF0E022AF
:102BB000106900F001021AB100F48032002AF5D049
:102BC00000224FF0E0231A619A61704770B5044605
:102BD0004FF4077094FBF0F0C6B24FF4077094FB0B
:102BE000F0F100FB114085B205E04FF40770FFF7EC
:102BF000D1FF701EC6B2002EF7D115B12846FFF7DF
:102C0000C9FF70BD22000020240000204A0A5202A1
:102C10000243FE4B1A6070470146072323EA010274
:102C20001202FA4B1B1D18684FF6FF031840F84BB1
:102C300018431043F54B1B1D186070472DE9F041F8
:102C40000746884614461D462846FFF7E5FFC5F1AE
:102C5000040007FA00F60F20284100EA08000643A6
:102C600006F00F06E21704EBD2625211920002F155
:102C7000E022D2F800212146E31704EBD3635B1175
:102C8000A4EB431C012303FA0CF31A432046E31779
:102C900004EBD3635B119B0003F1E023C3F8002135
:102CA000DC48005D40EA0610DA490855BDE8F081CD
:102CB000F0B503460846CD1701EB9575AD10A1EBB5
:102CC0008505AD062C0ED448006840F48040D24DF6
:102CD0002860CD1701EB9575AE10D04D55F82650F4
:102CE0000F26A640B5430846CE1701EB9676B710DF
:102CF000CA4E46F82750CD1701EB9575AE10C74D5B
:102D000055F8265003FA04F63543CE1701EB9676B4
:102D1000B710C24E46F82750C148006801258D40C3
:102D20002843BF4D286002F0010040B1BC480C3080
:102D3000006801258D402843B94D0C35286002F00C
:102D4000020040B1B6480830006801258D40284394
:102D5000B34D08352860F0BD30B5CC1000F120032C
:102D600053F824304C07E50E0F24AC40A343CD109C
:102D700000F1200444F82530CC1000F1200353F872
:102D800024304C07E40E02FA04F42343CD1000F182
:102D9000200444F8253030BD2DE9F0470C46DDE92C
:102DA0000867002100258C4600BF60E04FF0010855
:102DB00008FA01F504EA050CAC4557D1D0F80080BB
:102DC0004FEA410A4FF0030909FA0AF928EA09080B
:102DD000C0F80080D0F800804FEA410902FA09F9F2
:102DE00048EA0908C0F80080012A01D0022A27D148
:102DF000D0F808804FEA410A4FF0030909FA0AF9AE
:102E000028EA0908C0F80880D0F808804FEA41098C
:102E100006FA09F948EA0908C0F80880D0F80490D1
:102E20004FF0010808FA01F829EA0809C0F80490EF
:102E3000D0F8048003FA01F948EA0908C0F80480D0
:102E4000D0F80C804FEA410A4FF0030909FA0AF959
:102E500028EA0908C0F80C80D0F80C804FEA410934
:102E600007FA09F948EA0908C0F80C80491C10293A
:102E70009CD3BDE8F08730BF704772B6704762B62A
:102E8000704700B561480830006840F004005F49B1
:102E9000083108606048001F006840F080505E49BB
:102EA000091F08605F48406840F480705D494860D1
:102EB0000846006840F0040008600846006840F0DA
:102EC00002000860FFF7D7FF00BD5148001D4F49C1
:102ED000091D08607047F0B504460D46002100202A
:102EE0004D4E443E366846F480364B4F443F3E607C
:102EF00001E04E1CB1B2484E443E366806F400363E
:102F00001EB941F6FF76B142F3DB41F6FF76B142DE
:102F100001D1012063E0404E361F366846F08056EE
:102F20003D4F3F1F3E603F4E366846F440463D4FA2
:102F30003E60394E3C3E366846F41446364F3C3FC0
:102F40003E60354E443E366826F08076324F443F30
:102F50003E6045EA84160127C7EB520746EA07465A
:102F600046EA036646F480062B4F403F3E603E1F14
:102F7000366846F080763F1F3E6000BF264E443ED6
:102F8000366806F00076002EF8D0274E366846F4F4
:102F90008076254F3E603E46366846F400763E60B9
:102FA0003E46366846F480663E603E46366846F0E9
:102FB00005063E60184E3C3E366826F00306164F66
:102FC0003C3F3E603E46366846F002063E6000BF2B
:102FD000114E3C3E366806F00C06082EF8D1F0BDC6
:102FE000F0B504460D4616461F460B4844380068A7
:102FF00040F00100084944390860002006493C3986
:103000000860054844380068084911E008ED00E010
:103010000000FA0500E400E04438024008380140AE
:10302000003C014000700040003C0240FFFFF6FE03
:1030300008400D4908600D48091D0860081F006818
:1030400020F48020091F0860002007490C31086027
:103050003B46324629462046FFF73DFF0021084601
:10306000FFF7D4FDF0BD000000380240103000240E
:10307000014600BF704700BF494A128802F0400273
:10308000002AF9D0C2B2464B9A80704710B5444826
:10309000008800F0200030B141488088C4B22A2C5A
:1030A00001D1FFF712FF10BDF0B52DED028B83B0FB
:1030B00005460E463B4905FB01F000EE100AF8EE0E
:1030C000400A300100EE100AB8EE400A80EE801A85
:1030D000B0EE418ABCEEC80A10EE100A84B200EECF
:1030E000104AB8EE400A38EE400AF3EE000A20EE2D
:1030F000200ABCEEC00A10EE107A4FF6FF7000EA0C
:103100000414E01984B22848006840F00100264900
:10311000086025481430006840F01000224914313E
:1031200008600120022100230A46CDE900104FF477
:10313000C0611E48FFF730FE072209211B48FFF738
:103140000BFE07220A211948FFF706FE14480481E6
:10315000808920F40040124988810846808940F027
:10316000080088810846808940F00400888108466C
:10317000808940F02000888102232522032108460F
:10318000FFF75CFD0648808940F4005004498881BF
:1031900003B0BDEC028BF0BDC1F308028280704722
:1031A0000010014040420F00303802400000024051
:1031B0007CB50025D848006840F00100D649086079
:1031C0000846006840F0040008600846006840F0C7
:1031D000100008600846006840F0200008600220E7
:1031E00000210B460A46CDE900100102CB48FFF74B
:1031F000D3FDCA481430006840F40070C749143148
:1032000008600120032100230246CDE900100A21B5
:10321000C348FFF7C1FDC2481430006840F00A00FF
:10322000BF4914310860022000210B460A46CDE94F
:103230000010FF21B948FFF7AFFDB848143000680F
:1032400040F0FF00B549143108600120032100233C
:103250000246CDE900102821B248FFF79DFDB14894
:10326000406940F02800AF49486101200321002354
:103270000246CDE900104103A948FFF78DFD4FF448
:103280000050A7491431086000F050F98021122045
:1032900000F035FA08B101207CBD3220FFF796FC22
:1032A0000B2000F04BFA0446732C01D00220F3E708
:1032B0000A2000F043FA0446762C01D00220EBE706
:1032C00000250DE0984A02EB45025178964A12F823
:1032D000150000F014FA0220FFF778FC681C85B294
:1032E000AE2DEFD30020D7E72DE9F0410446E725C6
:1032F00000260027012C06D0022C08D0032C0AD06F
:10330000042C10D10BE0E5255A265C270BE0E525BF
:103310005826602707E0E52584264C2703E0E525AD
:103320009626402700BF00BF2946132000F0E7F98A
:103330003146012000F0E3F93946022000F0DFF9C0
:10334000BDE8F0812DE9F0410446802522265E2764
:1033500034B1012C08D0032C0AD0042C10D10BE07E
:10336000402511262F270BE066251B264B2707E05B
:1033700099252826712703E0C02533268D2700BF15
:1033800000BF29464F2000F0BAF92946502000F02E
:10339000B6F90021512000F0B2F93146522000F078
:1033A000AEF93946532000F0AAF92946542000F01E
:1033B000A6F99E21582000F0A2F9BDE8F08170B571
:1033C0000446002534B1012C06D0032C06D0042C71
:1033D00008D105E0B02505E0982503E0182501E0B7
:1033E000302500BF00BF2946552000F088F970BD88
:1033F00070B50446402534B1012C06D0032C06D00C
:10340000042C08D105E0302505E0382503E05025DF
:1034100001E0602500BF00BF2946562000F06FF98B
:1034200070BD2DE9F04104460425C0268027072CF5
:103430001DD2DFE804F01C04080C10141800242529
:103440008026802713E01425802680270FE014258E
:10345000C02680270BE014254026402707E01425CE
:103460008026C02703E01425A026402700BF00BF08
:1034700029463A2000F043F93146682000F03FF930
:103480003946672000F03BF9BDE8F0812DE9F047AF
:1034900005460E469046994605EB48001FFA80FA0D
:1034A00006EB490087B2B7F5447F02DDA7F544700B
:1034B00087B2032000F042F9044604F0F0040AF059
:1034C0000301284661F39F0004432146032000F0D6
:1034D00016F9C5F38701192000F011F9CAF3870125
:1034E0001A2000F00CF9322000F028F9044604F00C
:1034F000C00407F00701304661F3DF000443C6F360
:10350000C701172000F0FBF8C7F3C701182000F02F
:10351000F6F8BDE8F08700003038024000140240A1
:103520000008024000100240965900081CB5974858
:10353000006840F010009549086001200221002336
:103540000246CDE9001050219148FFF725FC904834
:10355000406940F050008E4948610846006820F4F8
:10356000405008600846006840F4805008601CBD68
:1035700010B50120874908608749C1F8900278207A
:10358000FFF7ECFA0020834908607820FFF7E6FA9D
:1035900000208149C1F8900210BD10B500207D497E
:1035A00008607820FFF7DAFA01207B49C1F8900221
:1035B0007820FFF7D3FA0120764908607820FFF7DA
:1035C000CDFA10BD10B57820FFF7C8FA0120714977
:1035D00008607149C1F890027820FFF7BFFA002017
:1035E0006C49083908607820FFF7B8FA00206A496A
:1035F000C1F898027820FFF7B1FA10BD70B5044603
:1036000000261BE004F0800018B101206149086029
:1036100002E000205F4908606006040E7820FFF792
:103620009DFA01205B49083908607820FFF796FA77
:1036300000205949C1F89002701CC6B2082EE1DB87
:103640005348006820F4405051490860084600681B
:1036500008607820FFF782FA01204E490839086097
:103660007820FFF77BFA4C48D0F8180208B1012502
:1036700000E00025002047490839086044480068F8
:1036800020F44050424908600846006840F48050E9
:103690000860284670BD70B500243D48006820F4DD
:1036A00040503B490860084600680860082517E05C
:1036B0007820FFF753FA0120364908390860600680
:1036C000040E3548D0F8180208B1601CC4B2782046
:1036D000FFF744FA00202F4908390860681EC5B278
:1036E000002DE5DC2A48006820F440502849086095
:1036F0000846006840F480500860204670BD70B5F0
:1037000005460C460026FFF733FF4220FFF776FF01
:1037100000B10126DC20FFF721FA2846FFF76EFFF3
:1037200000B10126DC20FFF719FA2046FFF766FFFB
:1037300000B10126FFF731FF304670BD70B5044679
:103740000025FFF715FF4220FFF758FFDC20FFF7A9
:1037500005FA2046FFF752FFDC20FFF7FFF9FFF7DD
:103760001CFFDC20FFF7FAF9FFF702FF4320FFF709
:1037700045FFDC20FFF7F2F9FFF78DFF0546FFF765
:1037800021FFFFF70AFF284670BD000030380240D5
:1037900000100240980242420000424270B50546C5
:1037A0000C46F948006840F00400F7490860F74803
:1037B0000560001F0480F5482038008840F00100B3
:1037C000F24920390880081D008820F00100091DF9
:1037D000088002231E2200210120FFF72FFAEB4868
:1037E0002C38008840F00100E8492C39088070BD71
:1037F00070B505460C46E448006840F00200E24916
:103800000860E3480560001F0480E1482038008814
:1038100040F00100DE4920390880081D008820F0B2
:103820000100091D088002231D2200210120FFF74D
:1038300005FAD7482C38008840F00100D4492C39CB
:10384000088070BD70B505460C46CF48001D006865
:1038500040F01000CC49091D0860CE48C5620485BF
:10386000808940F00100CB4988810846008A20F019
:10387000010008820223182200210120FFF7DEF94F
:10388000C448008840F00100C249088070BD70B58E
:1038900004460D46BC48006840F00100BA49086083
:1038A0000806C4620585008B40F001000906088304
:1038B0000846008B40F0100008830846008B088300
:1038C0000846008C08840846008C40F001000884FB
:1038D0000846808940F0020088810846808940F0CF
:1038E000010088810846008840F00100088002231A
:1038F0001C2200211846FFF7A1F970BD70B50546DE
:103900000C46A148006840F008009F490860A248A2
:103910000560001F0480A0482038008840F00100A6
:103920009D49203908809C482C38008840F00100CF
:1039300099492C39088098481C38008820F00100EB
:1039400095491C3908800223322200210120FFF70B
:1039500075F970BD4FF08041088A9049097801F0EF
:103960008001002948D100F00101D1B18B490978CB
:1039700001F04001A9B18949097801F03F013F29CF
:103980000AD18649097841F08001844A11704FF6C6
:10399000FF71834A118004E080490978491C7F4AFD
:1039A000117000F0020139B37C49097801F040013F
:1039B00099B17A49097841F08001784A11704FF045
:1039C0008041496B764A11804FF08041098C21F08B
:1039D00002014FF0804211840EE00021704A1180F4
:1039E00040216E4A117000214FF080425162114611
:1039F000098C41F00201118400214FF080421182B4
:103A0000704710B52DED048B00F0AAFB63480078D9
:103A100000F0800000284AD06048007800F03F00A5
:103A200060490880084600884FF6FF7101EA0040AF
:103A30005C49088008460088594909880844594962
:103A400008800846008801F043FC41EC190B9FED0B
:103A5000560B53EC102B01F08BFC41EC180B01F0D2
:103A6000F3FB534908800846008800EE100AB8EEC0
:103A7000400AF3EE050AB4EEE00AF1EE10FA10D2B5
:103A80000846008800EE100AB8EE400AF1EE000A7F
:103A9000B4EEE00AF1EE10FA03DD002045490860BB
:103AA00002E001204349086000203C4908703A4880
:103AB0001C38008820F0010037491C390880BDEC13
:103AC000048B10BD10B532482C38008800203049D6
:103AD0002C39088038480078401C3749087008465F
:103AE0000078022807DA2A481C38008820F00100F4
:103AF00027491C39088030480078022843DB002021
:103B000023490839086022481C38008800F0010069
:103B1000002838D01E481C38008820F001001C49BD
:103B20001C3908802548006860BB2548007848BBE0
:103B3000012022497C31086014482C38008840F06C
:103B4000010012492C3908801EA000F029FBC82072
:103B5000FFF73CF800210846FCF7DBFC00201A497F
:103B6000C1F89802FCF786FFFEF783FAFDF7CFFD58
:103B7000FDF7E8FFFDF7FBFEFDF7E4FF0120134929
:103B800008705BE024E060E0403802402C08004010
:103B90002C040040004001402C0C00403600002066
:103BA00038000020320000209CC420B07268913F91
:103BB00034000020AC0241422E0000200C82414221
:103BC0003D000020303000000080414220000020F5
:103BD0006548006858BB65480078012827D16249CC
:103BE0007C3108606248008840F00100604908802C
:103BF00060A000F0D5FAC820FEF7E8FF00210846D3
:103C0000FCF787FCFCF7EFFFFEF774FFFDF77FFD85
:103C1000FDF798FF00205849C1F8980252498431B5
:103C200008600120554908605549087006E00020E9
:103C30004D498C3108605049C1F8900251480078D4
:103C4000FF2802D101204F49087010BD10B54E4821
:103C5000008800204C4908804C480078401C4B49A3
:103C6000087008460078022805DA4748008A20F0E4
:103C700001004549088245480078022835DB0020CC
:103C8000414948620846008A00F0010068B336489E
:103C90001030006801280AD1002034490870012042
:103CA00031498C3108603AA000F07AFA0CE02E48D5
:103CB0001030006840B901202C4908702A4984312D
:103CC000086034A000F06CFA00202C49091D08603F
:103CD0003148008840F001002F4908802B480078C7
:103CE000FF2802D10120294908702748008A20F0C6
:103CF00001002549088210BD1D48008800201C498C
:103D0000088026480078401C24490870084600783E
:103D1000022807DA16481030008820F00100144904
:103D2000103108801D480078022813DB002010495C
:103D3000243108600E481030008800F0010048B1BE
:103D400001201749087017480078FF2802D1012088
:103D50001449087006481030008820F0010004491A
:103D600010310880704700000C8241423D00002065
:103D70000008004031310000008041428C82404206
:103D8000200000202E0000200040014031000020D3
:103D9000300000003100000000040040300000202E
:103DA000010000202F00002010B54148006800F4F9
:103DB0000070C0B14FF400703D49086000203D49DB
:103DC00008600120FEF7CAFE01203B49C1F88C02C1
:103DD0003A49C1F88C023A480078401C38490870CA
:103DE000C820FEF7BBFE10BD3148006800F0080097
:103DF000002842D008202E49086032480068012877
:103E00002BD1801E304908603049086000203049BD
:103E100008702C49843108602E49C1F8980229495C
:103E20007C3108602C4908702C4908702C490860C6
:103E30002C4908702C4908704FF080400088002001
:103E40004FF08041088048622848008800202749B8
:103E500008802649243108600FE02048007860B9C6
:103E60001848006848B901201D49091D08608007ED
:103E7000008840F0010089060880704710B50222D2
:103E800009210520FEF714FF02231722002108460E
:103E9000FEF7D4FE10BD10B5032211461046FEF702
:103EA00007FF0223092219460020FEF7C7FE10BDB6
:103EB000143C01408C024242000042420000414258
:103EC0003C0000200C824142100000201400002021
:103ED0003D00002000804142200000203E000020E4
:103EE0008C824042000000200100002000080040B9
:103EF0002DE9F0410C461546069E4C4FB84209D9B3
:103F000039464B4F3F6847F48007DFF824C1CCF8AF
:103F1000007008E04749464F3F6847F40017DFF854
:103F200010C1CCF8007000BF076807F00107002F30
:103F3000FAD1471A103F4FF0180CB7FBFCF7FAB252
:103F4000062A10DBCF68A2F1060C0CEB4C0C4FEAF2
:103F50004C0C0CF1100C4FF03D0808FA0CF847EA35
:103F60000807CF602FE0042A0EDBCF68A2F1040C13
:103F70000CEB4C0C4FEA4C084FF03D0C0CFA08FCD3
:103F800047EA0C07CF601EE0022A10DB8F68A2F11F
:103F9000020C0CEB4C0C4FEA4C0C0CF1100C4FF0DB
:103FA0003D0808FA0CF847EA08078F600BE08F68B5
:103FB00002EB420C4FEA4C084FF03D0C0CFA08FCA7
:103FC00047EA0C078F608560C36046600027076082
:103FD000076847F0400707600768076007680760E1
:103FE000076847F48067076007680760076807602D
:103FF000076847F48037076007680760076807604D
:10400000076847EA44670760BDE8F081026822F06C
:104010000102026000BF026802F00102002AFAD128
:104020004160026842F00102026070470064024091
:1040300030380240006002401CB54F48006840F034
:1040400008004D4908600846006840F0020008601A
:104050000846006840F004000860012003210023A6
:104060000246CDE9001001034448FEF795FE012009
:10407000032100230246CDE9001004213F48FEF74A
:104080008BFE0120032100230246CDE900104021D0
:104090003A48FEF781FE0120032100230246CDE9C4
:1040A000001008213648FEF777FE01200321002387
:1040B0000246CDE9001010213048FEF76DFE0120C8
:1040C000032100230246CDE9001010212C48FEF701
:1040D00063FE0120032100230246CDE900101021D8
:1040E0002748FEF759FE00200090034602460821AB
:1040F00001902248FEF750FE002000900346024641
:10410000802101901D48FEF747FE02200321002375
:104110000246CDE9001001211A48FEF73DFE0220BB
:10412000032100230122CDE9001001461548FEF7C6
:1041300033FE012200211348FEF70EFE0020124933
:1041400008601249C1F89802114908600E49083107
:1041500008600F49091D08600E49C1F884021CBDA2
:1041600010B501200C4908601420FEF7F7FC002070
:104170000849C1F8840210BD30380240000C0240EA
:104180000004024000000240888241420080414217
:104190008C8240420000404284024042704700004E
:1041A0000FB4044910B503AA029800F08FF810BCB0
:1041B0005DF814FB2800002010B5203AC0F00B80F9
:1041C000B1E81850203AA0E81850B1E81850A0E81B
:1041D0001850BFF4F5AF5FEA027C24BFB1E8185075
:1041E000A0E8185044BF18C918C0BDE810405FEAE5
:1041F000827C24BF51F8043B40F8043B08BF704761
:10420000D20728BF31F8023B48BF11F8012B28BF65
:1042100020F8023B48BF00F8012B70474FF0000226
:104220000429C0F0128010F0030C00F01B80CCF1C8
:10423000040CBCF1020F18BF00F8012BA8BF20F836
:10424000022BA1EB0C0100F00DB85FEAC17C24BF8A
:1042500000F8012B00F8012B48BF00F8012B704734
:104260004FF0000200B5134694469646203922BF0F
:10427000A0E80C50A0E80C50B1F12001BFF4F7AF5A
:10428000090728BFA0E80C5048BF0CC05DF804EB3C
:10429000890028BF40F8042B08BF704748BF20F8AA
:1042A000022B11F0804F18BF00F8012B70477047A8
:1042B00070477047704710B500F01AF8006810BDDD
:1042C00010B5044600F014F8046010BD074B70B53B
:1042D0000D467B4400F015F80446284600F024F80B
:1042E00010B14FF0FF3070BD204670BDA1EDFFFF53
:1042F000004870478033012001694A1C0261087838
:10430000704700B58FB0CDE9013100210591054915
:104310007944CDE903101146684600F032F80FB039
:1043200000BD0000E5FFFFFF007B00F0800070474C
:1043300000487047803301207546FFF7F9FFAE460D
:1043400005006946534620F00700854618B020B5A1
:10435000FBF77CFFBDE820404FF000064FF0000760
:104360004FF000084FF0000B21F00701AC46ACE81D
:10437000C009ACE8C009ACE8C009ACE8C0098D468A
:1043800070472DE9F04106460024D6E90170F56832
:104390008046304603E04146B847641C3046A84793
:1043A0000028F8D12046BDE8F0810446AFF3008034
:1043B0002046FBF732FF03B401984100009850EA11
:1043C000C12018BF04204A0D18BF40F0010040F280
:1043D000FF72B2EB515F08BF40F00200012808BF36
:1043E000052002B07047000010B52F499FED2C1B2F
:1043F0002DED020B84B0059820F000408842D8BF14
:104400009DED040B2DDD2949884209D1049840B95E
:104410004FF00100FFF754FF00F0A2FC06B010BD02
:1044200005DB9DED040B00F08FFC06B010BD684667
:104430009DED040B00F0A0F810F0030004BF9DED0B
:10444000021B9DED000B0CD001280ED09DED021B30
:104450009DED000B022817D0012000F0DDFB06B017
:1044600010BD00F0A5FA06B010BD9DED021B9DED3C
:10447000000B012000F0D0FB51EC100B00F09CFC75
:1044800006B041EC100B10BD00F092FA51EC100B8D
:1044900000F092FC06B041EC100B10BD00000000D3
:1044A0000000000000000000FB21E93F0000F07F59
:1044B00010B52F499FED2C1B2DED020B84B00598F4
:1044C00020F000408842DCBF00209DED040B32DD6F
:1044D0002849884209D1049840B94FF00100FFF7FC
:1044E000EFFE00F03DFC06B010BD05DB9DED040BBA
:1044F00000F02AFC06B010BD68469DED040B00F0EC
:104500003BF810F0030011D0012818D09DED021BDC
:104510009DED000B02281AD000F04AFA51EC100B66
:1045200000F04AFC06B041EC100B10BD9DED021BE3
:104530009DED000B012000F06FFB06B010BD9DED5E
:10454000021B9DED000B00F033FA06B010BD0120F8
:1045500000F062FB51EC100B00F02EFC06B041ECB9
:10456000100B10BD00000000000000000000000063
:10457000FB21E93F0000F07F2DE9F14F04462DEDCE
:10458000020B2DED088B8AB09FEDE70B80ED020B3F
:10459000139EE74826F0004585420ADC9DED120B8C
:1045A000002084ED000B0AB0BDEC088B03B0BDE821
:1045B000F08FE0489FEDE0AB9FEDE1BBA84247DD07
:1045C000E14F9FEDE39B9FEDE48B9DED120B53ECD0
:1045D0001A2B51EC100B002E1CDD01F009F841ECF8
:1045E000100BBD4208D053EC1B2B51EC100B00F00C
:1045F000FFFFC4E900010BE053EC192B51EC100B49
:1046000000F0F6FF53EC182B00F0F2FFC4E90001B4
:104610000120C8E700F0DCFB41EC100BBD4208D0E4
:1046200053EC1B2B51EC100B00F0D2FBC4E9000142
:104630000BE053EC192B51EC100B00F0C9FB53ECC1
:10464000182B00F0C5FBC4E900014FF0FF30AAE7CA
:10465000C348A84279DB9DED120B51EC100B00F022
:104660009FFB41EC180B9FEDC00B53EC102B00F09F
:104670007FFE9FEDBF1B53EC112B00F0A9FB00F058
:10468000B3FD074600F00DFE41EC190B53EC1A2B5D
:1046900000F06EFE53EC182B00F09EFF41EC180B5F
:1046A00053EC1B2B51EC190B00F062FEDFF8C8A293
:1046B00041EC100B4FEA15580125FA4453EC102B2E
:1046C00051EC180B00F094FF032DC4E900013DD01C
:1046D000C1F30A5005EB4511A8EB000011398142E6
:1046E00034DA0AEB051BB0EE48AA9BED000BF0EEA6
:1046F00068AA53EC102B51EC190B00F039FE41EC79
:104700001B0B51EC1A0B53EC1B2B00F071FF41EC0F
:10471000180B51EC1A0B53EC182B00F069FF53ECFB
:104720001B2B00F065FF9BED020B41EC1A0B53ECC9
:10473000102B51EC190B00F01BFE53EC1A2B00F060
:1047400057FF41EC100B6D1CB8E70EE0002EA8BF20
:104750003846BFF628AF94ED000B51EC100B00F07B
:104760002BFBC4E9000178421DE7C6F3130040F4B7
:10477000801EC6F30A50A0F2F530471100F01F0565
:10478000C5F12000DDF848B00890002006900790A1
:104790000520EC467949002D07EB0002794408BF5B
:1047A00051F8221009D051F8223001EB8201AB40C0
:1047B0004A68089922FA01F11943A1FB0E26A1FBD0
:1047C0000B131A449A4234BF0123002303EB06085B
:1047D0000CEB8003D3E901A60E448E4234BF0121C5
:1047E000002192448A4411B1924502D903E09245D6
:1047F00001D2012100E00021C3E901A641444CF8A7
:104800002010011EA0F10100C4DC029800F100504C
:10481000850F0298DDE903678000DDF8148000F061
:1048200040FD41EC1A0B304600F052FD9FED541B49
:1048300053EC112B00F09CFD41EC1B0B384600F0B3
:1048400047FD9FED511B53EC112B00F091FD41EC06
:10485000180B404600F03CFD9FED4D1B53EC112B17
:1048600000F086FD41EC190B51EC180B53EC192BA1
:1048700000F0AEFA53EC1B2B00F0AAFA53EC1A2B03
:1048800000F0A6FACDE90801002008909DED080B84
:1048900053EC1A2B51EC100B00F0AAFE53EC1B2B1F
:1048A00000F0A6FE53EC182B00F0A2FE53EC192BDF
:1048B00000F092FE9FED381B53EC112B00F058FDD9
:1048C0009FED370B41EC180B53EC102B9DED080BB3
:1048D00051EC100B00F04CFD53EC182B00F078FA63
:1048E0009FED310B41EC180B53EC102B9DED080B99
:1048F00051EC100B00F03CFD53EC182B00F068FA63
:1049000041EC100B139810F0004F06D06D4251ECA3
:10491000100B00F051FA41EC100B284684ED000B0F
:1049200041E6000000000000000000000000000060
:10493000FB21E93F7CD9024000004054FB21F93FB4
:104940003163621A61B4D03DFB21F93F00000000E1
:104950000000601A61B4D03D7370032E8A19A33B26
:10496000FB2139410000000083C8C96D305FE43F7E
:10497000000000000000E03F6A140000B8130000CF
:10498000000000000000103E000000000000103C8D
:10499000000000000000103A182D4454FB21F93D9E
:1049A0003326A611460B113C00000054FB21F93DB3
:1049B00010B52DED040B2DED088B82B0B0EE419AB1
:1049C000F0EE619A0B9820F000449FED4BABB4F1F0
:1049D000795F11DA9DED0A0B51EC100B00F004FC2D
:1049E000002801BFB0EE4A0AF0EE6A0A02B0BDEC40
:1049F000088B04BF04B010BD9DED0A0B53EC102BC7
:104A000051EC100B00F0B4FC41EC180B3C480621B3
:104A1000B0EE480AF0EE680A784400F081F853ECF2
:104A2000182B51EC100B00F0A3FC9DED0A0B41EC90
:104A30001B0B53EC192B51EC100B00F099FC41ECC3
:104A4000190B53EC1B2B51EC180B00F091FC53ECA1
:104A5000192B00F0CDFD9FED2C0B41EC190B53EC05
:104A6000102B51EC180B00F083FC41EC100B284884
:104A7000844210DA53EC192B51EC100B00F0B8FD06
:104A800053EC1A2B00F0A8FD41EC100B02B0BDEC6A
:104A9000088B04B010BD1F48A042BCBF9FED1E1B79
:104AA0008DED001B06DBA4F50010019000200090A6
:104AB0009DED001B51EC100B53EC112B00F098FDF9
:104AC0009DED000B41EC180B53EC102B51EC1A0B25
:104AD00000F08EFD41EC1A0B53EC192B51EC180B26
:104AE00000F086FD53EC1A2B00F076FD41EC100B24
:104AF000CCE7000000000000000000000000F03FD4
:104B0000DC10000000000000000000000000E03F9A
:104B10003333D33F0000E93F000000000000D23FE4
:104B200070B504462DED028B4D1E00EBC500B0EEB6
:104B3000408AF0EE608A90ED000B35F0060017D049
:104B400053EC182B51EC100B00F012FC41EC100B45
:104B50006D1E04EBC50090ED001B51EC100B53ECE7
:104B6000112B00F035F941EC100B35F00600E7D1C0
:104B7000022D36D0042D1CD0062D1CBFBDEC028B9F
:104B800070BD53EC182B51EC100B00F0F1FB94EDC1
:104B90000A1B53EC112B00F01BF953EC182B00F0FF
:104BA000E7FB94ED081B53EC112B00F011F941ECDD
:104BB000100B53EC182B51EC100B00F0D9FB94EDBB
:104BC000061B53EC112B00F003F953EC182B00F0EB
:104BD000CFFB94ED040B53EC102B00F0F9F841ECF3
:104BE000100B53EC182B51EC100B00F0C1FB94EDA3
:104BF000021B53EC112B00F0EBF853EC182B00F0D8
:104C0000B7FB94ED001B53EC112B00F0E1F8BDEC69
:104C1000028B41EC100B70BD31B504462DED040B39
:104C20002DED0A8BB0EE41BAF0EE61BA0B989DED16
:104C30000A0B20F00040B0F1795F0DDA51EC100B57
:104C4000FFF7B9FB042808BF00F09AF89DED0A0BA6
:104C5000BDEC0A8B05B030BD53EC102B51EC100BA2
:104C600000F086FB41EC180B9DED0A0B53EC182B62
:104C700051EC100B00F07CFB41EC190B2C48B0EE12
:104C8000480AF0EE680A05217844FFF749FF9FEDD6
:104C90002ACBB0EE40AAF0EE60AA9CB353EC1C2BDA
:104CA00051EC190B00F064FB41EC1C0B53EC1A2B7C
:104CB00051EC190B00F05CFB9FED210B41EC190B43
:104CC00053EC102B51EC1B0B00F052FB53EC192B47
:104CD00000F08EFC53EC182B00F04AFB53EC1B2B1E
:104CE00000F086FC53EC1C2B00F082FC9DED0A1BAF
:104CF00053EC112B00F070FCBDEC0A8B05B041ECBD
:104D0000100B30BDFFE753EC1A2B51EC180B00F0E1
:104D10002FFB53EC1C2B00F05BF853EC192B00F02D
:104D200027FB9DED0A1B53EC112B00F051F8E3E734
:104D3000640F000000000000495555555555C5BF8A
:104D4000000000000000E03F10B553EC102B51ECC8
:104D5000100B00F03DF841EC100B10BD00000000FE
:104D60009FED050B10B553EC102B51EC100B00F020
:104D7000E3F841EC100B10BD000000000000000043
:104D80009FED050B10B553EC102B51EC100B00F000
:104D9000EFFA41EC100B10BD000000000000001005
:104DA00082B0CDE9000121F0004001909DED000BA3
:104DB00002B051EC100B704781F00041704780F059
:104DC0000040704721F00041704720F000407047DC
:104DD00010B591EA030F48BF83F0004300F110843F
:104DE000841A71EB030C05D2121943EB0C03001B60
:104DF00061EB0C01DFF824E14FEA1154A4EB135CE2
:104E00001EEA430F18BF9EEA445F73D023EA0E03E5
:104E1000DCF1200E21EA045143F4801332D322FA4C
:104E20000CFE10EB0E0023FA0CFE41EB0E01CCF150
:104E3000200E03FA0EFE10EB0E0051F10001B1F549
:104E4000801FCCF1200E32D201EB045112FA0EF287
:104E5000BDE8104058BF7047401C38BF5FEA4202AF
:104E600018BF7047002814BF20F0010041F1000175
:104E70004FEA410313F5001F38BF7047A1F1C0414D
:104E800000F06EBB012A43EB0302ACF1200CDCF115
:104E90001F0E32BF4FF0000E23FA0CF310EB03008D
:104EA00041EB0451B4EB115FD0D0A1EB045101F5FB
:104EB000801149085FEA300001EB04510ED350F134
:104EC000000038BF12FA0EFE08D1BDE81040C9E755
:104ED000401C38BF5FEA4202CAD1C3E7BDE81040B8
:104EE0004FEA410313F5001F38BF7047A1F1C041DD
:104EF00000F036BB9EEA445F08D011EA5E0FBDE8C1
:104F0000104004BF01F0004100207047BDE8104090
:104F100070B500F0D7FA00BF64FBBE3E0000E0FFB2
:104F2000491058BFC1F140415B1058BFC3F1404325
:104F30008B42EFF3008070472DE9C04130B4DFF8B9
:104F4000A0C23CEA111418BF3CEA131400F0EC8034
:104F500081EA03051CEA111444EAD57418BF1CEA5F
:104F6000131500F0C780A4EB05044FF0004545EA97
:104F7000C12145EAC32341EA505143EA525304F1A7
:104F80007F74994204F500344FEAC0204FEAC222F0
:104F900008BF904200F09C804FEA13650FF2401664
:104FA000765D4FEA134506FB05F7C7F1807706FBF0
:104FB00007F74FEAD737A7FB03687642C8F5803872
:104FC000A7FB06CE38BFA8F1010807FB08E64FF0A3
:104FD000000EA6FB028CE6FB03CEDCF1000CCEF14A
:104FE000004E38BFAEF1010EA6FB0C584FF0000783
:104FF0004FF00005E6FB0E87A1FB08C6A0FB07CE1D
:1050000016EB0E0645F10005E1FB076515F1E04ED4
:105010007EBFA4F580345FEA46066D4116F1800735
:1050200045F100054FEA17274FEA066647EA05678C
:10503000A6F1DE46B6F1805F4FEA15251FD9384646
:1050400024F0010C05EBC471BCF1FE6F01EB0C11F7
:1050500002D8F0BCBDE8008124425CBF01F5801E8F
:105060009EEAC47F02D4F0BCBDE80081244238D45B
:10507000F0BCA1F1C041BDE8004100F071BA4FEAB7
:10508000D22242EA43524FEAD323A7FB02864FEAD9
:10509000D02040EA415007FB03661EEA0E0F4FEA9C
:1050A000D12105FB026658BFA6EB0056B6EB0056B1
:1050B0004FEA520E4EEAC37E18EB0E0E56EB530E1D
:1050C000BDD518EB02085E417F1C55F10005B6E71F
:1050D0004FF480154FF000074FF000064FF0000826
:1050E000ADE7F0BC4FF0000001F1C04101F000411C
:1050F000BDE8008111EA0C1F0CEA131500D00CE08A
:1051000013EA0C1F00F025804FF00000F0BC81EA8C
:10511000030101F00041BDE80081F0BCBDE80041A1
:1051200081EA030100F01CBAF0BCBDE8004170B593
:1051300000F0C8F9097EFC3E00F007B881EA0301DF
:105140004FF0000001F00041704781EA030100F0D8
:1051500007BAF0BCBDE800414FF00000214970479C
:10516000FFFDFBF9F7F5F4F2F0EEEDEBE9E8E6E42C
:10517000E3E1E0DEDDDBDAD8D7D5D4D3D1D0CFCDB3
:10518000CCCBCAC8C7C6C5C4C2C1C0BFBEBDBCBBEC
:10519000BAB9B8B7B6B5B4B3B2B1B0AFAEADACABE7
:1051A000AAA9A8A8A7A6A5A4A3A3A2A1A09F9F9EC1
:1051B0009D9C9C9B9A999998979796959594939373
:1051C000929191908F8F8E8E8D8C8C8B8B8A89890A
:1051D000888887878685858484838382828181808D
:1051E0000000FF070000F87F4FEA41034FEA5353E6
:1051F000A3F58063D3F11E03C8BFD3F1210C0CDDEE
:105200004FF0004242EAC12242EA505232FA03FC15
:105210008CEAE17CACEBE1707047102BC4BF00203E
:10522000704703F5787CBCF1FF3F04D06FF000427B
:1052300082EA2100704770B500F044F94992248059
:1052400000207047F2E700004FEA1153A3F5806396
:10525000D3F11E03A8BFD3F1200C08DB4FF00042AE
:1052600042EAC12252EA505232FA03F07047094230
:105270000BD4102BC4BF0020704703F5787CBCF121
:10528000FF3F05D04FF0FF3070474FF000007047F0
:1052900070B500F017F900BF4992248000207047D4
:1052A000F0E710F0004248BF4042B0FA80F310FA35
:1052B00003F10AD0C3F11D0303F580634FEA4150A7
:1052C00002EB035202EBD12170474FF00000704710
:1052D000B0FA80F310FA03F10AD0C3F11D0303F50D
:1052E00080634FEA41504FEA035202EBD1217047ED
:1052F0004FF000007047000051EA030C17D41CF572
:10530000801F58BFBCF5801F00F10680994218BF6E
:10531000704708BF9042704707D711F5801F58BFEC
:1053200013F5801F19D499427047894270471CF5C4
:10533000801F08D5BCF5801FF7D58B4218BF70477A
:1053400008BF824270474FF4001C1CEB410F38BF6E
:105350001CEB430F01D28B42704770B500F0B2F8DE
:10536000922449004FF000514FF08053FFF7D8BD11
:10537000DFF848C170B51CEA111E1EBF1CEA1315E8
:105380009EEA0C0F95EA0C0F00F06F8081EA03048F
:1053900023EA4C134EEAD47E21EA4C1141F48011E9
:1053A00043F48013AE44A1FB024CA0FB0365AEF1B5
:1053B0007F7E361955EB0C05A1FB034C4CF1000325
:1053C000A0FB021C16EB0C06654153F100030942D9
:1053D00018BF46F0010613F4007F0BD14FEA0331EA
:1053E0004FEA0530340341EA155140EA16506FF098
:1053F00003020AE04FEAC3214FEAC520F40241EA62
:10540000555140EA56506FF0020202EB2E4201EB7A
:10541000025585EACE710AD05FEA440C18BF24F029
:10542000004450F1000041F1000120EAD47040F244
:10543000FE7C624500D270BDA84214BF4FF080448C
:105440004FF04044002E08BF0024BEF1806FA8BF7B
:10545000A1F1C041BDE8704080F282804FF00000B1
:1054600001F1C04101F0004170479EEA0C0F0CEAC7
:10547000131518BF95EA0C0F06D04FF0000081EA13
:10548000030E0EF0004170BD00F01CF88900013ED3
:1054900000F007B800F009B84FEA430C5FEA5C5C23
:1054A00008D081EA030100F05BB84FEA410C5FEAE3
:1054B0005C5CF6D14FF00000014970470000FF0727
:1054C0000000F87F0EF1020E2EF0030E5EF8046B62
:1054D000364205D4012A43EB030515F5001F12D807
:1054E000012841EB010C1CF5001F0CD80ED14FEA2E
:1054F000D17C15F5001F0CEB4C0C0CF1020C08BF15
:105500004CEBD37C04E04FF0080C01E04FEAD37C75
:105510000CEB4C0526FA05F606F00706B6F1040C6E
:1055200006D20EEB860CBDE870404CF0010C6047D3
:10553000DFE80CF0090B02024FF000414FF00000D1
:10554000A1F5002170BD19461046012851EB010458
:1055500018BFD4F5001484BF002001F0004170BDD5
:105560000808A0F500114FEA3101704753EA010C19
:1055700017D41CF5801F58BFBCF5801F00F10680B2
:105580008B4218BF704708BF8242704707D713F598
:10559000801F58BF11F5801F19D48B4270479B4262
:1055A00070471CF5801F08D5BCF5801FF7D59942C0
:1055B00018BF704708BF904270474FF4001C1CEBA7
:1055C000430F38BF1CEB410F01D2994270470FB413
:1055D0000CBC03BCFFF7C1BE91EA030F10B581F00C
:1055E00000413FF5FDAB83F0004300F009B8000037
:1055F00010B591EA030F48BF83F000433FF5F0ABCD
:10560000841A71EB030C07D212198CF0004C43EB97
:105610000C03001B61EB0C01DFF8A4E14FEA11540D
:10562000A4EB135C1EEA430F18BF9EEA445F00F030
:10563000B08023EA6E03524221EA0451C3EB6E03A9
:1056400038BF5B1EDCF1200E25D322FA0CFE10EBD6
:105650000E0043FA0CFE41EB0E01CCF1200E03FAD2
:105660000EFE10EB0E0051F10001CCF1200E29D4FA
:1056700012FA0EF201EB0451BDE8104058BF70471A
:10568000401C1CBFB2F1004F704700280CBF491CE2
:1056900020F00100704712EB020E43EB030218BF2B
:1056A0004FF0010E4EEA4202ACF1200CDCF11E0E6E
:1056B00054D943FA0CFE10EB0E0051F1FF31CCF13E
:1056C0001E0ED5D50EF1010E12FA0EFE404141EB31
:1056D000010101EB445C5FEA5C5C10D910EBDE7009
:1056E00001EB045138BFBEF1004FBDE8104018BFB8
:1056F000704700280CBF491C20F00100704730D2D1
:105700004FEAD42C11F5001124F400641BD0B1FA37
:1057100081F20B3AA41AA41ED2F12003914030FA70
:1057200003F31943904001EBCC71002C01EB0451C1
:10573000BDE81040A8BF704701F1C0414FF0000024
:1057400001F000417047B0FA80F310FA03F100D184
:1057500010BDE41A173C4805C90AE4E701EB0451FF
:1057600010BD491001EB0451BDE810404FEA300074
:1057700002E04FF0000170474A0008BF0042F8D035
:10578000B2F5001F28BF704701F000414FF0000044
:1057900070479EEA445F07D011EA5E0FBDE81040F3
:1057A00004BF002100207047BDE8104070B5FFF72E
:1057B00089FE00BF40DFF63E83F00041104670478F
:1057C0000000E0FF43004FEAD30C4FEA3C0C43409B
:1057D0001FBF40070CF1605113F0FE4F70471CF0E3
:1057E000006F03D100200CF0004170470CF0004323
:1057F00043EA507010B540EACC0000F00EF800BF4C
:10580000000000924FEA0001FFF7AABE4FF00041EE
:105810004FF00000A1F5002170470EF1020E2EF0AE
:10582000030E5EF8044B244204D44FEA4102B2F165
:105830007F4F11D84FEA4003B3F17F4F0CD80ED100
:105840004FEAD07CB2F17F4F0CEB4C0C0CF1020C08
:1058500008BF4CEBD17C04E04FF0080C01E04FEAAC
:10586000D17C0CEB4C0324FA03F404F00704B4F1EC
:10587000040C06D20EEB840CBDE810404CF0010C79
:105880006047DFE80CF0070802024FF00040A0F587
:10589000800010BD0846420018BFD2F1807288BF58
:1058A00000F0004010BD4FF04070E1EE100A70476C
:1058B0003A044010121432801716180419021A7A8A
:1058C000030A0C0C15003E0070007101721173097F
:1058D000A20211007A207B1C7C287D3C7E557F68CB
:1058E000807681808288838F849685A386AF87C4E3
:1058F00088D789E813E0000010000D001420A505EA
:10590000AB072475256326A59F78A068A103A6DFB1
:10591000A7DFA8F0A990AA9413E50E610F4B160219
:105920001E27210222912907330B350B371D3871B1
:10593000392A3C784D404E20695D6B8074198D4F3B
:105940008E008F0090009100920096009A80B084A3
:10595000B10CB20EB382B80A431444F04534465831
:105960004728483A59885A885B445C675D495E0E0F
:10597000640465206605940495086C0A6D554F8093
:10598000508051005222535E548009036E116F9F64
:1059900055005640578012103A143D80671168FF39
:1059A00040C032801716180419021A7A030A0C0C28
:1059B00015003E007000710172117309A2021100FE
:1059C0007A207B1C7C287D3C7E557F688076818098
:1059D0008288838F849685A386AF87C488D789E819
:1059E00013E0000010000D001420A505AB0724757E
:1059F000256326A59F78A068A103A6DFA7DFA8F0EE
:105A0000A990AA9413E50E610F4B16021E272102DE
:105A100022912907330B350B371D3871392A3C7811
:105A20004D404E20695D6B4074198D4F8E008F0084
:105A300090009100920096009A80B084B10CB20E52
:105A4000B382B80A431444F0453446584728483ACC
:105A500059885A885B445C675D495E0E6404652022
:105A60006605940495086C0A6D554F80508051006E
:105A70005222535E548009036E116F9F55005640A9
:105A8000578000000000000000000000000000003F
:105A90000000000000000000000000000000000006
:105AA00000000000000000000000000000000000F6
:105AB00000000000000000000000000000000000E6
:105AC00000000000000000000000000000000000D6
:105AD00000000000000000000000000000000000C6
